:1000000080312B28013401347E14803120007F0898
:10001000F300911C1C282100911C1C282000911029
:1000200001302100A2070030A33D22082304031958
:100030001C28A201A301EE012100911D2628200009
:10004000911D26289111E330893130217308200059
:10005000FF007E10090080312D2880310220803180
:10006000F800803103208031F90021008731FF271B
:100070008031EE00B7308400893085002030860062
:10008000013087000030FF0028309731C7278031CA
:100090009D308400233085005330FE000030FF0087
:1000A0009731BB278031F601F701633084000030BF
:1000B00085000B30FE000030FF009731BB278031F8
:1000C000A0308400003085004A30FE000030FF0080
:1000D0009731BB27803148308400013085002030C3
:1000E000FE000030FF009731BB278031A030840034
:1000F000013085005030FE000030FF009731BB27F3
:10010000803120308400023085001230FE00003043
:10011000FF009731BB278031A0308400023085007A
:100120005030FE000030FF009731BB278031203077
:100130008400033085005030FE000030FF0097310E
:10014000BB278031A0308400033085005030FE0092
:100150000030FF009731BB277E1020009731562FCB
:10016000A129E330893151218031003A0319080077
:10017000973190278031003A031DDB2821002D03A1
:10018000031DD02801302000BD003D082100AE072E
:100190000B302E02031CD228973138278031D22809
:1001A0002100AE012100AD01AD0AAF01AF0A200070
:1001B000E401E40A0800973190278031013A031DD9
:1001C000080021002F03031D0800AD012000650871
:1001D000031DEF280230BD003D08E4000800033095
:1001E000BD003D08E4000800240011082000BD0007
:1001F0003D08E3006336BD003D08E300240011081C
:1002000001392000BD003D08E5006503031D1529E7
:100210006708203E86000330870001082400910013
:1002200001302000BD003D08E7070430BD003D0857
:10023000E400080097319A278031013A031D6629AE
:100240002100AF01EF3086002330870020006608D0
:1002500081009D30860023308700413181019D302F
:100260008600233087006308C03FC4015030440239
:1002700003185C294408A03E86000330870001086B
:10028000BD004408BE00BF019F30C0002330C10044
:100290003E084007C2003F08413DC30042088600B7
:1002A000430887003D0881000130BD003D08C407B8
:1002B00050304402031C3A29E130893172218031E7
:1002C0002000E601883114208031752924001108AE
:1002D0002000BD006608A03E8600033087003D0870
:1002E00081000130BD003D08E60704302000BD005C
:1002F0003D08E4000800973186278031003A031D4D
:10030000902920006708203E8600033087000108FE
:100310002400910001302000BD003D08E707962928
:100320002000E7012100AF018831242004302000A3
:10033000BD003D08E4000800240015162000E4017B
:100340000800200064088400053004020318080037
:1003500090310435283E820008007F2A2330200097
:10036000A0009030A100A030B0003008A2000430FE
:10037000B1003108A300893194218131043020007B
:10038000B00030082100B2006C30893172210800C1
:100390001D302000A0009030A100A030B000300837
:1003A000A2000530B1003108A300893194218131C8
:1003B00005302000B00030082100B2006C308931D7
:1003C000722108000C302000A0009030A100A03065
:1003D000B0003008A2000830B1003108A300893114
:1003E0009421813108302000B00030082100B20093
:1003F0006C308931722108000C302000A000903050
:10040000A100A030B0003008A2000830B1003108CF
:10041000A30089319421813108302000B0003008D8
:100420002100B2006C3089317221080097313C27DD
:1004300008009731D3270800230021088B31BE2301
:1004400008008831452008008831C520813120000E
:100450002408B7002308B6003708B000300825008C
:10046000A00020003608B00030082500A1000230AE
:100470002000B00030082100B2006C3089317221B8
:1004800008008831C520813120002408B7002308E6
:10049000B6003708B1003608B000B136B00CB1363E
:1004A000B00CB136B00C3008D83EB600FF30313D4C
:1004B000B7003708A8003608A7000A30A9000030A6
:1004C000AA0032308D314325813132302000A00026
:1004D0000030A100A030B0003008A2000230B1000E
:1004E0003108A30089319421813102302000B0000D
:1004F00030082100B2006C308931722108002300DD
:100500002008103A0319AE29303A0319C829013AD4
:100510000319E229033A0319FC29123A0319162A8E
:10052000013A0319192A703A03191C2A033A0319CC
:10053000212A073A0319242A033A0319412AA02A37
:100540000800E730893151218231003A031908004F
:100550008131AD218231732B8C319D240800230021
:1005600021082000B800B9013808B900B8013808DE
:10057000230022042100B800200039082100B9001E
:10058000BB30893172210800230021082000B80007
:10059000B9013808B900B801380823002204210045
:1005A000C200200039082100C300C5308931722102
:1005B0000800230021082000B800B9013808B9005C
:1005C000B8013808230022042100CC00200039089B
:1005D0002100CD00CF30893172210800230021088D
:1005E0002000B800B9013808B900B8013808230064
:1005F00022042100D600200039082100D700D9307C
:10060000893172210800230021082000B800B901B7
:100610003808B900B8013808230022042100B800C6
:10062000200039082100B900230021082000B8006B
:10063000B9013808B900B8013808230022042100A4
:10064000C200200039082100C30023002108200037
:10065000B800B9013808B900B801380823002204ED
:100660002100CC00200039082100CD002300210802
:100670002000B800B9013808B900B80138082300D3
:1006800022042100D600200039082100D700BB3009
:10069000893172218231C530893172218231CF3066
:1006A000893172218231D9308931722108002000CC
:1006B0006A08B8000330B835890B5B2B6908B900AC
:1006C0000230B935890B612B68353904380476045A
:1006D000BA003A082500A0002100B201B20A6C302D
:1006E00089317221080023002008503A0319AC2AEE
:1006F000013A0319AF2A033A0319C42A013A03192C
:10070000D92A073A0319EE2A013A0319032B353A7D
:100710000319572B8C2B080008002000E201E2018E
:100720000A30840090308500003F2200E800013F3D
:10073000E900200062082200EA00EB0169086B0270
:10074000031DA42B68086A02031808002000620831
:100750002200E8000230E835FF3E031DAB2B683570
:10076000053E203E860001308700403FE900413FC2
:10077000EA00200062082200EB000230EB35FF3E69
:10078000031DBE2B6B35033E203E860001308700E3
:10079000403FEC00413FED006A086D02031DD22B83
:1007A00069086C02031C1E2C200062082200E8006D
:1007B0000230E835FF3E031DD92B6835033E203E4D
:1007C0008600013087000030C03FC13F2000620832
:1007D0002200E8000230E835FF3E031DEB2B6835B0
:1007E000023E203E8600013087008101810A200000
:1007F00062082200E8000230E835FF3E031DFC2BB2
:100800006835073E203E8600013087000108E90078
:1008100069082000BC0062082200EA000230EA35C4
:10082000FF3E031D0F2C6A35203E860001308700F5
:10083000413F8A00403F0A008431422C2000620878
:100840002200E8000230E835FF3E031D232C683506
:10085000033E203E86000130870001308107413190
:100860000318810A200062082200E8000230E835FF
:10087000FF3E031D372C6835023E203E86000130C6
:100880008700810101302200E80068082000E207AB
:100890000A30840090308500003F2200E800013FCC
:1008A000982B2000A20021000D170D162000220811
:1008B0008600013087000108A0002008240095046C
:1008C0002000220A8600013087000108A0000230C3
:1008D000A035FF3E031D682C2035A100210824000F
:1008E000960420002208033E86000130870001089C
:1008F000A000200824009604200022080A3E86005A
:10090000013087000108A0000630A035FF3E031D1E
:10091000852C2035A10021082400960420002208FF
:10092000043E8600013087000108A0000530A03594
:10093000FF3E031D972C2035A100210824009704B9
:1009400020002208053E8600013087000108A00033
:100950000430A035FF3E031DA92C2035A10021083D
:100960002400970420002208063E860001308700FC
:100970000108A0000330A035FF3E031DBB2C20352D
:10098000A10021082400970420002208073E8600C9
:10099000013087000108A0000130A035FF3E031D93
:1009A000CD2C2035A1002108240097042000220826
:1009B000083E8600013087000135A0002008240091
:1009C000970420002208093E8600013087000108B4
:1009D000A00020082400970420002208023E860080
:1009E000013087000108A0000430A035FF3E031D40
:1009F000F52C2035A1002108240095042000911138
:100A00002100911588311420843188312420080078
:100A10002000BC000030C1000030C0000030BF002A
:100A20000030BE003308B400B5013408A200350818
:100A3000A3003208B600B7013608A0003708A100AD
:100A40008831F720853120002008B8002108B9003E
:100A5000BA01BB013B08A7003A08A6003908A50067
:100A60003808A4003008A8003108A900AA01AB0189
:100A70008A318D22853120002708C1002608C00058
:100A80002508BF002408BE004108A3004008A200BA
:100A90003F08A1003E08A0000030A7003D30A6009E
:100AA0000930A5000030A4008C31F02485312000ED
:100AB0002308031DBA2D2208031DBA2D013021027F
:100AC000031CAB2DBA2D4108A3004008A2003F082B
:100AD000A1003E08A0000030A7003D30A60009306C
:100AE000A5000030A4008C31F024853120002008BE
:100AF0009B00B72D4108A3004008A2003F08A100B9
:100B00003E08A0000030A7003D30A6000930A50037
:100B10000030A4008C31F02485312000200828000A
:100B20009600B72D20004108A3004008A2003F080E
:100B3000A1003E08A0000030A7003D30A60009300B
:100B4000A5000030A4008C31F0248531200020085D
:100B500028009D00B72D20003C08023A0319632DA0
:100B6000063A03197A2D023A0319922DB72D200067
:100B7000BD01BC2DBD01BD0A3D0808002030860026
:100B80000230870050308400003085001230200091
:100B9000BD0016001A00BD0BC92D4830860001307B
:100BA00087003E308400003085000C30BD00160008
:100BB0001A00BD0BD72D652E21008E128C120C1140
:100BC0000E1322008E128C120C110E1321000C1623
:100BD0000E168E158E172000D401D40ADE01DE0A0F
:100BE000DD01DD0AE101E10A503086316F268531F1
:100BF00000309731752785313E308E310D26853195
:100C0000013097316D278531003097316527853167
:100C100003302000BD003D08CC00CF01CD01CE0146
:100C2000CB01CB0ACA01CA0A4A308B3187238531EE
:100C30002100B301B401B501B601B701B801B90192
:100C4000BA01BA0ABB01BC01BD01BE01BF01C001AE
:100C5000C101C201C30102302000BD003D082100D6
:100C6000C400C501C601C701C801C901CA01CB0141
:100C7000CC01CD0103302000BD003D082100CE0095
:100C8000CF01D001D101D201D301D401D501D601C8
:100C9000D70104302000BD003D082100D800D90153
:100CA000DA0108008A3108228531B3308E317D2681
:100CB0008531BD308E317D268531C7308E317D2620
:100CC0008531D1308E317D26080020006B08003A36
:100CD0000319DC2D013A0319522E6E2E0800F40080
:100CE00024008C01740886008701010C031C0C1081
:100CF00003180C14740A86008701010C031C8C1065
:100D000003188C147408023E86008701010C031C32
:100D10000C1103180C157408033E86008701010CA2
:100D2000031C8C1103188C157408043E860087017F
:100D3000010C031C0C1203180C167408053E8600E7
:100D40008701010C031C8C1203188C168D0174088A
:100D5000063E86008701010C031C0D1203180D16B8
:100D60007408073E86008701010C031C8D120318CE
:100D70008D167408083E86008701010C031C0D13B4
:100D800003180D177408093E86008701010C031C27
:100D90008D1303188D178E0174080A3E8600870193
:100DA000010C031C0E1003180E1474080B3E860071
:100DB0008701010C031C8E1003188E1474080C3E5E
:100DC00086008701010C031C0E1103180E15740810
:100DD0000D3E86008701010C031C8E1103188E1531
:100DE00074080E3E86008701010C031C0E120318C6
:100DF0000E1674080F3E86008701010C031C8E122C
:100E000003188E167408103E86008701010C031C1F
:100E10000E1303180E177408113E86008701010C8B
:100E2000031C8E1303188E170800F500A22F7508F7
:100E3000083E86000130870001082000A700750ADF
:100E4000860001308700270881007508642F750827
:100E5000023E8600013087000130810741310318CE
:100E6000810A750A8600013087000108031D6A2F78
:100E70000A302000A0000030A1007508063E860060
:100E800001308700403FA200413FA3008B31522335
:100E900087317508023E860001308700403F200000
:100EA000A700413FA80021082802031D592F200850
:100EB0002702031CAE2F7508023E86000130870012
:100EC0000030C03FC13F750A8600013087008101B4
:100ED000810AAE2F750A8600013087000103031DC9
:100EE000AE2F0A302000A0000030A1007508043E9B
:100EF000860001308700403FA200413FA3008B31B4
:100F0000522387317508023E860001308700403F3A
:100F10002000A700413FA80021082802031D922FAE
:100F200020082702031CAE2F7508023E8600013000
:100F300087000030C03FC13F750A8600013087003E
:100F40008101AE2F75088600013087000108003A44
:100F50000319172F013A0319272FAE2F750A8600A0
:100F600001308700010808002000C4004208860004
:100F700087010108C3004308F40042088600870186
:100F8000413FF50044088E31F726873120004208A2
:100F9000023E860087010103031DD12FF401F40AEC
:100FA000D32FF401200044088931DF21873120004C
:100FB0004208033E86008701403FB000413FB10038
:100FC0004208860087010108C3004308B2004208B6
:100FD00086008701413FB3004408853108258731E9
:100FE000013A0319F22F20004208053E86008701CE
:100FF0000103031D080044088831972008000134CC
:1010000021001D0C013908002000A0000D287508E2
:101010002100E0007408DF00080020002008013AE9
:101020000319072813280800F5015030750203182A
:1010300008007508A03E860003308700810101305A
:10104000F4007408F5071528F501503075020318EF
:1010500008007508203E86000330870081010130BA
:10106000F4007408F50725288C310024883120000D
:10107000EB01EB0A21006E08031D3A2883318D2312
:1010800088312100EE01EE0A3A2803307906031D6B
:10109000080023002103031D5328F401F40A013042
:1010A0009731E0270800F40101309731E02708006C
:1010B0000630F40074082200D400D501D601D60A07
:1010C000D701D801D80AD901D90ADA01DB01DC013C
:1010D000DD01DE01DE0A08007728883158208831DA
:1010E00054308431512408008F31722708002000C9
:1010F0006B08003A03196D28013A031974288028F7
:1011000008008D280B309731A427883101309731A2
:101110005D27080097313A27080020006B08003A45
:1011200003198228013A03198A2896280800F40036
:10113000A22820001C150800280017150800280008
:101140001E1508007408023A03199928063A031973
:101150009C28023A03199F28AD2808002000C601E8
:10116000C60A0830C5004508C700C801C80A1030C3
:10117000C9002730CA00CB01CB0A4630C50045085C
:10118000C20002308731B42708001D309731AF27E5
:10119000883197313F278831883100208831003AE3
:1011A0000319CC289731F02775082000A600740891
:1011B000A5002608A4002508A3000800F400F128D3
:1011C000200021082200E400200020082200E30083
:1011D000200023082200E600200022082200E5006B
:1011E00008007408013A0319E028F6280800F40101
:1011F000F5012000201C00292208F4072308F53DF2
:101200000130A235A30D890B01290130A136A00CB4
:10121000890B062920082104031DF9287508A1005F
:101220007408A00008002000A200A301A301740814
:1012300023020318080023082207A00020088600C4
:10124000023087000108A1002308203E86000330F9
:101250008700210881000130A0002008A30717297A
:10126000F100F201710886008701023001060319BE
:101270004C297108860087010330010603194C29A7
:101280000230F000710A8600870170088100023088
:10129000F0007008F20008000330F0007008F2005F
:1012A0000800F500F40175088600870101030319A1
:1012B000702975088600870103300106031970291B
:1012C000750A8600870102300106031D6F29750A21
:1012D000860087018101810AF401F40A7029F40172
:1012E000740808002000A100A001210886008701E1
:1012F0000230010603198F29210886008701033077
:10130000010603198F290230F400210A86008701A3
:10131000740881000230F4007408A0000800033053
:10132000F4007408A0000800F401F4012000230870
:1013300074020318080020002108A5002008A4005A
:1013400074082407840025080318250A850000086E
:10135000A60074082207A70027088600023087002D
:10136000260881000130A4002408F4079629B0342F
:1013700000340034003400340134003400346C3460
:101380000834003400340034013400340034813433
:101390000834003400340034E834033400341F349B
:1013A0000B34003400340034643400340034BE3470
:1013B0000534003400340034643400340034F50063
:1013C000FC2920009110740C2100031C91100318BB
:1013D0009114080020009310740C2100031C93103A
:1013E00003189314080020009311740C2100031CAF
:1013F00093110318931508007508023A0319E1299F
:10140000063A0319EA29023A0319F329072A0800C0
:10141000262A01302000BB003B082100AB070A3020
:101420002B02031C08008A31BD222100AA01AA0A4E
:101430000800E5308931722102302000BB003B08F2
:101440002100AA0008008231A122080021002A08F8
:10145000003A0319092A013A0319192A033A031910
:10146000232A322A080020002008210403195B2ABD
:10147000F501F50AA11B462A0130A035A10D890B03
:101480003D2A0130F4007408F5073A2A21082302A6
:10149000031D4C2A20082202031C522A2008A20203
:1014A0002108A33B0130A136A00C890B532A01303F
:1014B000F502031D462A2308A1002208A000080007
:1014C000F5007E2A740C2200031C8E1203188E165F
:1014D0000800740C2200031C8C1203188C160800E0
:1014E000740C2200031C0C1103180C150800740C5A
:1014F0002200031C0E1303180E1708007508013A8A
:101500000319622A033A0319692A013A0319702A56
:10151000073A0319772A8C2A080000302000AF0010
:101520000030AE000030AD000030AC00241CA02A1A
:101530002808AC072908AD3D2A08AE3D2B08AF3D71
:101540000130A835A90DAA0DAB0D890BA12A0130D8
:10155000A736A60CA50CA40C890BA82A27082604DC
:1015600025042404031D962A2F08A7002E08A60090
:101570002D08A5002C08A4000800031020008E1FD1
:1015800003140030093DF4000230F435FF3E031D22
:10159000C52A7435F5007508F70403108E1D031471
:1015A0000030093DF4000130F435FF3E031DD42A1C
:1015B0007435F5007508F70403100E1E031400308F
:1015C000093D0907F4007408F70403100C1E031406
:1015D0000030093DF4007408F70408002000B00052
:1015E000B1010C2BB1011D2BB101B10A1D2B2C082F
:1015F000873115278A312000AE002E080A2B3008CB
:10160000AE002E08A7002D088D31A5258A312000B7
:10161000AF002F08B1001D2B2B08860087010108A1
:10162000003A0319F22A013A0319F42A033A03197A
:10163000F72A013A0319FF2A1D2B31080800482B0D
:1016400021008D1322008D1301308B31BE23080041
:101650008C314E248B31E9302000BD003D08AB00B9
:101660005F30BE003E08AC00DB30BF003F08AD007D
:1016700001308A31EE222000C000C00CC00C2200D4
:101680000D08200040067F39400622008D0008002A
:1016900020006B08003A0319202B013A0319282B6C
:1016A000512B08002000A501A601200821040319E0
:1016B000822BA401A40AA11B672B0130A035A10D28
:1016C000890B5E2B0130F4007408A4075B2B0130FA
:1016D000A535A60D890B682B21082302031D722B4B
:1016E00020082202031C792B2008A2022108A33B18
:1016F00025140130A136A00C890B7A2B0130A402ED
:10170000031D672B2608A1002508A0000800F4008F
:10171000740886008701010C2100031C1D100318AA
:101720001D14740A86008701010C031C9E13031804
:101730009E177408023E86008701010C031C1E12CE
:1017400003181E167408033E86008701010C031C53
:101750001E1103181E157408043E860087011E081A
:101760000106FC3901069E007408053E86008701CB
:10177000010C031C11130318111708002000A50009
:10178000F12BF40101309731E027F90108003230E4
:10179000F4000030F500013088310420F901F90A25
:1017A000080032302000A0000030A100B630A200B6
:1017B0000330A30001308831DE208B31023020005D
:1017C000A4002408F40001309731E0270230200003
:1017D000A4002408F90008000330A4002408F9003C
:1017E00008002508003A0319C12B013A0319C72B39
:1017F000033A0319D12B013A0319EC2BFF2B0800F4
:101800002000E201E2010A30840090308500003FB0
:101810002100EA00013FEB00200062082100EC00FB
:10182000ED016B086D02031D172C6A086C0203188A
:101830000800200062082100EA000230EA35FF3E7D
:10184000031D1E2C6A35073E203E860001308700AE
:101850000108EB006B082000BC0062082100EC00CE
:101860000230EC35FF3E031D312C6C35203E8600E6
:1018700001308700413F8A00403F0A008C3101302F
:101880002100EA006A082000E2070A308400903054
:101890008500003F2100EA00013F0B2C902C7808C6
:1018A0002000A1002108F40001309731E027210039
:1018B000B101B10A08000130A0070030A13D00309D
:1018C0002102063003192002031C08007808031DBA
:1018D0006B2C01306C2C00302000A1002108F80096
:1018E0007808A1002108F40001309731E0278C31FD
:1018F0002100A001A10101302000A1002108210048
:10190000B00706303002031C0800F40101309731A3
:10191000E02702302000A10021082100B1000800CA
:1019200021003108003A03194F2C013A03195B2CAE
:10193000033A03199C2C9C2C08002300211CA32C87
:10194000F601F60AA42CF60121082000A0000130BF
:10195000A036890BA82C201CB02CE801E80AB12C79
:10196000E801230021082000A0000230A036890BE6
:10197000B62C201CBE2CE901E90ABF2CE90123008A
:1019800021082000A0000330A036890BC42C201CA5
:10199000CC2CEA01EA0ACD2CEA017608A000200846
:1019A000F40001308A3160228C3120006808A000E8
:1019B0002008F40002308A3160228C31200069084E
:1019C000A0002008F40003308A3160228C3120000E
:1019D0006A08A0002008F40004308A316022080060
:1019E00000302000AB000030AA000030A900003019
:1019F000A800230822042104200403193A2DAC0175
:101A0000AC0AA31B0F2D0130A035A10DA20DA30D13
:101A1000890B042D0130F4007408AC07012D01304E
:101A2000A835A90DAA0DAB0D890B102D230827028F
:101A3000031D242D22082602031D242D2108250222
:101A4000031D242D20082402031C2F2D2008A4028E
:101A50002108A53B2208A63B2308A73B28140130F8
:101A6000A336A20CA10CA00C890B302D0130AC02C6
:101A7000031D0F2D2B08A3002A08A2002908A1008E
:101A80002808A00008002000AF002808AD002708A3
:101A9000AC002A08A1002908A0002D08A3002C08EA
:101AA000A2008B3152238D3120002108AD00200887
:101AB000AC000130AB002B08AF072C082D04031D30
:101AC000492D2F088600870181010130AF022A08C5
:101AD000A1002908A0002808A3002708A2008A3135
:101AE00033228D3120002008AB002B08AE002A08DD
:101AF000A1002908A0002808A3002708A2008B3114
:101B000052238D3120002108A8002008A7000A30A8
:101B10002E02031C8F2D0730AB002B08AE07303090
:101B2000AB002B08AE072E08AB002F0886008701FC
:101B30002B0881000130AF0227082804031D672D00
:101B40000130AB002B08AF0708002000AA00F82DD9
:101B50002A0A860087018101810A2A0886008701F6
:101B60008101810A2A08023E86008701013081072F
:101B700041310318810A0A30A0000030A1002A0870
:101B8000043E86008701403FA200413FA3008B3105
:101B900052238D3120002A08023E86008701403FF3
:101BA000A800413FA90021082902031DD92D2008C2
:101BB0002802031C072E2A08023E860087010030F7
:101BC000C03FC13F2A0A8600870181010230A80078
:101BD0002A088600870128088100072E2A08860027
:101BE00087018101F40127089731E0278D31072E05
:101BF00020002A08860087010108003A0319A82D51
:101C0000013A0319B22D033A0319EE2D072E2000D5
:101C10002A0A8600870101080800F40023008C01CD
:101C2000740886008701010C031C0C1003180C14A7
:101C3000740A86008701010C031C8C1003188C1495
:101C40007408023E86008701010C031C0C11031866
:101C50000C157408033E86008701010C031C0C124E
:101C600003180C168D017408043E86008701010CD0
:101C7000031C0D1203180D167408053E860087011B
:101C8000010C031C8D1203188D168E017408063E7C
:101C900086008701010C031C0E1003180E14740833
:101CA000073E86008701010C031C8E1003188E145A
:101CB0007408083E86008701010C031C0E110318EE
:101CC0000E157408093E86008701010C031C8E1155
:101CD00003188E1574080A3E86008701010C031C48
:101CE0000E1303180E1774080B3E86008701010CB3
:101CF000031C8E1303188E1708002000A400EB2E7F
:101D00002408083E893151218E31003A0319080018
:101D1000F401F40A20002408073E86008701010828
:101D20008A31602220002408860087018101810A0F
:101D30000800240A86008701013081074131031819
:101D4000810A240A86008701403FA000413FA1008C
:101D500000302102643003192002031CBE2E240A25
:101D6000860087010030C03FC13F2408033E860043
:101D700087010130810741310318810A2408053E9B
:101D800086008701403FA000413FA1002408033E98
:101D900086008701403FA200413FA30021082302A3
:101DA000031DD42E20082202031C08002408033E31
:101DB000860087010030C03FC13FF4012408073E80
:101DC0008600870101088A316022200024088600ED
:101DD0008701810108002408860087010108003A74
:101DE0000319802E013A0319992EF62E08002000BF
:101DF000A100652F1C10FD2E1C149C100D2F1C1013
:101E00009C140D2F7408013A0319FA2E053A031990
:101E1000FC2E143A0319FF2E0D2F7508FF3EA0006B
:101E2000A00DA00DA00D1C082006873920069C00DF
:101E30000800280017101E2F2800171497102F2FA6
:101E40002800171097142F2F7408013A0319192F1F
:101E5000053A03191C2F143A0319202F2F2F750848
:101E6000FF3E2000A000A00DA00DA00D2800170827
:101E70002000200687392006280097000800280047
:101E80001E10442F28001E149E10552F28001E10CF
:101E90009E14552F7408013A03193F2F053A031970
:101EA000422F143A0319462F552F7508FF3E200084
:101EB000A000A00DA00DA00D28001E0820002006E7
:101EC0008739200628009E00080020002108023AD9
:101ED0000319022F063A0319242F023A03194A2F35
:101EE000712F08002000A901F62FE530893151211A
:101EF0008F31003A031908007708973145278F3151
:101F00007F3097314A272100AC01AC0A0800E1304C
:101F1000893151218F31003A0319D92F9D30860024
:101F2000233087000108770603199D2F9D30860016
:101F3000233087000108031D08009D3086002330F0
:101F4000870041310108031D08002000A90150301D
:101F500029020318C92F2908A400A5019F30A60053
:101F60002330A7002408260786002508273D870080
:101F70000108A8002908A03E860001308700280833
:101F800081000130A4002408A90750302902031C55
:101F9000AB2FE730893172218F317903031D08009F
:101FA00003302000A4002408F40001309731E0271A
:101FB00008006C30893151218F31003A0319080033
:101FC000210032082000A4002408F400A030893148
:101FD00013218F317903031D080003302000A40072
:101FE0002408F40001309731E027080021002C0874
:101FF000003A0319752F013A0319872FFF2F0800A4
:10200000013400340A34003464340034E8340334D6
:102010001034273405340034303431342E34303425
:1020200031342E34303430340034253464342E349A
:10203000253430343134753400345334423431343F
:102040003434303400344534433448344F3400346D
:102050008031B1288031F42881311A2981317B29DE
:0420600081319C2905
:102E7000010008006400080097313827080021008D
:102E80009D1408008B170B170800F40074352400FC
:102E900092000800F400743524009300080021001B
:102EA0009914783099041A180800532F97317D2708
:102EB00097318831342080312B28F400740C2100A4
:102EC000031C1710031817140800F400740C2200D8
:102ED000031C1712031817160800F400740C2200C4
:102EE000031C9712031897160800F400740C2100B5
:102EF000031C951303189517080097314F27973136
:102F00008831AE20973197314227080024001608F7
:102F1000F4000630F436890B8A2F74080139080052
:102F200024001408F4000530F436890B942F74083B
:102F30000139080024001408F4000430F436890B29
:102F40009E2F740801390800F5007508F400F40D8F
:102F5000210017087406C139740697000800F500AF
:102F60007508F400F40DF40D21001D087406833972
:102F700074069D0008006400800101310130FE02EA
:102F80000030FF3B7F087E0403190034BC2FFE0095
:102F900012001E000130FE020030FF3B7F087E045D
:102FA00003190034C82F22008C018D018E010030DE
:102FB00097315D2797316300013097315D27080015
:102FC0002000A000E92F7408F50075082100E90031
:102FD000080020002008013A0319E32FEF2F080012
:102FE000033021001C052000A0002008A2002100C1
:102FF0001B082000A1002208F5002108F4000800A9
:020000040001F9
:04000E00ECFFFFDF25
:00000001FF
