:1000000080312B28640008007E14803120007F0896
:10001000F300911C1C282100911C1C282000911029
:1000200001302100A7070030A83D27082804031944
:100030001C28A701A801EF012100911D26282000FE
:10004000911D26289111E4308831952073082000F5
:10005000FF007E10090080312D288731FF27803175
:10006000F9002100883100208031EF0087308400C2
:100070008930850020308600013087000030FF0085
:1000800028309631BE2680319D3084002330850093
:100090005330FE000030FF009631B2268031F60169
:1000A000F701F80164308400003085000A30FE005A
:1000B0000030FF009631B2268031A030840000303D
:1000C00085004B30FE000030FF009631B2268031B3
:1000D00048308400013085002730FE000030FF00EA
:1000E0009631B2268031A030840001308500503036
:1000F000FE000030FF009631B226803120308400AF
:10010000023085005030FE000030FF009631B226EC
:100110008031A0308400023085005030FE00003075
:10012000FF009631B22680312030840003308500F4
:100130005030FE000030FF009631B2267E102000C5
:1001400096314D2E483086000130870051308400B2
:100150000030850012302000BC0016001A00BC0BD5
:10016000AD285A308600013087003F3084000030CF
:1001700085000C30BC0016001A00BC0BBB28B0294F
:1001800021008E160E168E150E172000E001E00AD3
:10019000DF01DF0ADE01DE0AE101E10A51308631CA
:1001A000E4268031003096316C2680313F30873133
:1001B0008A278031013096316426803100309631B3
:1001C0005C26803103302000BC003C08CD00D0010B
:1001D000CE01CF01CC01CC0ACB01CB0A4B308B3105
:1001E0005023080001302000BC003C082100B30768
:1001F00029303302031CAD29B3018A310222803138
:10020000003A0319AB2921002008803A2000BC00E5
:1002100083303C02031D0F29E9302100210203181D
:10022000AD292100A01BAD297F3022052000BC0094
:100230003C08803ABD0083303D02031D2229213055
:10024000210023020318AD29210022082000BC0050
:100250000730BC36890B29293C080139BD003D080F
:100260002100BA0022087F392000BC00BD013C08F3
:10027000BD00BC013C0821002304A90020003D086A
:100280002100AA0020082000BC00BD013C08BD00E0
:10029000BC013C0821002104A50020003D082100EC
:1002A000A6000A302000A0000030A10021002A088A
:1002B0002000A300210029082000A2008C31E8249E
:1002C000803120002008BC003C08F6000A30A00065
:1002D0000030A10021002A082000A30021002908E5
:1002E0002000A2008C310924803120002008BC00AD
:1002F0003C08ED000A30A0000030A10021002608D3
:100300002000A300210025082000A2008B311B2320
:10031000803120002008BC003C08EA000A30A00020
:100320000030A100210026082000A300210025089C
:100330002000A2008A312E22803120002008BC003B
:100340003C08E9002100B801B80A3A080319AD29B0
:10035000F609F60AAD292100B8018931D821080033
:1003600020006C08003A0319C028013A0319F2284A
:10037000B9290800E8308831B6208131003A0319E4
:1003800008008331CA238131B92A76082000B800D9
:1003900038082300A00020006D08B80038082300AA
:1003A000A10002302000B80038082100B9007730E1
:1003B0008831F820080030302000B8003808A0004C
:1003C0000530A1000030A200D130883159208131A0
:1003D00076082000B000B101B01BB1030A30B200B2
:1003E0000030B300DF3089313D21813120006D08BC
:1003F000B800B9013808B0003908B1000A30B200BD
:100400000030B300DC3089313D218131DF30200004
:10041000B8003808F400D130883106208131283006
:10042000F4009030F500D130893161218131DC3028
:10043000F4000030F500D130893161218131A030E4
:10044000860001308700D13084008501053020000E
:10045000B80012001E00B80B292A05302000B80091
:1004600038082100B90077308831F82008002000D2
:100470006A08B80038082300A00020006908B80006
:1004800038082300A10002302000B80038082100FD
:10049000B90077308831F820080030302000B800EB
:1004A0003808A0000530A1000030A200CC3088310F
:1004B0005920813120006A08B800B9013808B0001D
:1004C0003908B1000A30B2000030B300D9308931A8
:1004D0003D21813120006908B800B9013808B00019
:1004E0003908B1000A30B2000030B300D63089318B
:1004F0003D218131D9302000B8003808F400CC30DB
:100500008831062081312830F4009030F500CC305D
:10051000893161218131D630F4000030F500CC30D2
:10052000893161218131A030860001308700CC30D3
:100530008400850104302000B80012001E00B80BB2
:100540009D2A04302000B80038082100B900773017
:100550008831F8200800210038082000B800380849
:100560002300A0002100B901B90A77308831F820B2
:10057000080024002008603A0319C529013A03192C
:10058000DB29033A0319372A013A03194D2A073A9E
:100590000319AB2ACC2A08000800BE2BE4308831AE
:1005A000B6208231003A031908009631872682313D
:1005B000003A031DF82A21003503031DED2A0130FE
:1005C0002000BC003C082100B6070B303602031C9B
:1005D000EF2A963135268231EF2A2100B60121001B
:1005E000B501B50AB701B70A2000E501E50A080020
:1005F000963187268231013A031D08002100370316
:10060000031D0800B50120006608031D0C2B0230F5
:10061000BC003C08E50008000330BC003C08E500D5
:100620000800240011082000BC003C08E4006436E7
:10063000BC003C08E4002400110801392000BC0083
:100640003C08E6006603031D322B6808A03E8600C6
:100650000230870001082400910001302000BC0016
:100660003C08E8070430BC003C08E500080096316F
:1006700091268231013A031D832B2100B701EF300F
:100680008600233087002000670881009D308600A7
:1006900023308700413181019D308600233087005F
:1006A0006408C03FC301503043020318792B43084C
:1006B000203E8600033087000108BC004308BD00CF
:1006C000BE019F30BF002330C0003D083F07C1007E
:1006D0003E08403DC20041088600420887003C08B1
:1006E00081000130BC003C08C30750304302031CAA
:1006F000572BE2308831F82082312000E701973112
:1007000007278231922B240011082000BC006708C3
:10071000203E8600033087003C0881000130BC0089
:100720003C08E70704302000BC003C08E500080056
:1007300096317D268231003A031DAD2B20006808DA
:10074000A03E86000230870001082400910001309D
:100750002000BC003C08E807B32B2000E801210082
:10076000B7019731172704302000BC003C08E50092
:100770000800240015162000E50108002000650887
:1007800084000530040203180800903104352A3E25
:10079000820008009C2C23302000A0009030A10093
:1007A000A030B0003008A2000430B1003108A3002E
:1007B00089311A21833104302000B0003008210033
:1007C000B90077308831F82008001D302000A000E3
:1007D0009030A100A030B0003008A2000530B10078
:1007E0003108A30089311A21833105302000B0007F
:1007F00030082100B90077308831F82008000C302B
:100800002000A0009030A100A030B0003008A2006D
:100810000830B1003108A30089311A218331083032
:100820002000B00030082100B90077308831F8206E
:1008300008000C302000A0009030A100A030B000D3
:100840003008A2000830B1003108A30089311A2114
:10085000833108302000B00030082100B900773023
:100860008831F82008009631372608009631CA26CC
:100870000800240021088B31C7230800973138274E
:1008800008009731CE27833120002408B7002308C1
:10089000B6003708B00030082300A000200036085A
:1008A000B00030082300A10002302000B000300862
:1008B0002100B90077308831F82008009731CE2721
:1008C000833120002408B7002308B6003708B100A0
:1008D0003608B000B136B00CB136B00CB136B00C41
:1008E0003008D83EB600FF30313DB7003708A800C9
:1008F0003608A7000A30A9000030AA0032308D3136
:100900008D25833132302000A0000030A100A030BE
:10091000B0003008A2000230B1003108A3008931D4
:100920001A21833102302000B00030082100B900C4
:1009300077308831F820080024002008103A031985
:10094000CB2B303A0319E52B013A0319FF2B033A5D
:100950000319192C123A0319332C013A0319362CB6
:10096000703A0319392C033A03193E2C073A03193C
:10097000412C033A03195E2CBD2C08002000E30132
:10098000E3010A30840090308500003F2700A0007A
:10099000013FA100200063082700A200A301210855
:1009A0002302031DD52C2008220203180800200072
:1009B00063082700A0000230A035FF3E031DDC2C99
:1009C0002035053E203E860001308700403FA100D3
:1009D000413FA200200063082700A3000230A33596
:1009E000FF3E031DEF2C2335033E203E86000130E1
:1009F0008700403FA400413FA50022082502031DB7
:100A0000032D21082402031C4F2D2000630827001A
:100A1000A0000230A035FF3E031D0A2D2035033E05
:100A2000203E8600013087000030C03FC13F2000DB
:100A300063082700A0000230A035FF3E031D1C2DD7
:100A40002035023E203E8600013087008101810A68
:100A5000200063082700A0000230A035FF3E031DE0
:100A60002D2D2035073E203E8600013087000108ED
:100A7000A10021082000BB0063082700A20002306B
:100A8000A235FF3E031D402D2235203E8600013059
:100A90008700413F8A00403F0A008531732D2000C6
:100AA00063082700A0000230A035FF3E031D542D2F
:100AB0002035033E203E860001308700013081074B
:100AC00041310318810A200063082700A00002308A
:100AD000A035FF3E031D682D2035023E203E8600D6
:100AE00001308700810101302700A000200820008C
:100AF000E3070A30840090308500003F2700A00003
:100B0000013FC92C2000BC000030C1000030C000F3
:100B10000030BF000030BE003308B400B501340817
:100B2000A2003508A3003208B600B7013608A000BD
:100B30003708A10088312020853120002008B80026
:100B40002108B900BA01BB013B08A7003A08A6007A
:100B50003908A5003808A4003008A8003108A90009
:100B6000AA01AB018A318922853120002708C10002
:100B70002608C0002508BF002408BE004108A300C5
:100B80004008A2003F08A1003E08A0000030A700D6
:100B90007A30A6001230A5000030A4008D313A252D
:100BA000853120002308031D342E2208031D342E16
:100BB00001302102031C252E342E4108A3004008D9
:100BC000A2003F08A1003E08A0000030A7007A3034
:100BD000A6001230A5000030A4008D313A258531E1
:100BE000200020089B00312E4108A3004008A200ED
:100BF0003F08A1003E08A0000030A7007A30A60000
:100C00001230A5000030A4008D313A258531200036
:100C1000200828009600312E20004108A30040083B
:100C2000A2003F08A1003E08A0000030A7007A30D3
:100C3000A6001230A5000030A4008D313A25853180
:100C40002000200828009D00312E20003C08023A98
:100C50000319DD2D063A0319F42D023A03190C2E5F
:100C6000312E2000BD01362EBD01BD0A3D08080011
:100C70002000A20021008E140E14200022088600FD
:100C800087010108A0002008240095042000220A02
:100C9000860087010108A0000230A035FF3E031D39
:100CA0004D2E2035A10021082400960420002208A2
:100CB000033E860087010108A00020082400960456
:100CC000200022080A3E860087010108A0000630A5
:100CD000A035FF3E031D682E2035A1002108240009
:100CE000960420002208043E860087010108A00027
:100CF0000530A035FF3E031D792E2035A1002108C7
:100D00002400970420002208053E86008701010880
:100D1000A0000430A035FF3E031D8A2E2035A1001F
:100D200021082400970420002208063E860087013F
:100D30000108A0000330A035FF3E031D9B2E203587
:100D4000A10021082400970420002208073E860005
:100D500087010108A0000130A035FF3E031DAC2E25
:100D60002035A10021082400970420002208083E15
:100D7000860087010135A000200824009704200088
:100D80002208093E860087010108A00020082400EF
:100D9000970420002208023E860087010108A00077
:100DA0000430A035FF3E031DD12E2035A1002108BF
:100DB00024009504200091112100911597310727F7
:100DC0008631973117270800F40024008C0174083D
:100DD00086008701010C031C0C1003180C14740A04
:100DE00086008701010C031C8C1003188C147408F6
:100DF000023E86008701010C031C0C1103180C1520
:100E00007408033E86008701010C031C8C11031833
:100E10008C157408043E86008701010C031C0C121B
:100E200003180C167408053E86008701010C031C8C
:100E30008C1203188C168D017408063E86008701FB
:100E4000010C031C0D1203180D167408073E8600D2
:100E50008701010C031C8D1203188D167408083EBF
:100E600086008701010C031C0D1303180D1774086D
:100E7000093E86008701010C031C8D1303188D1792
:100E80008E0174080A3E86008701010C031C0E10B7
:100E900003180E1474080B3E86008701010C031C16
:100EA0008E1003188E1474080C3E86008701010C06
:100EB000031C0E1103180E1574080D3E86008701E1
:100EC000010C031C8E1103188E1574080E3E86004B
:100ED0008701010C031C0E1203180E1674080F3E36
:100EE00086008701010C031C8E1203188E167408ED
:100EF000103E86008701010C031C0E1303180E1709
:100F00007408113E86008701010C031C8E13031820
:100F10008E170800F40023008C01740886008701F6
:100F2000010C031C0C1003180C14740A86008701B2
:100F3000010C031C8C1003188C147408023E8600EC
:100F40008701010C031C0C1103180C157408033ED7
:100F500086008701010C031C0C1203180C168D016E
:100F60007408043E86008701010C031C0D1203184F
:100F70000D167408053E86008701010C031C8D12B6
:100F800003188D168E017408063E86008701010C39
:100F9000031C0E1003180E147408073E8600870108
:100FA000010C031C8E1003188E147408083E860072
:100FB0008701010C031C0E1103180E157408093E5D
:100FC00086008701010C031C8E1103188E1574080E
:100FD0000A3E86008701010C031C0E1303180E172E
:100FE00074080B3E86008701010C031C8E13031846
:100FF0008E170800F40074352400930008000134B3
:101000000134F40074352400920008002000A1008F
:101010002108F5007508A0002008860087017408E3
:10102000840085010008C03F8908031908000130C9
:10103000F5007508A0070130F5007508F4070C28C5
:10104000F401F5012000201C29282208F4072308B8
:10105000F53D0130A235A30D890B2A280130A136B8
:10106000A00C890B2F2820082104031D22287508B5
:10107000A1007408A00008002000A200A301A301A1
:10108000740823020318080023082207A000200880
:101090008600013087000108A1002308A03E8600D9
:1010A00002308700210881000130A0002008A3073A
:1010B00040282000A300A401A4012408F400F501A5
:1010C00075082202031D662874082102031C08000B
:1010D0002008F40024082307F5007508860087011E
:1010E000740881000130F4007408A4075D28210011
:1010F0000C1120000C113430F500F130F400F40B29
:101100007F28F50B7F28003220000C154F30F400AB
:10111000F40B8828003220000C1121000C1520004F
:101120000C1D8F280C1D08009228F100F201710897
:1011300086008701023001060319B1287108860074
:101140008701033001060319B1280230F000710A4B
:1011500086008701700881000230F0007008F200FC
:1011600008000330F0007008F2000800F500F401F8
:1011700075088600870101030319D52875088600C4
:101180008701033001060319D528750A86008701F7
:1011900002300106031DD428750A860087018101EB
:1011A000810AF401F40AD528F4017408080020002B
:1011B000A501A701043027020318EE282708203EC6
:1011C000860087010108F4007408A5070130F400C7
:1011D0007408A70704302702031CDE28240825060C
:1011E000031DF528A601A60AF628A6012608080070
:1011F0002000A100A001210886008701023001061D
:1012000003191529210886008701033001060319F7
:1012100015290230F400210A860087017408810034
:101220000230F4007408A00008000330F4007408D1
:10123000A0000800F401F401200023087402031840
:10124000080020002108A5002008A4007408240735
:10125000840025080318250A85000008A6007408E4
:101260002207A70027088600013087002608810092
:101270000130A4002408F4071C292000B600360819
:10128000B4003408B500B11F55292D30B40036081C
:1012900086008701340881000130B4003408B607A5
:1012A000B009B109B00A0319B10A3108A800300821
:1012B000A7003308AA003208A90036088D318D2511
:1012C00008002000A1002108A0002008A200220898
:1012D00086008701010803197A290130A00020083F
:1012E000A20767290130A0002008A2070130F407F7
:1012F0000030F53D220886008701740884007508D7
:1013000085000008C03F8908031908007229CD3400
:1013100002340034003400340134003400345F34CB
:1013200017340034003400340134003400348A347B
:101330001734003400340034E834033400345B34B0
:101340000A34003400340034643400340034A234ED
:101350000034003400340034E83403340034F50041
:10136000CC2920009110740C2100031C911003184B
:101370009114080020009310740C2100031C93109A
:1013800003189314080020009311740C2100031C0F
:1013900093110318931508007508023A0319B1292F
:1013A000063A0319BA29023A0319C329D7290800B2
:1013B000F52901302000BA003A082100B2073208AE
:1013C000031908008A31B9222100B101B10A0800CD
:1013D000E6308831F82002302000BA003A082100B7
:1013E000B10008008131BA21080021003108003A1B
:1013F0000319D929013A0319E829033A0319F229F3
:10140000012A080096313D268A31883177208A31B9
:10141000973174278A31963140268A31A030860070
:10142000003087002030840000308500403F803F3E
:10143000413F813F423F823F433F833F443F843FA0
:101440008831D7208A31003A03192A2A2000A801BE
:10145000A80A2C2A2000A80128080800200020083B
:1014600021040319562AF501F50AA11B412A01306E
:10147000A035A10D890B382A0130F4007408F50756
:10148000352A21082302031D472A20082202031CB3
:101490004D2A2008A2022108A33B0130A136A00C4E
:1014A000890B4E2A0130F502031D412A2308A100B1
:1014B0002208A00008007F2A21000E1022000E1032
:1014C00001308B31C7230800EA302000BC003C0803
:1014D000AB006630BD003D08AC00C630BE003E0823
:1014E000AD0001308A31EA222000BF0022000E0840
:1014F00020003F06FE393F0622008E000800200033
:101500006C08003A03195C2A013A0319642A882AF4
:10151000080000302000AF000030AE000030AD0009
:101520000030AC00241C9C2A2808AC072908AD3DDB
:101530002A08AE3D2B08AF3D0130A835A90DAA0DF4
:10154000AB0D890B9D2A0130A736A60CA50CA40C67
:10155000890BA42A2708260425042404031D922AA3
:101560002F08A7002E08A6002D08A5002C08A4000F
:101570000800031020000E1F03140030093DF40082
:101580000230F435FF3E031DC12A7435F50075089D
:10159000EB0403108E1D03140030093DF4000130EC
:1015A000F435FF3E031DD02A7435F5007508EB04B1
:1015B00003100E1E03140030093D0907F4007408DF
:1015C000EB0403108E1E03140030093DF400740870
:1015D000EB0408002000B000B101082BB101192B69
:1015E000B101B10A192B2C088F3161278A312000F3
:1015F000AE002E08062B3008AE002E08A7002D08DE
:101600008D31EF258A312000AF002F08B100192B52
:101610002B08860087010108003A0319EE2A013AD7
:101620000319F02A033A0319F32A013A0319FB2A92
:10163000192B310808002000A501A601200821046B
:1016400003194B2BA401A40AA11B302B0130A03598
:10165000A10D890B272B0130F4007408A407242B5B
:101660000130A535A60D890B312B21082302031D5E
:101670003B2B20082202031C422B2008A202210837
:10168000A33B25140130A136A00C890B432B01305C
:10169000A402031D302B2608A1002508A000080085
:1016A000F400740886008701010C2100031C1D1042
:1016B00003181D14740A86008701010C031C9E1375
:1016C00003189E177408023E86008701010C031C54
:1016D0001E1203181E167408033E86008701010CB3
:1016E000031C1E1103181E157408043E8600870192
:1016F0001E080106FC3901069E007408053E86009E
:101700008701010C031C1113031811170800200096
:10171000A001A101A201A301083023020318C52BD7
:101720000C1D902BA101A2019F2B1A30F400F40B89
:10173000972B000001302000A1070030A23D0C1DB6
:10174000A82B00302202643003192102031C952BC0
:1017500000302202043003192102031CBD2B01308A
:10176000F4002303FF3A073E890AB72BF435890BAF
:10177000B62B7408F5007508A0040130F400740855
:10178000A30708302302031C902B20080800200028
:10179000A500FA2BF40101309631D726F901080093
:1017A0003230F4000030F50001309631F726F901AF
:1017B000F90A080032302000A0000030A100B63045
:1017C000A2000330A30001309731E7278B310230AC
:1017D0002000A4002408F40001309631D7260230FE
:1017E0002000A4002408F90008000330A400240805
:1017F000F90008002508003A0319CA2B013A031919
:10180000D02B033A0319DA2B013A0319F52B082CD4
:1018100008002000A501A31F142CA209A309A20AF5
:101820000319A30AA501A50AA11F1B2CA009A10940
:10183000A00A0319A10A200821040319422CA401BB
:10184000A40AA11B2D2C0130A035A10D890B242C3D
:101850000130F4007408A407212C21082302031D81
:10186000332C20082202031C392C2008A202210854
:10187000A33B0130A136A00C890B3A2C0130A40205
:10188000031D2D2C250803194A2CA209A309A20A1D
:101890000319A30A2308A1002208A00008002000C1
:1018A000C4004208860087010108C3004308F40011
:1018B000420886008701413FF50044088E315726D3
:1018C0008C3120004208023E860087010103031D7F
:1018D0006C2CF401F40A6E2CF401200044088931C8
:1018E000AF218C3120004208033E86008701403F33
:1018F000B000413FB1004208860087010108C300E3
:101900004308B200420886008701413FB300440803
:10191000853182258C31013A03198D2C2000420833
:10192000053E860087010103031D08004408973126
:10193000A02708002000E301E3010A308400903072
:101940008500003F2100EB00013FEC002000630810
:101950002100ED00EE016C086E02031DB12C6B0836
:101960006D0203180800200063082100EB0002301C
:10197000EB35FF3E031DB82C6B35073E203E86003D
:10198000013087000108EC006C082000BB006308F0
:101990002100ED000230ED35FF3E031DCB2C6D35EF
:1019A000203E860001308700413F8A00403F0A0008
:1019B0008C3101302100EB006B082000E3070A3076
:1019C000840090308500003F2100EB00013FA52CF2
:1019D0002000A501A11FF32CA009A109A00A031949
:1019E000A10AA501A50AA31FFE2CA209A309A20A08
:1019F0000319A30A0130F4007408A506A601A70183
:101A00002008210403192D2DA401A40AA11B122DC5
:101A10000130A035A10D890B092D0130F4007408A7
:101A2000A407062D0130A635A70D890B132D21081B
:101A30002302031D1D2D20082202031C242D200833
:101A4000A2022108A33B26140130A136A00C890B69
:101A5000252D0130A402031D122D25080319352D53
:101A6000A609A709A60A0319A70A2708A10026089C
:101A7000A000080000302000AB000030AA000030B9
:101A8000A9000030A800230822042104200403191F
:101A9000842DAC01AC0AA31B592D0130A035A10D3A
:101AA000A20DA30D890B4E2D0130F4007408AC0774
:101AB0004B2D0130A835A90DAA0DAB0D890B5A2D60
:101AC00023082702031D6E2D22082602031D6E2DFA
:101AD00021082502031D6E2D20082402031C792DE8
:101AE0002008A4022108A53B2208A63B2308A73B07
:101AF00028140130A336A20CA10CA00C890B7A2D5E
:101B00000130AC02031D592D2B08A3002A08A200A6
:101B10002908A1002808A00008002000AF0028081C
:101B2000AD002708AC002A08A1002908A0002D0854
:101B3000A3002C08A2008B311B238D31200021082B
:101B4000AD002008AC000130AB002B08AF072C081B
:101B50002D04031D932D2F0886008701810101307C
:101B6000AF022A08A1002908A0002808A30027081E
:101B7000A2008A312E228D3120002008AB002B08D4
:101B8000AE002A08A1002908A0002808A300270801
:101B9000A2008B311B238D3120002108A8002008D2
:101BA000A7000A302E02031CD92D0730AB002B08EA
:101BB000AE073030AB002B08AE072E08AB002F0865
:101BC000860087012B0881000130AF022708280416
:101BD000031DB12D0130AB002B08AF07080020001A
:101BE000AA00422E2A0A860087018101810A2A085A
:101BF000860087018101810A2A08023E860087014A
:101C00000130810741310318810A0A30A0000030F9
:101C1000A1002A08043E86008701403FA200413F00
:101C2000A3008B311B238D3120002A08023E860041
:101C30008701403FA800413FA90021082902031D58
:101C4000232E20082802031C512E2A08023E86005B
:101C500087010030C03FC13F2A0A86008701810109
:101C60000230A8002A088600870128088100512E2A
:101C70002A08860087018101F40127089631D726BA
:101C80008D31512E20002A08860087010108003A74
:101C90000319F22D013A0319FC2D033A0319382ECA
:101CA000512E20002A0A8600870101080800200022
:101CB000A100C52E1C105D2E1C149C106D2E1C1036
:101CC0009C146D2E7408013A03195A2E053A031913
:101CD0005C2E143A03195F2E6D2E7508FF3EA0008E
:101CE000A00DA00DA00D1C082006873920069C0021
:101CF0000800280017107E2E2800171497108F2E2A
:101D00002800171097148F2E7408013A0319792EA2
:101D1000053A03197C2E143A0319802E8F2E75086C
:101D2000FF3E2000A000A00DA00DA00D2800170868
:101D30002000200687392006280097000800280088
:101D40001E10A42E28001E149E10B52E28001E1052
:101D50009E14B52E7408013A03199F2E053A0319F3
:101D6000A22E143A0319A62EB52E7508FF3E2000A8
:101D7000A000A00DA00DA00D28001E082000200628
:101D80008739200628009E00080020002108023A1A
:101D90000319622E063A0319842E023A0319AA2E59
:101DA000D12E08002000A901572FE6308831B62037
:101DB0008E31003A0319080020006B088831012099
:101DC0008E317F308731FA272100B401B40A080030
:101DD000E2308831B6208E31003A03193A2F9D3017
:101DE000860023308700010820006B060319FF2EB0
:101DF0009D308600233087000108031D08009D30B8
:101E000086002330870041310108031D0800A90125
:101E10005030290203182A2F2908A400A5019F3059
:101E2000A6002330A7002408260786002508273DA2
:101E300087000108A8002908203E8600023087009C
:101E4000280881000130A4002408A9075030290285
:101E5000031C0C2FE8308831F8208E317903031DE4
:101E6000080003302000A4002408F400013096315B
:101E7000D726080077308831B6208E31003A031912
:101E80000800210039082000A4002408F400A03034
:101E900088313C208E317903031D08000330200077
:101EA000A4002408F40001309631D7260800210050
:101EB0003408003A0319D52E013A0319E82E602F91
:101EC0000800F500EE2F7508083E860001308700F7
:101ED00001082000A700750A860001308700270846
:101EE00081007508B02F7508023E8600013087001A
:101EF0000130810741310318810A750A86000130DB
:101F000087000108031DB62F0A302000A000003012
:101F1000A1007508063E860001308700403FA20000
:101F2000413FA3008B311B238F317508023E860091
:101F300001308700403F2000A700413FA800210852
:101F40002802031DA52F20082702031CFA2F75085D
:101F5000023E8600013087000030C03FC13F750A55
:101F60008600013087008101810AFA2F750A8600F8
:101F7000013087000103031DFA2F0A302000A00062
:101F80000030A1007508043E860001308700403F04
:101F9000A200413FA3008B311B238F317508023E05
:101FA000860001308700403F2000A700413FA80085
:101FB00021082802031DDE2F20082702031CFA2F08
:101FC0007508023E8600013087000030C03FC13FE7
:101FD000750A8600013087008101FA2F7508860096
:101FE000013087000108003A0319632F013A0319F1
:101FF000732FFA2F750A8600013087000108080048
:10200000013400340A34003464340034E8340334D6
:102010001034273405340034303431342E34303425
:1020200031342E34303430340034253464342E349A
:10203000253430343134753400345334423433343D
:102040003334303400344534433448344F3400346E
:102050002E3400348231CE2A8331112B8331372B39
:082060008331982B8331B92B69
:102C6A000100080096313526080021009D1408004D
:102C7A002100911008002100911408008B170B17EE
:102C8A00080021009917080021001D0C01390800CD
:102C9A009631742696319731272780312B28F400F4
:102CAA00740C2100031C1710031817140800F400F1
:102CBA00740C2200031C1712031817160800F400DC
:102CCA00740C2200031C9712031897160800F400CC
:102CDA00740C2100031C95130318951708009631EC
:102CEA00462696319731B727963196314326080002
:102CFA0024001608F4000630F436890B812E740875
:102D0A000139080024001408F4000530F436890B50
:102D1A008B2E74080139080024001408F4000430CA
:102D2A00F436890B952E740801390800F5007508E8
:102D3A00F400F40D210017087406C13974069700CF
:102D4A000800F5007508F400F40DF40D21001D08C3
:102D5A007406833974069D000800640080010131FD
:102D6A000130FE020030FF3B7F087E040319003465
:102D7A00B32EFE0012001E000130FE020030FF3B9F
:102D8A007F087E0403190034BF2E22008C018D01B6
:102D9A008E01003096315426963163000130963107
:102DAA00542608002000A000E02E7408F5007508DB
:102DBA002100EA00080020002008013A0319DA2E4F
:102DCA00E62E0800033021001C052000A000200880
:102DDA00A20021001B082000A1002208F5002108FA
:102DEA00F40008002000A000002F75082100CB0085
:102DFA007408CA00080020002008013A0319FA2EB4
:102E0A00062F0800F50150307502031808007508EE
:102E1A00203E86000330870081010130F4007408E7
:102E2A00F507082FF50150307502031808007508D8
:102E3A00A03E86000230870081010130F400740848
:102E4A00F507182F8C319A2497312000EC01EC0AEF
:102E5A0021006F08031D2D2F8431BE2497312100D4
:102E6A00EF01EF0A2D2F03307906031D0800240015
:102E7A002103031D462FF401F40A01309631D726A7
:102E8A000800F40101309631D72608000630F40014
:102E9A0074082100BB00BC01BD01BD0ABE01BF010F
:102EAA00BF0AC001C00AC101C201C301C401C501F0
:102EBA00C50A08006A2F97314B279731BB308631F4
:102ECA00382608008E31D226080020006C08003A05
:102EDA000319602F013A0319672F732F0800200086
:102EEA00A50105302502031808008B318723973185
:102EFA002000A4002508A03E86008701240881003E
:102F0A000130A4002408A507762F962F0B3096319E
:102F1A009B269731013096315426080080310220D1
:102F2A00080020006C08003A03198B2F013A031994
:102F3A00932F9F2F0800F400AB2F20001C150800C8
:102F4A0028001715080028001E1508007408023A00
:102F5A000319A22F063A0319A52F023A0319A82F1B
:102F6A00B62F08002000C601C60A0830C500450869
:102F7A00C700C801C80A1030C9002730CA00CB01EF
:102F8A00CB0A4630C5004508C20002308C314F24B6
:102F9A0008001D309631A626973196313A26973188
:102FAA00963149269731003A0319D52F9631E726EB
:102FBA0075082000A6007408A5002608A4002508A4
:102FCA00A3000800F400FA2F200021082200EB00D9
:102FDA00200020082200EA00200023082200ED0039
:102FEA00200022082200EC0008007408013A0319A4
:062FFA00E92FFF2F080083
:020000040001F9
:04000E00EAFFFFDF27
:00000001FF
