:1000000080312B28013401347E14803120007F0898
:10001000F300911C1C282100911C1C282000911029
:1000200001302100AB070030AC3D2B082C04031934
:100030001C28AB01AC01E9012100911D26282000FC
:10004000911D26289111E33088311B207308200070
:10005000FF007E10090080312D288831002080317A
:10006000F9002100803102208031E8008031032036
:100070008031E9000D308400893085002030860011
:10008000013087000030FF00283096314E26803145
:100090009D308400233085005330FE000030FF0087
:1000A000963142268031F601F701F801A030840034
:1000B000003085004830FE000030FF0096314226B7
:1000C000803148308400013085002630FE00003049
:1000D000FF00963142268031A03084000130850037
:1000E0001230FE000030FF00963142268031203071
:1000F0008400023085005030FE000030FF00963151
:1001000042268031A0308400023085005030FE004D
:100110000030FF00963142268031203084000330C9
:1001200085005030FE000030FF00963142268031BD
:10013000A0308400033085005030FE000030FF0006
:10014000963142267E1020009531DD2DDF3088313A
:100150003C208031003A031908008331F1238031BB
:10016000B52921003A082000B80038082400A00072
:10017000210039082000B80038082400A10002300E
:100180002000B80038082100C000773088317E2078
:10019000080030302000B8003808A0000530A10069
:1001A0000030A200CE309731E227803121003A089A
:1001B0002000B000B101B01BB1030A30B200003022
:1001C000B300DC308831C3208031210039082000A1
:1001D000B800B9013808B0003908B1000A30B200DF
:1001E0000030B300D9308831C3208031DC302000AA
:1001F000B8003808F400CE3097318F27803128308E
:10020000F4009830F500CE308831E7208031D930C5
:10021000F4000030F500CE308831E7208031CE3058
:100220008400850105302000B80038080319212911
:10023000203086000230870012001E002000B80B1C
:100240001C2905302000B80038082100C000773094
:1002500088317E200800210038082000B8003808C6
:100260002400A000210037082000B800380824002E
:10027000A10002302000B80038082100C00077300B
:1002800088317E20080030302000B8003808A000F7
:100290000530A1000030A200C9309731E22780313B
:1002A000210038082000B800B9013808B00039082A
:1002B000B1000A30B2000030B300D6308831C3201C
:1002C0008031210037082000B800B9013808B0009B
:1002D0003908B1000A30B2000030B300D3308831A1
:1002E000C3208031D6302000B8003808F400C9306F
:1002F00097318F2780312830F4009830F500C930CD
:100300008831E7208031D330F4000030F500C93067
:100310008831E7208031C930840085010430200015
:10032000B800380803199D29203086000230870064
:1003300012001E002000B80B982904302000B800DD
:1003400038082100C000773088317E200800210065
:1003500036082000B80038082400A0002100C001A1
:10036000C00A773088317E20080025002008603AD6
:100370000319B128013A0319C928033A03192B2993
:10038000013A03194329073A0319A729C829080084
:100390000800A03086000130870051308400003012
:1003A000850012302000BC0016001A00BC0BD429B6
:1003B00048308600013087003F30840000308500DF
:1003C0000C30BC0016001A00BC0BE229DD2A21000B
:1003D0008E160E168E150E172000E001E00ADF01C2
:1003E000DF0ADE01DE0AE101E10A5130873102272E
:1003F000813100309531FC2581313F308D317325BD
:10040000813101309531F425813100309531EC2571
:10041000813103302000BC003C08CD00D001CE016A
:10042000CF01CC01CC0ACB01CB0A4B308A31A722B9
:10043000080001302000BC003C082100B30729302F
:100440003302031CDA2AB301893188218131003A51
:100450000319D82A21002008803A2000BC008330EC
:100460003C02031D362AE930210021020318DA2A52
:100470002100A01BDA2A7F3022052000BC003C08A6
:10048000803ABD0083303D02031D492A21302100FE
:1004900023020318DA2A210022082000BC000730BA
:1004A000BC36890B502A3C080139BD003D082100AB
:1004B000BB0022087F392000BC00BD013C08BD0004
:1004C000BC013C0821002304A70020003D082100B6
:1004D000A80020082000BC00BD013C08BD00BC01F4
:1004E0003C0821002104A50020003D082100A600B1
:1004F0000A302000A0000030A100210028082000C0
:10050000A300210027082000A2008C316D24813136
:1005100020002008BC003C082100BA000A3020005E
:10052000A0000030A100210028082000A300210025
:1005300027082000A2008B31DC2381312000200815
:10054000BC003C082100B9000A302000A0000030A7
:10055000A100210026082000A3002100250820007A
:10056000A2008A317222813120002008BC003C08A0
:100570002100B8000A302000A0000030A1002100B6
:1005800026082000A300210025082000A2008931B0
:10059000B421813120002008BC003C082100B700B4
:1005A000B601B60A3B080319DA2ABA09BA0ADA2AE6
:1005B0002100B60189315E2108007608003A03194E
:1005C000E729013A0319192AE52A0800E52BE33047
:1005D00088313C208231003A0319080096311726F1
:1005E0008231003A031D102B21004203031D062B0C
:1005F00001302000BC003C082100C1070B30410243
:10060000031C082B9531BE258231082B2100C10126
:100610002100C201C20AC601C60AC801C80A0800F0
:10062000963117268231013A031D08002100460346
:10063000031D0800C2014508031D252B02302000C0
:10064000BC003C082100C800080003302000BC00AA
:100650003C082100C8000800240011082000BC004C
:100660003C082100C70047362000BC003C082100A0
:10067000C7002400110801392000BC003C082100FB
:10068000C5004503031D522B4308203E860003305E
:10069000870001082400910001302000BC003C08C4
:1006A0002100C30704302000BC003C082100C80022
:1006B0000800963121268231013A031DA52B210025
:1006C000C601EF30860023308700440881009D304A
:1006D000860023308700413181019D308600233020
:1006E00087004708C03F2000C30150304302031871
:1006F0009B2B4308A03E8600033087000108BC0006
:100700004308BD00BE019F30BF002330C0003D083C
:100710003F07C1003E08403DC20041088600420834
:1007200087003C0881000130BC003C08C307503002
:100730004302031C792BE53088317E208231210071
:10074000C401963197268231B72B2400110820006E
:10075000BC0021004408A03E860003308700200032
:100760003C0881000130BC003C082100C407043073
:100770002000BC003C082100C800080096310D266E
:100780008231003A031DD42B21004308203E86000D
:100790000330870001082400910001302000BC00D4
:1007A0003C082100C307D92B2100C301C6019631A3
:1007B000A72604302000BC003C082100C800080027
:1007C000240015162100C8010800210048088400F3
:1007D000053004020318080090310435003E820001
:1007E0000800C32C23302000A0009830A100203046
:1007F000B0003008A2000430B1003108A3008831F5
:10080000A020833104302000B00030082100C00057
:10081000773088317E2008001D302000A0009830FD
:10082000A1002030B0003008A2000530B10031082E
:10083000A3008831A020833105302000B0003008AB
:100840002100C000773088317E200800023020006F
:10085000A0009830A1002030B0003008A20008307D
:10086000B1003108A3008831A02083310830200076
:10087000B00030082100C000773088317E200800A9
:1008800002302000A0009830A1002030B0003008D5
:10089000A2000830B1003108A3008831A0208331C4
:1008A00008302000B00030082100C00077308831C7
:1008B0007E2008009531C225080096315A2608008E
:1008C000250021088B31552308009631C7260800E2
:1008D00097315D27833120002408B7002308B60034
:1008E0003708B00030082400A00020003608B0000F
:1008F00030082400A10002302000B00030082100A0
:10090000C000773088317E20080097315D27833121
:1009100020002408B7002308B6003708B1003608C5
:10092000B000B136B00CB136B00CB136B00C3008F6
:10093000D83EB600FF30313DB7003708A800360872
:10094000A7000A30A9000030AA0032308D311125ED
:10095000833132302000A0000030A1002030B000F0
:100960003008A2000230B1003108A3008831A02075
:10097000833102302000B00030082100C000773001
:1009800088317E20080025002008103A0319F22B38
:10099000303A03190C2C013A0319262C033A031997
:1009A000402C123A03195A2C013A03195D2C703A63
:1009B0000319602C033A0319652C073A0319682CB4
:1009C000033A0319852CE42C08002000A200210022
:1009D0008E140E14200022088600013087000108C2
:1009E000A0002008240095042000220A860001307F
:1009F00087000108A0000230A035FF3E031DFC2C3B
:100A00002035A10021082400960420002208033E7E
:100A10008600013087000108A00020082400960409
:100A2000200022080A3E8600013087000108A0004D
:100A30000630A035FF3E031D192D2035A1002108E9
:100A40002400960420002208043E8600013087001E
:100A50000108A0000530A035FF3E031D2B2D2035D9
:100A6000A10021082400970420002208053E8600EA
:100A7000013087000108A0000430A035FF3E031DAF
:100A80003D2D2035A10021082400970420002208D4
:100A9000063E8600013087000108A0000330A03523
:100AA000FF3E031D4F2D2035A1002108240097048F
:100AB00020002208073E8600013087000108A000C0
:100AC0000130A035FF3E031D612D2035A100210816
:100AD0002400970420002208083E86000130870089
:100AE0000135A00020082400970420002208093EB8
:100AF0008600013087000108A00020082400970428
:100B000020002208023E8600013087000108A00074
:100B10000430A035FF3E031D892D2035A10021089A
:100B200024009504200091112100911596319726FB
:100B300084319631A72608002000BC000030C10097
:100B40000030C0000030BF000030BE003308B400E9
:100B5000B5013408A2003508A3003208B600B70179
:100B60003608A0003708A1009731A9278531200059
:100B70002008B8002108B900BA01BB013B08A70052
:100B80003A08A6003908A5003808A4003008A800D3
:100B90003108A900AA01AB018A3111228531200058
:100BA0002708C1002608C0002508BF002408BE0091
:100BB0004108A3004008A2003F08A1003E08A00091
:100BC0000030A7007A30A6001230A5000030A40043
:100BD0008731A827853120002308031D4E2E2208C7
:100BE000031D4E2E01302102031C3F2E4E2E4108C4
:100BF000A3004008A2003F08A1003E08A00000306A
:100C0000A7007A30A6001230A5000030A40087317A
:100C1000A8278531200020089B004B2E4108A30007
:100C20004008A2003F08A1003E08A0000030A70035
:100C30007A30A6001230A5000030A4008731A82722
:100C4000853120002008280096004B2E2000410806
:100C5000A3004008A2003F08A1003E08A000003009
:100C6000A7007A30A6001230A5000030A40087311A
:100C7000A82785312000200828009D004B2E200049
:100C80003C08023A0319F72D063A03190E2E023AD0
:100C90000319262E4B2E2000BD01502EBD01BD0A8A
:100CA0003D0808002000E901E90100308400983087
:100CB0008500003FE300013FE4006908E500E6012C
:100CC00064086602031D662E6308650203180800A7
:100CD0006908E3000230E335FF3E031D6B2E6335E8
:100CE000053E203E860001308700403FE400413F42
:100CF000E5006908E6000230E635FF3E031D7C2E64
:100D00006635033E203E860001308700403FE70005
:100D1000413FE80065086802031D902E64086702E1
:100D2000031CD42E6908E3000230E335FF3E031DA7
:100D3000952E6335033E203E86000130870000304B
:100D4000C03FC13F6908E3000230E335FF3E031DA9
:100D5000A52E6335023E203E8600013087008101CA
:100D6000810A6908E3000230E335FF3E031DB42E1B
:100D70006335073E203E8600013087000108E4000D
:100D80006408BB006908E5000230E535FF3E031D3D
:100D9000C52E6535203E860001308700413F8A0020
:100DA000403F0A008631F52E20006908E30002303A
:100DB000E335FF3E031DD82E6335033E203E8600FB
:100DC000013087000130810741310318810A690829
:100DD000E3000230E335FF3E031DEA2E6335023E99
:100DE000203E860001308700810101302000E300B1
:100DF0006308E9070030840098308500003FE30075
:100E0000013F5C2EF40024008C01740886008701E9
:100E1000010C031C0C1003180C14740A86008701C3
:100E2000010C031C8C1003188C147408023E8600FD
:100E30008701010C031C0C1103180C157408033EE8
:100E400086008701010C031C8C1103188C15740893
:100E5000043E86008701010C031C0C1203180C16BB
:100E60007408053E86008701010C031C8C120318D0
:100E70008C168D017408063E86008701010C031C48
:100E80000D1203180D167408073E86008701010C29
:100E9000031C8D1203188D167408083E8600870106
:100EA000010C031C0D1303180D177408093E86006E
:100EB0008701010C031C8D1303188D178E01740814
:100EC0000A3E86008701010C031C0E1003180E1445
:100ED00074080B3E86008701010C031C8E1003185A
:100EE0008E1474080C3E86008701010C031C0E1141
:100EF00003180E1574080D3E86008701010C031CB3
:100F00008E1103188E1574080E3E86008701010CA1
:100F1000031C0E1203180E1674080F3E860087017C
:100F2000010C031C8E1203188E167408103E8600E6
:100F30008701010C031C0E1303180E177408113ED1
:100F400086008701010C031C8E1303188E170800FE
:100F500000302000AB000030AA000030A9000030B3
:100F6000A80023082204210420040319F22FAC0155
:100F7000AC0AA31BC72F0130A035A10DA20DA30DF4
:100F8000890BBC2F0130F4007408AC07B92F013075
:100F9000A835A90DAA0DAB0D890BC82F2308270270
:100FA000031DDC2F22082602031DDC2F2108250249
:100FB000031DDC2F20082402031CE72F2008A402B5
:100FC0002108A53B2208A63B2308A73B2814013093
:100FD000A336A20CA10CA00C890BE82F0130AC02A7
:100FE000031DC72F2B08A3002A08A2002908A1006F
:100FF0002808A0000800F4007435240093000800BD
:10100000013421000C1120000C113430F400F230B6
:10101000890B0828F40B082820000C155030890B88
:101020000F2820000C1121000C1520000C1D152884
:101030000C1D08001828F100F201710886008701D4
:101040000230010603193728710886008701033032
:101050000106031937280230F000710A8600870163
:10106000700881000230F0007008F20008000330C0
:10107000F0007008F2000800F500F4017508860021
:101080008701010303195B28750886008701033077
:10109000010603195B28750A8600870102300106E4
:1010A000031D5A28750A860087018101810AF4010F
:1010B000F40A5B28F401740808002000A501A701C8
:1010C00004302702031874282708203E8600870171
:1010D0000108F4007408A5070130F4007408A7079C
:1010E00004302702031C642824082506031D7B28DE
:1010F000A601A60A7C28A601260808002000A10057
:10110000A0012108860087010230010603199B28EF
:101110002108860087010330010603199B2802304D
:10112000F400210A86008701740881000230F4006F
:101130007408A00008000330F4007408A000080040
:10114000F401F401200023087402031808002000B1
:101150002108A5002008A40074082407840025089D
:101160000318250A85000008A60074082207A700B6
:101170002708860002308700260881000130A4007D
:101180002408F407A2282000B6003608B40034086A
:10119000B500B11FDB282D30B4003608860087016A
:1011A000340881000130B4003408B607B009B10931
:1011B000B00A0319B10A3108A8003008A7003308A3
:1011C000AA003208A90036088D3111250800200038
:1011D000A1002108A0002008A200220886008701A3
:1011E0000108031900290130A0002008A207ED28FA
:1011F0000130A0002008A2070130F4070030F53DBF
:10120000220886008701740884007508850000089C
:10121000C03F890803190800F828E6340234003476
:1012200000340034013400340034DA34163400342D
:1012300000340034013400340034EE341634003409
:1012400000340034E83403340034E1340934003429
:1012500000340034643400340034C93401340034C0
:1012600000340034E83403340034F50052292000FF
:101270009110740C2100031C9110031891140800A4
:1012800020009310740C2100031C93100318931476
:10129000080020009311740C2100031C9311031803
:1012A000931508007508023A03193729063A0319FD
:1012B0004029023A031949295D2908007B29013098
:1012C0002000BA003A082100B407340803190800C6
:1012D0008A31DE222100B501B50A0800E1308831EB
:1012E0007E2002302000BA003A082100B500080034
:1012F0008031A620080021003508003A03195F2933
:10130000013A03196E29033A03197829872908003D
:101310009531C825893188310120893197310327DA
:1013200089319531CB258931A03086000030870086
:101330002030840000308500403F803F413F813FA6
:10134000423F823F433F833F443F843F88315D209B
:101350008931003A0319B0292000A801A80AB2294E
:101360002000A801280808002000200821040319F3
:10137000DC29F501F50AA11BC7290130A035A10D13
:10138000890BBE290130F4007408F507BB29210838
:101390002302031DCD2920082202031CD329200883
:1013A000A2022108A33B0130A136A00C890BD4294D
:1013B0000130F502031DC7292308A1002208A0005F
:1013C0000800082A21000E1022000E1001308B3177
:1013D000552308008C31BF248931E7302000BC0040
:1013E0003C08AB005F30BD003D08AC006830BE007B
:1013F0003E08AD0001308A3141222000BF002200AA
:101400000E0820003F06FE393F0622008E0008002D
:101410007608003A0319E229013A0319EA29102A49
:10142000080000302000AF000030AE000030AD00FA
:101430000030AC00241C242A2808AC072908AD3D44
:101440002A08AE3D2B08AF3D0130A835A90DAA0DE5
:10145000AB0D890B252A0130A736A60CA50CA40CD0
:10146000890B2C2A2708260425042404031D1A2A84
:101470002F08A7002E08A6002D08A5002C08A40000
:1014800008002000B000B1015F2AB101702AB1014B
:10149000B10A702A2C088F3161278A312000AE00F2
:1014A0002E085D2A3008AE002E08A7002D088D31C9
:1014B000E3258A312000AF002F08B100702A2B08E5
:1014C000860087010108003A0319452A013A0319E9
:1014D000472A033A03194A2A013A0319522A702A61
:1014E000310808002000A501A601200821040319E5
:1014F000A22AA401A40AA11B872A0130A035A10DAC
:10150000890B7E2A0130F4007408A4077B2A01307D
:10151000A535A60D890B882A21082302031D922ACE
:1015200020082202031C992A2008A2022108A33BBA
:1015300025140130A136A00C890B9A2A0130A4028F
:10154000031D872A2608A1002508A0000800F40032
:10155000740886008701010C2100031C1D1003186C
:101560001D14740A86008701010C031C9E130318C6
:101570009E177408023E86008701010C031C1E1290
:1015800003181E167408033E86008701010C031C15
:101590001E1103181E157408043E860087011E08DC
:1015A0000106FC3901069E007408053E860087018D
:1015B000010C031C1113031811170800031020005D
:1015C0000E1F03140030093DF4000230F435FF3ED5
:1015D000031DE62A7435F50075082100BF040310C9
:1015E00020008E1D03140030093DF4000130F43555
:1015F000FF3E031DF72A7435F50075082100BF046E
:10160000031020000E1E03140030093D0907F400EA
:1016100074082100BF04031020008E1E0314003044
:10162000093DF40074082100BF0408002000A00157
:10163000A101A201A301083023020318532B0C1DA2
:101640001F2BA101A2012D2B1A30890B252B003253
:1016500001302000A1070030A23D0C1D362B0030C8
:101660002202643003192102031C242B00302202C1
:10167000043003192102031C4B2B0130F400230317
:10168000FF3A073E890A452BF435890B442B740831
:10169000F5007508A0040130F4007408A3070830B1
:1016A0002302031C1F2B200808002000A500882B04
:1016B000F401013096316726F90108003230F40058
:1016C0000030F500013096318726F901F90A08004B
:1016D00032302000A0000030A100B630A20003305C
:1016E000A3000130973176278B3102302000A4000F
:1016F0002408F40001309631672602302000A4004F
:101700002408F90008000330A4002408F9000800A8
:101710002508003A0319582B013A03195E2B033AA6
:101720000319682B013A0319832B962B080020001C
:10173000E701E7010030840098308500003FE300B6
:10174000013FE4006708E500E60164086602031D46
:10175000AB2B63086502031808006708E30002303A
:10176000E335FF3E031DB02B6335073E203E860068
:10177000013087000108E4006408BB006708E50049
:101780000230E535FF3E031DC12B6535203E860046
:1017900001308700413F8A00403F0A008B31013011
:1017A0002000E3006308E7070030840098308500DC
:1017B000003FE300013FA12B2000A501A31FE72B61
:1017C000A209A309A20A0319A30AA501A50AA11F38
:1017D000EE2BA009A109A00A0319A10A20082104DF
:1017E0000319152CA401A40AA11B002C0130A0355B
:1017F000A10D890BF72B0130F4007408A407F42B1A
:1018000021082302031D062C20082202031C0C2C95
:101810002008A2022108A33B0130A136A00C890BAD
:101820000D2C0130A402031D002C250803191D2CCA
:10183000A209A309A20A0319A30A2308A1002208E6
:10184000A00008002000C4004208860087010108AB
:10185000C3004308F400420886008701413FF500B9
:1018600044088E3156268C3120004208023E860004
:1018700087010103031D3F2CF401F40A412CF401FC
:1018800020004408893135218C3120004208033E74
:1018900086008701403FB000413FB100420886000A
:1018A00087010108C3004308B2004208860087018F
:1018B000413FB300440885319C258C31013A03191E
:1018C000602C20004208053E860087010103031DAD
:1018D0000800440897312F2708002000A501A11F08
:1018E000782CA009A109A00A0319A10AA501A50A3B
:1018F000A31F832CA209A309A20A0319A30A01307A
:10190000F4007408A506A601A70120082104031904
:10191000B22CA401A40AA11B972C0130A035A10D63
:10192000890B8E2C0130F4007408A4078B2C013035
:10193000A635A70D890B982C21082302031DA22C84
:1019400020082202031CA92C2008A2022108A33B84
:1019500026140130A136A00C890BAA2C0130A40258
:10196000031D972C25080319BA2CA609A709A60A56
:101970000319A70A2708A1002608A0000800042DC3
:10198000210068082000A1002108F40001309631F0
:1019900067262100BC01BC0A08000130A9070030FD
:1019A000AA3D00302A02063003192902031C080050
:1019B0006808031DDD2C0130DE2C00302000A10062
:1019C00021082100E80068082000A1002108F40097
:1019D0000130963167268C312100A901AA0101301E
:1019E0002000A10021082100BD0706303D02031C94
:1019F0000800F40101309631672602302000A10072
:101A000021082100BC00080021003C08003A03190D
:101A1000C02C013A0319CD2C033A0319102D102DB7
:101A200008002000AF002808AD002708AC002A08F5
:101A3000A1002908A0002D08A3002C08A2008A31CB
:101A400072228D3120002108AD002008AC00013049
:101A5000AB002B08AF072C082D04031D172D2F08F2
:101A60008600870181010130AF022A08A100290800
:101A7000A0002808A3002708A2008931B4218D31D5
:101A800020002008AB002B08AE002A08A10029087E
:101A9000A0002808A3002708A2008A3172228D31F5
:101AA00020002108A8002008A7000A302E02031CED
:101AB0005D2D0730AB002B08AE073030AB002B0894
:101AC000AE072E08AB002F08860087012B08810087
:101AD0000130AF0227082804031D352D0130AB006B
:101AE0002B08AF070800F40023008C01740886005F
:101AF0008701010C031C0C1003180C14740A8600D7
:101B00008701010C031C8C1003188C147408023E0E
:101B100086008701010C031C0C1103180C157408B6
:101B2000033E86008701010C031C0C1203180C16DF
:101B30008D017408043E86008701010C031C0D1200
:101B400003180D167408053E86008701010C031C5E
:101B50008D1203188D168E017408063E86008701CB
:101B6000010C031C0E1003180E147408073E8600A7
:101B70008701010C031C8E1003188E147408083E94
:101B800086008701010C031C0E1103180E15740842
:101B9000093E86008701010C031C8E1103188E1567
:101BA00074080A3E86008701010C031C0E130318FB
:101BB0000E1774080B3E86008701010C031C8E1360
:101BC00003188E1708002000AA003F2E2A0A86005C
:101BD000013087008101810A2A08860001308700D0
:101BE0008101810A2A08023E860001308700013007
:101BF000810741310318810A0A30A0000030A1009A
:101C00002A08043E860001308700403FA200413F81
:101C1000A3008A3172228D3120002A08023E8600FC
:101C200001308700403FA800413FA9002108290258
:101C3000031D1C2E20082802031C4F2E2A08023EDA
:101C40008600013087000030C03FC13F2A0A86006D
:101C50000130870081010230A8002A088600013087
:101C60008700280881004F2E2A088600013087004F
:101C70008101F4012708963167268D314F2E20000F
:101C80002A088600013087000108003A0319E62D72
:101C9000013A0319F22D033A0319342E4F2E200076
:101CA0002A0A860001308700010808002000A100F0
:101CB000C42E1C105C2E1C149C106C2E1C109C142A
:101CC0006C2E7408013A0319592E053A03195B2E3C
:101CD000143A03195E2E6C2E7508FF3EA000A00D6D
:101CE000A00DA00D1C082006873920069C000800C6
:101CF000280017107D2E2800171497108E2E28000C
:101D0000171097148E2E7408013A0319782E053A8D
:101D100003197B2E143A03197F2E8E2E7508FF3E71
:101D20002000A000A00DA00DA00D28001708200085
:101D300020068739200628009700080028001E107A
:101D4000A32E28001E149E10B42E28001E109E14D0
:101D5000B42E7408013A03199E2E053A0319A12ED8
:101D6000143A0319A52EB42E7508FF3E2000A000DA
:101D7000A00DA00DA00D28001E0820002006873908
:101D8000200628009E00080020002108023A0319BE
:101D9000612E063A0319832E023A0319A92ED02E7A
:101DA00008002000A901572FE13088313C208E31F6
:101DB000003A0319080021003F089531D8258E31DB
:101DC0007F308731FB272100BE01BE0A0800E530C5
:101DD00088313C208E31003A03193A2F9D3086001D
:101DE00023308700010821003F060319FE2E9D3095
:101DF0008600233087000108031D08009D308600FF
:101E00002330870041310108031D08002000A9018B
:101E10005030290203182A2F2908A400A5019F3059
:101E2000A6002330A7002408260786002508273DA2
:101E300087000108A8002908A03E8600023087001C
:101E4000280881000130A4002408A9075030290285
:101E5000031C0C2FDF3088317E208E317903031D67
:101E6000080003302000A4002408F400013096315B
:101E700067260800773088313C208E31003A0319FC
:101E80000800210040082000A4002408F4002030AD
:101E90009731C5278E317903031D080003302000D8
:101EA000A4002408F40001309631672608002100C0
:101EB0003E08003A0319D42E013A0319E72E602F89
:101EC0000800F500EE2F7508083E860001308700F7
:101ED00001082000A700750A860001308700270846
:101EE00081007508B02F7508023E8600013087001A
:101EF0000130810741310318810A750A86000130DB
:101F000087000108031DB62F0A302000A000003012
:101F1000A1007508063E860001308700403FA20000
:101F2000413FA3008A3172228F317508023E86003C
:101F300001308700403F2000A700413FA800210852
:101F40002802031DA52F20082702031CFA2F75085D
:101F5000023E8600013087000030C03FC13F750A55
:101F60008600013087008101810AFA2F750A8600F8
:101F7000013087000103031DFA2F0A302000A00062
:101F80000030A1007508043E860001308700403F04
:101F9000A200413FA3008A3172228F317508023EB0
:101FA000860001308700403F2000A700413FA80085
:101FB00021082802031DDE2F20082702031CFA2F08
:101FC0007508023E8600013087000030C03FC13FE7
:101FD000750A8600013087008101FA2F7508860096
:101FE000013087000108003A0319632F013A0319F1
:101FF000732FFA2F750A8600013087000108080048
:102000008231E72A83312C2B8331592B8331BE2B2C
:042010008331E02B0D
:102B7C0001000800640008009531BE250800210002
:102B8C009D140800210091100800210091140800E8
:102B9C008B170B17080021009917080021001D0C3A
:102BAC0001390800F40074352400920008009631B5
:102BBC00042695319631B72680312B28F400740CFD
:102BCC002100031C1710031817140800F400740CD0
:102BDC002200031C1712031817160800F400740CBB
:102BEC002200031C9712031897160800F400740CAB
:102BFC002100031C95130318951708009531D12556
:102C0C0096319731462796319531CE250800240010
:102C1C001608F4000630F436890B112E74080139AD
:102C2C00080024001408F4000530F436890B1B2E20
:102C3C0074080139080024001408F4000430F43638
:102C4C00890B252E740801390800F5007508F4006D
:102C5C00F40D210017087406C1397406970008009A
:102C6C00F5007508F400F40DF40D21001D08740630
:102C7C00833974069D000800640080010131013025
:102C8C00FE020030FF3B7F087E0403190034432E04
:102C9C00FE0012001E000130FE020030FF3B7F08D8
:102CAC007E04031900344F2E22008C018D018E01FD
:102CBC0000309531E4259631630001309531E425DF
:102CCC0008002000A000702E7408F5007508210083
:102CDC00E700080020002008013A03196A2E762E1E
:102CEC000800033021001C052000A0002008A200D1
:102CFC0021001B082000A1002208F5002108F40087
:102D0C0008002000A000902E75082200ED00740829
:102D1C00EC00080020002008013A03198A2E962E98
:102D2C000800F50150307502031808007508A03E24
:102D3C0086000330870081010130F4007408F50728
:102D4C00982EF50150307502031808007508203EC6
:102D5C0086000330870081010130F4007408F50708
:102D6C00A82E8B3197239631F601F60A21006908BB
:102D7C00031DBC2E8631522696312100E901E90A49
:102D8C00BC2E03307906031D080025002103031D0A
:102D9C00D52EF401F40A0130963167260800F401AF
:102DAC000130963167260800E52E973119279631A8
:102DBC0054308431E52408008E31D1260800760881
:102DCC00003A0319DB2E013A0319E22EED2E08000E
:102DDC00FA2E0B3096312B26963101309531E425A5
:102DEC0008009531C02508007608003A0319EF2E2B
:102DFC00013A0319F72E022F08002000A501053017
:102E0C002502031808008B31162397312000A400EB
:102E1C002508A03E86008701240881000130A4000B
:102E2C002408A507052F0630F40074082200D400EE
:102E3C00D501D601D60AD701D70AD801D80AD901AB
:102E4C00D90ADA01DB01DB0ADC01DD01DE01DE0A75
:102E5C000800F4003A2F20001C1508002800171554
:102E6C00080028001E1508007408023A0319312FB7
:102E7C00063A0319342F023A0319372F452F08004D
:102E8C002000C601C60A0830C5004508C700C801A5
:102E9C00C80A1030C9002730CA00CB01CB0A463013
:102EAC00C5004508C20002308C31222408001D30B8
:102EBC009631362697319531C52597319531D425E4
:102ECC009731003A0319642F963177267508200044
:102EDC00A6007408A5002608A4002508A300080075
:102EEC00F400892F200021082200E4002000200893
:102EFC002200E300200023082200E6002000220824
:102F0C002200E50008007408013A0319782F8E2F6F
:102F1C0008002000A1002108F5007508A000200879
:102F2C00860087017408840085010008C03F890869
:102F3C00031908000130F5007508A0070130F500F1
:102F4C007508F407952FF401F5012000201CB22F11
:102F5C002208F4072308F53D0130A235A30D890B97
:102F6C00B32F0130A136A00C890BB82F20082104F7
:102F7C00031DAB2F7508A1007408A00008002000E9
:102F8C00A200A301A301740823020318080023085C
:102F9C002207A00020088600023087000108A1004B
:102FAC002308203E86000330870021088100013071
:102FBC00A0002008A307C92F2000A300A401A4018E
:102FCC002408F400F50175082202031DEF2F740884
:102FDC002102031C08002008F40024082307F50034
:102FEC00750886008701740881000130F4007408AC
:102FFC00A407E62F05340034303431342E34303409
:10300C0031342E34303430340034013400340A344A
:10301C00003464340034E834033410342734253459
:10302C0064342E3425343034313475340034533414
:10303C00423433343334303400344534433448343C
:08304C004F3400342E3400342F
:020000040001F9
:04000E00EAFFFFDF27
:00000001FF
