:1000000080312B28640008007E14803120007F0896
:10001000F300911C1C282100911C1C282000911029
:1000200001302100AA070030AB3D2A082B04031938
:100030001C28AA01AB01EC012100911D26282000FB
:10004000911D26289111BF3088316520730820004A
:10005000FF007E10090080312D289531D725803191
:10006000F90021009531D6258031EC00EC30840078
:100070008830850020308600013087000030FF0086
:1000800028309631702680319D30840023308500E1
:100090005330FE000030FF00963164268031F601B7
:1000A000F701F8012000ED01A03084000030850048
:1000B0002830FE000030FF00963164268031483041
:1000C0008400013085002630FE000030FF009631AC
:1000D00064268031A0308400013085001230FE009B
:1000E0000030FF00963164268031203084000230D9
:1000F00085005030FE000030FF00963164268031CC
:10010000A0308400023085005030FE000030FF0037
:1001100096316426803120308400033085005030D1
:10012000FE000030FF00963164268031A03084004C
:10013000033085005030FE000030FF009631642609
:100140007E1020009531F52D762945302000A00045
:100150009030A100A030B0003008A2000430B100FF
:100160003108A3008831C920803104302000B0005C
:1001700030082100BC00C1308831A72008003F3082
:100180002000A0009030A100A030B0003008A200F4
:100190000530B1003108A3008831C9208031053015
:1001A0002000B00030082100BC00C1308831A720F9
:1001B00008002E302000A0009030A100A030B00038
:1001C0003008A2000830B1003108A3008831C920EE
:1001D000803108302000B00030082100BC00C13060
:1001E0008831A72008002F302000A0009030A10007
:1001F000A030B0003008A2000830B1003108A300E0
:100200008831C920803108302000B000300821003A
:10021000BC00C1308831A72008009531D8250800DE
:1002200096317C260800240021088A31CA22080061
:1002300097310D2708009731CE2780312000240800
:10024000B7002308B6003708B00030082500A0002A
:1002500020003608B00030082500A1000230200040
:10026000B00030082100BC00C1308831A720080050
:100270009731CE27803120002408B7002308B6002C
:100280003708B1003608B000B136B00CB136B00C4A
:10029000B136B00C3008D83EB600FF30313DB70063
:1002A0003708A8003608A7000A30A9000030AA00C5
:1002B00032308C315024803132302000A0000030A8
:1002C000A100A030B0003008A2000230B100310817
:1002D000A3008831C920803102302000B0003008EE
:1002E0002100BC00C1308831A7200800240020086C
:1002F000103A0319A528303A0319BF28013A031907
:10030000D928033A0319F328123A03190D29013A9F
:1003100003191029703A03191329033A03191829EC
:10032000073A03191B29033A0319382997290800AA
:10033000792ABF30883186208131003A03190800BC
:10034000963139268131003A031DAC292100B501CF
:10035000B50AB601B60A0800963139268131013A4C
:10036000031D080021003503031D08007708031D45
:10037000C02902302000E40064082100B600080013
:1003800003302000E40064082100B60008002400C7
:1003900011082000E4006408F6007636E4006408E2
:1003A000F6002400110801392000E4006408F70079
:1003B0007703031DEA2921003708203E8600033019
:1003C000870001082400910001302000E400640847
:1003D0002100B70704302000E40064082100B600C3
:1003E0000800963143268131013A031D3C2A210041
:1003F000B501EF30860023308700780881009D30FA
:10040000860023308700413181019D3086002330F2
:1004100087007608C03F2000EB0150306B020318C4
:10042000332A6B08A03E8600033087000108E400F1
:100430006B08E500E6019F30E7002330E80065081F
:100440006707E9006608683DEA00690886006A08EF
:100450008700640881000130E4006408EB07503035
:100460006B02031C112ABD308831A7208131F801AD
:100470009631B92681314B2A240011082000E4006E
:100480007808A03E860003308700640881000130B0
:10049000E4006408F80704302000E4006408210048
:1004A000B600080096312F268131003A031D682AD4
:1004B00021003708203E8600033087000108240011
:1004C000910001302000E40064082100B7076D2A84
:1004D0002100B701B5019631C92604302000E4009F
:1004E00064082100B6000800240015162100B6019A
:1004F00008002100360884000530040203180800B3
:1005000090310435643E82000800C5308831862071
:100510008231003A031908008031A42082313C2B3B
:10052000240021088F315C2708001430F4000030CB
:10053000F50039308831112082312000E10124009A
:100540002108200061020318B82A6108023E203EFB
:100550008600023087000108B8006108393E860035
:100560008701380881000130B8003808E1079F2A68
:100570006108033E393E8600870181013930973199
:100580004927080024002103031DCA2A013096319F
:1005900025260800003096312526080001308F31CD
:1005A0005C27080002308F315C270800C0308F3193
:1005B0005C27080002308F315C2782311430F40050
:1005C0000030F50039308831112082312000E101FE
:1005D00024002108200061020318012B6108023E5B
:1005E000203E8600023087000108B8006108393ECD
:1005F00086008701380881000130B8003808E1071B
:10060000E82A6108033E393E8600870181013930BE
:10061000973149270800C0308F315C278231143070
:10062000F4000030F500393088311120823120008B
:10063000E10124002108200061020318322B610827
:10064000023E203E8600023087000108B8006108A3
:10065000393E86008701380881000130B80038082B
:10066000E107192B6108033E393E860087018101AD
:10067000393097314927080024002008503A0319DF
:10068000902A013A0319952A033A0319C22A013A1A
:100690000319CE2A073A0319D22A013A0319D62A96
:1006A0000F3A0319DA2A013A03190B2B582B0800C9
:1006B00008002000EC01EC010A3084009030850035
:1006C000003F2300B200013FB30020006C0823006C
:1006D000B400B50133083502031D702B3208340213
:1006E0000318080020006C082300B2000230B23565
:1006F000FF3E031D772B3235053E203E860001303C
:100700008700403FB300413FB40020006C08230045
:10071000B5000230B535FF3E031D8A2B3535033E4B
:10072000203E860001308700403FB600413FB700C1
:1007300034083702031D9E2B33083602031CEA2BB4
:1007400020006C082300B2000230B235FF3E031DCA
:10075000A52B3235033E203E860001308700003055
:10076000C03FC13F20006C082300B2000230B23508
:10077000FF3E031DB72B3235023E203E860001307E
:1007800087008101810A20006C082300B20002303A
:10079000B235FF3E031DC82B3235073E203E860092
:1007A000013087000108B30033082000E3006C0823
:1007B0002300B4000230B435FF3E031DDB2B34357B
:1007C000203E860001308700413F8A00403F0A00FA
:1007D00083310E2C20006C082300B2000230B235A9
:1007E000FF3E031DEF2B3235033E203E86000130D5
:1007F00087000130810741310318810A20006C080D
:100800002300B2000230B235FF3E031D032C323507
:10081000023E203E86000130870081010130230026
:10082000B20032082000EC070A30840090308500C6
:10083000003F2300B200013F642B2000A2002100F2
:100840000D170D16200022088600013087000108D0
:10085000A0002008240095042000220A8600013010
:1008600087000108A0000230A035FF3E031D342C94
:100870002035A10021082400960420002208033E10
:100880008600013087000108A0002008240096049B
:10089000200022080A3E8600013087000108A000DF
:1008A0000630A035FF3E031D512C2035A100210844
:1008B0002400960420002208043E860001308700B0
:1008C0000108A0000530A035FF3E031D632C203534
:1008D000A10021082400970420002208053E86007C
:1008E000013087000108A0000430A035FF3E031D41
:1008F000752C2035A100210824009704200022082F
:10090000063E8600013087000108A0000330A035B4
:10091000FF3E031D872C2035A100210824009704E9
:1009200020002208073E8600013087000108A00051
:100930000130A035FF3E031D992C2035A100210870
:100940002400970420002208083E8600013087001A
:100950000135A00020082400970420002208093E49
:100960008600013087000108A000200824009704B9
:1009700020002208023E8600013087000108A00006
:100980000430A035FF3E031DC12C2035A1002108F5
:100990002400950420009111210091159631B9266B
:1009A00084319631C92608002000BC000030C10007
:1009B0000030C0000030BF000030BE003308B4007B
:1009C000B5013408A2003508A3003208B600B7010B
:1009D0003608A0003708A10088312C20843120007F
:1009E0002008B8002108B900BA01BB013B08A700E4
:1009F0003A08A6003908A5003808A4003008A80065
:100A00003108A900AA01AB018931C5218431200038
:100A10002708C1002608C0002508BF002408BE0022
:100A20004108A3004008A2003F08A1003E08A00022
:100A30000030A7003D30A6000930A5000030A4001A
:100A40008B31A523843120002308031D862D220825
:100A5000031D862D01302102031C772D862D4108B0
:100A6000A3004008A2003F08A1003E08A0000030FB
:100A7000A7003D30A6000930A5000030A4008B314E
:100A8000A5238431200020089B00832D4108A3006A
:100A90004008A2003F08A1003E08A0000030A700C7
:100AA0003D30A6000930A5000030A4008B31A523FD
:100AB00084312000200828009600832D2000410862
:100AC000A3004008A2003F08A1003E08A00000309B
:100AD000A7003D30A6000930A5000030A4008B31EE
:100AE000A52384312000200828009D00832D2000AC
:100AF0003C08023A03192F2D063A0319462D023AF3
:100B000003195E2D832D2000BD01882DBD01BD0A76
:100B10003D0808002D2ED030F4000730F500973145
:100B2000342785312100B801B80A2D2E9631D926F7
:100B300085310230282E30308B31F8238531033057
:100B4000182E30308B31F82385310430182E303098
:100B50008B31F82385310530182E2703031DB22D64
:100B60003030B32D20308B31F82385310630182EEC
:100B700029082000A5000230A535890BBC2D2100D5
:100B800028082000A6000330A635890BC42D2100BB
:100B900027082000A7000330A735FF3E031DCC2DFA
:100BA00027352604250420388F315C27853107300E
:100BB000182E23082000A5000130A535890BDD2D56
:100BC000210022082000A6000130A635FF3E031DAB
:100BD000E52D263525042100240408388F315C27B3
:100BE00085310830182E26082000A5000230A535D2
:100BF000890BF72D210025082000A6000230A6351C
:100C0000FF3E031DFF2D2635250410388F315C274C
:100C100085310930182E2035210404388F315C27A6
:100C200085310A30282E01308F315C2785310B3019
:100C30002000A50025082100BA000C30282ED03055
:100C4000F4000730F50097313427853121003A0848
:100C50002000A50025082100B8000B30210038062F
:100C6000031908002100380884000D30040203181D
:100C70002D2E903104354A3E82002D2EF4002400A2
:100C80008C01740886008701010C031C0C100318EA
:100C90000C14740A86008701010C031C8C100318C5
:100CA0008C147408023E86008701010C031C0C1191
:100CB00003180C157408033E86008701010C031C01
:100CC0008C1103188C157408043E86008701010CF2
:100CD000031C0C1203180C167408053E86008701CD
:100CE000010C031C8C1203188C168D017408063E2F
:100CF00086008701010C031C0D1203180D167408E1
:100D0000073E86008701010C031C8D1203188D1607
:100D10007408083E86008701010C031C0D1303189C
:100D20000D177408093E86008701010C031C8D1302
:100D300003188D178E0174080A3E86008701010C86
:100D4000031C0E1003180E1474080B3E8600870156
:100D5000010C031C8E1003188E1474080C3E8600C0
:100D60008701010C031C0E1103180E1574080D3EAB
:100D700086008701010C031C8E1103188E15740860
:100D80000E3E86008701010C031C0E1203180E167E
:100D900074080F3E86008701010C031C8E12031895
:100DA0008E167408103E86008701010C031C0E137A
:100DB00003180E177408113E86008701010C031CEE
:100DC0008E1303188E1708002000A4009531DA2531
:100DD000863122008C1620002408A2000730A2369B
:100DE000890BEF2E22080139A300A30DA30D2200C9
:100DF0000E0820002306FB39230622008E00200067
:100E00002408A2000630A236890B032F22080139DC
:100E1000A300A30D22000E0820002306FD3923069F
:100E200022008E0020002408A2000530A236890B83
:100E3000162F01302205A30022000E0820002306F1
:100E4000FE39230622008E0020002408A200043070
:100E5000A236890B282F22080139A300A30DA30D68
:100E600022000C0820002306FB39230622008C00F8
:100E70009631FB26863120002408A2000330A236DA
:100E8000890B3F2F22080139A300A30DA30D2200D7
:100E90000E0820002306FB39230622008E002000C6
:100EA0002408A2000230A236890B532F22080139F0
:100EB000A300A30D22000E0820002306FD392306FF
:100EC00022008E0020002408A2000130A236890BE7
:100ED000662F01302205A30022000E082000230601
:100EE000FE39230622008E00200024080139A200CA
:100EF000A20DA20D22000C0820002206FB392206BA
:100F000022008C009631FB26863122008C1295310E
:100F1000DD2508002000AA00E62F2A0A86000130FD
:100F200087008101810A2A0886000130870081013B
:100F3000810A2A08023E86000130870001308107BD
:100F400041310318810A0A30A0000030A1002A08AC
:100F5000043E860001308700403FA200413FA300CD
:100F60008A312622873120002A08023E860001307D
:100F70008700403FA800413FA90021082902031D26
:100F8000C32F20082802031CF62F2A08023E8600E1
:100F9000013087000030C03FC13F2A0A860001307F
:100FA000870081010230A8002A08860001308700EE
:100FB00028088100F62F2A08860001308700810169
:100FC000F4012708963189268731F62F20002A0858
:100FD0008600013087000108003A03198D2F013A7D
:100FE0000319992F033A0319DB2FF62F20002A0A41
:100FF0008600013087000108080021009D140800C8
:101000008B31572388312000ED01ED0A21006C0857
:10101000031D06288331592388312100EC01EC0A95
:1010200006282000A200A301A3012308A000A1011B
:1010300021087502031D1E2820087402031C0800E5
:1010400023082207A00020088600870181010130C3
:10105000A0002008A3071528F401F5012000201C9A
:1010600035282208F4072308F53D0130A235A30DE9
:10107000890B36280130A136A00C890B3B282008AB
:101080002104031D2E287508A1007408A000080083
:101090002000A200A301A301740823020318080082
:1010A00023082207A00020088600023087000108DC
:1010B000A1002308203E860003308700210881001C
:1010C0000130A0002008A3074C28F100F2017108AC
:1010D0008600870102300106031981287108860005
:1010E000870103300106031981280230F000710ADC
:1010F00086008701700881000230F0007008F2005D
:1011000008000330F0007008F2000800F500F40158
:1011100075088600870101030319A5287508860054
:101120008701033001060319A528750A8600870187
:1011300002300106031DA428750A8600870181017B
:10114000810AF401F40AA528F401740808002000BB
:10115000A100A001210886008701023001060319C1
:10116000C428210886008701033001060319C4281A
:101170000230F400210A86008701740881000230E1
:10118000F4007408A00008000330F4007408A00004
:101190000800F401F4012000230874020318080079
:1011A00020002108A5002008A4007408240784005A
:1011B00025080318250A85000008A60074082207E0
:1011C000A70027088600023087002608810001302A
:1011D000A4002408F407CB289834013400340034E8
:1011E00000340134003400345E34173400340034E9
:1011F00000340134003400347334173400340034C4
:101200000034E834033400349534093400340034B5
:1012100000346434003400342D340E34003400348F
:101220000034643400340034F5003129200091107A
:10123000740C2100031C9110031891140800200065
:101240009310740C2100031C9310031893140800CE
:1012500020009311740C2100031C931103189315A3
:1012600008007508023A03191629063A03191F29BE
:10127000023A031928293C2908005B290130200083
:10128000E20062082100B3070A303302031C0800A1
:101290008A3192222100B201B20A0800C33088319B
:1012A000A72002302000E20062082100B2000800FE
:1012B00082318522080021003208003A03193E29B4
:1012C000013A03194E29033A0319582967290800DE
:1012D00020002008210403199029F501F50AA11B1B
:1012E0007B290130A035A10D890B72290130F40052
:1012F0007408F5076F2921082302031D812920089E
:101300002202031C87292008A2022108A33B0130E6
:10131000A136A00C890B88290130F502031D7B2919
:101320002308A1002208A0000800BB2921008D137A
:1013300022008D1301308A31CA220800C7302000F4
:10134000E4006408AB005F30E5006508AC0068307D
:10135000E6006608AD0001308931F5212000E70084
:10136000E70CE70C22000D08200067067F396706AE
:1013700022008D00080020006D08003A031996290C
:10138000013A03199E29C429080000302000AF004B
:101390000030AE000030AD000030AC00241CD82975
:1013A0002808AC072908AD3D2A08AE3D2B08AF3D03
:1013B0000130A835A90DAA0DAB0D890BD929013033
:1013C000A736A60CA50CA40C890BE0292708260437
:1013D00025042404031DCE292F08A7002E08A600EB
:1013E0002D08A5002C08A40008002000B000B101C1
:1013F000132AB101242AB101B10A242A2C088E3102
:10140000BD2689312000AE002E08112A3008AE001A
:101410002E08A7002D0887318A2789312000AF00C8
:101420002F08B100242A2B08860087010108003A02
:101430000319F929013A0319FB29033A0319FE2973
:10144000013A0319062A242A310808002000A501C0
:10145000A601200821040319562AA401A40AA11BED
:101460003B2A0130A035A10D890B322A0130F4004E
:101470007408A4072F2A0130A535A60D890B3C2A34
:1014800021082302031D462A20082202031C4D2A9C
:101490002008A2022108A33B25140130A136A00C8C
:1014A000890B4E2A0130A402031D3B2A2608A10005
:1014B0002508A0000800F400740886008701010CCC
:1014C0002100031C1D1003181D14740A86008701D7
:1014D000010C031C9E1303189E177408023E86001D
:1014E0008701010C031C1E1203181E167408033E0C
:1014F00086008701010C031C1E1103181E157408B9
:10150000043E860087011E080106FC3901069E0084
:101510007408053E86008701010C031C1113031893
:1015200011170800031020000E1F03140030093D9E
:10153000F4000230F435FF3E031D9A2A7435F5009D
:1015400075082100BB04031020008E1D0314003019
:10155000093DF4000130F435FF3E031DAB2A74351C
:10156000F50075082100BB04031020000E1E0314B3
:101570000030093D0907F40074082100BB04031082
:1015800020008E1E03140030093DF4007408210071
:10159000BB0408002000A500FD2AF40101309631AB
:1015A0008926F90108003230F4000030F5000130DE
:1015B0009631A926F901F90A080032302000A0006E
:1015C0000030A100B630A2000330A30001309731F3
:1015D000E7278A3102302000A4002408F4000130FB
:1015E0009631892602302000A4002408F900080062
:1015F0000330A4002408F90008002508003A031964
:10160000CD2A013A0319D32A033A0319DD2A013AF4
:101610000319F82A0B2B08002000C400420886009A
:1016200087010108C3004308F400420886008701CF
:10163000413FF50044088D3122258B3120004208BE
:10164000023E860087010103031D292BF401F40AE1
:101650002B2BF40120004408893114218B31200008
:101660004208033E86008701403FB000413FB10081
:101670004208860087010108C3004308B2004208FF
:1016800086008701413FB30044088431D4248B3164
:10169000013A03194A2B20004208053E86008701C3
:1016A0000103031D080044089731A027080020000B
:1016B000EC01EC010A30840090308500003F2300EB
:1016C000B200013FB30020006C082300B400B50154
:1016D00033083502031D6E2B32083402031808004C
:1016E00020006C082300B2000230B235FF3E031D1B
:1016F000752B3235073E203E8600013087000108F9
:10170000B30033082000E3006C082300B40002306B
:10171000B435FF3E031D882B3435203E8600013052
:101720008700413F8A00403F0A008B31013023008F
:10173000B20032082000EC070A30840090308500A7
:10174000003F2300B200013F622B00302000AB00BD
:101750000030AA000030A9000030A80023082204AD
:10176000210420040319EF2BAC01AC0AA31BC42BEA
:101770000130A035A10DA20DA30D890BB92B0130AD
:10178000F4007408AC07B62B0130A835A90DAA0DDA
:10179000AB0D890BC52B23082702031DD92B22086B
:1017A0002602031DD92B21082502031DD92B200851
:1017B0002402031CE42B2008A4022108A53B2208D4
:1017C000A63B2308A73B28140130A336A20CA10C8A
:1017D000A00C890BE52B0130AC02031DC42B2B0898
:1017E000A3002A08A2002908A1002808A0000800D8
:1017F0002000A4009531DA258B3120002408A200B6
:101800000730A236890B012C22080139A300A30D51
:10181000A30D22000E0820002306FB392306220018
:101820008E0020002408A2000630A236890B152C59
:1018300022080139A300A30D22000E082000230670
:10184000FD39230622008E0020002408A200053066
:10185000A236890B282C01302205A30022000E0895
:1018600020002306FE39230622008E0020002408D3
:10187000A2000430A236890B3A2C22080139A300B9
:10188000A30DA30D22000C0820002306FB3923061C
:1018900022008C009631FB268B319531DD25080026
:1018A0002000AF002808AD002708AC002A08A100DE
:1018B0002908A0002D08A3002C08A2008A312622A6
:1018C0008C3120002108AD002008AC000130AB00B5
:1018D0002B08AF072C082D04031D562C2F0886005B
:1018E000870181010130AF022A08A1002908A00068
:1018F0002808A3002708A200893168218C31200024
:101900002008AB002B08AE002A08A1002908A0007F
:101910002808A3002708A2008A3126228C31200043
:101920002108A8002008A7000A302E02031C9C2CC6
:101930000730AB002B08AE073030AB002B08AE07EA
:101940002E08AB002F08860087012B08810001308C
:10195000AF0227082804031D742C0130AB002B08AC
:10196000AF070800F40023008C017408860087018B
:10197000010C031C0C1003180C14740A8600870158
:10198000010C031C8C1003188C147408023E860092
:101990008701010C031C0C1103180C157408033E7D
:1019A00086008701010C031C0C1203180C168D0114
:1019B0007408043E86008701010C031C0D120318F5
:1019C0000D167408053E86008701010C031C8D125C
:1019D00003188D168E017408063E86008701010CDF
:1019E000031C0E1003180E147408073E86008701AE
:1019F000010C031C8E1003188E147408083E860018
:101A00008701010C031C0E1103180E157408093E02
:101A100086008701010C031C8E1103188E157408B3
:101A20000A3E86008701010C031C0E1303180E17D3
:101A300074080B3E86008701010C031C8E130318EB
:101A40008E1708002000A100902D1C10282D1C14BA
:101A50009C10382D1C109C14382D7408013A031961
:101A6000252D053A0319272D143A03192A2D382D4F
:101A70007508FF3EA000A00DA00DA00D1C082006BB
:101A8000873920069C00080028001710492D2800DF
:101A9000171497105A2D2800171097145A2D7408F0
:101AA000013A0319442D053A0319472D143A031935
:101AB0004B2D5A2D7508FF3E2000A000A00DA00D53
:101AC000A00D2800170820002006873920062800CE
:101AD0009700080028001E106F2D28001E149E106D
:101AE000802D28001E109E14802D7408013A0319C1
:101AF0006A2D053A03196D2D143A0319712D802DA5
:101B00007508FF3E2000A000A00DA00DA00D28002C
:101B10001E08200020068739200628009E000800A5
:101B200020002108023A03192D2D063A03194F2DE2
:101B3000023A0319752D9C2D08002000A901232EBF
:101B4000C330883186208D31003A03190800210006
:101B50003B089531E4258D317F309531E925210011
:101B6000B401B40A0800BD30883186208D31003AB6
:101B70000319062E9D3086002330870001082100BE
:101B80003B060319CA2D9D308600233087000108CB
:101B9000031D08009D308600233087004131010875
:101BA000031D08002000A901503029020318F62D5A
:101BB0002908A400A5019F30A6002330A70024080F
:101BC000260786002508273D87000108A800290868
:101BD000203E860002308700280881000130A400E2
:101BE0002408A90750302902031CD82DC53088319C
:101BF000A7208D317903031D080003302000A400C5
:101C00002408F4000130963189260800C13088315B
:101C100086208D31003A0319080021003C0820007D
:101C2000A4002408F400A030883148208D317903C5
:101C3000031D080003302000A4002408F400013034
:101C400096318926080021003408003A0319A02D96
:101C5000013A0319B32D2C2E0800A0308600013064
:101C60008700CE3084000030850012302000E40070
:101C700016001A00E40B382E483086000130870029
:101C8000E0308400003085000C30E40016001A00BB
:101C9000E40B462EB32E21008E160E168E150E174F
:101CA0000C1222000C162100DB01DB0ADC01DC0A2D
:101CB000DD01DD0ADE01DE0ACE3086313E268E31C0
:101CC0000030963114268E312100E001E101E2015D
:101CD000E301E601E701E801E901EA01EB01E401C2
:101CE000E501E0308C31B2248E319631EA268E3116
:101CF00085318A258E31013096310C268E310030A7
:101D0000963104268E3103302000E400640821005F
:101D1000CA00CD01CB01CC01C901C90AC801C80A5A
:101D2000C8308A315B228E3102308F315C278E3190
:101D30000C302000A5009030A600973189278E3105
:101D4000C0308F315C278E311D302000A5009030CF
:101D5000A600973189278E3101309631252608005B
:101D600089313D21080020006D08003A03194B2EEF
:101D7000013A0319B02EBC2E0800F5004A2F750851
:101D8000083E86000130870001082000A700750A80
:101D90008600013087002708810075080C2F750820
:101DA000023E86000130870001308107413103186F
:101DB000810A750A8600013087000108031D122F71
:101DC0000A302000A0000030A1007508063E860001
:101DD00001308700403FA200413FA3008A31262204
:101DE0008E317508023E860001308700403F20009A
:101DF000A700413FA80021082802031D012F200849
:101E00002702031C562F7508023E8600013087000A
:101E10000030C03FC13F750A860001308700810154
:101E2000810A562F750A8600013087000103031DC1
:101E3000562F0A302000A0000030A1007508043E93
:101E4000860001308700403FA200413FA3008A3155
:101E500026228E317508023E860001308700403F01
:101E60002000A700413FA80021082802031D3A2FA7
:101E700020082702031C562F7508023E86000130F9
:101E800087000030C03FC13F750A860001308700DF
:101E90008101562F75088600013087000108003A3D
:101EA0000319BF2E013A0319CF2E562F750A86004B
:101EB00001308700010808002000A4009531DA25D0
:101EC0008F3122008C1220002408A2000730A23695
:101ED000890B672F22080139A300A30DA30D22004F
:101EE0000E0820002306FB39230622008E00200066
:101EF0002408A2000630A236890B7B2F2208013964
:101F0000A300A30D22000E0820002306FD3923069E
:101F100022008E0020002408A2000530A236890B82
:101F20008E2F01302205A30022000E082000230678
:101F3000FE39230622008E0020002408A20004306F
:101F4000A236890BA02F22080139A300A30DA30DEF
:101F500022000C0820002306FB39230622008C00F7
:101F60009631FB268F3120002408A2000330A236D0
:101F7000890BB72F22080139A300A30DA30D22005E
:101F80000E0820002306FB39230622008E002000C5
:101F90002408A2000230A236890BCB2F2208013977
:101FA000A300A30D22000E0820002306FD392306FE
:101FB00022008E0020002408A2000130A236890BE6
:101FC000DE2F01302205A30022000E082000230688
:101FD000FE39230622008E00200024080139A200C9
:101FE000A20DA20D22000C0820002206FB392206B9
:101FF00022008C009631FB268F319531DD250800BB
:10200000013400340A34003464340034E8340334D6
:10201000103427340534003420344D3465347234A0
:1020200063347534723479342034533479347334EE
:10203000743465346D3420340034453442343234E1
:10204000313430343A3420344C3463346434203402
:1020500042346F3461347234643400343034313497
:102060002E34303431342E3430343034003425348E
:1020700064342E34253430343134753400344534EE
:10208000423432343134303400344534433448340B
:102090004F34003485318B2D8531962D85319B2D24
:1020A0008531A12D8531A72D8531AD2D8531B82DF7
:1020B0008531D92D8531F32D86310B2E8631132EA6
:1020C00086312D2E86311F2E813199298131C729E4
:0C20D0008131F1298231522A8231742AB8
:102BAC0001340134010008008B130B1308008B1740
:102BBC000B17080021001D0C01390800F4007435B6
:102BCC00240092000800F4007435240093000800DF
:102BDC0021009914783099041A180800F22D9631B6
:102BEC001C2695318831002080312B28F400740C80
:102BFC002100031C1710031817140800F400740CA0
:102C0C002200031C1712031817160800F400740C8A
:102C1C002200031C9712031897160800F400740C7A
:102C2C002100031C95130318951708009531EE2508
:102C3C0096319731B72796319531DD250800F40090
:102C4C007403031D2C2E22008E17080022008E13F5
:102C5C00080024001608F4000630F436890B332ED5
:102C6C0074080139080024001408F4000530F43607
:102C7C00890B3D2E74080139080024001408F40057
:102C8C000430F436890B472E740801390800F5001E
:102C9C007508F400F40D210017087406C139740688
:102CAC0097000800F5007508F400F40DF40D2100F0
:102CBC001D087406833974069D00080064008001A9
:102CCC0001310130FE020030FF3B7F087E04031906
:102CDC000034652EFE0012001E000130FE02003092
:102CEC00FF3B7F087E0403190034712E22008C01F7
:102CFC008D018E0100309531FC2596316300013039
:102D0C009531FC2508002000A000922E7408F500D7
:102D1C0075082100C700080020002008013A03199B
:102D2C008C2E982E0800033021001C052000A000DA
:102D3C002008A20021001B082000A1002208F50099
:102D4C002108F40008002000A000B22E7508220013
:102D5C00ED007408EC00080020002008013A03196B
:102D6C00AC2EB82E0800F50150307502031808007F
:102D7C007508A03E86000330870081010130F40005
:102D8C007408F507BA2EF5015030750203180800C7
:102D9C007508203E86000330870081010130F40065
:102DAC007408F507CA2E21000C110E108E100E118E
:102DBC008D128C128E1322000C110E108E100E110F
:102DCC008D128C128E1308002100A101A001A00A03
:102DDC00A501A50AA601A60AA401A301A201A20AA3
:102DEC00A801A80AA901A701080022008D16C83065
:102DFC00F4000030F50097313427963122008D1203
:102E0C00C830F4000030F500973134270800033047
:102E1C007906031D080024002103031D1B2FF40158
:102E2C00F40A0130963189260800F40101309631FC
:102E3C00892608000630F40074082200D400D5015D
:102E4C00D601D60AD701D801D80AD901D90ADA0194
:102E5C00DB01DC01DD01DE01DE0A08002000A0013F
:102E6C00A10175082102031D3D2F740820020318CF
:102E7C000800000000000000000001302000A00746
:102E8C000030A13D372F2000A600260886008701C0
:102E9C0001080319080026088600870101088631FD
:102EAC00E426973101302000A5002508A6074B2FFA
:102EBC00692F973120279731543084311D24080015
:102ECC008D319D25080020006D08003A03195F2FF5
:102EDC00013A0319662F722F08007F2F0B309631A1
:102EEC004D26973101309531FC25080080310220A8
:102EFC00080020006D08003A0319742F013A0319D9
:102F0C007C2F882F080020002508840026088500C7
:102F1C0012000319080020002508840026088500EB
:102F2C0000088631E426973101302000A5070030D7
:102F3C00A63D892FF400AB2F20001C15080028009B
:102F4C001715080028001E1508007408023A03190A
:102F5C00A22F063A0319A52F023A0319A82FB62F50
:102F6C0008002000C601C60A0830C5004508C70085
:102F7C00C801C80A1030C9002730CA00CB01CB0ADF
:102F8C004630C5004508C20002308B310C230800C6
:102F9C001D309631582697318731FD279731953161
:102FAC00E0259731003A0319D52F963199267508EB
:102FBC002000A6007408A5002608A4002508A3007C
:102FCC000800F400FA2F200021082200E400200061
:102FDC0020082200E300200023082200E600200045
:102FEC0022082200E50008007408013A0319E92FB1
:042FFC00FF2F08009B
:020000040001F9
:04000E00ECFFFFDF25
:00000001FF
