:1000000080312C28640008007E14803120007F0895
:10001000F300911C1D282100911C1D282000911027
:1000200001302100B4070030B53D34083504031910
:100030001D28B401B5012000ED012100911D2728E4
:100040002000911D2728911168308B310F237308F0
:100050002000FF007E10090080312E288931032105
:100060008031F900893102218031ED00BB308400FC
:100070008B30850020308600013087000030FF0083
:1000800028308931A12180319D30840023308500C2
:100090005330FE000030FF00893195218031F60198
:1000A000F701F80159308400003085001430FE005B
:1000B0000030FF00893195218031A030840000306C
:1000C00085004E30FE000030FF00893195218031DF
:1000D000A0308400013085005030FE000030FF0069
:1000E00089319521803120308400023085005030E4
:1000F000FE000030FF00893195218031A03084005E
:10010000023085005030FE000030FF00893195211B
:10011000803120308400033085005030FE000030F4
:10012000FF00893195217E10200089312429822900
:1001300068308B3130238031003A0319080089314F
:100140005E218031003A031DBF2820005C03031D9F
:10015000B5280130BD003D08DD070B305D02031CF2
:10016000B728893104218031B7282000DD01200023
:10017000DC01DC0ADF01DF0AE001E00A0800893166
:100180005E218031013A031D080020005F03031D3A
:100190000800DC016108031DD2280230BD003D08C3
:1001A000E00008000330BD003D08E0000800240026
:1001B00011082000BD003D08DE005E36BD003D0890
:1001C000DE002400110801392000BD003D08E100D7
:1001D0006103031DF8286308A03E860002308700F3
:1001E00001082400910001302000BD003D08E30714
:1001F0000430BD003D08E0000800893168218031ED
:10020000013A031D48292000DF01EF30860023302A
:100210008700620881009D308600233087004131CD
:1002200081019D308600233087005E08C03FC401F5
:100230005030440203183E294408203E8600033013
:1002400087000108BD004408BE00BF019F30C00008
:100250002330C1003E084007C2003F08413DC300B3
:1002600042088600430887003D0881000130BD0038
:100270003D08C40750304402031C1C2966308B31F2
:10028000512380312000E2018931DB21803157295F
:10029000240011082000BD006208203E86000330C3
:1002A00087003D0881000130BD003D08E2070430B1
:1002B0002000BD003D08E000080089315421803154
:1002C000003A031D722920006308A03E8600023018
:1002D000870001082400910001302000BD003D0886
:1002E000E30777292000E301DF018931EB210430A6
:1002F0002000BD003D08E000080024001516200085
:10030000E0010800200060088400053004020318A2
:10031000080088310435003E820008005A2A233044
:100320002000A0009030A1002030B0003008A200D2
:100330000430B1003108A3008B31732381310430C4
:100340002000B0003008E4006A308B3151230800EF
:100350001D302000A0009030A1002030B0003008F7
:10036000A2000530B1003108A3008B317323813125
:1003700005302000B0003008E4006A308B31512392
:1003800008000C302000A0009030A1002030B00008
:100390003008A2000830B1003108A3008B3173236C
:1003A000813108302000B0003008E4006A308B3121
:1003B000512308000C302000A0009030A100203014
:1003C000B0003008A2000830B1003108A3008B3122
:1003D0007323813108302000B0003008E4006A3017
:1003E0008B31512308008931062108008931892188
:1003F0000800230021088731BE2708008A310B221C
:1004000008008A318B22813120002408B70023089C
:10041000B6003708B00030082400A00020003608DD
:10042000B00030082400A10002302000B0003008E5
:10043000E4006A308B31512308008A318B228131EC
:1004400020002408B7002308B6003708B10036089A
:10045000B000B136B00CB136B00CB136B00C3008CB
:10046000D83EB600FF30313DB7003708A800360847
:10047000A7000A30A9000030AA0032308E31C7260A
:10048000813132302000A0000030A1002030B000C7
:100490003008A2000230B1003108A3008B31732371
:1004A000813102302000B0003008E4006A308B3126
:1004B0005123080023002008103A03198F29303AED
:1004C0000319A829013A0319C129033A0319DA29A2
:1004D000123A0319F329013A0319F629703A03195C
:1004E000F929033A0319FE29073A0319012A033AA5
:1004F00003191D2A7B2A08002000D801D8010A30E0
:10050000840090308500003F2200C800013FC900F0
:10051000200058082200CA00CB0149084B02031DE5
:10052000932A48084A0203180800200058082200AD
:10053000C8000230C835FF3E031D9A2A4835053EE3
:10054000203E860001308700403FC900413FCA007D
:10055000200058082200CB000230CB35FF3E031D9F
:10056000AD2A4B35033E203E860001308700403FD8
:10057000CC00413FCD004A084D02031DC12A490865
:100580004C02031C0D2B200058082200C80002302A
:10059000C835FF3E031DC82A4835033E203E86006D
:1005A000013087000030C03FC13F200058082200C2
:1005B000C8000230C835FF3E031DDA2A4835023E26
:1005C000203E8600013087008101810A2000580802
:1005D0002200C8000230C835FF3E031DEB2A483513
:1005E000073E203E8600013087000108C900490807
:1005F0002000BC0058082200CA000230CA35FF3E65
:10060000031DFE2A4A35203E860001308700413F07
:100610008A00403F0A008331312B20005808220015
:10062000C8000230C835FF3E031D122B4835033E7B
:10063000203E8600013087000130810741310318D8
:10064000810A200058082200C8000230C835FF3E49
:10065000031D262B4835023E203E860001308700D0
:10066000810101302200C80048082000D8070A3064
:10067000840090308500003F2200C800013F872A97
:100680002000BC000030C1000030C0000030BF00BE
:100690000030BE003308B400B5013408A2003508AC
:1006A000A3003208B600B7013608A0003708A10041
:1006B0008A31D622833120002008B8002108B900F1
:1006C000BA01BB013B08A7003A08A6003908A500FB
:1006D0003808A4003008A8003108A900AA01AB011D
:1006E0008C319224833120002708C1002608C000E5
:1006F0002508BF002408BE004108A3004008A2004E
:100700003F08A1003E08A0000030A7003D30A60031
:100710000930A5000030A4008E31742683312000FA
:100720002308031DF22B2208031DF22B01302102A6
:10073000031CE32BF22B4108A3004008A2003F0852
:10074000A1003E08A0000030A7003D30A6000930FF
:10075000A5000030A4008E317426833120002008CB
:100760009B00EF2B4108A3004008A2003F08A10016
:100770003E08A0000030A7003D30A6000930A500CB
:100780000030A4008E317426833120002008280018
:100790009600EF2B20004108A3004008A2003F086C
:1007A000A1003E08A0000030A7003D30A60009309F
:1007B000A5000030A4008E3174268331200020086B
:1007C00028009D00EF2B20003C08023A03199B2BC8
:1007D000063A0319B22B023A0319CA2BEF2B200059
:1007E000BD01F42BBD01BD0A3D0808002000A20098
:1007F00021008E140E1420002208860087010108B3
:10080000A0002008240095042000220A8600870109
:100810000108A0000230A035FF3E031D0B2C20353F
:10082000A10021082400960420002208033E86002F
:1008300087010108A0002008240096042000220857
:100840000A3E860087010108A0000630A035FF3E61
:10085000031D262C2035A100210824009604200029
:100860002208043E860087010108A0000530A0355B
:10087000FF3E031D372C2035A100210824009704DA
:1008800020002208053E860087010108A0000430F0
:10089000A035FF3E031D482C2035A100210824006F
:1008A000970420002208063E860087010108A00068
:1008B0000330A035FF3E031D592C2035A10021082F
:1008C0002400970420002208073E860087010108C3
:1008D000A0000130A035FF3E031D6A2C2035A10089
:1008E00021082400970420002208083E8600870182
:1008F0000135A00020082400970420002208093EAA
:10090000860087010108A000200824009704200029
:100910002208023E860087010108A0000430A035AD
:10092000FF3E031D8F2C2035A100210824009504D3
:1009300020009111210091158931DB21833189310A
:10094000EB210800F500222D7508083E860087017E
:1009500001082000A700750A86008701270881008A
:100960007508EA2C7508023E860087010130810770
:1009700041310318810A750A860087010108031DA9
:10098000EF2C0A302000A0000030A1007508063EC0
:1009900086008701403FA200413FA3008D312425FE
:1009A00084317508023E86008701403F2000A70081
:1009B000413FA80021082802031DE02C200827023F
:1009C000031C2D2D7508023E860087010030C03FB4
:1009D000C13F750A860087018101810A2D2D750AA4
:1009E000860087010103031D2D2D0A302000A00081
:1009F0000030A1007508043E86008701403FA20038
:100A0000413FA3008D31242584317508023E8600C4
:100A10008701403F2000A700413FA800210828028D
:100A2000031D142D20082702031C2D2D7508023EDE
:100A3000860087010030C03FC13F750A86008701EC
:100A400081012D2D7508860087010108003A0319E0
:100A5000A42C013A0319B22C2D2D750A86008701AA
:100A6000010808002000A901B52DEA308B313023A0
:100A70008531003A03190800760889311321853140
:100A80007F30893118212000DB01DB0A0800663045
:100A90008B3130238531003A0319992D9D30860022
:100AA000233087000108760603195D2D9D308600EE
:100AB000233087000108031D08009D308600233085
:100AC000870041310108031D08002000A9015030B2
:100AD00029020318892D2908A400A5019F30A6002A
:100AE0002330A7002408260786002508273D870015
:100AF0000108A8002908A03E8600013087002808C8
:100B000081000130A4002408A90750302902031CE9
:100B10006B2DEC308B31512385317903031D080097
:100B200003302000A4002408F40001308931AD21F5
:100B300008006A308B3130238531003A03190800F0
:100B400020006408A4002408F40020308A31F22236
:100B500085317903031D080003302000A400240818
:100B6000F40001308931AD21080020005B08003A13
:100B70000319352D013A0319472DBE2D0800A03069
:100B800086000030870046308400003085000C303D
:100B90002000BD0016001A00BD0BCA2DAC30860027
:100BA000003087003E308400003085000830BD00F2
:100BB00016001A00BD0BD82D3B2E21000E118E11F0
:100BC00022000E118E1121008C160C168E160E1698
:100BD0002000CA01CA0ACB01CB0AD001D00AD10138
:100BE000D10A46308F319127853100308931432138
:100BF00085313E308D3190258531013089313B2161
:100C00008531003089313321853103302000BD002A
:100C10003D08D400D701D501D601D301D30AD201B2
:100C2000D20A52308D3159252100C701C801C901AE
:100C3000CA01CB01CC01CD01CE01CE0ACF01D0013A
:100C4000D101D201D301D401D501D601D70102309F
:100C50002000BD003D082100D800D901DA010800BC
:100C60008B31E3238531C730873144278531D1303B
:100C700087314427080020006508003A0319DD2D5C
:100C8000013A0319302E442E0800EC308B3130230A
:100C90008631003A0319080081318E218631B52E44
:100CA0008B3196230800230021082000B800B901E9
:100CB0003808B900B8013808230022042100CC000C
:100CC000200039082100CD00CF308B31512308009E
:100CD000230021082000B800B9013808B900B80184
:100CE0003808230022042100D60020003908210002
:100CF000D700D9308B315123080023002108200070
:100D0000B800B9013808B900B80138082300220436
:100D10002100CC00200039082100CD00230021084B
:100D20002000B800B9013808B900B801380823001C
:100D300022042100D600200039082100D700CF303E
:100D40008B3151238631D9308B31512308007835CE
:100D500077042000B80038082400A0002000E40137
:100D6000E40A6A308B315123080023002008503AEE
:100D70000319502E013A0319532E033A0319682E12
:100D8000013A03197D2E333A0319A72EC82E080005
:100D900008002000A100372F1C10CF2E1C149C101F
:100DA000DF2E1C109C14DF2E7408013A0319CC2E80
:100DB000053A0319CE2E143A0319D12EDF2E7508E9
:100DC000FF3EA000A00DA00DA00D1C082006873935
:100DD00020069C00080028001710F02E2800171489
:100DE0009710012F280017109714012F7408013A4B
:100DF0000319EB2E053A0319EE2E143A0319F22EBD
:100E0000012F7508FF3E2000A000A00DA00DA00D31
:100E100028001708200020068739200628009700A0
:100E2000080028001E10162F28001E149E10272FC1
:100E300028001E109E14272F7408013A0319112F41
:100E4000053A0319142F143A0319182F272F750880
:100E5000FF3E2000A000A00DA00DA00D28001E0840
:100E6000200020068739200628009E000800200068
:100E70002108023A0319D42E063A0319F62E023A33
:100E800003191C2F432F08002000A400B22F2408B0
:100E9000083E8B3130238731003A03190800F401F2
:100EA000F40A20002408073E8600870101088A31E1
:100EB000BD2220002408860087018101810A0800E4
:100EC000240A860087010130810741310318810A15
:100ED000240A86008701403FA000413FA100003066
:100EE0002102143003192002031C852F240A8600D6
:100EF00087010030C03FC13F2408033E86008701C0
:100F00000130810741310318810A2408053E86001B
:100F10008701403FA000413FA1002408033E860016
:100F20008701403FA200413FA30021082302031D87
:100F30009B2F20082202031C08002408033E860081
:100F400087010030C03FC13FF4012408073E8600FE
:100F5000870101088A31BD2220002408860087010C
:100F6000810108002408860087010108003A03195E
:100F7000472F013A0319602FBD2F08002000A5005C
:100F8000F12FF40101308931AD21F901080032302F
:100F9000F4000030F50001308931CB21F901F90A64
:100FA000080032302000A0000030A100B630A200BE
:100FB0000330A30001308A31A4228731023020009F
:100FC000A4002408F40001308931AD210230200052
:100FD000A4002408F90008000330A4002408F90044
:100FE00008002508003A0319C12F013A0319C72F39
:100FF000033A0319D12F013A0319EC2FFF2F0800F0
:10100000803198288031D7288031FD2881315D29B1
:0410100081317D2984
:10120400013401340100080089310421080021005F
:101214009D1408008B170B17080021001D0C0139C1
:101224000800F4007435240092000800F4007435BA
:1012340024009300080021009914783099041A18A6
:101244000800212989314B2189318931FB218031E1
:101254002C28F400740C2100031C17100318171415
:101264000800F400740C2200031C1712031817164C
:101274000800F400740C2200031C9712031897163C
:101284000800F400740C2100031C9513031895172F
:10129400080089311D2189318A31742289318931CB
:1012A4000C21080024001608F4000630F436890BDB
:1012B400582974080139080024001408F400053082
:1012C400F436890B622974080139080024001408D3
:1012D400F4000430F436890B6C29740801390800D1
:1012E400F5007508F400F40D210017087406C139DF
:1012F400740697000800F5007508F400F40DF40D69
:1013040021001D087406833974069D00080022001C
:101314008C018E01003089312B2189316300013029
:1013240089312B2108006400800101310130FE0263
:101334000030FF3B7F087E04031900349629FE0029
:1013440012001E000130FE020030FF3B7F087E04C5
:1013540003190034A2292000A000B5297408F5005F
:101364007508EC0008002008013A0319B029BA29CD
:101374000800033021001C052000A0002008A20062
:1013840021001B082000A1002208F5002108F40018
:1013940008002000A000D42975082100E900740881
:1013A400E800080020002008013A0319CE29DA29B0
:1013B4000800F50150307502031808007508203E36
:1013C40086000330870081010130F4007408F507BA
:1013D400DC29F50150307502031808007508A03E99
:1013E40086000230870081010130F4007408F5079B
:1013F400EC298E31262689312000E501E50A6D08A5
:10140400031D012A82317C2289312000ED01ED0A7D
:10141400012A03307906031D080023002103031D5C
:10142400192AF401F40A01308931AD210800F401CC
:1014340001308931AD2108000630F4007408210020
:10144400BC00BD01BE01BE0ABF01C001C00AC1018A
:10145400C10AC201C301C401C501C601C60A08000C
:101464003D2A8A311E228A31BC308331F62308009A
:1014740085313225080020006508003A0319332A13
:10148400013A03193A2A462A0800532A0B308931B3
:1014940072218A31013089312B21080080310220E8
:1014A400080020006508003A0319482A013A031984
:1014B400502A5C2A0800F400682A20001C15080041
:1014C40028001715080028001E1508007408023AA1
:1014D40003195F2A063A0319622A023A0319652A94
:1014E400732A08002000C601C60A0830C500450852
:1014F400C700C801C80A1030C9002730CA00CB0190
:10150400CB0A4630C5004508C20002308D31DB25C8
:1015140008001D3089317D218A31893109218A31C0
:1015240089310F218A31003A0319922A8931BB216A
:1015340075082000A6007408A5002608A400250844
:10154400A3000800F400B72A200021082100E000CD
:10155400200020082100DF00200023082100E200F1
:10156400200022082100E10008007408013A031950
:10157400A62ABC2A0800F500CD2A740C2200031CFC
:101584000E1103180E150800740C2200031C8E1192
:1015940003188E1508007508013A0319BF2A033A87
:1015A4000319C62AD52A0800F401F5012000201CDD
:1015B400DF2A2208F4072308F53D0130A235A30DE4
:1015C400890BE02A0130A136A00C890BE52A2008FA
:1015D4002104031DD82A7508A1007408A00008007E
:1015E4002000A200A301A301740823020318080029
:1015F40023082207A0002008860002308700010883
:10160400A1002308A03E8600023087002108810043
:101614000130A0002008A307F62AF100F2017108A6
:10162400860087010230010603192B2B71088600FE
:1016340087010330010603192B2B0230F000710AD5
:1016440086008701700881000230F0007008F20003
:1016540008000330F0007008F2000800F500F401FF
:10166400750886008701010303194F2B750886004E
:1016740087010330010603194F2B750A8600870181
:1016840002300106031D4E2B750A86008701810175
:10169400810AF401F40A4F2BF401740808002000B5
:1016A400A100A00121088600870102300106031968
:1016B4006E2B2108860087010330010603196E2B67
:1016C4000230F400210A8600870174088100023088
:1016D400F4007408A00008000330F4007408A000AB
:1016E4000800F401F4012000230874020318080020
:1016F40020002108A5002008A40074082407840001
:1017040025080318250A85000008A6007408220786
:10171400A7002708860002308700260881000130D0
:10172400A4002408F407752B2300211C9C2BF7012B
:10173400F70A9D2BF70121082000A0000130A036F4
:10174400890BA12B201CA92BF801F80AAA2BF8015C
:101754007708A0002008F40001308A31BD228B31C3
:1017640078082000A0002008F40002308A31BD224D
:101774000800973400340034003400340134003459
:10178400003432340A340034003400340134003478
:10179400003447340A34003400340034E834033469
:1017A400003462340C3400340034003464340034C3
:1017B4000034BF340534003400340034F4340134CC
:1017C4000034FF2B01302000BB003B08DA07023055
:1017D4005A02031C08008C31C2242000D901D90A02
:1017E4000800EA308B31512302302000BB003B0853
:1017F400D900080086314526080020005908003A1F
:101804000319E42B013A0319F32B033A0319FC2BB4
:101814000B2C0800F500292C20009110740C2100D9
:10182400031C911003189114080020009310740CE9
:101834002100031C93100318931408002000931133
:10184400740C2100031C93110318931508007508E8
:10185400023A03190E2C063A0319172C023A0319FB
:10186400202C342C080020002008210403195D2CAE
:10187400F501F50AA11B482C0130A035A10D890BF7
:101884003F2C0130F4007408F5073C2C2108230296
:10189400031D4E2C20082202031C542C2008A202F3
:1018A4002108A33B0130A136A00C890B552C013033
:1018B400F502031D482C2308A1002208A0000800FB
:1018C400882C21000C1122000C1101308731BE2715
:1018D40008006C302000BD003D08AB00DB30BE00CA
:1018E4003E08AC00E430BF003F08AD0001308C314D
:1018F400F3242000C000C00DC00D22000C082000FD
:101904004006FB39400622008C00080020006508D0
:10191400003A0319632C013A03196B2C912C08002B
:1019240000302000AF000030AE000030AD000030C9
:10193400AC00241CA52C2808AC072908AD3D2A08B6
:10194400AE3D2B08AF3D0130A835A90DAA0DAB0D56
:10195400890BA62C0130A736A60CA50CA40C890B68
:10196400AD2C2708260425042404031D9B2C2F08D2
:10197400A7002E08A6002D08A5002C08A400080026
:10198400031020000E1E03140030093DF400023041
:10199400F435FF3E031DCA2C7435F5007508F604B2
:1019A40003108E1E03140030093DF4000130F43599
:1019B400FF3E031DD92C7435F5007508F604031099
:1019C4000C1E03140030093D0907F4007408F604E2
:1019D40003108C1E03140030093DF4007408F6044F
:1019E40008002000B000B101112DB101222DB10178
:1019F400B10A222D2C088431A2248C312000AE009F
:101A04002E080F2D3008AE002E08A7002D088F31A8
:101A140029278C312000AF002F08B100222D2B087C
:101A2400860087010108003A0319F72C013A0319CB
:101A3400F92C033A0319FC2C013A0319042D222D25
:101A4400310808002000A501A6012008210403197B
:101A5400542DA401A40AA11B392D0130A035A10DD8
:101A6400890B302D0130F4007408A4072D2D0130AA
:101A7400A535A60D890B3A2D21082302031D442DFB
:101A840020082202031C4B2D2008A2022108A33B9C
:101A940025140130A136A00C890B4C2D0130A40271
:101AA400031D392D2608A1002508A0000800F40014
:101AB400740886008701010C2100031C1D10031803
:101AC4001D14740A86008701010C031C9E1303185D
:101AD4009E177408023E86008701010C031C1E1227
:101AE40003181E167408033E86008701010C031CAC
:101AF4001E1103181E157408043E860087011E0873
:101B04000106FC3901069E007408053E8600870123
:101B1400010C031C1113031811170800F40023000F
:101B24008C01740886008701010C031C0C10031837
:101B34000C14740A86008701010C031C8C10031812
:101B44008C147408023E86008701010C031C0C11DE
:101B540003180C157408033E86008701010C031C4E
:101B64000C1203180C168E017408043E86008701BB
:101B7400010C031C0E1003180E147408053E860095
:101B84008701010C031C8E1003188E147408063E82
:101B940086008701010C031C0E1103180E1574082E
:101BA400073E86008701010C031C8E1103188E1555
:101BB40008002000C4004208860087010108C30011
:101BC4004308F400420886008701413FF5004408B9
:101BD4008631C9268D3120004208023E86008701E5
:101BE4000103031DF82DF401F40AFA2DF401200079
:101BF40044088C310C248D3120004208033E8600B9
:101C04008701403FB000413FB10042088600870190
:101C14000108C3004308B200420886008701413F1F
:101C2400B3004408833140238D31013A0319192E3E
:101C340020004208053E860087010103031D0800B9
:101C440044088A315D2208002000D801D8010A30F6
:101C5400840090308500003F2200C800013FC90085
:101C6400200058082200CA00CB0149084B02031D7A
:101C74003D2E48084A020318080020005808220094
:101C8400C8000230C835FF3E031D442E4835073EC8
:101C9400203E8600013087000108C9004908200061
:101CA400BC0058082200CA000230CA35FF3E031D9A
:101CB400572E4A35203E860001308700413F8A0076
:101CC400403F0A008E3101302200C800480820003D
:101CD400D8070A30840090308500003F2200C800F5
:101CE400013F312E00302000AB000030AA0000304C
:101CF400A9000030A80023082204210420040319A9
:101D0400BE2EAC01AC0AA31B932E0130A035A10D4D
:101D1400A20DA30D890B882E0130F4007408AC07C2
:101D2400852E0130A835A90DAA0DAB0D890B942E73
:101D340023082702031DA82E22082602031DA82E0D
:101D440021082502031DA82E20082402031CB32EFB
:101D54002008A4022108A53B2208A63B2308A73B90
:101D640028140130A336A20CA10CA00C890BB42EAC
:101D74000130AC02031D932E2B08A3002A08A200F5
:101D84002908A1002808A00008002000AF002808A6
:101D9400AD002708AC002A08A1002908A0002D08DE
:101DA400A3002C08A2008D3124258E3120002108A7
:101DB400AD002008AC000130AB002B08AF072C08A5
:101DC4002D04031DCD2E2F088600870181010130CB
:101DD400AF022A08A1002908A0002808A3002708A8
:101DE400A2008C3135248E3120002008AB002B0852
:101DF400AE002A08A1002908A0002808A30027088B
:101E0400A2008D3124258E3120002108A80020084D
:101E1400A7000A302E02031C132F0730AB002B0837
:101E2400AE073030AB002B08AE072E08AB002F08EE
:101E3400860087012B0881000130AF02270828049F
:101E4400031DEB2E0130AB002B08AF070800200068
:101E5400AA007C2F2A0A860087018101810A2A08A8
:101E6400860087018101810A2A08023E86008701D3
:101E74000130810741310318810A0A30A000003083
:101E8400A1002A08043E86008701403FA200413F8A
:101E9400A3008D3124258F3120002A08023E8600BC
:101EA4008701403FA800413FA90021082902031DE2
:101EB4005D2F20082802031C8B2F2A08023E86006F
:101EC40087010030C03FC13F2A0A86008701810193
:101ED4000230A8002A0886008701280881008B2F79
:101EE4002A08860087018101F40127088931AD2180
:101EF4008F318B2F20002A08860087010108003AC1
:101F040003192C2F013A0319362F033A0319722FA0
:101F14008B2F20002A0A8600870101080800F4009C
:101F240024008C01740886008701010C031C0C102A
:101F340003180C14740A86008701010C031C8C100E
:101F440003188C147408023E86008701010C031CDC
:101F54000C1103180C157408033E86008701010C4C
:101F6400031C8C1103188C157408043E8600870129
:101F7400010C031C0C1203180C167408053E860091
:101F84008701010C031C8C1203188C168E01740833
:101F9400063E86008701010C031C0E1003180E1464
:101FA4007408073E86008701010C031C8E10031879
:101FB4008E147408083E86008701010C031C0E1160
:101FC40003180E157408093E86008701010C031CD2
:101FD4008E1103188E1574080A3E86008701010CC1
:101FE400031C0E1203180E1674080B3E860087019C
:101FF400010C031C8E1203188E16080001340034E1
:102004000A34003464340034E8340334103427349C
:1020140005340034303431342E34303431342E34F9
:10202400303430340034253464342E3425343034A0
:10203400313475340034533442343134313430342F
:0C20440000344534433448344F34003439
:020000040001F9
:04000E00ECFFFFDF25
:00000001FF
