:1000000080313628640008007E14803120007F088B
:10001000FA00911C1C282100911C1C282000911022
:1000200001302100BC070030BD3D3C083D040319F0
:100030001C28BC01BD01E8012100911D27282000DA
:10004000911D27289111E13097319B2780312000A5
:10005000931C31282100931C3128200093108531F6
:1000600038257A082000FF007E10090080313828EA
:100070008731FF278031FD002100953184258031B3
:10008000E80055308400883085002030860001303B
:1000900087000030FF0028309531F92580319D30F0
:1000A0008400233085005330FE000030FF0095317E
:1000B000ED258031FB01FC012000ED01EE01EF0197
:1000C000A0308400003085004830FE000030FF0082
:1000D0009531ED258031483084000130850027308E
:1000E000FE000030FF009531ED258031A030840006
:1000F000013085005030FE000030FF009531ED25C5
:10010000803120308400023085005030FE00003005
:10011000FF009531ED258031A0308400023085004C
:100120005030FE000030FF009531ED258031203049
:100130008400033085005030FE000030FF00953110
:10014000ED257E1020009531A02D2000BD01E53069
:100150009731BC278031003A0319080083315323BB
:100160008031643023002102031C212B64302000E5
:10017000B90039082300A100212B64302000A00021
:100180000030A100230021082000B900BA01B90EF7
:10019000BA0EF030BA0539080F39BA04F030B90593
:1001A0003908A2003A08A3008931662120002008FE
:1001B000BB003B082100A300080064302000A00021
:1001C0000030A100230021082000B900BA01B90EB7
:1001D000BA0EF030BA0539080F39BA04F030B90553
:1001E0003908A2003A08A3008931662120002008BE
:1001F000BB003B082100A700080064302000A000DD
:100200000030A100230021082000B900BA01B90E76
:10021000BA0EF030BA0539080F39BA04F030B90512
:100220003908A2003A08A30089316621200020087D
:10023000BB003B082100AB00080064302000A00098
:100240000030A100230021082000B900BA01B90E36
:10025000BA0EF030BA0539080F39BA04F030B905D2
:100260003908A2003A08A30089316621200020083D
:10027000BB003B082100AF00080064302000A00054
:100280000030A100230021082000B900BA01B90EF6
:10029000BA0EF030BA0539080F39BA04F030B90592
:1002A0003908A2003A08A3008931662120002008FD
:1002B000BB003B082100B300080064302000A00010
:1002C0000030A100230021082000B900BA01B90EB6
:1002D000BA0EF030BA0539080F39BA04F030B90552
:1002E0003908A2003A08A3008931662120002008BD
:1002F000BB003B082100B7000800210023082000B4
:10030000B90039082400A0002100CD01CD0A6E30CB
:100310009731DE270800210027082000B90039089E
:100320002400A0002100CD01CD0A6E309731DE27D8
:10033000080021002B082000B90039082400A00083
:100340002100CD01CD0A6E309731DE270800210053
:100350002F082000B90039082400A0002100CD0199
:10036000CD0A6E309731DE270800210033082000C7
:10037000B90039082400A0002100CD01CD0A6E305B
:100380009731DE270800210037082000B90039081E
:100390002400A0002100CD01CD0A6E309731DE2768
:1003A000080064302000A0000030A10023002108D4
:1003B0002000B900BA01B90EBA0EF030BA053908FA
:1003C0000F39BA04F030B9053908A2003A08A30081
:1003D00089316621803120002008BB003B082100C4
:1003E000A30064302000A0000030A10023002208F8
:1003F0002000B900BA01B90EBA0EF030BA053908BA
:100400000F39BA04F030B9053908A2003A08A30040
:1004100089316621803120002008BB003B08210083
:10042000A70064302000A0000030A10023002308B2
:100430002000B900BA01B90EBA0EF030BA05390879
:100440000F39BA04F030B9053908A2003A08A30000
:1004500089316621803120002008BB003B08210043
:10046000AB0064302000A0000030A100230024086D
:100470002000B900BA01B90EBA0EF030BA05390839
:100480000F39BA04F030B9053908A2003A08A300C0
:1004900089316621803120002008BB003B08210003
:1004A000AF0064302000A0000030A1002300250828
:1004B0002000B900BA01B90EBA0EF030BA053908F9
:1004C0000F39BA04F030B9053908A2003A08A30080
:1004D00089316621803120002008BB003B082100C3
:1004E000B30064302000A0000030A10023002608E3
:1004F0002000B900BA01B90EBA0EF030BA053908B9
:100500000F39BA04F030B9053908A2003A08A3003F
:100510008931662120002008BB003B082100B7007C
:1005200008002000BD01BD0ABE0106303E020318CE
:1005300008000130B9003E0A9E2AB935890B9D2A70
:100540003908230021050319D82A64302000A000AF
:100550000030A1003D08013EA03E8600013087002A
:100560000108B900BA01B90EBA0EF030BA0539085F
:100570000F39BA04F030B9053908A2003A08A300CF
:1005800089316621803120002008BB003E08BC0074
:100590000130BC35FF3E031DC92A3C35033EA03E59
:1005A000860087013B0881000130B9003908BD078A
:1005B00001302000B9003908BE07952A2000BE018D
:1005C00006303E02031808000130B9003E0AE92A4D
:1005D000B935890BE82A39082300210503191B2B9B
:1005E00064302000A0000030A10023002208200079
:1005F000B900BA01B90EBA0EF030BA0539080F3990
:10060000BA04F030B9053908A2003A08A3008931CC
:100610006621803120002008BB003E08BC0001306C
:10062000BC35FF3E031D102B3C35033EA03E86002B
:1006300087013B08810001302000B9003908BE075E
:10064000E02A23002008513A0319BD28033A031970
:10065000DD28013A0319FD28073A03191D29013A3B
:1006600003193D29033A03195D29373A03197D29F6
:10067000033A03198B29013A03199929073A0319F7
:10068000A729013A0319B529033A0319C329173ACF
:100690000319D129033A0319912A013A0319DE2AD1
:1006A000522B08000800252C2C302000A000903090
:1006B000A1002030B1003108A2000430B20032089D
:1006C000A30088310B20833104302000B1003108B1
:1006D0002100CD006E309731DE2708002630200043
:1006E000A0009030A1002030B1003108A2000530F8
:1006F000B2003208A30088310B208331053020007E
:10070000B10031082100CD006E309731DE2708009E
:100710000C302000A0009030A1002030B100310842
:10072000A2000830B2003208A30088310B208331C8
:1007300008302000B10031082100CD006E30973123
:10074000DE27080015302000A0009030A1002030E6
:10075000B1003108A2000830B2003208A30088318D
:100760000B20833108302000B10031082100CD007A
:100770006E309731DE2708009531852508009631C7
:1007800005260800230021088A31822208009631BC
:100790009426080097312F27833120002608B800BF
:1007A0002508B7003808B10031082400A000200057
:1007B0003708B10031082400A10002302000B10048
:1007C00031082100CD006E309731DE2708009731C7
:1007D0002F27833120002608B8002508B7003808E5
:1007E000B2003708B100B236B10CB236B10CB23635
:1007F000B10C3108D83EB700FF30323DB8003808A0
:10080000A9003708A8000A30AA000030AB00333036
:100810008B31A823833133302000A0000030A100A9
:100820002030B1003108A2000230B2003208A3002B
:1008300088310B20833102302000B10031082100C3
:10084000CD006E309731DE27080023002008103AD3
:100850000319542B303A03196E2B013A0319882BD4
:10086000033A0319A22B123A0319BC2B013A0319BC
:10087000BF2B703A0319C22B033A0319C72B073A4F
:100880000319CA2B033A0319E72B462C08002C2D19
:10089000E1309731BC278431003A031908009531C3
:1008A000D6258431003A031D5B2C2100C701C70AFD
:1008B000C801C80A08009531D6258431013A031DC4
:1008C000080021004703031D08007C08031D6F2C4E
:1008D00002302000C10041082100C8000800033098
:1008E0002000C10041082100C800080024001108B0
:1008F0002000C1004108FB007B36C1004108FB001D
:100900002400110801392000C1004108FC007C03CB
:10091000031D992C21004A08A03E86000230870062
:1009200001082400910001302000C100410821008D
:10093000CA0704302000C10041082100C800080097
:10094000883100208431013A031DEC2C2100C701BD
:10095000EF30860023308700490881009D308600F3
:1009600023308700413181019D308600233087008C
:100970007B08C03F2000C801503048020318E22C19
:100980004808203E8600033087000108C10048085F
:10099000C200C3019F30C4002330C5004208440791
:1009A000C6004308453DC700460886004708870043
:1009B000410881000130C1004108C8075030480299
:1009C000031CC02CDF309731DE2784312100C901A0
:1009D00096314F268431FE2C240011082000C100DE
:1009E00021004908203E860003308700200041088E
:1009F00081000130C10041082100C90704302000F6
:100A0000C10041082100C80008009531CB25843180
:100A1000003A031D1B2D21004A08A03E860002302B
:100A2000870001082400910001302000C100410826
:100A30002100CA07202D2100CA01C7019631602676
:100A400004302000C10041082100C8000800240033
:100A500015162100C801080021004808840005304F
:100A6000040203180800903104353D3E820008005E
:100A7000092E01302100BA070030BB3D00303B0297
:100A8000C83003193A02031C0800BA01BB01F9017E
:100A9000063079020318862D7908F2000130F2350C
:100AA000FF3E031D4F2D7235A03E860087010030AA
:100AB000C03FC13F7908F2000130F235FF3E031D0F
:100AC0005D2D7235033EA03E860087016530010230
:100AD00003187E2DF001F00A79088931D121853182
:100AE0007908F2000130F235FF3E031D732D723597
:100AF000023EA03E860087018101810A0130F2009A
:100B00007208F90706307902031C4C2D2100CB0135
:100B1000CB0A08000130B8070030B93D0030390277
:100B2000083003193802031C0800B801B90102306B
:100B3000F2007208CB000800F801F90106307902D2
:100B4000031808007908F2000130F235FF3E031D5A
:100B5000A52D7235A03E8600870101308107413105
:100B60000318810A7908F2000130F235FF3E031DB7
:100B7000B52D7235023EA03E860087010103031D9C
:100B8000FA2D7908F2000130F235FF3E031DC42D25
:100B90007235033EA03E860087010108F300F40190
:100BA0007908F5000130F535FF3E031DD32D75356D
:100BB000A03E86008701403FF600413FF7007408E1
:100BC0007702031DE52D73087602031C042EF00145
:100BD00079088931D12185317908F2000130F23567
:100BE000FF3E031DEF2D7235023EA03E86008701B9
:100BF0008101042E0130F2007208F80706307802F5
:100C0000031C042E2100CB010130F2007208F90709
:100C10009E2D21004B08003A0319392D013A031982
:100C20008A2D033A03199C2D152E08002000A000E0
:100C300024008C012000200886008701010C24007C
:100C4000031C0C1003180C142000200A86008701D6
:100C5000010C2400031C8C1003188C1420002008A5
:100C6000023E86008701010C2400031C0C110318AE
:100C70000C1520002008033E86008701010C24008B
:100C8000031C8C1103188C1520002008043E8600DC
:100C90008701010C2400031C0C1203180C16200001
:100CA0002008053E86008701010C2400031C8C12DD
:100CB00003188C168D0120002008063E860087014F
:100CC000010C2400031C0D1203180D16200020082F
:100CD000073E86008701010C2400031C8D120318B7
:100CE0008D1620002008083E86008701010C240094
:100CF000031C0D1303180D1720002008093E860061
:100D00008701010C2400031C8D1303188D178E011D
:100D1000200020080A3E86008701010C2400031CE5
:100D20000E1003180E14200020080B3E86008701C9
:100D3000010C2400031C8E1003188E1420002008C0
:100D40000C3E86008701010C2400031C0E110318C1
:100D50000E15200020080D3E86008701010C24009E
:100D6000031C8E1103188E15200020080E3E8600ED
:100D70008701010C2400031C0E1203180E1620001C
:100D800020080F3E86008701010C2400031C8E12F0
:100D900003188E1620002008103E86008701010CE3
:100DA0002400031C0E1303180E1720002008113E08
:100DB00086008701010C2400031C8E1303188E1774
:100DC00008002000BE000030C3000030C200003028
:100DD000C1000030C0003508B600B7013608A200D7
:100DE0003708A3003408B800B9013808A000390852
:100DF000A10097316227863120002008BA0021081F
:100E0000BB00BC01BD013D08A9003C08A8003B088F
:100E1000A7003A08A6003208AA003308AB00AC01CC
:100E2000AD0189310521863120002908C300280839
:100E3000C2002708C1002608C0004308A3004208DA
:100E4000A2004108A1004008A0000030A7007A30AD
:100E5000A6001230A5000030A4008B315523863146
:100E600020002308031D932F2208031D932F013018
:100E70002102031C842F932F4308A3004208A200E1
:100E80004108A1004008A0000030A7007A30A60069
:100E90001230A5000030A4008B315523863120008C
:100EA00020089B00902F4308A3004208A20041089D
:100EB000A1004008A0000030A7007A30A600123040
:100EC000A5000030A4008B31552386312000200876
:100ED00028009600902F20004308A3004208A2009B
:100EE0004108A1004008A0000030A7007A30A60009
:100EF0001230A5000030A4008B315523863120002C
:100F0000200828009D00902F20003E08023A031977
:100F10003C2F063A0319532F023A03196B2F902FD7
:100F20002000BF01952FBF01BF0A3F080800200025
:100F3000AB00EA2F2B0A860087018101810A2B086A
:100F4000860087018101810A2B08023E8600870105
:100F50000130810741310318810A0A30A0000030B6
:100F6000A1002B08043E86008701403FA200413FBC
:100F7000A30089316621873120002B08023E8600BC
:100F80008701403FA900413FAA0021082A02031D12
:100F9000CB2F20082902031CF92F2B08023E8600C4
:100FA00087010030C03FC13F2B0A860087018101C5
:100FB0000230A9002B088600870129088100F92F3B
:100FC0002B08860087018101A001280896312F2671
:100FD0008731F92F20002B08860087010108003A8D
:100FE00003199A2F013A0319A42F033A0319E02F8A
:100FF000F92F20002B0A8600870101080800013420
:10100000240014082000A0000430A036890B052815
:101010002008013908002000A801A801230828029F
:10102000031808002108A5002008A40028082407A8
:10103000840025080318250A85000008A600280852
:101040002207A700270886000230870026088100B3
:101050000130A4002408A8070E282000A100482879
:101060009110200C2100031C91100318911408000A
:101070009310200C2100031C9310031893140800F4
:101080009311200C2100031C9311031893150800E1
:1010900020002108023A03193028063A031938289B
:1010A000023A031940285428080047340434003415
:1010B00000340034013400340034BE3416340034BB
:1010C00000340034013400340034D3341634003496
:1010D00000340034E83403340034D53408340034A8
:1010E000003400346434003400340A340C340034E6
:1010F000003400346434003400349B280130200074
:10110000BF003F082100C5070A304502031C080044
:101110008A3108222100C401C40A0800E330973153
:10112000DE2702302000BF003F082100C400080075
:101130008031A520080021004408003A03197E28C8
:10114000013A03198E28033A03199828A7280800A2
:101150002000200821040319D028A501A50AA11BFD
:10116000BB280130A035A10D890BB2280130A400A5
:101170002408A507AF2821082302031DC128200841
:101180002202031CC7282008A2022108A33B013029
:10119000A136A00C890BC8280130A502031DBB286D
:1011A0002308A1002208A0000800FB2821008D13BD
:1011B00022008D1301308A3182220800E73020009E
:1011C000C1004108AC006630C2004208AD00D93011
:1011D000C3004308AE000130893135212000C4002E
:1011E000C40CC40C22000D08200044067F394406BC
:1011F00022008D00080020006D08003A0319D6284F
:10120000013A0319DE280429080000302000B1004B
:101210000030B0000030AF000030AE00261C1829AE
:101220002A08AE072B08AF3D2C08B03D2D08B13D74
:101230000130AA35AB0DAC0DAD0D890B192901306C
:10124000A936A80CA70CA60C890B2029290828046C
:1012500027042604031D0E293108A9003008A80020
:101260002F08A7002E08A60008002000B100B20138
:101270005329B2016429B201B20A64292D088E31C2
:10128000072689312000AF002F0851293108AF000F
:101290002F08A8002E088731972789312000B00039
:1012A0003008B20064292C08860087010108003A42
:1012B00003193929013A03193B29033A03193E2935
:1012C000013A031946296429320808002000A501C3
:1012D000A6012008210403199629A701A70AA11B2A
:1012E0007B290130A035A10D890B72290130A400A2
:1012F0002408A7076F290130A535A60D890B7C2985
:1013000021082302031D862920082202031C8D299F
:101310002008A2022108A33B25140130A136A00C0D
:10132000890B8E290130A702031D7B292608A10005
:101330002508A00008002000A201063022020318A0
:101340000800FF30A0002208A1000130A135FF3EB7
:10135000031DA6292135033EA03E860087012008F3
:1013600081002208A0000130A035FF3E031DB429F2
:101370002035A03E860087010030C03FC13F2208D3
:10138000A0000130A035FF3E031DC2292035023EDA
:10139000A03E8600870181010130A0002008A2073D
:1013A0009D29F100FD29700C2200031C8E130318E7
:1013B0008E170800700C2200031C8D1203188D1666
:1013C0000800700C2200031C0E1103180E150800F3
:1013D000700C2200031C8E1003188E140800700C71
:1013E0002200031C0E1003180E140800700C2200BB
:1013F000031C0C1103180C1508007108840006303A
:1014000004020318080090310435313E82000800C0
:10141000031020000E1F03140030093DA00002300D
:10142000A035FF3E031D102A2035A1002108210010
:10143000CC04031020008E1D03140030093DA000D1
:101440000130A035FF3E031D212A2035A1002108CF
:101450002100CC04031020000E1E03140030093DAF
:101460000907A00020082100CC04031020008E1ED4
:1014700003140030093DA00020082100CC0408001E
:101480002000A000200886008701010C2100031C19
:101490001D1003181D142000200A86008701010C6E
:1014A0002100031C9E1303189E1720002008023EF3
:1014B00086008701010C2100031C1E1203181E1652
:1014C00020002008033E86008701010C2100031C38
:1014D0001E1103181E1520002008043E86008701F7
:1014E00021001E080106FC3901069E00200020088C
:1014F000053E86008701010C2100031C111303180F
:10150000111708002000A600B62AA001013096316C
:101510002F26FD01080032302000A0000030A1007D
:10152000013096318226FD01FD0A0800323020008C
:10153000A0000030A100B630A2000330A3000130AB
:10154000973148278A3102302000A5002508A000E5
:10155000013096312F2602302000A5002508FD001D
:1015600008000330A5002508FD0008002608003A01
:101570000319852A013A03198B2A033A0319962A7B
:10158000013A0319B12AC42A08002000EA01EA013D
:101590000A30840090308500003FE600013FE700FC
:1015A0006A08E800E90167086902031DD92A66088C
:1015B0006802031808006A08E6000230E635FF3EBC
:1015C000031DDE2A6635073E203E86000130870077
:1015D0000108E7006708C0006A08E8000230E83543
:1015E000FF3E031DEF2A6835203E8600013087004C
:1015F000413F8A00403F0A008A3101302000E60066
:101600006608EA070A30840090308500003FE60053
:10161000013FCF2A2000C600440886008701010848
:10162000C5004508A000440886008701413FA1008D
:1016300046088C3171248B3120004408023E86001C
:1016400087010103031D272BA001A00A292B2000DD
:10165000A001460888312D208B3120004408033E2C
:1016600086008701403FB200413FB3004408860036
:1016700087010108C5004508B400440886008701B9
:10168000413FB50046088631E1268B31013A031906
:10169000482B20004408053E860087010103031DF6
:1016A0000800460897311727080000302000AC00DA
:1016B0000030AB000030AA000030A900230822044B
:1016C0002104200403199F2BAD01AD0AA31B742B29
:1016D0000130A035A10DA20DA30D890B692B01309E
:1016E000A8002808AD07662B0130A935AA0DAB0D5F
:1016F000AC0D890B752B23082702031D892B2208AB
:101700002602031D892B21082502031D892B200891
:101710002402031C942B2008A4022108A53B2208C4
:10172000A63B2308A73B29140130A336A20CA10C29
:10173000A00C890B952B0130AD02031D742B2C08D6
:10174000A3002B08A2002A08A1002908A000080075
:101750002000B0002908AE002808AD002B08A10029
:101760002A08A0002E08A3002D08A20089316621B6
:101770008B3120002108AE002008AD000130AC0004
:101780002C08B0072D082E04031DAE2B3008860050
:10179000870181010130B0022B08A1002A08A000B6
:1017A0002908A3002808A2008831A8208B31200036
:1017B0002008AC002C08AF002B08A1002A08A000CC
:1017C0002908A3002808A200893166218B31200056
:1017D0002108A9002008A8000A302F02031CF42BBE
:1017E0000730AC002C08AF073030AC002C08AF0736
:1017F0002F08AC003008860087012C0881000130DA
:10180000B00228082904031DCC2B0130AC002C08A1
:10181000B00708004830860001308700543084004B
:101820000030850012302000C10016001A00C10BE4
:10183000152C5A3086000130870042308400003079
:1018400085000C30C10016001A00C10B232C672C38
:1018500021008E160E168E150E172000E301E30AE6
:10186000E201E20AE101E10AE401E40A54308631CE
:1018700016268C3100309531C2258C3142308C31A6
:10188000EE248C3101309531B9258C310030953101
:10189000B0258C3103302000C1004108D000D301B5
:1018A000D101D201CF01CF0ACE01CE0A4E308A310A
:1018B00040228C3189319B2121008E138D120E1113
:1018C0008E100E100C11080088317D2008002000B9
:1018D0006D08003A0319282C013A0319642C702C66
:1018E00008002000A300E12C1C10772C1C149C1075
:1018F000872C1C109C14872C2008013A0319742C87
:10190000053A0319762C143A0319792C872C2108EF
:10191000FF3EA200A20DA20DA20D1C0822068739CF
:1019200022069C00080028001710982C2800171485
:101930009710AA2C280017109714AA2C2000200812
:10194000013A0319932C053A0319962C143A0319FA
:101950009A2CAA2C20002108FF3EA200A20DA20D65
:10196000A20D280017082000220687392206280029
:101970009700080028001E10BF2C28001E149E107F
:10198000D12C28001E109E14D12C20002008013AD2
:101990000319BA2C053A0319BD2C143A0319C12CAA
:1019A000D12C20002108FF3EA200A20DA20DA20D05
:1019B00028001E08200022068739220628009E00E3
:1019C000080020002308023A03197C2C063A031968
:1019D0009E2C023A0319C52CED2C08002000A00013
:1019E00023008C012000200886008701010C2300C1
:1019F000031C0C1003180C142000200A8600870119
:101A0000010C2300031C8C1003188C1420002008E8
:101A1000023E86008701010C2300031C0C110318F1
:101A20000C1520002008033E86008701010C2300CE
:101A3000031C0C1203180C168D0120002008043E14
:101A400086008701010C2300031C0D1203180D16DC
:101A500020002008053E86008701010C2300031C9E
:101A60008D1203188D168E0120002008063E860078
:101A70008701010C2300031C0E1003180E14200014
:101A80002008073E86008701010C2300031C8E10EE
:101A900003188E1420002008083E86008701010CE0
:101AA0002300031C0E1103180E1520002008093E08
:101AB00086008701010C2300031C8E1103188E156C
:101AC000200020080A3E86008701010C2300031C29
:101AD0000E1303180E17200020080B3E8600870106
:101AE000010C2300031C8E1303188E17080020001E
:101AF000AA01FD2DE3309731BC278D31003A03193F
:101B0000080021004C08953194258D317F309531A6
:101B10009A252100C601C60A0800DF309731BC278C
:101B20008D31003A0319E02D9D3086002330870067
:101B3000010821004C060319A42D9D308600233096
:101B400087000108031D08009D30860023308700B0
:101B500041310108031D08002000AA0150302A026B
:101B60000318D02D2A08A500A6019F30A700233016
:101B7000A8002508270786002608283D87000108B9
:101B8000A9002A08A03E86000130870029088100AC
:101B90000130A5002508AA0750302A02031CB22DE7
:101BA000E5309731DE278D317D03031D08000330BA
:101BB0002000A5002508A000013096312F2608003E
:101BC0006E309731BC278D31003A0319080021008F
:101BD0004D082000A5002508A000203097317E2761
:101BE0008D317D03031D080003302000A50025086A
:101BF000A000013096312F26080021004608003A47
:101C000003197A2D013A03198D2D062E08002000A4
:101C1000AA00922E2A08083E86000130870001089B
:101C2000A8002A0A860001308700280881002A08B7
:101C3000552E2A08023E86000130870001308107B8
:101C400041310318810A2A0A860001308700010801
:101C5000031D5B2E0A30A0000030A1002A08063EBA
:101C6000860001308700403FA200413FA300893138
:101C700066218E3120002A08023E8600013087004E
:101C8000403FA800413FA90021082902031D4A2E18
:101C900020082802031C9E2E2A08023E86000130DE
:101CA00087000030C03FC13F2A0A8600013087000C
:101CB0008101810A9E2E2A0A8600013087000103D5
:101CC000031D9E2E0A30A0000030A1002A08043E09
:101CD000860001308700403FA200413FA3008931C8
:101CE00066218E3120002A08023E860001308700DE
:101CF000403FA800413FA90021082902031D822E70
:101D000020082802031C9E2E2A08023E860001306D
:101D100087000030C03FC13F2A0A8600013087009B
:101D200081019E2E2A088600013087000108003AB2
:101D300003190A2E013A0319192E9E2E2A0A86002B
:101D400001308700010808002000A40021008E1443
:101D50000E1420002408860087010108A200220832
:101D6000240095042000240A860087010108A200AF
:101D70000230A235FF3E031DB92E2235A3002308F1
:101D80002400960420002408033E860087010108F1
:101D9000A200220824009604200024080A3E86009F
:101DA00087010108A2000630A235FF3E031DD42E94
:101DB0002235A30023082400960420002408043EB2
:101DC000860087010108A2000530A235FF3E031DF1
:101DD000E52E2235A30023082400970420002408C0
:101DE000053E860087010108A2000430A235FF3EAF
:101DF000031DF62E2235A30023082400970420009B
:101E00002408063E860087010108A2000330A2359F
:101E1000FF3E031D072F2235A3002308240097044B
:101E200020002408073E860087010108A200013037
:101E3000A235FF3E031D182F2235A30023082400DE
:101E4000970420002408083E860087010135A2007F
:101E500022082400970420002408093E86008701F8
:101E60000108A20022082400970420002408023E52
:101E7000860087010108A2000430A235FF3E031D41
:101E80003D2F2235A3002308240095042000911142
:101E90002100911596314F268E319631602608002B
:101EA0002000EC01EC010A30840090308500003FF6
:101EB000E600013FE7006C08E800E90167086902F5
:101EC000031D642F66086802031808006C08E6000A
:101ED0000230E635FF3E031D692F6635053E203E84
:101EE000860001308700403FE700413FE8006C0872
:101EF000E9000230E935FF3E031D7A2F6935033EC4
:101F0000203E860001308700403FEA00413FEB0061
:101F100068086B02031D8E2F67086A02031CD22F0C
:101F20006C08E6000230E635FF3E031D932F663550
:101F3000033E203E8600013087000030C03FC13F95
:101F40006C08E6000230E635FF3E031DA32F663520
:101F5000023E203E8600013087008101810A6C0824
:101F6000E6000230E635FF3E031DB22F6635073E20
:101F7000203E8600013087000108E7006708C000A6
:101F80006C08E8000230E835FF3E031DC32F6835BA
:101F9000203E860001308700413F8A00403F0A0012
:101FA0008F31F32F20006C08E6000230E635FF3E4B
:101FB000031DD62F6635033E203E86000130870084
:101FC0000130810741310318810A6C08E6000230B4
:101FD000E635FF3E031DE82F6635023E203E8600B3
:101FE00001308700810101302000E6006608EC071F
:101FF0000A30840090308500003FE600013F5A2FF0
:10200000013400340A34003464340034E8340334D6
:102010001034273405340034303431342E34303425
:1020200031342E34303430340034303431342E34C2
:10203000303432342E343034313400342534643486
:102040002E34253430343134753400345334423432
:1020500031343334303400344534433448344F342D
:1020600000348931D3298931DA298931E12989314B
:10207000E8298931EF298931F6298431482C8431C6
:0E208000762C8431A02C8531052D8531272D3D
:102B080001340100080021009D1408008B170B17E1
:102B1800080021009917080021001D0C0139080040
:102B28002000A00020352400920008002000A0000A
:102B380020352400930008009531E1259531963120
:102B48007126803136282000A000200C2100031CAB
:102B580017100318171408002000A000200C2200EA
:102B6800031C17120318171608002000A000200CD9
:102B78002200031C97120318971608002000A000D3
:102B8800200C2100031C9513031895170800240036
:102B980016082000A0000630A036890BD02D20088A
:102BA80001390800240014082000A0000530A036D0
:102BB800890BDB2D20080139080095318D259531C9
:102BC8009631E926953197310027953195318A2537
:102BD80008006400800101310130FE020030FF3B33
:102BE8007F087E0403190034EE2DFE0012001E003B
:102BF8000130FE020030FF3B7F087E0403190034D9
:102C0800FA2D22008C018D018E0100309531A72507
:102C18009631630001309531A72508002000A100F6
:102C28002108A000A00D2100170820002006C139A6
:102C380020062100970008002000A1002108A0001C
:102C4800A00DA00D21001D082000200683392006B4
:102C580021009D0008002000A200382E2008A100B5
:102C680021082100E700080020002208013A031982
:102C7800322E3E2E0800033021001C052000A20041
:102C88002208A40021001B082000A3002408A1009A
:102C98002308A00008002000A101503021020318D9
:102CA80008002108203E860003308700810101309A
:102CB800A0002008A107512E2000A10150302102B8
:102CC800031808002108A03E860002308700810111
:102CD8000130A0002008A107622E8A31C522963152
:102CE8002000ED01ED0A21006808031D772E8F31C1
:102CF800502796312100E801E80A772E2000A2002B
:102D08008D2E21082100DE00200020082100DD0092
:102D1800080020002208013A0319852E932E080086
:102D280003307D06031D080023002103031DA32E85
:102D38002000A001A00A013096312F2608002000AB
:102D4800A001013096312F26080006302000A0008F
:102D580020082100CE00CF01D001D00AD101D20134
:102D6800D20AD301D30AD401D501D601D701D8019B
:102D7800D80A0800C92E9631A9269631CE308E3150
:102D8800A42608008D317725080020006D08003A38
:102D98000319BF2E013A0319C62ED22E0800DF2EC2
:102DA8000B3096311226963101309531A72508004F
:102DB80080310220080020006D08003A0319D42E43
:102DC800013A0319DC2EE82E08002000C801C80AC1
:102DD8000830C7004708C900CA01CA0A1030CB002A
:102DE8002730CC00CD01CD0A4830C7004708C400C1
:102DF80002308B310A2308002000C801C80A0830B5
:102E0800C7004708C900CA01CA0A1030CB002730DA
:102E1800CC00CD01CD0A4830C7004708C4000430B3
:102E28008B310A2308002000A000222F1C1508005F
:102E380028001715080028001E1508002000200883
:102E4800023A03191A2F063A03191C2F023A0319DA
:102E58001F2F2E2F08001D309631202697319531CF
:102E680087259731953190259731003A0319362FE8
:102E780096313F2620002108A8002008A70028082E
:102E8800A6002708A50008002000A4005B2F210841
:102E98002200EB00200020082200EA00200023087E
:102EA8002200ED00200022082200EC00080020008B
:102EB8002408013A03194B2F612F08002000A401B0
:102EC800A501201C6B2F2208A4072308A53D01306B
:102ED800A235A30D890B6C2F0130A136A00C890BEC
:102EE800712F20082104031D652F2508A10024083F
:102EF800A00008002000A300A401A40120082402C7
:102F08000318080024082307A100210886000230BE
:102F180087000108A2002408A03E8600023087002E
:102F2800220881000130A1002108A407822FF100A6
:102F3800F201710886008701023001060319B72FD4
:102F4800710886008701033001060319B72F023084
:102F5800F000710A86008701700881000230F000D5
:102F68007008F20008000330F0007008F200080052
:102F78002000A100A0012108860087010103031990
:102F8800DC2F210886008701033001060319DC2F96
:102F9800210A8600870102300106031DDB2F210A62
:102FA800860087018101810AA001A00ADC2FA00107
:102FB800200808002000A200A1012208860087013D
:102FC800023001060319FB2F22088600870103300F
:102FD80001060319FB2F0230A000220A8600870190
:102FE800200881000230A0002008A100080003305A
:082FF800A0002008A100080060
:020000040001F9
:04000E00EAFFFFDF27
:00000001FF
