:1000000080312B28640008007E14803120007F0896
:10001000F300911C1C282100911C1C282000911029
:1000200001302100A0070030A13D20082104031960
:100030001C28A001A101EE012100911D262820000D
:10004000911D26289111E73089318A2173082000FB
:10005000FF007E10090080312D28973193278031D1
:10006000F9002100973192278031EE001130840091
:100070008A30850020308600013087000030FF0084
:1000800028308731F42780319D308400233085006B
:100090005330FE000030FF00883123208031F6010C
:1000A000F701F80163308400003085000B30FE005A
:1000B0000030FF00883123208031A03084000030E0
:1000C00085004E30FE000030FF0088312320803153
:1000D00048308400013085001730FE000030FF00FA
:1000E000883123208031A0308400013085005030D9
:1000F000FE000030FF008831232080312030840052
:10010000023085001230FE000030FF0088312320CD
:100110008031A0308400023085005030FE00003075
:10012000FF00883123208031203084000330850097
:100130005030FE000030FF00883123208031A03095
:100140008400033085005030FE000030FF0088310D
:1001500023207E1020009731B22F9D29E73089316E
:10016000AB218031003A031908009731EC27803128
:10017000003A031DD82821002B03031DCD28013090
:100180002000BD003D082100AC070B302C02031CF1
:10019000CF2888310A208031CF282100AC012100EE
:1001A000AB01AB0A2000E401E40AE501E50A08001E
:1001B0009731EC278031013A031D080020006403C9
:1001C000031D08002100AB0120006608031DED2877
:1001D0000230BD003D08E50008000330BD003D08C9
:1001E000E5000800240011082000BD003D08E300E0
:1001F0006336BD003D08E3002400110801392000EA
:10020000BD003D08E6006603031D13296808203E73
:10021000860003308700010824009100013020008F
:10022000BD003D08E8070430BD003D08E5000800BA
:100230009731F6278031013A031D63292000E4013C
:10024000EF30860023308700670881009D308600EC
:1002500023308700413181019D30860023308700A3
:100260006308C03FC40150304402031859294408B0
:10027000A03E8600033087000108BD004408BE0090
:10028000BF019F30C0002330C1003E084007C200BC
:100290003F08413DC30042088600430887003D08EF
:1002A00081000130BD003D08C40750304402031CEA
:1002B0003729E5308931CC2180312000E7018831B0
:1002C0006C2080317229240011082000BD006708CD
:1002D000A03E8600033087003D0881000130BD004C
:1002E0003D08E70704302000BD003D08E500080098
:1002F0009731E2278031003A031D8D2920006808DC
:10030000203E860003308700010824009100013060
:100310002000BD003D08E80792292000E801E40123
:1003200088317C2004302000BD003D08E500080035
:10033000240015162000E50108002000650884004F
:10034000053004020318080088310435003E82009D
:1003500008007B2A23302000A0009030A100A030AC
:10036000B0003008A2000430B1003108A300893188
:10037000EE21813104302000B00030082100AD00B2
:100380006C308931CC2108001D302000A000903055
:10039000A100A030B0003008A2000530B100310843
:1003A000A3008931EE21813105302000B0003008F2
:1003B0002100AD006C308931CC2108000C302000C8
:1003C000A0009030A100A030B0003008A20008309A
:1003D000B1003108A3008931EE21813108302000BD
:1003E000B00030082100AD006C308931CC2108000C
:1003F0000C302000A0009030A100A030B0003008E8
:10040000A2000830B1003108A3008931EE2181310A
:1004100008302000B00030082100AD006C30893178
:10042000CC21080097319427080088312F2008003C
:10043000230021088C311524080088319D200800F4
:1004400089310621813120002408B7002308B60035
:100450003708B00030082500A00020003608B000A2
:1004600030082500A10002302000B0003008210033
:10047000AD006C308931CC210800893106218131F1
:1004800020002408B7002308B6003708B10036085A
:10049000B000B136B00CB136B00CB136B00C30088B
:1004A000D83EB600FF30313DB7003708A800360807
:1004B000A7000A30A9000030AA0032308D31432550
:1004C000813132302000A0000030A100A030B00007
:1004D0003008A2000230B1003108A3008931EE21BA
:1004E000813102302000B00030082100AD006C30B6
:1004F0008931CC21080023002008103A0319AA29C9
:10050000303A0319C429013A0319DE29033A0319C1
:10051000F829123A0319122A013A0319152A703AD6
:100520000319182A033A03191D2A073A0319202A26
:10053000033A03193D2A9C2A0800EB308931AB218C
:100540008231003A031908008131A92182316F2BD1
:100550008C31F0240800230021082000B800B901E4
:100560003808B900B8013808230022042100B3007C
:10057000200039082100B400B6308931CC210800B0
:10058000230021082000B800B9013808B900B801DB
:100590003808230022042100BD0020003908210072
:1005A000BE00C0308931CC21080023002108200082
:1005B000B800B9013808B900B8013808230022048E
:1005C0002100C700200039082100C800CA30893145
:1005D000CC210800230021082000B800B901380808
:1005E000B900B8013808230022042100D1002000FE
:1005F00039082100D200D4308931CC2108002300F1
:1006000021082000B800B9013808B900B80138083D
:10061000230022042100B300200039082100B40087
:10062000230021082000B800B9013808B900B8013A
:100630003808230022042100BD00200039082100D1
:10064000BE00230021082000B800B9013808B90015
:10065000B8013808230022042100C700200039080F
:100660002100C800230021082000B800B901380883
:10067000B900B8013808230022042100D10020006D
:1006800039082100D200B6308931CC218231C03006
:100690008931CC218231CA308931CC218231D430A8
:1006A0008931CC21080020006A08B8000330B83531
:1006B000890B572B6908B9000230B935890B5D2BBE
:1006C0007735390438047604BA003A082500A000CA
:1006D0002100AD01AD0A6C308931CC210800230026
:1006E0002008503A0319A82A013A0319AB2A033A01
:1006F0000319C02A013A0319D52A073A0319EA2A2D
:10070000013A0319FF2A353A0319532B882B0800A5
:1007100008002000E201E2010A30840090308500E8
:10072000003F2200DF00013FE000200062082200BD
:10073000E100E20160086202031DA02B5F08610274
:1007400003180800200062082200DF000230DF35B5
:10075000FF3E031DA72B5F35053E203E860001307E
:100760008700403FE000413FE10020006208220096
:10077000E2000230E235FF3E031DBA2B6235033E34
:10078000203E860001308700403FE300413FE40007
:1007900061086402031DCE2B60086302031C1A2C3F
:1007A000200062082200DF000230DF35FF3E031D1B
:1007B000D52B5F35033E203E860001308700003098
:1007C000C03FC13F200062082200DF000230DF3559
:1007D000FF3E031DE72B5F35023E203E86000130C1
:1007E00087008101810A200062082200DF000230B8
:1007F000DF35FF3E031DF82B5F35073E203E8600A8
:10080000013087000108E00060082000BC00620899
:100810002200E1000230E135FF3E031D0B2C613563
:10082000203E860001308700413F8A00403F0A0099
:1008300084313E2C200062082200DF000230DF35C8
:10084000FF3E031D1F2C5F35033E203E8600013016
:1008500087000130810741310318810A20006208B6
:100860002200DF000230DF35FF3E031D332C5F35F1
:10087000023E203E860001308700810101302200C7
:10088000DF005F082000E2070A3084009030850016
:10089000003F2200DF00013F942B2000A200210036
:1008A0000D170D1620002208860001308700010870
:1008B000A0002008240095042000220A86000130B0
:1008C00087000108A0000230A035FF3E031D642C04
:1008D0002035A10021082400960420002208033EB0
:1008E0008600013087000108A0002008240096043B
:1008F000200022080A3E8600013087000108A0007F
:100900000630A035FF3E031D812C2035A1002108B3
:100910002400960420002208043E8600013087004F
:100920000108A0000530A035FF3E031D932C2035A3
:10093000A10021082400970420002208053E86001B
:10094000013087000108A0000430A035FF3E031DE0
:10095000A52C2035A100210824009704200022089E
:10096000063E8600013087000108A0000330A03554
:10097000FF3E031DB72C2035A10021082400970459
:1009800020002208073E8600013087000108A000F1
:100990000130A035FF3E031DC92C2035A1002108E0
:1009A0002400970420002208083E860001308700BA
:1009B0000135A00020082400970420002208093EE9
:1009C0008600013087000108A00020082400970459
:1009D00020002208023E8600013087000108A000A6
:1009E0000430A035FF3E031DF12C2035A100210865
:1009F00024009504200091112100911588316C206C
:100A0000843188317C2008002000BC000030C10007
:100A10000030C0000030BF000030BE003308B4001A
:100A2000B5013408A2003508A3003208B600B701AA
:100A30003608A0003708A1008931512185312000F6
:100A40002008B8002108B900BA01BB013B08A70083
:100A50003A08A6003908A5003808A4003008A80004
:100A60003108A900AA01AB018B3117238531200081
:100A70002708C1002608C0002508BF002408BE00C2
:100A80004108A3004008A2003F08A1003E08A000C2
:100A90000030A7003D30A6000930A5000030A400BA
:100AA0008731A127853120002308031DB62D220898
:100AB000031DB62D01302102031CA72DB62D4108C0
:100AC000A3004008A2003F08A1003E08A00000309B
:100AD000A7003D30A6000930A5000030A4008731F2
:100AE000A1278531200020089B00B32D4108A300D9
:100AF0004008A2003F08A1003E08A0000030A70067
:100B00003D30A6000930A5000030A4008731A127A0
:100B100085312000200828009600B32D20004108D0
:100B2000A3004008A2003F08A1003E08A00000303A
:100B3000A7003D30A6000930A5000030A400873191
:100B4000A12785312000200828009D00B32D20001A
:100B50003C08023A03195F2D063A0319762D023A32
:100B600003198E2DB32D2000BD01B82DBD01BD0A86
:100B70003D08080020308600023087005030840095
:100B80000030850012302000BD0016001A00BD0B99
:100B9000C52D48308600013087003E30840000308B
:100BA00085000C30BD0016001A00BD0BD32D612E40
:100BB00021008E128C120C110E1322008E128C1238
:100BC0000C110E1321000C160E168E158E17200018
:100BD000D401D40ADE01DE0ADD01DD0AE101E10A09
:100BE000503086316B26853100309731D1278531E1
:100BF0003E308E310D26853101309731C927853140
:100C000000309731C127853103302000BD003D08F9
:100C1000CC00CF01CD01CE01CB01CB0ACA01CA0A5B
:100C20004A308B31DE2385312100AE01AF01B001A6
:100C3000B101B201B301B401B501B50AB601B70102
:100C4000B801B901BA01BB01BC01BD01BE0102304E
:100C50002000BD003D082100BF00C001C101C2014C
:100C6000C301C401C501C601C701C801033020008A
:100C7000BD003D082100C900CA01CB01CC01CD0156
:100C8000CE01CF01D001D101D20104302000BD003E
:100C90003D082100D300D401D50108008A31622229
:100CA0008531AE308E317D268531B8308E317D264E
:100CB0008531C2308E317D268531CC308E317D2616
:100CC000080020006B08003A0319D82D013A0319D7
:100CD0004E2E6A2E0800F40024008C017408860051
:100CE0008701010C031C0C1003180C14740A8600F5
:100CF0008701010C031C8C1003188C147408023E2D
:100D000086008701010C031C0C1103180C157408D4
:100D1000033E86008701010C031C8C1103188C15FF
:100D20007408043E86008701010C031C0C12031892
:100D30000C167408053E86008701010C031C8C12FA
:100D400003188C168D017408063E86008701010C7D
:100D5000031C0D1203180D167408073E8600870148
:100D6000010C031C8D1203188D167408083E8600B2
:100D70008701010C031C0D1303180D177408093E9D
:100D800086008701010C031C8D1303188D178E013B
:100D900074080A3E86008701010C031C0E1003181C
:100DA0000E1474080B3E86008701010C031C8E1084
:100DB00003188E1474080C3E86008701010C031C76
:100DC0000E1103180E1574080D3E86008701010CE4
:100DD000031C8E1103188E1574080E3E86008701C1
:100DE000010C031C0E1203180E1674080F3E860029
:100DF0008701010C031C8E1203188E167408103E16
:100E000086008701010C031C0E1303180E177408CB
:100E1000113E86008701010C031C8E1303188E17E8
:100E20000800F500912F7508083E8600870101082B
:100E30002000A700750A8600870127088100750831
:100E4000592F7508023E8600870101308107413124
:100E50000318810A750A860087010108031D5E2FA9
:100E60000A302000A0000030A1007508063E860070
:100E70008701403FA200413FA3008B31A923873166
:100E80007508023E86008701403F2000A700413FD1
:100E9000A80021082802031D4F2F20082702031C49
:100EA0009C2F7508023E860087010030C03FC13F7D
:100EB000750A860087018101810A9C2F750A8600C8
:100EC00087010103031D9C2F0A302000A000003081
:100ED000A1007508043E86008701403FA200413F03
:100EE000A3008B31A92387317508023E8600870154
:100EF000403F2000A700413FA80021082802031D11
:100F0000832F20082702031C9C2F7508023E8600B1
:100F100087010030C03FC13F750A8600870181010B
:100F20009C2F7508860087010108003A0319132FCA
:100F3000013A0319212F9C2F750A860087010108A9
:100F4000080000302000AB000030AA000030A900EB
:100F50000030A80023082204210420040319EB2FE9
:100F6000AC01AC0AA31BC02F0130A035A10DA20D0E
:100F7000A30D890BB52F0130F4007408AC07B22F14
:100F80000130A835A90DAA0DAB0D890BC12F23087F
:100F90002702031DD52F22082602031DD52F210865
:100FA0002502031DD52F20082402031CE02F200852
:100FB000A4022108A53B2208A63B2308A73B28142E
:100FC0000130A336A20CA10CA00C890BE12F01303B
:100FD000AC02031DC02F2B08A3002A08A200290879
:100FE000A1002808A0000800FE0012001E00013029
:100FF000FE020030FF3B7F087E0403190034F52F0A
:101000008031AE288031F228813118298131782948
:101010008131982901000800F5007508F400F40DED
:10102000210017087406C139740697000800F500FE
:101030007508F400F40DF40D21001D0874068339C1
:1010400074069D0008006400800101310130FE0239
:101050000030FF3B7F087E0403190034242822005F
:101060008C018D018E0100309731B92788316300E2
:1010700001309731B92708002000A00045287408E6
:10108000F50075082100ED00080020002008013A55
:1010900003193F284B280800033021001C052000BD
:1010A000A0002008A20021001B082000A1002208A7
:1010B000F5002108F40008002000A000652875084C
:1010C0002100E4007408E300080020002008013A31
:1010D00003195F286B280800F501503075020318CA
:1010E00008007508A03E86000330870081010130AA
:1010F000F4007408F5076D28F501503075020318E7
:1011000008007508203E8600033087008101013009
:10111000F4007408F5077D288C31A2248831200062
:10112000EB01EB0A21006E08031D9228833189230D
:1011300088312100EE01EE0A922803307906031D62
:10114000080023002103031DAB28F401F40A013039
:1011500088313C200800F401013088313C2008002F
:101160000630F40074082200D400D501D601D60A56
:10117000D701D801D80AD901D90ADA01DB01DC018B
:10118000DD01DE01DE0A0800CF288831B020883179
:10119000543084314D2408008F317227080020001C
:1011A0006B08003A0319C528013A0319CC28D8283E
:1011B0000800E5280B3088310C2088310130973148
:1011C000B927080080310220080020006B08003A8F
:1011D0000319DA28013A0319E228EE280800F4007E
:1011E000FA2820001C150800280017150800280000
:1011F0001E1508007408023A0319F128063A03196B
:10120000F428023A0319F728052908001D3088310F
:101210001720893197319727893197319D27893157
:10122000003A03190D2988314C2075082000A600CA
:101230007408A5002608A4002508A3000800F400EF
:101240003229200021082100DB0020002008210095
:10125000DA00200023082100DD0020002208210000
:10126000DC0008007408013A031921293729080015
:1012700010302000C5004508C6000430C5004508F0
:10128000C700C801C80AE830C9000330CA00CB0152
:10129000CB0A4630C5004508C20002308C315724C5
:1012A0000800F401F5012000201C5A292208F40747
:1012B0002308F53D0130A235A30D890B5B290130D0
:1012C000A136A00C890B602920082104031D532995
:1012D0007508A1007408A00008002000A200A30166
:1012E000A301740823020318080023082207A000A2
:1012F00020088600023087000108A1002308203E54
:10130000860003308700210881000130A0002008FA
:10131000A3077129F100F2017108860087010230EC
:1013200001060319A629710886008701033001060A
:101330000319A6290230F000710A8600870170089F
:1013400081000230F0007008F20008000330F00065
:101350007008F2000800F500F401750886008701A6
:1013600001030319CA2975088600870103300106A5
:101370000319CA29750A8600870102300106031D78
:10138000C929750A860087018101810AF401F40ADE
:10139000CA29F401740808002000A100A001210856
:1013A00086008701023001060319E9292108860019
:1013B0008701033001060319E9290230F400210AEC
:1013C00086008701740881000230F4007408A000D0
:1013D00008000330F4007408A0000800F401F401D0
:1013E0002000230874020318080020002108A5002B
:1013F0002008A40074082407840025080318250A7F
:1014000085000008A60074082207A70027088600A8
:1014100002308700260881000130A4002408F40768
:10142000F029AD3400340034003400340134003489
:101430000034C4340834003400340034013400343F
:101440000034D9340834003400340034E834033430
:101450000034E7340A340034003400346434003497
:101460000034BA34053400340034003464340034B9
:101470000034F500562A20009110740C2100031C42
:10148000911003189114080020009310740C21008F
:10149000031C931003189314080020009311740C7C
:1014A0002100031C93110318931508007508023AD4
:1014B00003193B2A063A0319442A023A03194D2A12
:1014C000612A0800802A01302000BB003B0821006F
:1014D000A9070A302902031C08008B314723210089
:1014E000A801A80A0800E9308931CC210230200087
:1014F000BB003B082100A800080082319D220800A3
:1015000021002808003A0319632A013A0319732AB3
:10151000033A03197D2A8C2A0800200020082104A0
:101520000319B52AF501F50AA11BA02A0130A0353F
:10153000A10D890B972A0130F4007408F507942A4D
:1015400021082302031DA62A20082202031CAC2A1C
:101550002008A2022108A33B0130A136A00C890B70
:10156000AD2A0130F502031DA02A2308A10022089C
:10157000A0000800F500D82A740C2200031C8E126B
:1015800003188E160800740C2200031C8C1203181A
:101590008C160800740C2200031C0C1103180C1587
:1015A0000800740C2200031C0E1303180E17080009
:1015B0007508013A0319BC2A033A0319C32A013AF0
:1015C0000319CA2A073A0319D12AE62A08000D2B63
:1015D00021008D1322008D1301308C311524080059
:1015E000ED302000BD003D08AB00D630BE003E0807
:1015F000AC00DF30BF003F08AD0001308B317823F5
:101600002000C000C00CC00C22000D0820004006C5
:101610007F39400622008D00080020006B08003A48
:101620000319E82A013A0319F02A162B08000030A2
:101630002000AF000030AE000030AD000030AC0044
:10164000241C2A2B2808AC072908AD3D2A08AE3DEA
:101650002B08AF3D0130A835A90DAA0DAB0D890BA4
:101660002B2B0130A736A60CA50CA40C890B322B12
:101670002708260425042404031D202B2F08A70077
:101680002E08A6002D08A5002C08A40008000310B1
:1016900020008E1F03140030093DF4000230F435A1
:1016A000FF3E031D4F2B7435F5007508F804031039
:1016B0008E1D03140030093DF4000130F435FF3E67
:1016C000031D5E2B7435F5007508F80403100E1E1B
:1016D00003140030093D0907F4007408F8040310EE
:1016E0000C1E03140030093DF4007408F8040800CF
:1016F0002000B000B101962BB101A72BB101B10AB6
:10170000A72B2C08873111278B312000AE002E0823
:10171000942B3008AE002E08A7002D088D31A5258A
:101720008B312000AF002F08B100A72B2B088600BB
:1017300087010108003A03197C2B013A03197E2B1B
:10174000033A0319812B013A0319892BA72B31087E
:1017500008002000A501A601200821040319D92BA7
:10176000A401A40AA11BBE2B0130A035A10D890B39
:10177000B52B0130F4007408A407B22B0130A53555
:10178000A60D890BBF2B21082302031DC92B20089E
:101790002202031CD02B2008A2022108A33B2514FF
:1017A0000130A136A00C890BD12B0130A402031DFE
:1017B000BE2B2608A1002508A0000800F40074082C
:1017C00086008701010C2100031C1D1003181D1445
:1017D000740A86008701010C031C9E1303189E17D0
:1017E0007408023E86008701010C031C1E120318B8
:1017F0001E167408033E86008701010C031C1E118F
:1018000003181E157408043E860087011E08010691
:10181000FC3901069E007408053E86008701010C14
:10182000031C11130318111708002000A500482CF1
:10183000F401013088313C20F90108003230F40015
:101840000030F500013088315C20F901F90A080008
:1018500032302000A0000030A100B630A2000330DA
:10186000A300013089311F218C3102302000A400F7
:101870002408F400013088313C2002302000A4000C
:101880002408F90008000330A4002408F900080027
:101890002508003A0319182C013A03191E2C033AA3
:1018A0000319282C013A0319432C562C0800200058
:1018B000C4004208860087010108C3004308F40001
:1018C000420886008701413FF50044088E31F72623
:1018D0008C3120004208023E860087010103031D6F
:1018E000742CF401F40A762CF401200044088A31A7
:1018F00039228C3120004208033E86008701403F98
:10190000B000413FB1004208860087010108C300D2
:101910004308B200420886008701413FB3004408F3
:10192000853104258C31013A0319952C2000420899
:10193000053E860087010103031D08004408883125
:10194000EF2008002000E201E2010A30840090301C
:101950008500003F2200DF00013FE0002000620818
:101960002200E100E20160086202031DB92C5F0859
:10197000610203180800200062082200DF00023024
:10198000DF35FF3E031DC02C5F35073E203E86003D
:10199000013087000108E00060082000BC006208F8
:1019A0002200E1000230E135FF3E031DD32C6135FA
:1019B000203E860001308700413F8A00403F0A00F8
:1019C0008C3101302200DF005F082000E2070A307E
:1019D000840090308500003F2200DF00013FAD2CE5
:1019E0002300211CF62CF601F60AF72CF60121083B
:1019F0002000A0000130A036890BFB2C201C032DF9
:101A0000F701F70A042DF701230021082000A000A8
:101A10000230A036890B092D201C112DE901E90A9D
:101A2000122DE901230021082000A0000330A03678
:101A3000890B172D201C1F2DEA01EA0A202DEA012F
:101A40007608A0002008F40001308A31BA228C31D7
:101A500077082000A0002008F40002308A31BA2262
:101A60008C3120006908A0002008F40003308A317E
:101A7000BA228C3120006A08A0002008F40004304B
:101A80008A31BA2208002000AF002808AD002708DC
:101A9000AC002A08A1002908A0002D08A3002C08EA
:101AA000A2008B31A9238D3120002108AD00200830
:101AB000AC000130AB002B08AF072C082D04031D30
:101AC000492D2F088600870181010130AF022A08C5
:101AD000A1002908A0002808A3002708A2008A3135
:101AE0008D228D3120002008AB002B08AE002A0883
:101AF000A1002908A0002808A3002708A2008B3114
:101B0000A9238D3120002108A8002008A7000A3051
:101B10002E02031C8F2D0730AB002B08AE07303090
:101B2000AB002B08AE072E08AB002F0886008701FC
:101B30002B0881000130AF0227082804031D672D00
:101B40000130AB002B08AF0708002000AA00F82DD9
:101B50002A0A860087018101810A2A0886008701F6
:101B60008101810A2A08023E86008701013081072F
:101B700041310318810A0A30A0000030A1002A0870
:101B8000043E86008701403FA200413FA3008B3105
:101B9000A9238D3120002A08023E86008701403F9C
:101BA000A800413FA90021082902031DD92D2008C2
:101BB0002802031C072E2A08023E860087010030F7
:101BC000C03FC13F2A0A8600870181010230A80078
:101BD0002A088600870128088100072E2A08860027
:101BE00087018101F401270888313C208D31072EBF
:101BF00020002A08860087010108003A0319A82D51
:101C0000013A0319B22D033A0319EE2D072E2000D5
:101C10002A0A8600870101080800F40023008C01CD
:101C2000740886008701010C031C0C1003180C14A7
:101C3000740A86008701010C031C8C1003188C1495
:101C40007408023E86008701010C031C0C11031866
:101C50000C157408033E86008701010C031C0C124E
:101C600003180C168D017408043E86008701010CD0
:101C7000031C0D1203180D167408053E860087011B
:101C8000010C031C8D1203188D168E017408063E7C
:101C900086008701010C031C0E1003180E14740833
:101CA000073E86008701010C031C8E1003188E145A
:101CB0007408083E86008701010C031C0E110318EE
:101CC0000E157408093E86008701010C031C8E1155
:101CD00003188E1574080A3E86008701010C031C48
:101CE0000E1303180E1774080B3E86008701010CB3
:101CF000031C8E1303188E1708002000A400EB2E7F
:101D00002408083E8931AB218E31003A03190800BE
:101D1000F401F40A20002408073E86008701010828
:101D20008A31BA2220002408860087018101810AB5
:101D30000800240A86008701013081074131031819
:101D4000810A240A86008701403FA000413FA1008C
:101D500000302102643003192002031CBE2E240A25
:101D6000860087010030C03FC13F2408033E860043
:101D700087010130810741310318810A2408053E9B
:101D800086008701403FA000413FA1002408033E98
:101D900086008701403FA200413FA30021082302A3
:101DA000031DD42E20082202031C08002408033E31
:101DB000860087010030C03FC13FF4012408073E80
:101DC0008600870101088A31BA2220002408860093
:101DD0008701810108002408860087010108003A74
:101DE0000319802E013A0319992EF62E08002000BF
:101DF000A100652F1C10FD2E1C149C100D2F1C1013
:101E00009C140D2F7408013A0319FA2E053A031990
:101E1000FC2E143A0319FF2E0D2F7508FF3EA0006B
:101E2000A00DA00DA00D1C082006873920069C00DF
:101E30000800280017101E2F2800171497102F2FA6
:101E40002800171097142F2F7408013A0319192F1F
:101E5000053A03191C2F143A0319202F2F2F750848
:101E6000FF3E2000A000A00DA00DA00D2800170827
:101E70002000200687392006280097000800280047
:101E80001E10442F28001E149E10552F28001E10CF
:101E90009E14552F7408013A03193F2F053A031970
:101EA000422F143A0319462F552F7508FF3E200084
:101EB000A000A00DA00DA00D28001E0820002006E7
:101EC0008739200628009E00080020002108023AD9
:101ED0000319022F063A0319242F023A03194A2F35
:101EE000712F08002000A901F62FE9308931AB21BC
:101EF0008F31003A0319080078089731A1278F31F4
:101F00007F309731A6272100AA01AA0A0800E530F0
:101F10008931AB218F31003A0319D92F9D308600CA
:101F2000233087000108780603199D2F9D30860015
:101F3000233087000108031D08009D3086002330F0
:101F4000870041310108031D08002000A90150301D
:101F500029020318C92F2908A400A5019F30A60053
:101F60002330A7002408260786002508273D870080
:101F70000108A8002908A03E860001308700280833
:101F800081000130A4002408A90750302902031C55
:101F9000AB2FEB308931CC218F317903031D080041
:101FA00003302000A4002408F400013088313C20D4
:101FB00008006C308931AB218F31003A03190800D9
:101FC00021002D082000A4002408F400A03089314D
:101FD0006D218F317903031D080003302000A40018
:101FE0002408F400013088313C20080021002A0830
:101FF000003A0319752F013A0319872FFF2F0800A4
:10200000013400340A34003464340034E8340334D6
:102010001034273405340034303431342E34303425
:1020200031342E34303430340034253464342E349A
:10203000253430343134753400345334423431343F
:102040003434303400344534433448344F3400346D
:102F24000134013488310A20080021009D1408006E
:102F34008B170B17080021001D0C01390800F40041
:102F44007435240092000800F400743524009300C2
:102F5400080021009914783099041A180800AF2F3A
:102F64009731D927973188318C2080312B28F40070
:102F7400740C2100031C1710031817140800F40024
:102F8400740C2200031C1712031817160800F4000F
:102F9400740C2200031C9712031897160800F400FF
:102FA400740C2100031C951303189517080097311E
:102FB400AB27973189313821973197319A27080007
:102FC40024001608F4000630F436890BE62F740842
:102FD4000139080024001408F4000530F436890B84
:102FE400F02F74080139080024001408F400043098
:0C2FF400F436890BFA2F7408013908002C
:020000040001F9
:04000E00ECFFFFDF25
:00000001FF
