:1000000080312B28013401347E14803120007F0898
:10001000F300911C1C282100911C1C282000911029
:1000200001302100A2070030A33D22082304031958
:100030001C28A201A301EF012100911D2628200008
:10004000911D26289111C2309731DF2773082000B7
:10005000FF007E10090080312D2880310220803180
:10006000F800803103208031F900210095316825A6
:100070008031EF0085308400883085002030860094
:10008000013087000030FF0028309631072680318C
:100090009D308400233085005330FE000030FF0087
:1000A0009531FB258031F601F7012000ED01A030EC
:1000B0008400003085002B30FE000030FF009531B9
:1000C000FB25803148308400013085001E30FE0061
:1000D0000030FF009531FB258031A03084000130D5
:1000E00085001E30FE000030FF009531FB25803179
:1000F00020308400023085005030FE000030FF00C8
:100100009531FB258031A0308400023085005030CD
:10011000FE000030FF009531FB2580312030840047
:10012000033085005030FE000030FF009531FB2584
:100130008031A0308400033085005030FE00003054
:10014000FF009531FB257E10200095318C2DA329D1
:10015000C23088311F208031003A031908009531E0
:10016000D0258031003A031DD12821002D03031D25
:10017000C72801302000E40064082100AE070B30DE
:100180002E02031CC928953169258031C928210018
:10019000AE012100AD01AD0AAF01AF0AB001B00A56
:1001A00008009531D0258031013A031D0800210057
:1001B0002F03031D0800AD017708031DE628023058
:1001C0002000E40064082100B00008000330200093
:1001D000E40064082100B000080024001108200099
:1001E000E4006408F6007636E4006408F6002400B3
:1001F000110801392000E4006408F7007703031DAB
:10020000102921003208203E8600033087000108B3
:100210002400910001302000E40064082100B207AE
:1002200004302000E40064082100B000080095318B
:10023000DA258031013A031D63292100AF01EF3037
:10024000860023308700310881009D3086002330EE
:100250008700413181019D30860023308700760878
:10026000C03F2000EB0150306B02031859296B0886
:10027000A03E8600033087000108E4006B08E5001B
:10028000E6019F30E7002330E80065086707E900D2
:100290006608683DEA00690886006A088700640805
:1002A00081000130E4006408EB0750306B02031C4E
:1002B0003729C0308831402080312100B10196318A
:1002C000502680317529240011082000E400210007
:1002D0003108A03E860003308700200064088100BA
:1002E0000130E40064082100B10704302000E4007C
:1002F00064082100B00008009531C6258031003A1D
:10030000031D922921003208203E86000330870019
:1003100001082400910001302000E400640821005D
:10032000B20797292100B201AF019631602604304F
:100330002000E40064082100B00008002400151625
:100340002100B001080021003008840005300402BB
:100350000318080090310435643E82000800812AA9
:1003600045302000A0009030A100A030B00030083F
:10037000A2000430B1003108A3008831622081312D
:1003800004302000B00030082100B900C4308831AA
:10039000402008003F302000A0009030A100A03095
:1003A000B0003008A2000530B1003108A300883148
:1003B0006220813105302000B00030082100B900F2
:1003C000C4308831402008002E302000A00090303A
:1003D000A100A030B0003008A2000830B100310800
:1003E000A30088316220813108302000B00030083D
:1003F0002100B900C4308831402008002F3020008F
:10040000A0009030A100A030B0003008A200083059
:10041000B1003108A300883162208131083020000A
:10042000B00030082100B900C430883140200800F5
:100430009531712508009631132608002400210803
:100440008A31662208009631B52608009731762752
:10045000813120002408B7002308B6003708B00017
:1004600030082500A00020003608B0003008250024
:10047000A10002302000B00030082100B900C430D3
:1004800088314020080097317627813120002408E8
:10049000B7002308B6003708B1003608B000B136FF
:1004A000B00CB136B00CB136B00C3008D83EB60046
:1004B000FF30313DB7003708A8003608A7000A30E2
:1004C000A9000030AA0032308B31E823813132306C
:1004D0002000A0000030A100A030B0003008A20031
:1004E0000230B1003108A30088316220813102302E
:1004F0002000B00030082100B900C430883140200D
:10050000080024002008103A0319B029303A0319D2
:10051000CA29013A0319E429033A0319FE29123AB8
:100520000319182A013A03191B2A703A03191E2AC3
:10053000033A0319232A073A0319262A033A03190F
:10054000432AA22A0800C83088311F208231003A8D
:10055000031908008131AF2182315A2B2400210870
:100560008F315C2708001430F4000030F50039307A
:100570009731A82782312000E101240021082000C2
:1005800061020318D62A6108023E203E860002302E
:1005900087000108B8006108393E860087013808E5
:1005A00081000130B8003808E107BD2A6108033E28
:1005B000393E86008701810139309631F1260800E5
:1005C00024002103031DE82A01309531BC250800D1
:1005D00000309531BC25080001308F315C270800C0
:1005E00002308F315C270800C0308F315C27080053
:1005F00002308F315C2782311430F4000030F50076
:1006000039309731A82782312000E10124002108E8
:100610002000610203181F2B6108023E203E860065
:10062000023087000108B8006108393E8600870162
:10063000380881000130B8003808E107062B61084E
:10064000033E393E86008701810139309631F1261B
:100650000800C0308F315C2782311430F400003044
:10066000F50039309731A82782312000E1012400BC
:100670002108200061020318502B6108023E203E31
:100680008600023087000108B8006108393E860004
:100690008701380881000130B8003808E107372B9E
:1006A0006108033E393E8600870181013930963169
:1006B000F126080024002008503A0319AE2A013A16
:1006C0000319B32A033A0319E02A013A0319EC2A61
:1006D000073A0319F02A013A0319F42A0F3A0319C9
:1006E000F82A013A0319292B762B0800080020006C
:1006F000EC01EC010A30840090308500003F2200BC
:10070000E600013FE70020006C082200E800E90154
:1007100067086902031D8E2B66086802031808002B
:1007200020006C082200E6000230E635FF3E031D83
:10073000952B6635053E203E860001308700403F00
:10074000E700413FE80020006C082200E900023089
:10075000E935FF3E031DA82B6935033E203E860088
:1007600001308700403FEA00413FEB0068086B0220
:10077000031DBC2B67086A02031C082C20006C08B0
:100780002200E6000230E635FF3E031DC32B66352E
:10079000033E203E8600013087000030C03FC13F4D
:1007A00020006C082200E6000230E635FF3E031D03
:1007B000D52B6635023E203E860001308700810140
:1007C000810A20006C082200E6000230E635FF3E78
:1007D000031DE62B6635073E203E8600013087006C
:1007E0000108E70067082000E3006C082200E80029
:1007F0000230E835FF3E031DF92B6835203E8600A8
:1008000001308700413F8A00403F0A0084312C2C90
:1008100020006C082200E6000230E635FF3E031D92
:100820000D2C6635033E203E8600013087000130E6
:10083000810741310318810A20006C082200E6007C
:100840000230E635FF3E031D212C6635023E203E78
:10085000860001308700810101302200E600660831
:100860002000EC070A30840090308500003F220011
:10087000E600013F822BE32CD030F4000730F50076
:100880009631DC2684312100B301B30AE32C963182
:10089000702684310230DE2C30308B31902384314D
:1008A0000330CE2C30308B31902384310430CE2C69
:1008B00030308B31902384310530CE2C22004F0311
:1008C000031D642C3030652C20308B319023843113
:1008D0000630CE2C220051082000A5000230A5359C
:1008E000890B6F2C220050082000A6000330A6358B
:1008F000890B772C22004F082000A7000330A73572
:10090000FF3E031D7F2C27352604250420388F3118
:100910005C2784310730CE2C22004B082000A50034
:100920000130A535890B912C22004A082000A60031
:100930000130A635FF3E031D992C263525042200E3
:100940004C0408388F315C2784310830CE2C2200CB
:100950004E082000A5000230A535890BAC2C2200E2
:100960004D082000A6000230A635FF3E031DB42C22
:100970002635250410388F315C2784310930CE2C80
:1009800022004835490404388F315C2784310A300D
:10099000DE2C01308F315C2784310B302000A50024
:1009A00025082100B5000C30DE2CD030F4000730D3
:1009B000F5009631DC268431210035082000A500A1
:1009C00025082100B3000B3021003306031908006D
:1009D0002100330884000D3004020318E32C903109
:1009E00004354A3E8200E32C2000A20021000D17AE
:1009F0000D16200022088600013087000108A000A3
:100A00002008240095042000220A86000130870077
:100A10000108A0000230A035FF3E031D0B2D20353C
:100A2000A10021082400960420002208033E86002D
:100A3000013087000108A00020082400960420004F
:100A400022080A3E8600013087000108A000063017
:100A5000A035FF3E031D282D2035A10021082400CC
:100A6000960420002208043E860001308700010819
:100A7000A0000530A035FF3E031D3A2D2035A10012
:100A800021082400970420002208053E860001303A
:100A900087000108A0000430A035FF3E031D4C2D47
:100AA0002035A10021082400970420002208063EDA
:100AB0008600013087000108A0000330A035FF3E0A
:100AC000031D5E2D2035A10021082400970420007D
:100AD0002208073E8600013087000108A00001308F
:100AE000A035FF3E031D702D2035A10021082400F4
:100AF000970420002208083E860001308700013557
:100B0000A00020082400970420002208093E860047
:100B1000013087000108A00020082400970420006D
:100B20002208023E8600013087000108A000043040
:100B3000A035FF3E031D982D2035A100210824007B
:100B40009504200091112100911596315026843191
:100B50009631602608002000BC000030C100003043
:100B6000C0000030BF000030BE003308B400B50143
:100B70003408A2003508A3003208B600B7013608D1
:100B8000A0003708A1009731C32785312000200835
:100B9000B8002108B900BA01BB013B08A7003A0818
:100BA000A6003908A5003808A4003008A8003108BC
:100BB000A900AA01AB0189312E2185312000270827
:100BC000C1002608C0002508BF002408BE00410857
:100BD000A3004008A2003F08A1003E08A00000308A
:100BE000A7003D30A6000930A5000030A4008731E1
:100BF000AD27853120002308031D5D2E2208031D2B
:100C00005D2E01302102031C4E2E5D2E4108A300F3
:100C10004008A2003F08A1003E08A0000030A70045
:100C20003D30A6000930A5000030A4008731AD2773
:100C30008531200020089B005A2E4108A30040085F
:100C4000A2003F08A1003E08A0000030A7003D30F0
:100C5000A6000930A5000030A4008731AD278531FA
:100C600020002008280096005A2E20004108A300EA
:100C70004008A2003F08A1003E08A0000030A700E5
:100C80003D30A6000930A5000030A4008731AD2713
:100C900085312000200828009D005A2E20003C08A5
:100CA000023A0319062E063A03191D2E023A0319B9
:100CB000352E5A2E2000BD015F2EBD01BD0A3D0814
:100CC0000800F40024008C01740886008701010CE0
:100CD000031C0C1003180C14740A86008701010C05
:100CE000031C8C1003188C147408023E86008701C4
:100CF000010C031C0C1103180C157408033E86002C
:100D00008701010C031C8C1103188C157408043E18
:100D100086008701010C031C0C1203180C167408C2
:100D2000053E86008701010C031C8C1203188C16EB
:100D30008D017408063E86008701010C031C0D120C
:100D400003180D167408073E86008701010C031C6A
:100D50008D1203188D167408083E86008701010C59
:100D6000031C0D1303180D177408093E8600870134
:100D7000010C031C8D1303188D178E0174080A3E95
:100D800086008701010C031C0E1003180E14740852
:100D90000B3E86008701010C031C8E1003188E1475
:100DA00074080C3E86008701010C031C0E11031809
:100DB0000E1574080D3E86008701010C031C8E1170
:100DC00003188E1574080E3E86008701010C031C63
:100DD0000E1203180E1674080F3E86008701010CD0
:100DE000031C8E1203188E167408103E86008701AD
:100DF000010C031C0E1303180E177408113E860015
:100E00008701010C031C8E1303188E1708002000A5
:100E1000A40095316B25873122008C162000240810
:100E2000A2000730A236890B122F22080139A30035
:100E3000A30DA30D22000E0820002306FB39230674
:100E400022008E0020002408A2000630A236890B62
:100E5000262F22080139A300A30D22000E0820002E
:100E60002306FD39230622008E0020002408A2005C
:100E70000530A236890B392F01302205A30022004C
:100E80000E0820002306FE39230622008E002000D3
:100E90002408A2000430A236890B4B2F2208013906
:100EA000A300A30DA30D22000C0820002306FB398C
:100EB000230622008C009631A326873120002408C7
:100EC000A2000330A236890B622F22080139A30049
:100ED000A30DA30D22000E0820002306FB392306D4
:100EE00022008E0020002408A2000230A236890BC6
:100EF000762F22080139A300A30D22000E0820003E
:100F00002306FD39230622008E0020002408A200BB
:100F10000130A236890B892F01302205A30022005F
:100F20000E0820002306FE39230622008E00200032
:100F300024080139A200A20DA20D22000C082000F5
:100F40002206FB39220622008C009631A326873127
:100F500022008C1295316E25080000302000AB0075
:100F60000030AA000030A9000030A80023082204A5
:100F7000210420040319F72FAC01AC0AA31BCC2FCA
:100F80000130A035A10DA20DA30D890BC12F013099
:100F9000F4007408AC07BE2F0130A835A90DAA0DC6
:100FA000AB0D890BCD2F23082702031DE12F22084B
:100FB0002602031DE12F21082502031DE12F200831
:100FC0002402031CEC2F2008A4022108A53B2208C0
:100FD000A63B2308A73B28140130A336A20CA10C82
:100FE000A00C890BED2F0130AC02031DCC2F2B0878
:100FF000A3002A08A2002908A1002808A0000800D0
:10100000640008002000A200A301A30174082302C9
:101010000318080023082207A000200886000230D9
:1010200087000108A1002308203E860003308700C6
:10103000210881000130A0002008A3070628F50040
:10104000F401750886008701010303193E2875081D
:10105000860087010330010603193E28750A8600C1
:10106000870102300106031D3D28750A86008701AD
:101070008101810AF401F40A3E28F4017408080091
:101080002000A100A001210886008701023001068E
:1010900003195D2821088600870103300106031922
:1010A0005D280230F400210A86008701740881005F
:1010B0000230F4007408A00008000330F400740843
:1010C000A0000800F401F4012000230874020318B2
:1010D000080020002108A5002008A40074082407A7
:1010E000840025080318250A85000008A600740856
:1010F0002207A70027088600023087002608810003
:101100000130A4002408F4076428A7340034003414
:101110000034003401340034003406341734003411
:10112000003400340134003400341B3417340034EC
:1011300000340034E834033400348F34093400348C
:10114000003400346434003400342D340E34003460
:1011500000340034643400340034F500CA28200020
:101160009110740C2100031C9110031891140800B5
:1011700020009310740C2100031C93100318931487
:10118000080020009311740C2100031C9311031814
:10119000931508007508023A0319AF28063A031997
:1011A000B828023A0319C128D5280800F4280130CC
:1011B0002000E20062082100AB070A302B02031C6A
:1011C00008008A312E222100AA01AA0A0800C6308E
:1011D0008831402002302000E20062082100AA008D
:1011E00008008231A322080021002A08003A0319CE
:1011F000D728013A0319E728033A0319F1280029EF
:10120000080020002008210403192929F501F50A06
:10121000A11B14290130A035A10D890B0B29013028
:10122000F4007408F507082921082302031D1A2970
:1012300020082202031C20292008A2022108A33B27
:101240000130A136A00C890B21290130F502031DC4
:1012500014292308A1002208A00008000030200063
:10126000AF000030AE000030AD000030AC00241CF8
:1012700041292808AC072908AD3D2A08AE3D2B08B6
:10128000AF3D0130A835A90DAA0DAB0D890B422940
:101290000130A736A60CA50CA40C890B49292708F8
:1012A000260425042404031D37292F08A7002E082F
:1012B000A6002D08A5002C08A40008002000B000FE
:1012C000B1017C29B1018D29B101B10A8D292C0808
:1012D0008E31BD2689312000AE002E087A293008D3
:1012E000AE002E08A7002D088C314A248931200039
:1012F000AF002F08B1008D292B0886008701010857
:10130000003A03196229013A03196429033A0319BF
:101310006729013A03196F298D2931080800B82976
:1013200021008D1322008D1301308A3166220800BE
:101330008B3141238931CA302000E4006408AB00BE
:101340005D30E5006508AC00BA30E6006608AD0027
:10135000013089315E212000E700E70CE70C220014
:101360000D08200067067F39670622008D000800FF
:1013700020006D08003A03199029013A03199829B1
:10138000C12908002000A501A60120082104031995
:10139000F229A401A40AA11BD7290130A035A10D6F
:1013A000890BCE290130F4007408A407CB29013041
:1013B000A535A60D890BD82921082302031DE22992
:1013C00020082202031CE9292008A2022108A33BCD
:1013D00025140130A136A00C890BEA290130A402A2
:1013E000031DD7292608A1002508A0000800F40045
:1013F000740886008701010C2100031C1D100318CE
:101400001D14740A86008701010C031C9E13031827
:101410009E177408023E86008701010C031C1E12F1
:1014200003181E167408033E86008701010C031C76
:101430001E1103181E157408043E860087011E083D
:101440000106FC3901069E007408053E86008701EE
:10145000010C031C111303181117080003102000BE
:101460000E1F03140030093DF4000230F435FF3E36
:10147000031D362A7435F50075082100B8040310E1
:1014800020008E1D03140030093DF4000130F435B6
:10149000FF3E031D472A7435F50075082100B80486
:1014A000031020000E1E03140030093D0907F4004C
:1014B00074082100B804031020008E1E03140030AD
:1014C000093DF40074082100B80408002000A500BC
:1014D000992AF401013096312026F90108003230B2
:1014E000F4000030F500013096314026F901F90A88
:1014F000080032302000A0000030A100B630A20069
:101500000330A300013097318F278A310230200049
:10151000A4002408F4000130963120260230200077
:10152000A4002408F90008000330A4002408F900EE
:1015300008002508003A0319692A013A03196F2A9D
:10154000033A0319792A013A0319942AA72A0800B1
:101550002000C4004208860087010108C300430838
:10156000F400420886008701413FF50044088D31B0
:1015700022258A3120004208023E860087010103AD
:10158000031DC52AF401F40AC72AF4012000440807
:101590008831AD208A3120004208033E8600870151
:1015A000403FB000413FB10042088600870101087A
:1015B000C3004308B200420886008701413FB300E0
:1015C00044088531AB258A31013A0319E62A200007
:1015D0004208053E860087010103031D08004408F8
:1015E0009731482708002000EC01EC010A30840004
:1015F00090308500003F2200E600013FE700200018
:101600006C082200E800E90167086902031D0A2B43
:10161000660868020318080020006C082200E60033
:101620000230E635FF3E031D112B6635073E203E96
:101630008600013087000108E70067082000E3000A
:101640006C082200E8000230E835FF3E031D242B21
:101650006835203E860001308700413F8A00403FC8
:101660000A008B3101302200E60066082000EC07FA
:101670000A30840090308500003F2200E600013FE0
:10168000FE2A832B78082000A1002108F4000130F5
:10169000963120262100B701B70A08000130A007C3
:1016A0000030A13D00302102063003192002031C46
:1016B00008007808031D5E2B01305F2B00302000EE
:1016C000A1002108F8007808A1002108F4000130E9
:1016D000963120268B312100A001A101013020008C
:1016E000A10021082100B60706303602031C0800BD
:1016F000F40101309631202602302000A10021089B
:101700002100B700080021003708003A0319422BD6
:10171000013A03194E2B033A03198F2B8F2B080024
:101720002000A40095316B258B3120002408A200F5
:101730000730A236890B992B22080139A300A30D8B
:10174000A30D22000E0820002306FB3923062200E9
:101750008E0020002408A2000630A236890BAD2B93
:1017600022080139A300A30D22000E082000230641
:10177000FD39230622008E0020002408A200053037
:10178000A236890BC02B01302205A30022000E08CF
:1017900020002306FE39230622008E0020002408A4
:1017A000A2000430A236890BD22B22080139A300F3
:1017B000A30DA30D22000C0820002306FB392306ED
:1017C00022008C009631A3268B3195316E250800BE
:1017D0002000AF002808AD002708AC002A08A100AF
:1017E0002908A0002D08A3002C08A2008931C221DD
:1017F0008B3120002108AD002008AC000130AB0087
:101800002B08AF072C082D04031DEE2B2F08860094
:10181000870181010130AF022A08A1002908A00038
:101820002808A3002708A200893101218B3120005C
:101830002008AB002B08AE002A08A1002908A00050
:101840002808A3002708A2008931C2218B3120007B
:101850002108A8002008A7000A302E02031C342CFF
:101860000730AB002B08AE073030AB002B08AE07BB
:101870002E08AB002F08860087012B08810001305D
:10188000AF0227082804031D0C2C0130AB002B08E5
:10189000AF0708002000AA009D2C2A0A86008701B5
:1018A0008101810A2A08860087018101810A2A08AC
:1018B000023E860087010130810741310318810A09
:1018C0000A30A0000030A1002A08043E86008701EB
:1018D000403FA200413FA3008931C2218C3120004A
:1018E0002A08023E86008701403FA800413FA90028
:1018F00021082902031D7E2C20082802031CAC2C81
:101900002A08023E860087010030C03FC13F2A0AF4
:101910008600870181010230A8002A08860087011D
:1019200028088100AC2C2A08860087018101F40177
:101930002708963120268C31AC2C20002A088600FE
:1019400087010108003A03194D2C013A0319572C5D
:10195000033A0319932CAC2C20002A0A8600870135
:1019600001080800F40023008C0174088600870138
:10197000010C031C0C1003180C14740A8600870158
:10198000010C031C8C1003188C147408023E860092
:101990008701010C031C0C1103180C157408033E7D
:1019A00086008701010C031C0C1203180C168D0114
:1019B0007408043E86008701010C031C0D120318F5
:1019C0000D167408053E86008701010C031C8D125C
:1019D00003188D168E017408063E86008701010CDF
:1019E000031C0E1003180E147408073E86008701AE
:1019F000010C031C8E1003188E147408083E860018
:101A00008701010C031C0E1103180E157408093E02
:101A100086008701010C031C8E1103188E157408B3
:101A20000A3E86008701010C031C0E1303180E17D3
:101A300074080B3E86008701010C031C8E130318EB
:101A40008E1708002000A100902D1C10282D1C14BA
:101A50009C10382D1C109C14382D7408013A031961
:101A6000252D053A0319272D143A03192A2D382D4F
:101A70007508FF3EA000A00DA00DA00D1C082006BB
:101A8000873920069C00080028001710492D2800DF
:101A9000171497105A2D2800171097145A2D7408F0
:101AA000013A0319442D053A0319472D143A031935
:101AB0004B2D5A2D7508FF3E2000A000A00DA00D53
:101AC000A00D2800170820002006873920062800CE
:101AD0009700080028001E106F2D28001E149E106D
:101AE000802D28001E109E14802D7408013A0319C1
:101AF0006A2D053A03196D2D143A0319712D802DA5
:101B00007508FF3E2000A000A00DA00DA00D28002C
:101B10001E08200020068739200628009E000800A5
:101B200020002108023A03192D2D063A03194F2DE2
:101B3000023A0319752D9C2D08002000A901232EBF
:101B4000C63088311F208D31003A0319080021006A
:101B5000380895317B258D317F30953180252100E6
:101B6000AC01AC0A0800C03088311F208D31003A2A
:101B70000319062E9D3086002330870001082100BE
:101B800038060319CA2D9D308600233087000108CE
:101B9000031D08009D308600233087004131010875
:101BA000031D08002000A901503029020318F62D5A
:101BB0002908A400A5019F30A6002330A70024080F
:101BC000260786002508273D87000108A800290868
:101BD000203E860002308700280881000130A400E2
:101BE0002408A90750302902031CD82DC830883199
:101BF00040208D317903031D080003302000A4002C
:101C00002408F4000130963120260800C4308831C1
:101C10001F208D31003A03190800210039082000E7
:101C2000A4002408F400A030883102208D3179030B
:101C3000031D080003302000A4002408F400013034
:101C400096312026080021002C08003A0319A02D07
:101C5000013A0319B32D2C2E0800A0308600013064
:101C60008700D13084000030850012302000E4006D
:101C700016001A00E40B382EB230860001308700BF
:101C8000E3308400003085000C30E40016001A00B8
:101C9000E40B462EB32E21008E160E168E150E174F
:101CA0000C1222000C162100DE01DE0ADF01DF0A21
:101CB000E001E00AE101E10AD130863161268E318E
:101CC00000309531AB258E312100E301E401E501BF
:101CD000E601E901EA01EB01EC01ED01EE01E701AA
:101CE000E801E3308C31B2248E31963181268E3179
:101CF00084313B248E3101309531A3258E31003063
:101D000095319B258E3103302000E40064082100CA
:101D1000CD00D001CE01CF01CC01CC0ACB01CB0A42
:101D2000CB308931F7218E3102308F315C278E31F3
:101D30000C302000A5009030A600973131278E315D
:101D4000C0308F315C278E311D302000A5009030CF
:101D5000A600973131278E3101309531BC2508001E
:101D60008831D620080020006D08003A03194B2E58
:101D7000013A0319B02EBC2E0800F5004A2F750851
:101D8000083E86000130870001082000A700750A80
:101D90008600013087002708810075080C2F750820
:101DA000023E86000130870001308107413103186F
:101DB000810A750A8600013087000108031D122F71
:101DC0000A302000A0000030A1007508063E860001
:101DD00001308700403FA200413FA3008931C2216A
:101DE0008E317508023E860001308700403F20009A
:101DF000A700413FA80021082802031D012F200849
:101E00002702031C562F7508023E8600013087000A
:101E10000030C03FC13F750A860001308700810154
:101E2000810A562F750A8600013087000103031DC1
:101E3000562F0A302000A0000030A1007508043E93
:101E4000860001308700403FA200413FA300893156
:101E5000C2218E317508023E860001308700403F66
:101E60002000A700413FA80021082802031D3A2FA7
:101E700020082702031C562F7508023E86000130F9
:101E800087000030C03FC13F750A860001308700DF
:101E90008101562F75088600013087000108003A3D
:101EA0000319BF2E013A0319CF2E562F750A86004B
:101EB00001308700010808002000A40095316B253F
:101EC0008F3122008C1220002408A2000730A23695
:101ED000890B672F22080139A300A30DA30D22004F
:101EE0000E0820002306FB39230622008E00200066
:101EF0002408A2000630A236890B7B2F2208013964
:101F0000A300A30D22000E0820002306FD3923069E
:101F100022008E0020002408A2000530A236890B82
:101F20008E2F01302205A30022000E082000230678
:101F3000FE39230622008E0020002408A20004306F
:101F4000A236890BA02F22080139A300A30DA30DEF
:101F500022000C0820002306FB39230622008C00F7
:101F60009631A3268F3120002408A2000330A23628
:101F7000890BB72F22080139A300A30DA30D22005E
:101F80000E0820002306FB39230622008E002000C5
:101F90002408A2000230A236890BCB2F2208013977
:101FA000A300A30D22000E0820002306FD392306FE
:101FB00022008E0020002408A2000130A236890BE6
:101FC000DE2F01302205A30022000E082000230688
:101FD000FE39230622008E00200024080139A200C9
:101FE000A20DA20D22000C0820002206FB392206B9
:101FF00022008C009631A3268F3195316E25080082
:10200000013400340A34003464340034E8340334D6
:10201000103427340534003420344D3465347234A0
:1020200063347534723479342034533479347334EE
:10203000743465346D3420340034453442343234E1
:10204000313430343A3420344C3463346434203402
:1020500042346F3461347234643400343034313497
:102060002E34303431342E3430343034003425348E
:1020700064342E34253430343134753400344534EE
:10208000423432343134303400344534433448340B
:102090004F34003484313C2C8431472C84314C2C17
:1020A0008431522C8431582C84315E2C84316A2C3A
:1020B00084318C2C8431A72C8431C02C8431C92CE0
:1020C0008431E32C8431D52C8031A8288031ED284F
:0C20D0008131172981317C2981319E2942
:102AD0000134010008008B130B1308008B170B1730
:102AE000080095316925080021009D140800210087
:102AF0001D0C01390800F400743524009200080010
:102B0000F4007435240093000800210099147830F3
:102B100099041A180800892D9531B32595319631FD
:102B2000922680312B28F400740C2100031C17100E
:102B3000031817140800F400740C2200031C171269
:102B4000031817160800F400740C2200031C9712D7
:102B5000031897160800F400740C2100031C951349
:102B600003189517080095318525953197315F2712
:102B7000953195316E250800F4007403031DC32DB3
:102B800022008E17080022008E1308002400160869
:102B9000F4000630F436890BCA2D74080139080098
:102BA00024001408F4000530F436890BD42D740881
:102BB0000139080024001408F4000430F436890BAD
:102BC000DE2D740801390800F5007508F400F40DD5
:102BD000210017087406C139740697000800F50033
:102BE0007508F400F40DF40D21001D0874068339F6
:102BF00074069D0008006400800101310130FE026E
:102C00000030FF3B7F087E0403190034FC2DFE00DA
:102C100012001E000130FE020030FF3B7F087E04E0
:102C200003190034082E22008C018D018E01003022
:102C30009531932596316300013095319325080035
:102C40002000A000292E7408F50075082100CA0094
:102C5000080020002008013A0319232E2F2E080017
:102C6000033021001C052000A0002008A200210044
:102C70001B082000A1002208F5002108F40008002C
:102C80002000A000492E75082100BF007408BE0076
:102C9000080020002008013A0319432E4F2E080097
:102CA000F50150307502031808007508A03E860033
:102CB0000330870081010130F4007408F507512EBC
:102CC000F50150307502031808007508203E860093
:102CD0000330870081010130F4007408F507612E8C
:102CE00021000C110E108E100E118D128C128E13ED
:102CF00022000C110E108E100E118D128C128E13DC
:102D000008002200C901C801C80ACD01CD0ACE01C0
:102D1000CE0ACC01CB01CA01CA0AD001D00AD10126
:102D2000CF0108008A31F32296312000ED01ED0A2F
:102D300021006F08031D982E8331772396312100DF
:102D4000EF01EF0A982E22008D16C830F4000030F3
:102D5000F5009631DC26963122008D12C830F40041
:102D60000030F5009631DC26080003307906031D9B
:102D7000080024002103031DC32EF401F40A0130CE
:102D8000963120260800F4010130963120260800F3
:102D90000630F40074082200D200D301D401D40A12
:102DA000D501D601D60AD701D70AD801D901DA014F
:102DB000DB01DC01DC0A08002000A001A10175088C
:102DC0002102031DE52E74082002031808000000EC
:102DD00000000000000001302000A0070030A13DED
:102DE000DF2E2000A60026088600870101080319AF
:102DF00008002608860087010108873107279631D9
:102E000001302000A5002508A607F32E112F9631CA
:102E1000C826973152308431F42408008D319D2525
:102E2000080020006D08003A0319072F013A031922
:102E30000E2F1A2F0800272F0B309531E4259731DC
:102E400001309531932508008831002008002000CA
:102E50006D08003A03191C2F013A0319242F302F53
:102E600008002000250884002608850012000319A8
:102E70000800200025088400260885000008873106
:102E80000727973101302000A5070030A63D312FDC
:102E9000F400532F20001C15080028001715080007
:102EA00028001E1508007408023A03194A2F063A32
:102EB00003194D2F023A0319502F5E2F08002000EE
:102EC000C601C60A0830C5004508C700C801C80ABF
:102ED0001030C9002730CA00CB01CB0A4630C500EC
:102EE0004508C20002308A31A82208001D30953101
:102EF000EF259731953174259731953177259731A5
:102F0000003A03197D2F9631302675082000A6005F
:102F10007408A5002608A4002508A3000800F400F2
:102F2000A22F200021082200E20020002008220019
:102F3000E100200023082200E400200022082200F3
:102F4000E30008007408013A0319912FA72F080025
:102F50002000A200A301A3012308A000A1012108D1
:102F60007502031DB52F20087402031C08002308F6
:102F70002207A00020088600870181010130A000FF
:102F80002008A307AC2FF401F5012000201CCC2F52
:102F90002208F4072308F53D0130A235A30D890B63
:102FA000CD2F0130A136A00C890BD22F200821048F
:102FB000031DC52F7508A1007408A0000800F100CA
:102FC000F201710886008701023001060319FB2F08
:102FD000710886008701033001060319FB2F0230B8
:102FE000F000710A86008701700881000230F0004D
:102FF0007008F20008000330F0007008F2000800CA
:020000040001F9
:04000E00ECFFFFDF25
:00000001FF
