:1000000080312B28640008007E14803120007F0896
:10001000F300911C1C282100911C1C282000911029
:1000200001302100A2070030A33D22082304031958
:100030001C28A201A301E9012100911D262820000E
:10004000911D26289111E4308A31B82273082000CE
:10005000FF007E10090080312D288831AB208031CF
:10006000F9008831AA208031E80021008831A920D8
:100070008031E900643084008B30850020308600B8
:10008000013087000030FF00283089314421803161
:100090009D308400233085005330FE000030FF0087
:1000A000893138218031F601F701F8012000DF01A4
:1000B000E001E101E201E301E401E501E601E7011C
:1000C000A0308400003085004930FE000030FF0081
:1000D0008931382180314830840001308500143066
:1000E000FE000030FF00893138218031A0308400CB
:1000F000013085005030FE000030FF00893138218A
:10010000803120308400023085005030FE00003005
:10011000FF00893138218031A03084000230850011
:100120005030FE000030FF0089313821803120300E
:100130008400033085005030FE000030FF0089311C
:1001400038217E1020008831C7289429E4308A3174
:10015000D9228031003A0319080089310121803108
:10016000003A031DD02821003103031DC5280130AA
:100170002000BD003D082100B0070B303002031CF9
:10018000C7288831AC208031C7282100B001210068
:10019000B101B10AF801F80A2000E501E50A0800FA
:1001A000893101218031013A031D08007803031DC4
:1001B00008002100B10120006308031DE42802307B
:1001C000BD003D08E50008000330BD003D08E50026
:1001D0000800240011082000BD003D08E40064363A
:1001E000BD003D08E4002400110801392000BD00D5
:1001F0003D08E3006303031D0A296108A03E860051
:100200000230870001082400910001302000BD0069
:100210003D08E1070430BD003D08E50008008931D4
:100220000B218031013A031D5A29F801EF30860075
:10023000233087002000620881009D308600233033
:100240008700413181019D3086002330870064089A
:10025000C03FC40150304402031850294408203ED6
:100260008600033087000108BD004408BE00BF01BE
:100270009F30C0002330C1003E084007C2003F0845
:10028000413DC30042088600430887003D088100C5
:100290000130BD003D08C40750304402031C2E2924
:1002A000E6308A31FA2280312000E2018931802152
:1002B00080316929240011082000BD006208203E19
:1002C0008600033087003D0881000130BD003D08F5
:1002D000E20704302000BD003D08E5000800883139
:1002E000F7208031003A031D842920006108A03ED8
:1002F00086000230870001082400910001302000B0
:10030000BD003D08E10789292000E101F80189319C
:10031000902104302000BD003D08E50008002400C5
:1003200015162000E501080020006508840005304E
:1003300004020318080088310435003E82000800DA
:10034000722A23302000A0009030A1002030B0009D
:100350003008A2000430B1003108A3008B311C2307
:10036000813104302000B00030082100AF00663039
:100370008A31FA2208001D302000A0009030A10030
:100380002030B0003008A2000530B1003108A300D1
:100390008B311C23813105302000B0003008210052
:1003A000AF0066308A31FA22080002302000A00037
:1003B0009030A1002030B0003008A2000830B10019
:1003C0003108A3008B311C23813108302000B0009C
:1003D00030082100AF0066308A31FA22080002306E
:1003E0002000A0009030A1002030B0003008A20012
:1003F0000830B1003108A3008B311C238131083053
:100400002000B00030082100AF0066308A31FA22A7
:1004100008008831AE20080089312C210800230013
:1004200021088D31072508008931B12108008A3162
:100430003422813120002408B7002308B600370891
:10044000B00030082400A00020003608B0003008BA
:100450002400A10002302000B00030082100AF00CD
:1004600066308A31FA2208008A3134228131200034
:100470002408B7002308B6003708B1003608B000DA
:10048000B136B00CB136B00CB136B00C3008D83E35
:10049000B600FF30313DB7003708A8003608A70086
:1004A0000A30A9000030AA0032308E31C7268131CF
:1004B00032302000A0000030A1002030B000300811
:1004C000A2000230B1003108A3008B311C2381311E
:1004D00002302000B00030082100AF0066308A31C1
:1004E000FA22080023002008103A0319A129303A03
:1004F0000319BB29013A0319D529033A0319EF2936
:10050000123A0319092A013A03190C2A703A0319FD
:100510000F2A033A0319142A073A0319172A033A30
:100520000319342A932A08002000BC000030C100BF
:100530000030C0000030BF000030BE003308B400FF
:10054000B5013408A2003508A3003208B600B7018F
:100550003608A0003708A1008A317F2282312000AE
:100560002008B8002108B900BA01BB013B08A70068
:100570003A08A6003908A5003808A4003008A800E9
:100580003108A900AA01AB018C310D248231200071
:100590002708C1002608C0002508BF002408BE00A7
:1005A0004108A3004008A2003F08A1003E08A000A7
:1005B0000030A7003D30A6000930A5000030A4009F
:1005C0008E317426823120002308031D462B220819
:1005D000031D462B01302102031C372B462B4108FB
:1005E000A3004008A2003F08A1003E08A000003080
:1005F000A7003D30A6000930A5000030A4008E31D0
:1006000074268231200020089B00432B4108A30060
:100610004008A2003F08A1003E08A0000030A7004B
:100620003D30A6000930A5000030A4008E317426AC
:1006300082312000200828009600432B200041082A
:10064000A3004008A2003F08A1003E08A00000301F
:10065000A7003D30A6000930A5000030A4008E316F
:10066000742682312000200828009D00432B2000A2
:100670003C08023A0319EF2A063A0319062B023AFC
:1006800003191E2B432B2000BD01482BBD01BD0AC1
:100690003D0808002000DE01DE01003084009030BB
:1006A0008500003FD800013FD9005E08DA00DB0179
:1006B00059085B02031D5E2B58085A0203180800F4
:1006C0005E08D8000230D835FF3E031D632B583535
:1006D000053E203E860001308700403FD900413F63
:1006E000DA005E08DB000230DB35FF3E031D742BB1
:1006F0005B35033E203E860001308700403FDC0032
:10070000413FDD005A085D02031D882B59085C0239
:10071000031CCC2B5E08D8000230D835FF3E031DE9
:100720008D2B5835033E203E860001308700003077
:10073000C03FC13F5E08D8000230D835FF3E031DE0
:100740009D2B5835023E203E8600013087008101F6
:10075000810A5E08D8000230D835FF3E031DAC2B5D
:100760005835073E203E8600013087000108D90039
:100770005908BC005E08DA000230DA35FF3E031D7E
:10078000BD2B5A35203E860001308700413F8A004C
:10079000403F0A008331ED2B20005E08D800023074
:1007A000D835FF3E031DD02B5835033E203E860032
:1007B000013087000130810741310318810A5E084A
:1007C000D8000230D835FF3E031DE22B5835023EDB
:1007D000203E860001308700810101302000D800D2
:1007E0005808DE070030840090308500003FD800B4
:1007F000013F542B2000A20021008E140E14200073
:100800002208860087010108A00020082400950422
:100810002000220A860087010108A0000230A035CE
:10082000FF3E031D0F2C2035A10021082400960453
:1008300020002208033E860087010108A00020084E
:1008400024009604200022080A3E86008701010841
:10085000A0000630A035FF3E031D2A2C2035A10044
:1008600021082400960420002208043E8600870107
:100870000108A0000530A035FF3E031D3B2C2035AC
:10088000A10021082400970420002208053E8600CC
:1008900087010108A0000430A035FF3E031D4C2C49
:1008A0002035A10021082400970420002208063EDC
:1008B000860087010108A0000330A035FF3E031D1C
:1008C0005D2C2035A1002108240097042000220877
:1008D000073E860087010108A0000130A035FF3ED9
:1008E000031D6E2C2035A100210824009704200050
:1008F0002208083E860087010135A0002008240058
:10090000970420002208093E860087010108A00004
:1009100020082400970420002208023E8600870158
:100920000108A0000430A035FF3E031D932C2035A4
:10093000A1002108240095042000911121009115A7
:10094000893180218331893190210800F500262DDD
:100950007508083E8600870101082000A700750A77
:1009600086008701270881007508EE2C7508023E75
:10097000860087010130810741310318810A750A19
:10098000860087010108031DF32C0A302000A00017
:100990000030A1007508063E86008701403FA20096
:1009A000413FA3008C31D22484317508023E860079
:1009B0008701403F2000A700413FA80021082802EE
:1009C000031DE42C20082702031C312D7508023E6C
:1009D000860087010030C03FC13F750A860087014D
:1009E0008101810A312D750A860087010103031DEB
:1009F000312D0A302000A0000030A1007508043E0F
:100A000086008701403FA200413FA3008C31D224E1
:100A100084317508023E86008701403F2000A70010
:100A2000413FA80021082802031D182D2008270295
:100A3000031C312D7508023E860087010030C03F3F
:100A4000C13F750A860087018101312D7508860036
:100A500087010108003A0319A82C013A0319B62CA2
:100A6000312D750A86008701010808002000A901C0
:100A7000BB2DE2308A31D9228531003A03190800B2
:100A800020005F088831BB2085317F308731FB270C
:100A90002100AE01AE0A0800E6308A31D922853144
:100AA000003A03199E2D9D308600233087000108EF
:100AB00020005F060319632D9D30860023308700D8
:100AC0000108031D08009D30860023308700413156
:100AD0000108031D0800A9015030290203188E2DBA
:100AE0002908A400A5019F30A6002330A7002408F0
:100AF000260786002508273D87000108A800290849
:100B0000A03E860001308700280881000130A40043
:100B10002408A90750302902031C702DE0308A31C7
:100B2000FA22853120006803031D08000330A40069
:100B30002408F400013089315021080066308A31E0
:100B4000D9228531003A0319080021002F0820001E
:100B5000A4002408F40020308A319B228531200033
:100B60006803031D08000330A4002408F4000130CA
:100B700089315021080021002E08003A0319392D2F
:100B8000013A03194C2DC42D08004830860001306D
:100B9000870046308400003085000C302000BD0006
:100BA00016001A00BD0BD02D54308600013087008E
:100BB0003E308400003085000830BD0016001A0069
:100BC000BD0BDE2D412E21000E118E1122000E11C3
:100BD0008E1121008C160C168E160E162000CA01DE
:100BE000CA0ACB01CB0AD001D00AD101D10A4630C2
:100BF0008F319127853100308831E62085313E30B4
:100C00008D318F25853101308831DE2085310030EE
:100C10008831D620853103302000BD003D08D40046
:100C2000D701D501D601D301D30AD201D20A52305D
:100C30008731C4272100C701C801C901CA01CB01FE
:100C4000CC01CD01CE01CE0ACF01D001BD01BE0144
:100C5000BF01C001C101C201C30102302000BD00BB
:100C60003D082100C400C501C60108008B31B52331
:100C70008531C73087314A278531BD3087314A27D2
:100C8000080020006008003A0319E32D013A031917
:100C9000362E4A2E0800E0308A31D9228631003AB9
:100CA000031908008131A0218631BB2E8B313F23EF
:100CB0000800230021082000B800B9013808B90055
:100CC000B8013808230022042100CC002000390894
:100CD0002100CD00CF308A31FA22080023002108FC
:100CE0002000B800B9013808B900B801380823005D
:100CF00022042100C200200039082100C300C530B1
:100D00008A31FA220800230021082000B800B90126
:100D10003808B900B8013808230022042100CC00AB
:100D2000200039082100CD00230021082000B80050
:100D3000B9013808B900B80138082300220421009D
:100D4000C200200039082100C300CF308A31FA22C6
:100D50008631C5308A31FA220800763577042000C2
:100D6000B80038082400A0002100AF01AF0A6630A7
:100D70008A31FA22080023002008503A0319562E1F
:100D8000013A0319592E033A03196E2E013A031939
:100D9000832E333A0319AD2ECE2E08000800200012
:100DA000A1003D2F1C10D52E1C149C10E52E1C10EC
:100DB0009C14E52E7408013A0319D22E053A031942
:100DC000D42E143A0319D72EE52E7508FF3EA00045
:100DD000A00DA00DA00D1C082006873920069C0040
:100DE000080028001710F62E280017149710072F58
:100DF000280017109714072F7408013A0319F12ED1
:100E0000053A0319F42E143A0319F82E072F750822
:100E1000FF3E2000A000A00DA00DA00D2800170887
:100E200020002006873920062800970008002800A7
:100E30001E101C2F28001E149E102D2F28001E107F
:100E40009E142D2F7408013A0319172F053A031920
:100E50001A2F143A03191E2F2D2F7508FF3E20005C
:100E6000A000A00DA00DA00D28001E082000200647
:100E70008739200628009E00080020002108023A39
:100E80000319DA2E063A0319FC2E023A0319222F0F
:100E9000492F08002000A400B82F2408083E8A31FA
:100EA000D9228731003A03190800F401F40A20001E
:100EB0002408073E8600870101088A316622200047
:100EC0002408860087018101810A0800240A86001F
:100ED00087010130810741310318810A240A860005
:100EE0008701403FA000413FA100003021021430A3
:100EF00003192002031C8B2F240A8600870100306F
:100F0000C03FC13F2408033E8600870101308107AE
:100F100041310318810A2408053E86008701403FBD
:100F2000A000413FA1002408033E86008701403F06
:100F3000A200413FA30021082302031DA12F200886
:100F40002202031C08002408033E860087010030AB
:100F5000C03FC13FF4012408073E86008701010815
:100F60008A3166222000240886008701810108005A
:100F70002408860087010108003A03194D2F013A21
:100F80000319662FC32F0800F40074088600870138
:100F9000010C2100031C1D1003181D14740A860087
:100FA0008701010C031C9E1303189E177408023E50
:100FB00086008701010C031C1E1203181E167408FC
:100FC000033E86008701010C031C1E1103181E1529
:100FD0007408043E860087011E080106FC390106DC
:100FE0009E007408053E86008701010C031C111346
:100FF000031811170800F40074352400930008004A
:101000008031A6288031E92881310F2981316F296B
:0410100081318F2972
:10115200013401340134010008008831AC20080058
:1011620021009D1408008B170B17080021001D0C8D
:1011720001390800F40074352400920008002100AF
:101182009914783099041A180800C4288831EE207E
:1011920088318931A02180312B28F400740C210080
:1011A200031C1710031817140800F400740C220013
:1011B200031C1712031817160800F400740C2200FF
:1011C200031C9712031897160800F400740C2100F0
:1011D200031C95130318951708008831C020883125
:1011E2008A311D2288318831B42008002400160873
:1011F200F4000630F436890BFB2874080139080024
:1012020024001408F4000530F436890B052974080B
:101212000139080024001408F4000430F436890B64
:101222000F29740801390800F5007508F400F40D5F
:10123200210017087406C139740697000800F500EA
:101242007508F400F40DF40D21001D0874068339AD
:1012520074069D00080022008C018E010030883146
:10126200CE208931630001308831CE20080064002D
:10127200800101310130FE020030FF3B7F087E0415
:10128200031900343929FE0012001E000130FE024B
:101292000030FF3B7F087E040319003445292000FB
:1012A200A00059297408F50075082100E80008001B
:1012B20020002008013A031953295F29080003304E
:1012C20021001C052000A0002008A20021001B080C
:1012D2002000A1002208F5002108F40008002000E7
:1012E200A000792975082100DF007408DE000800DB
:1012F20020002008013A031973297F290800F5010B
:1013020050307502031808007508203E860003302D
:10131200870081010130F4007408F5078129F50185
:1013220050307502031808007508A03E860002308E
:10133200870081010130F4007408F50791298D318D
:101342004A2589312000E001E00A21006908031DD5
:10135200A62983314A2389312100E901E90AA62914
:10136200033020006806031D080023002103031D2B
:10137200C029F401F40A0130893150210800F40136
:101382000130893150210800D0298931DA2189318F
:10139200B2308331FA230800853136250800200057
:1013A2006008003A0319C629013A0319CD29D9293F
:1013B20008000630F40074082100B200B301B40141
:1013C200B40AB501B50AB601B60AB701B70AB8013F
:1013D200B901B90ABA01BB01BC01BC0A0800FC2967
:1013E2000B3089311521893101308831CE20080036
:1013F20080310220080020006008003A0319F12918
:10140200013A0319F929052A0800F400112A2000DB
:101412001C15080028001715080028001E150800D2
:101422007408023A0319082A063A03190B2A023AE7
:1014320003190E2A1C2A08002000C601C60A083019
:10144200C5004508C700C801C80A1030C9002730C6
:10145200CA00CB01CB0A4630C5004508C2000230A3
:101462008D31DA2508001D30893120218A318831F9
:10147200B1208A318831B7208A31003A03193B2AD8
:101482008931602175082000A6007408A50026088D
:10149200A4002508A3000800F400602A2000210807
:1014A2002100D600200020082100D50020002308BA
:1014B2002100D800200022082100D700080074086B
:1014C200013A03194F2A652A0800F500762A740C9E
:1014D2002200031C0E1103180E150800740C2200C2
:1014E200031C8E1103188E1508007508013A0319A2
:1014F200682A033A03196F2A7E2A0800F401F501CB
:101502002000201C882A2208F4072308F53D013018
:10151200A235A30D890B892A0130A136A00C890BB3
:101522008E2A20082104031D812A7508A10074084F
:10153200A00008002000A200A301A3017408230256
:101542000318080023082207A000200886000230A2
:1015520087000108A1002308A03E86000230870010
:10156200210881000130A0002008A3079F2AF10072
:10157200F201710886008701023001060319D42A9C
:10158200710886008701033001060319D42A02304C
:10159200F000710A86008701700881000230F000B5
:1015A2007008F20008000330F0007008F200080032
:1015B200F500F40175088600870101030319F82A72
:1015C200750886008701033001060319F82A750A97
:1015D2008600870102300106031DF72A750A86007C
:1015E20087018101810AF401F40AF82AF4017408DE
:1015F20008002000A100A001210886008701023016
:1016020001060319172B2108860087010330010602
:101612000319172B0230F400210A8600870174088F
:1016220081000230F4007408A00008000330F400C6
:101632007408A0000800F401F401200023087402D9
:101642000318080020002108A5002008A40074083F
:101652002407840025080318250A85000008A6002F
:1016620074082207A7002708860002308700260890
:1016720081000130A4002408F4071E2B2300211C42
:10168200452BF701F70A462BF70121082000A0009D
:101692000130A036890B4A2B201C522BF601F60A88
:1016A200532BF6017708A0002008F40001308A319C
:1016B20066228B3176082000A0002008F400023058
:1016C2008A3166220800A534003400340034003424
:1016D200013400340034C534093400340034003499
:1016E200013400340034F03409340034003400345E
:1016F200E834033400349F340C34003400340034B2
:10170200643400340034C534053400340034003409
:10171200F43401340034F500A92B20009110740C2C
:101722002100031C9110031891140800200093104B
:10173200740C2100031C931003189314080020005A
:101742009311740C2100031C9311031893150800C4
:101752007508023A03198E2B063A0319972B023A9F
:101762000319A02BB42B0800D32B01302000BB009F
:101772003B082100AA0702302A02031C08008C3110
:101782003D242100AB01AB0A0800E2308A31FA2283
:1017920002302000BB003B082100AB00080086316C
:1017A2004B26080021002B08003A0319B62B013AF8
:1017B2000319C62B033A0319D02BDF2B0800200094
:1017C200200821040319082CF501F50AA11BF32BAB
:1017D2000130A035A10D890BEA2B0130F400740809
:1017E200F507E72B21082302031DF92B200822020B
:1017F200031CFF2B2008A2022108A33B0130A136C3
:10180200A00C890B002C0130F502031DF32B2308D9
:10181200A1002208A000080000302000AF00003024
:10182200AE000030AD000030AC00241C202C280893
:10183200AC072908AD3D2A08AE3D2B08AF3D01306B
:10184200A835A90DAA0DAB0D890B212C0130A736A5
:10185200A60CA50CA40C890B282C27082604250409
:101862002404031D162C2F08A7002E08A6002D08FD
:10187200A5002C08A4000800031020000E1E03146B
:101882000030093DF4000230F435FF3E031D452CC3
:101892007435F5007508DF0403108E1E0314003042
:1018A200093DF4000130F435FF3E031D542C74351C
:1018B200F5007508DF0403100C1E03140030093D07
:1018C2000907F4007408DF0403108C1E03140030AF
:1018D200093DF4007408DF0408002000B000B101E3
:1018E2008C2CB1019D2CB101B10A9D2C2C088431A4
:1018F200A6248C312000AE002E088A2C3008AE00BF
:101902002E08A7002D088F3129278C312000AF0027
:101912002F08B1009D2C2B08860087010108003A90
:101922000319722C013A0319742C033A0319772C08
:10193200013A03197F2C9D2C31080800C82C210084
:101942000C1122000C1101308D31072508008E3157
:1019520025268C31E8302000BD003D08AB00D13097
:10196200BE003E08AC00DA30BF003F08AD000130D7
:101972008C316E242000C000C00DC00D22000C0866
:1019820020004006FB39400622008C00080020009F
:101992006008003A0319A02C013A0319A82CD12C93
:1019A20008002000A501A601200821040319022D28
:1019B200A401A40AA11BE72C0130A035A10D890BBB
:1019C200DE2C0130F4007408A407DB2C0130A535AD
:1019D200A60D890BE82C21082302031DF22C2008F6
:1019E2002202031CF92C2008A2022108A33B251481
:1019F2000130A136A00C890BFA2C0130A402031D80
:101A0200E72C2608A1002508A00008002000A50058
:101A12003B2DF4010130893150212000E8010800FA
:101A22003230F4000030F50001308931702120009D
:101A3200E801E80A08003230A0000030A100B63008
:101A4200A2000330A30001308A314D228D310230D1
:101A52002000A4002408F400013089315021023012
:101A62002000A4002408E80008000330A400240891
:101A7200E80008002508003A03190A2D013A031963
:101A8200112D033A03191C2D013A0319362D492D44
:101A920008002000DC01DC01003084009030850069
:101AA200003FD800013FD9005C08DA00DB01590889
:101AB2005B02031D5E2D58085A02031808005C08D9
:101AC200D8000230D835FF3E031D632D5835073E3E
:101AD200203E8600013087000108D9005908BC0069
:101AE2005C08DA000230DA35FF3E031D742D5A35E8
:101AF200203E860001308700413F8A00403F0A00B5
:101B02008D3101302000D8005808DC0700308400F5
:101B120090308500003FD800013F542DF40023008F
:101B22008C01740886008701010C031C0C10031839
:101B32000C14740A86008701010C031C8C10031814
:101B42008C147408023E86008701010C031C0C11E0
:101B520003180C157408033E86008701010C031C50
:101B62000C1203180C168E017408043E86008701BD
:101B7200010C031C0E1003180E147408053E860097
:101B82008701010C031C8E1003188E147408063E84
:101B920086008701010C031C0E1103180E15740830
:101BA200073E86008701010C031C8E1103188E1557
:101BB20008002000C4004208860087010108C30013
:101BC2004308F400420886008701413FF5004408BB
:101BD2008631CF268D3120004208023E86008701E1
:101BE2000103031DF72DF401F40AF92DF40120007D
:101BF20044088B318C238D3120004208033E86003D
:101C02008701403FB000413FB10042088600870192
:101C12000108C3004308B200420886008701413F21
:101C2200B3004408823194228D31013A0319182EEF
:101C320020004208053E860087010103031D0800BB
:101C420044088A3106220800672E79082000A10084
:101C52002108F4000130893150212100AC01AC0A85
:101C620008000130A0070030A13D003021020630FB
:101C720003192002031C08007908031D422E0130BB
:101C8200432E00302000A1002108F9007908A100AC
:101C92002108F4000130893150218E312100A00148
:101CA200A10101302000A10021082100AD0706306A
:101CB2002D02031C0800F401013089315021023049
:101CC2002000A10021082100AC00080021002C08FE
:101CD200003A0319262E013A0319322E033A031948
:101CE200732E732E080000302000AB000030AA00D3
:101CF2000030A9000030A800230822042104200497
:101D02000319BE2EAC01AC0AA31B932E0130A035E1
:101D1200A10DA20DA30D890B882E0130F4007408C9
:101D2200AC07852E0130A835A90DAA0DAB0D890B84
:101D3200942E23082702031DA82E22082602031D23
:101D4200A82E21082502031DA82E20082402031C08
:101D5200B32E2008A4022108A53B2208A63B230893
:101D6200A73B28140130A336A20CA10CA00C890BAE
:101D7200B42E0130AC02031D932E2B08A3002A08B7
:101D8200A2002908A1002808A00008002000AF0036
:101D92002808AD002708AC002A08A1002908A000E5
:101DA2002D08A3002C08A2008C31D2248E312000F1
:101DB2002108AD002008AC000130AB002B08AF07B2
:101DC2002C082D04031DCD2E2F08860087018101CA
:101DD2000130AF022A08A1002908A0002808A300A8
:101DE2002708A2008B31E0238E3120002008AB00AF
:101DF2002B08AE002A08A1002908A0002808A30089
:101E02002708A2008C31D2248E3120002108A8009C
:101E12002008A7000A302E02031C132F0730AB0044
:101E22002B08AE073030AB002B08AE072E08AB00F4
:101E32002F08860087012B0881000130AF02270896
:101E42002804031DEB2E0130AB002B08AF0708005E
:101E52002000AA007C2F2A0A860087018101810ABC
:101E62002A08860087018101810A2A08023E86002B
:101E720087010130810741310318810A0A30A0002D
:101E82000030A1002A08043E86008701403FA200DC
:101E9200413FA3008C31D2248F3120002A08023E18
:101EA20086008701403FA800413FA900210829027E
:101EB200031D5D2F20082802031C8B2F2A08023ED7
:101EC200860087010030C03FC13F2A0A8600870191
:101ED20081010230A8002A088600870128088100B3
:101EE2008B2F2A08860087018101F4012708893196
:101EF20050218F318B2F20002A088600870101088C
:101F0200003A03192C2F013A0319362F033A031909
:101F1200722F8B2F20002A0A8600870101080800F1
:101F2200F40024008C01740886008701010C031C54
:101F32000C1003180C14740A86008701010C031C90
:101F42008C1003188C147408023E86008701010C61
:101F5200031C0C1103180C157408033E860087013C
:101F6200010C031C8C1103188C157408043E8600A6
:101F72008701010C031C0C1203180C167408053E91
:101F820086008701010C031C8C1203188C168E012B
:101F92007408063E86008701010C031C0E1003180C
:101FA2000E147408073E86008701010C031C8E1074
:101FB20003188E147408083E86008701010C031C66
:101FC2000E1103180E157408093E86008701010CD4
:101FD200031C8E1103188E1574080A3E86008701B1
:101FE200010C031C0E1203180E1674080B3E860019
:101FF2008701010C031C8E1203188E16080005348B
:102002000034303431342E34303431342E343034E0
:1020120030340034013400340A340034643400347F
:10202200E834033410342734253464342E34253410
:102032003034313475340034533442343134313431
:0E204200303400344534433448344F340034D5
:020000040001F9
:04000E00ECFFFFDF25
:00000001FF
