:1020000066EF10F0FF00FF005D8248EF5DF00F010A
:102010004C911200FF00FF005D80D8CF29F0E8CF7F
:102020002AF0E0CF2BF0FACF2CF0FBCF2DF0E9CF48
:102030002EF0EACF2FF0E1CF30F0E2CF31F0D9CF60
:1020400032F0DACF33F0F3CF34F0F4CF35F0F6CF0F
:1020500036F0F7CF37F0F8CF38F0F5CF39F05DC074
:102060003AF05EC03BF05FC03CF060C03DF09EB215
:1020700095EC50F03DC060F03CC05FF03BC05EF0BE
:102080003AC05DF039C0F5FF38C0F8FF37C0F7FF40
:1020900036C0F6FF35C0F4FF34C0F3FF33C0DAFFBB
:1020A00032C0D9FF31C0E2FF30C0E1FF2FC0EAFFEC
:1020B0002EC0E9FF2DC0FBFF2CC0FAFF2BC0E0FFB4
:1020C0002AC0E8FF29C0D8FF5D90100012EF64F02D
:109E8000F2921200F090120071861200718012009E
:109E900071841200F1EC58F012007144E846030B93
:109EA000010B12007340E8423F0B010B120075CF0B
:109EB00060F00001605112000001606F60C075FF2A
:109EC000120060C050F161C051F1120060C054F145
:109ED00061C055F11200E5EC51F036EC50F066EF40
:109EE00010F028EC50F08EEC4FF03BEC68F01200D4
:109EF00062C060F063C061F061EC4FF012000001DD
:109F0000FE51000AD8B41200010A1200AFCF6FF15F
:109F10006FC104F0010EFDEC51F01200010E0101C1
:109F20002E27000E2F2330233123120066C063F04A
:109F300067C064F0010E26EC57F012000F01550EB9
:109F4000A76EAA0EA76E0F013F9B12000F01550EC0
:109F5000A76EAA0EA76E0F013F8B12009380958605
:109F6000F288F086F08CF19CF19A12002EC160F01C
:109F70002FC161F030C162F031C163F01200000105
:109F8000606F000160B102D0719A01D0718A71884E
:109F90001200000E036E01C0D9FF02C0DAFF020EEC
:109FA000DF6E020E036E1200000E196E17C0D9FF8D
:109FB00018C0DAFF020EDF6E020E196E12000001E9
:109FC000606FA490000160B102D0A59001D0A5807F
:109FD000A38012000001606F000160B103D00F0187
:109FE0003F9F02D00F013F8F1200000E0001626FF1
:109FF00060C0D9FF61C0DAFF020EDF6E020E626F31
:10A0000012000001606F7B0E0001606104D0600EE1
:10A01000606501D0609B6051120003D06BEC72F060
:10A0200012000001FE51000AD8B41200010AD8A49F
:10A030001200F4D7C40E1A6E010E1B6E000E1C6EB9
:10A04000010E1D6E64EC52F0010E0101646F1200EE
:10A050000101444B452B44514511D8B41200000E68
:10A06000456F000E446F000EE16F120072EC58F065
:10A07000010E0001FE6F0101E151D8A4FCD723ECD1
:10A0800065F0010E0101E16FF6D7030E0001616F6B
:10A09000E80E606F9B8C6007D8A061076029FBE128
:10A0A0006129D8B41200F7D70001616F0001610582
:10A0B000D8A403D060C0AEFF1200020E6119D8A46C
:10A0C000120060C0A9FF1200010E01012A27000E34
:10A0D0002B232C232D236151D8A412005D2B5D511D
:10A0E000D8A412005D6912000001606F04D0CA8418
:10A0F00012007684120000016051020AD8B4F7D72A
:10A10000060AD8A41200F5D7A490010150515111AC
:10A11000D8B4120001D812000500FA6E5051FD6E3D
:10A120005151FE6EFF6AFA5012009E920101545185
:10A130005511D8B4120001D812000500FA6E54511E
:10A14000FD6E5551FE6EFF6AFA501200AB0E000113
:10A15000606F010E616F87EC51F00009D8B402D036
:10A16000010E01D0000E0001646F64511200000165
:10A17000626F000E0001616F3A0E626105D02F0E12
:10A18000626502D0010E616F61C060F06031120043
:10A190000001FB51D8A4120066C035F167C036F14A
:10A1A00068C046F0010E01015C6F010E0001FB6FFB
:10A1B00012000001626F000E0001616F5B0E6261B0
:10A1C00005D0400E626502D0010E616F61C060F083
:10A1D0006031120007D086EC6FF010EC6CF0DDEC13
:10A1E00053F012000001FE51000AD8B41200010A17
:10A1F000D8A41200F0D708D094EC67F0120064ECF9
:10A200006AF0F2EC66F012000001FE51000AD8B4C8
:10A21000F3D7010AD8A41200F2D783B803D0046A96
:10A22000042A01D0046A043A83500418EF0B04187E
:10A23000836EC30E016E010E026EC9EC4FF0120068
:10A2400017501902F3CF1BF0F4CF1CF017501A026D
:10A25000F3501C2618501902F3501C261BC017F08F
:10A260001CC018F01200000160516203F3CF64F0CB
:10A27000F4CF65F060516303F350652761516203C9
:10A28000F350652764C060F065C061F01200000102
:10A29000626F010E0001616F200E6219D8B408D000
:10A2A0000E0E626103D0090E626102D0000E616F72
:10A2B00061C060F0603112000001626F000162B1A4
:10A2C00002D0D09E01D0D08E000160B102D0F29EAB
:10A2D00001D0F28E000161B102D0F29C01D0F28C6B
:10A2E0001200A00E01018D6F860E8E6F010E8F6F12
:10A2F000000E906F000E916F6C0E926FDC0E936FDC
:10A30000020E946F080E956F010E966F1200000EEC
:10A310000001636F60C0D9FF61C0DAFF020EDE1872
:10A32000D8A408D060C0D9FF61C0DAFF010EDF6E8B
:10A33000010E01D0000E636F63511200040E000184
:10A34000876F0C0E886F000E8A6F010E896F030EE7
:10A350008C6FE80E8B6F010E8D6F870E836F000E72
:10A36000846F020E2EEC60F012000001656F010E8A
:10A370000001646F7B0E656103D0610E656108D0DA
:10A380006551D9EC50F0D8B003D0000E0001646FD5
:10A3900064C063F000016331120060C066F061C008
:10A3A00067F009D066C0D9FF67C0DAFF62C0DFFF7F
:10A3B0000001664B672B00016407D8A0650764297C
:10A3C000F1E16529D8B41200EDD707EC10F045ECA7
:10A3D00050F0010E0001606F010E616F010E5CEC28
:10A3E00051F0E20E0001606F9E0E616F66EC4FF05F
:10A3F0009EEC51F0AEEC4FF0120001014B5115E113
:10A40000FA0E4A5DD8B01200000E4A25D96E0B0E26
:10A410004B21DA6E04C0DFFF4A4B4B2B5C0E016E02
:10A42000000E026EC9EC4FF0120012000F013685CB
:10A4300062986582010E0101616F000E5D6F000E72
:10A4400000016D6F750E6C6F000E6E6F000E6F6FFA
:10A45000000E716F000E706F61EC56F0120010D09C
:10A46000DAEC55F0780E0001806F010E816F010E5D
:10A47000F1EC70F01200F7EC60F0C8EC57F012004D
:10A480000001FE51000AD8B4EBD7010AD8A412008B
:10A49000F2D7000E0001656F000E646F000E656F4D
:10A4A000000E646F0AD064516025D96E6551612138
:10A4B000DA6E000EDF6E644B652B6451625D655190
:10A4C0006359D8A01200EFD7000E1E6E4E04D8B408
:10A4D00014D01CC0ACF1000E0101AD6F1DC0B0F175
:10A4E0001AC0AEF11BC0AFF1540E176E000E186EFD
:10A4F000D4EC4FF0010E1E6E1200000E1E6E120004
:10A5000060C0D9FF61C0DAFF00016251DE18D8A433
:10A5100005D060C060F061C061F0120060C0D9FF7A
:10A5200061C0DAFF604B612BDF50D8A4E9D7000E81
:10A53000606F000E616F1200000E0101616F000E6E
:10A5400000016D6F740E6C6F000E6E6F000E6F6FFA
:10A55000000E716F000E706F61EC56F065920F0186
:10A56000369501D0629462B4FDD7000E01015D6F93
:10A57000120015D09598959A959C8398839A839C00
:10A58000EC0E646F010E656FE80E666F030E676F69
:10A59000000E686F000E696F32EC56F01200000179
:10A5A000FE51000AD8B4E6D7010A120001010000EA
:10A5B0000000000000000000000014001400000073
:10A5C0000000010013000101010100000000000073
:10A5D0000000010100000000000000000101000077
:10A5E000000000000000000E0001676F4E04D8B4A8
:10A5F00016D065C0ACF1000E0101AD6F66C0B0F1C0
:10A6000063C0AEF164C0AFF1540E0001606F000E84
:10A61000616FF5EC4FF0010E0001676F1200000E44
:10A62000676F1200000E0001676F000E666F000E6C
:10A63000676F000E666F10D066516025D96E675146
:10A640006121DA6E66516225E16E67516321E26E27
:10A65000DFCFE7FF664B672B6451665D6551675935
:10A66000D8B01200E9D7000162516311D8B418D0F4
:10A67000010E646F04D0D89062376337642B63AFE8
:10A68000FAD76251605D63516159D8A004D062511C
:10A69000605F6351615BD89063336233642FF1D79D
:10A6A00060C060F061C061F01200000E0001676FD1
:10A6B000020E4E18D8B418D065C0A6F1010E0101E3
:10A6C000A76F000166290101AA6F63C0A8F164C0E9
:10A6D000A9F1530E0001606F000E616FF5EC4FF0B1
:10A6E000010E0001676F1200000E676F120070C04C
:10A6F00076F071C077F0000173AF0CD070C0D9FF55
:10A7000071C0DAFF2D0EDF6E704B712B726D731FEF
:10A71000D8B0732B70C067F071C068F072C069F078
:10A7200073C06AF074C06BF075C06CF0F3EC5CF051
:10A73000120000016B6F000168A505D0000E606F6C
:10A740006B51B9EC5BF0000168A305D0010E606F9E
:10A750006B51B9EC5BF000016B51010D260EF32437
:10A76000696F0F0EF4206A6F69C0D9FF6AC0DAFF03
:10A7700068C0DFFF12000F0126A11DD0F8C0D9FF6D
:10A78000F9C0DAFF800EDE18D8A414D03EC0D9FF7D
:10A790003FC0DAFF840EDE18D8A40CD0F8C0D9FF71
:10A7A000F9C0DAFF0C0EDF6EF8C0D9FFF9C0DAFF8E
:10A7B000000EDB8E2691629A120019D0580E00010D
:10A7C000606F000E616F87EC51F00009D8B4120081
:10A7D000010E0101656F1200550E0001606F000E41
:10A7E000616FF5EC4FF0000E0101656F1200010181
:10A7F0006551000AD8B4E2D7010AD8A41200ECD7F8
:10A8000060C064F061C065F005D00001644B652B49
:10A81000624B632B62C0F6FF63C0F7FFF86A64C047
:10A82000D9FF65C0DAFF0E0EF76403D00800F550BB
:10A8300005D0F6CFE9FFF7CFEAFFEF50DF6EDF502C
:10A84000D8B41200E2D762C068F063C069F060C09B
:10A8500066F061C067F011D068C0D9FF69C0DAFF47
:10A86000DF5000016A6F684B692B66C0D9FF67C073
:10A87000DAFF6AC0DFFF664B672B00016407D8A0D0
:10A8800065076429E9E16529D8B41200E5D7949EEB
:10A890000000000A0000B2AA0000000500005EA44B
:10A8A000000000010000D4A10000000A0000FE9E8C
:10A8B0000000000A0000F6A100000001000072A5DF
:10A8C0000000003200000AB8000000E803001AA0EF
:10A8D000000000640000FC0E0001606F070E616F55
:10A8E00087EC51F00009D8B417D0000E0001606F5A
:10A8F000070E616F68C062F069C063F0FAC764F068
:10A90000FBC765F012EC53F06AC0D9FF6BC0DAFFE9
:10A91000FAC7DFFF010E01D0000E00016C6F6C5111
:10A9200012000001626F1AD09E9260B102D09F9215
:10A9300001D09F82000161B102D09D9201D09D8221
:10A940001200A49660B102D0A59601D0A5860001A0
:10A9500061B102D0A39601D0A3861200000162511A
:10A96000020AD8B4E1D7060AD8A41200EAD77DC0FB
:10A970006CF07EC06DF07FC06EF080C06FF079C06B
:10A9800081F07AC082F07BC083F07CC084F0020E3C
:10A99000D89000018137823783378437E82EF8D783
:10A9A00081C070F082C071F083C072F084C073F017
:10A9B000AFEC58F000016C05746E12000001616F7D
:10A9C000000E0001626F6105D8A40BD0ADCF60F01E
:10A9D000D890603360B102D0010E14D0ADCF60F0DA
:10A9E0000CD0020E6119D8A40ED0A8CF60F0D89078
:10A9F000603360A1F1D7A8CF60F0D890603360A138
:10AA000002D0020E626F62511200000E0001656FEB
:10AA1000000E646F62516311D8B41CD0010E666FD2
:10AA200004D0D89062376337662B63AFFAD7D890DB
:10AA3000643765376251605D63516159D8A005D0B4
:10AA40006251605F6351615B6481D89063336233AC
:10AA5000662FEDD764C060F065C061F01200A6EC0F
:10AA60004FF000016C51300F686F000E25EC6DF057
:10AA70006EC068F0010E25EC6DF06FC068F0020E3C
:10AA800025EC6DF070C068F0030E25EC6DF071C020
:10AA900068F0040E25EC6DF072C068F0050E25EC30
:10AAA0006DF073C068F0060E25EC6DF09EEC4FF073
:10AAB000120020D071EC51F08D0E0001856F010E57
:10AAC000866F00EC58F0000E0001676F000E666F95
:10AAD000320E686F000E696F000E6A6F000E6B6FAA
:10AAE000340E6C6FA00E6D6F66EC5FF012009EEC82
:10AAF0005DF012000001FE51000AD8B4DBD7010A54
:10AB0000D8A41200F4D760C064F061C065F003D02F
:10AB10000001644B652B64C0F6FF65C0F7FFF86A5F
:10AB20000E0EF76403D00800F55005D0F6CFE9FF0C
:10AB3000F7CFEAFFEF500009D8A4EAD760C062F06F
:10AB400061C063F00001621F631F624B632B64519D
:10AB50006225606F65516321616F1200176E175097
:10AB60000B0D000EF324D96E050EF420DA6E000EE4
:10AB7000DF6E17500B0D010EF326000EF422000EAF
:10AB8000F324D96E050EF420DA6EDE6ADE6ADE6A20
:10AB9000DD6A17500B0D050EF326000EF422000E91
:10ABA000F324D96E050EF420DA6EDE6ADE6ADE6A00
:10ABB000DD6A1200010E0101786F000E796F010E3F
:10ABC0007A6F010E7B6F000E7C6F000E7D6F010EA1
:10ABD0007E6F010E7F6F000E806F000E816F000E82
:10ABE000826F000E836F010E846F000E856F6C0EF6
:10ABF000866FDC0E876F020E886F000E896FC20EA3
:10AC00008A6F010E8B6F000E8C6F1200000E000118
:10AC1000686F000E696F000E6A6F000E6B6F60A1A7
:10AC200008D0645168276551692366516A236751CA
:10AC30006B23D8906437653766376737D8906333AE
:10AC40006233613360336051611162116311D8A4C2
:10AC5000E6D768C060F069C061F06AC062F06BC09E
:10AC600063F01200000120EE01F06451D926655115
:10AC7000DA22000EDF6EB6EC4FF0000120EE02F09B
:10AC80006451D9266551DA2260C0DEFF61C0DEFF63
:10AC900062C0DEFF63C0DEFF20EE06F06451D926FD
:10ACA0006551DA2266C0DEFF67C0DEFF68C0DEFFE6
:10ACB00069C0DEFF64C0D9FF65C0DAFF010EDF6E38
:10ACC000120006D092EC57F01200F6EC5DF0120084
:10ACD0006CC072F06DC073F000017351000AD8B4FB
:10ACE00004D07F0AD8A4120018D07251010AD8B437
:10ACF000E9D7030AD8B41200010AD8B4E6D7060A85
:10AD0000D8B41200770AD8B41200010AD8B41200DD
:10AD1000070AD8B41200010A12007251FF0A120089
:10AD2000020E4C18D8A403D091EC64F01200000E6F
:10AD30004C6E01016051D8A420D0000120EE01F03A
:10AD4000F651D926F751DA22080EDF6E20EE02F016
:10AD5000F651D926F751DA22300EDE6E040EDD6E82
:10AD6000F6C0D9FFF7C0DAFF0C0EDF6EF6C0D9FFD0
:10AD7000F7C0DAFF000EDB8E1200000E0101606FDB
:10AD8000120060C065F061C066F003D00001654B41
:10AD9000662B65C0D9FF66C0DAFFDF50D8B40AD091
:10ADA000F5D70001654B662B010E6227000E632369
:10ADB000000E642362C0F6FF63C0F7FF64C0F8FFB3
:10ADC00065C0D9FF66C0DAFFF8BA03D00800F550B5
:10ADD00005D0F6CFE9FFF7CFEAFFEF50DF6EDF5087
:10ADE000D8B41200DED7000E90EC5AF000016C6F60
:10ADF000D00E6C256D6F6E6B070E6E23010E90ECFE
:10AE00005AF000016F6F020E90EC5AF00001706F63
:10AE1000030E90EC5AF00001716F040E90EC5AF0A2
:10AE20000001726F050E90EC5AF00001736F060E70
:10AE300090EC5AF00001746F20EE6DF000EE64F0BB
:10AE4000070EDBCFEBFFE806FCE212000001656FA6
:10AE50001FD063C0F6FF64C0F7FFF86A0E0EF764F8
:10AE600003D00800F55005D0F6CFE9FFF7CFEAFF91
:10AE7000EF500001606F655154EC50F00001634BDE
:10AE8000642B00016551DEEC54F0E806D8B4F9D724
:10AE900063C0F6FF64C0F7FFF86A0E0EF76403D0D4
:10AEA0000800F55005D0F6CFE9FFF7CFEAFFEF50E5
:10AEB0000009D8B41200CDD760C0D9FF61C0DAFF55
:10AEC000DF500001626F62336233915062197F0B71
:10AED0006219916E20EE01F06051D9266151DA229B
:10AEE000DF50626F623B6247624791506219BF0B4D
:10AEF0006219916E20EE02F06051D9266151DA227A
:10AF0000DF50626F6247624791506219C30B62194A
:10AF1000916E20EE03F06051D9266151DA22DF50A4
:10AF2000906E1200800E01019F6F250EA06F000E23
:10AF3000A16F000EA26F000EA36F000EA46F080E8B
:10AF4000A56F000E476E1A0E0001686F010E99EC96
:10AF500053F01E0E0001686F020E99EC53F0000EC4
:10AF60000001606F000E616F020E626F400E636F32
:10AF7000020EA7EC5EF060C044F061C045F0000E28
:10AF80000101406F000E416F000E0001FB6F1200C7
:10AF9000590E0001606F000E616F87EC51F00009DF
:10AFA000D8B41200000E00016F6F070E706FD50E3F
:10AFB000716FEF0E726F77EC59F000016F517011E5
:10AFC000D8B407D0C50E606F010E616FF5EC4FF07D
:10AFD0001200000E00016F6F070E706FDB0E716FB5
:10AFE000EF0E726F77EC59F000016F517011D8B409
:10AFF0001200580E606F000E616FF5EC4FF01200FA
:10B000009582958085C0D9FF86C0DAFFDECF79F0C2
:10B01000DECF7AF0DECF7BF0DECF7CF0000120EED9
:10B0200004F08551D9268651DA22DECF7DF0DECFBD
:10B030007EF0DECF7FF0DECF80F0B7EC54F0000181
:10B0400020EE08F08551D9268651DA22DF5072129F
:10B0500020EE09F08551D9268651DA22DF50876F1C
:10B06000050E886FD8908737882FFCD787517212CA
:10B070001200000E0001656F61AF06D0606D611FA8
:10B08000D8B0612B010E656F63AF04D0626D631F92
:10B09000D8B0632B62516311D8B418D0010E646F1D
:10B0A00004D0D89062376337642B63AFFAD762510C
:10B0B000605D63516159D8A004D06251605F6351F3
:10B0C000615BD89063336233642FF1D76551D8B494
:10B0D00004D0606D611FD8B0612B60C060F061C0AA
:10B0E00061F01200000E0001ED6F000EED6FE50E35
:10B0F000F66EEC0EF76E000EF86EED51EB6FEC6B2A
:10B100000900F550EB5D0900F550EC59D8B012007C
:10B11000ED51080D8B0EF324D96E020EF420DA6E79
:10B12000DECFEBF0DDCFECF001D816D00500FA6EE3
:10B13000EB51FD6EEC51FE6EFF6AFA50ED51080DB9
:10B14000070EF326000EF4228B0EF324D96E020EA6
:10B15000F420DA6EDF5012000001ED2BC8D7000E8C
:10B160000001746F000E756F000E766F000E776F22
:10B170007051711172117311D8B42AD0010E786F09
:10B1800006D0D8907037713772377337782B73AF1A
:10B19000F8D7D890743775377637773770516C5D3C
:10B1A00071516D5972516E5973516F59D8A009D0B0
:10B1B00070516C5F71516D5B72516E5B73516F5B5F
:10B1C0007481D8907333723371337033782FE1D731
:10B1D00074C06CF075C06DF076C06EF077C06FF023
:10B1E000120033D096908D905B0E0001606F000EC0
:10B1F000616FF5EC4FF0010E01016D6F12005B0EF7
:10B200000001606F000E616F87EC51F00009D8B447
:10B2100012008D90010E01016E6F030E6D6F120012
:10B22000464B472B475104E1140E465DD8A012004F
:10B23000000E476F000E466F040E6D6F12008D807A
:10B24000020E6E6F010E6D6F120001016D51000A4A
:10B25000D8B4C8D7010AD8B4D2D7020AD8B4E0D734
:10B26000070AD8A41200EBD7000E0001656F63AF88
:10B2700006D0626D631FD8B0632B010E656F61AF9E
:10B2800006D0606D611FD8B0612B010E651B000EEA
:10B29000676F000E666F62516311D8B41CD0010E47
:10B2A000646F04D0D89062376337642B63AFFAD7EA
:10B2B000D890663767376251605D63516159D8A095
:10B2C00005D06251605F6351615B6681D8906333E2
:10B2D0006233642FEDD76551D8B404D0666D671F13
:10B2E000D8B0672B66C060F067C061F0120033D041
:10B2F0006FC066F070C067F071C068F072C069F02E
:10B3000071C060F072C061F083EC55F060C06AF00B
:10B3100061C06BF0BCEC59F0000166516711D8A414
:10B3200005D06FC06FF070C070F01200010E6F2575
:10B33000606F000E7021616F71C0F6FF72C0F7FF81
:10B34000F86A0800F550626F636B80EC52F060C0E1
:10B350006FF061C070F000016F517011D8B407D068
:10B360006FC0D9FF70C0DAFFDF50D8A4C1D7000E7C
:10B370006F6F000E706F120037D066C0D9FF67C0C4
:10B38000DAFFDF50D8B411D066C0D9FF67C0DAFF4A
:10B39000DF5000016C6F68C0F6FF69C0F7FFF86A04
:10B3A0000800F5506C19D8B41BD068C0F6FF69C00E
:10B3B000F7FFF86A0800F55000016C6F6D6B6C1FA9
:10B3C0006D1F6C4B6D2B66C0D9FF67C0DAFFDF5075
:10B3D0006E6F6E516C25666F000E6D21676F1200E7
:10B3E000664B672B684B692B00016A07D8A06B0777
:10B3F0006A29C3E16B29D8A4C0D7000E676F000E7D
:10B40000666F1200000E4D6E000E0001FC6F000E04
:10B4100001015F6F000E5E6F000E606F000E4C6EDC
:10B420003EC0D9FF3FC0DAFF7F0EDF16040E3E1A82
:10B430003EC0D9FF3FC0DAFF7F0EDF16040E3E1A72
:10B44000F6C0D9FFF7C0DAFF7F0EDF16000E00014D
:10B45000F36F000EF56F000EF46F000E0101156F13
:10B46000000E176F000E166F38EC62F0000E000130
:10B470006D6F030E6C6F000E6E6F000E6F6F000E1F
:10B48000716F000E706F61EC56F094EC63F0120077
:10B4900078C0D9FF79C0DAFFDE04D8A430D000012B
:10B4A00020EE06F07851D9267951DA2210EE02F01A
:10B4B0007851E1267951E222E6CF64F0E6CF65F0DB
:10B4C000E6CF66F0E6CF67F0CAEC5FF0DE50000131
:10B4D000645DDE506559DE506659DE506759D8A06C
:10B4E00017D078C0D9FF79C0DAFF000EDF6E20EEEA
:10B4F00001F07851D9267951DA22010E08D00001E5
:10B5000020EE01F07851D9267951DA22020EDF6E51
:10B5100020EE01F07851D9267951DA22DF5012005D
:10B520000001616F2DD00F013F833F811CD00F01BF
:10B530003F831ED00F013F8321D063C060F00F0E08
:10B540000001601763390F0B0F0B0A0DF3506025D4
:10B55000626F2DD00F013F933F8199CF62F027D0CA
:10B560000F013F93E2D798CF63F0E7D70F013F93E6
:10B570003F9199CF63F0E1D70F013F933F91F3D70C
:10B5800000016151000AD8B4CED7010AD8B4CFD790
:10B59000030AD8B4CFD7010AD8B4DCD7070AD8B485
:10B5A000DFD7010AD8B4E2D7030AD8B4E5D700013F
:10B5B00062511200000E476E44504510D8B406D0B8
:10B5C00044C0D9FF45C0DAFFDFBE3CD020EE01F019
:10B5D0004450D9264550DA2200016951DE5CD8B0CA
:10B5E00008D020EE01F04450D9264550DA22DF5031
:10B5F000696F000E476E13D04750010D000EF32403
:10B60000D96E020EF420DA6E4750010DF350672513
:10B61000E16EF4506821E26EDFCFE7FF472A6951FF
:10B62000475CD8A0E9D7000E606F000E616F020E74
:10B63000626F400E636F020EA7EC5EF060C044F0D4
:10B6400061C045F0475012002D0E4A6EFFC07AF0DF
:10B65000FD0E00017A17D8A438D0FFC07AF0D89038
:10B660007A333F0E7A177A51040D000EF324F86FE7
:10B67000040EF420F96FF8C0F6F0F9C0F7F0040EEC
:10B68000F61BF8C0D9FFF9C0DAFFDF30E8320F0B44
:10B690000D0AD8A417D0300E606F040E616F20EE33
:10B6A00002F0F851D926F951DA22DECF62F0DDCF6F
:10B6B00063F0000E656F080E646F23EC54F002EC2B
:10B6C0005AF0120090EC56F012000001FF51FD0BF1
:10B6D000040AD8A4120006EC5FF012000001636FA8
:10B6E0003FD0CA9001D0CA80CA920ED0CA80CA8206
:10B6F0000BD000016051010AD8B4F3D7050AD8B4C1
:10B70000F2D7140AD8B4F2D761C062F0FF0E6227F4
:10B71000624762476247CA506219870B6219CA6E54
:10B720001200769001D0768076920DD07680768267
:10B730000AD06051010AD8B4F4D7050AD8B4F3D7B7
:10B74000140AD8B4F3D761C062F0FF0E62276247D3
:10B750006247624776506219870B6219766E120053
:10B7600000016351020AD8B4C4D7060AD8A4120053
:10B77000E0D70001656F000E0001666F040E676F71
:10B780006051616F626BD890613762376551636F4A
:10B79000646BD89063376437D890633764376151EE
:10B7A000632762516423D89063376437D890633736
:10B7B0006437635166276451672366C0D9FF67C049
:10B7C000DAFFDF9E6051D8A407D06551020D200E2C
:10B7D000F324D96E010E06D06551020D3E0EF324FE
:10B7E000D96E000EF420DA6E66C0DEFF67C0DDFFA2
:10B7F00066C0D9FF67C0DAFFDF9C20EE04F0665117
:10B80000D9266751DA22DF8C120044D0CD86000E93
:10B810000101BD6F000EBE6F010EBF6F010EC06F44
:10B82000010EB96F010EBA6F010EBB6F000EBC6F37
:10B83000A6EC4FF0BD0E0001616F010E626F53EC7C
:10B840005CF0B90E0001606F010E616F5CEC57F0A7
:10B85000010EEAEC4FF09EEC4FF021EE0AF000EE04
:10B860006CF0070EDBCFEBFFE806FCE22FEC55F0A7
:10B870001A0E0001626FA20E636F78EC4FF0120097
:10B88000F3EC56F021EE0AF0070EEBCFDBFFE806F3
:10B89000FCE212000001FE51000AD8B4B7D7010A39
:10B8A000D8A41200EDD761C0D9FF62C0DAFFDF5023
:10B8B0000001636F634763470F013F510001631944
:10B8C000FB0B63190F013F6F000120EE01F0615186
:10B8D000D9266251DA22DF50636F010E6317634786
:10B8E0000F013C5100016319FD0B63190F013C6FFF
:10B8F000000120EE01F06151D9266251DA22DF50B9
:10B90000636FD8906333010E6317634763470F017A
:10B910003C5100016319FB0B63190F013C6F0001DF
:10B9200020EE02F06151D9266251DA22DE04D8A459
:10B93000120020EE03F06151D9266251DA22DF5065
:10B94000DFEC4FF01200000E01015F6F000E5E6F22
:10B95000020E4C18D8A420D0000120EE01F0F651C0
:10B96000D926F751DA22080EDF6E20EE02F0F651EA
:10B97000D926F751DA22380EDE6E040EDD6EF6C0DF
:10B98000D9FFF7C0DAFF480EDF6EF6C0D9FFF7C067
:10B99000DAFF000EDB8E12000001F4510401365D67
:10B9A0000001F55104013759D8B004D036C4F4F081
:10B9B00037C4F5F0CCEC61F020EE02F03E50D92611
:10B9C0003F50DA22380EDE6E040EDD6E3EC0D9FF27
:10B9D0003FC0DAFF480EDF6E3EC0D9FF3FC0DAFF3E
:10B9E000000EDB8E120069C06DF06AC06EF06DC093
:10B9F00060F06EC061F06BC062F06CC063F005EC8B
:10BA000055F060C06DF061C06EF00001674B682BAF
:10BA10006D516E11D8A4EBD767C0D9FF68C0DAFFAB
:10BA2000000EDF6E6707D8A0680769C060F06AC0C3
:10BA300061F06BC062F06CC063F033EC53F0000156
:10BA400060516F6F69C060F06AC061F06BC062F0F6
:10BA50006CC063F005EC55F060C069F061C06AF03D
:10BA6000090E00016F6502D0070E6F27300E6F2799
:10BA700067C0D9FF68C0DAFF6FC0DFFF6707D8A0D3
:10BA8000680769516A11D8A4D0D7674B682B120098
:10BA9000FACF05F0FBCF06F0E9CF07F0EACF08F0C8
:10BAA000E1CF09F0E2CF0AF0D9CF0BF0DACF0CF0FA
:10BAB000F3CF0DF0F4CF0EF0F6CF0FF0F7CF10F07C
:10BAC000F8CF11F0F5CF12F05DC013F05EC014F0A6
:10BAD0005FC015F060C016F0F2B240EC4FF0F0B06D
:10BAE00042EC4FF0A4B084EC50F09EBA86EC4FF0DC
:10BAF00016C060F015C05FF014C05EF013C05DF0BA
:10BB000012C0F5FF11C0F8FF10C0F7FF0FC0F6FF1D
:10BB10000EC0F4FF0DC0F3FF0CC0DAFF0BC0D9FF5D
:10BB20000AC0E2FF09C0E1FF08C0EAFF07C0E9FF61
:10BB300006C0FBFF05C0FAFF5D92110045D0540E10
:10BB40000001606F000E616F87EC51F00009D8B4FE
:10BB500006D0010E0101636F010E4E6E1200530EEE
:10BB60000001606F000E616F87EC51F00009D8B4DE
:10BB700006D0020E0101636F020E4E6E1200000E1F
:10BB80004E6E1200AC0E0001616F010E626FA4ECEC
:10BB900069F00009D8B41200030E0101636F1200AE
:10BBA000A60E0001636F010E646FE9EC68F00009F6
:10BBB000D8B41200040E0101636F1200000E636F0F
:10BBC0001200000E636F120001016351000AD8B425
:10BBD000B6D7010AD8B4D6D7030AD8B4E1D7010A38
:10BBE000D8B4ECD7070AD8A41200EBD7040130511F
:10BBF0001F0BE806D8A412003039E832030BE80620
:10BC0000D8A412003451D8B437D03405D8A41200C7
:10BC100033D0970E0001F06F010EF16F000EF56F3B
:10BC2000080EF46FF381F38F1200970E0001F06F8E
:10BC3000010EF16FF38F120036C416F137C417F1FD
:10BC40009F0E0101126F010E136F000E186F000E90
:10BC5000196F158F12009F0E0001F06F010EF16F2A
:10BC6000000EF56F070EF46FC10EF36F120032C4B1
:10BC70005BF10001F38F120004013151000AD8B4C6
:10BC8000C8D7010AD8B4D1D7210AD8B4D5D7010A68
:10BC9000D8B4E1D7030AD8A41200E9D7000E0401F2
:10BCA000386F000E396F3DD00001F38F010162053E
:10BCB000D8A442D0040138833FD00001F38F3CD098
:10BCC0000001F38F040134BF0BD034510F0B00017E
:10BCD000606F6051020D200EF324D96E010E0BD05F
:10BCE000040134510F0B0001606F6051020D3E0ED4
:10BCF000F324D96E000EF420DA6EDECF61F0DDCFD2
:10BD000062F061C0D9FF62C0DAFFDFAE15D061C05A
:10BD1000D9FF62C0DAFFDFA40FD0010E0401386F33
:10BD20000BD030511F0B000AD8B4BED7010AD8B4CB
:10BD3000C4D7030AD8B4C4D70001F3AF1200380E39
:10BD4000F06F040EF16FF381020EF46F1200000128
:10BD5000646F00016051D8B407D06451020D3E0EEB
:10BD6000F324D96E000E06D06451020D200EF32488
:10BD7000D96E010EF420DA6EDECF65F0DDCF66F00D
:10BD800065516611D8A405D0000E606F000E616F7A
:10BD9000120020EE02F06551D9266651DA2261C008
:10BDA000DEFF62C0DDFF20EE01F06551D92666514D
:10BDB000DA2263C0DFFF65C0D9FF66C0DAFF400E3C
:10BDC000DF1665C0D9FF66C0DAFF000EDB8665C0EE
:10BDD000D9FF66C0DAFF000EDB8E6051D8B407D001
:10BDE0006451020D3E0EF324D96E000E06D064514C
:10BDF000020D200EF324D96E010EF420DA6E040E2B
:10BE0000DF1A65C060F066C061F012003EC0D9FF65
:10BE10003FC0DAFF000EDFBC010E0001616F040EAF
:10BE20003E1A080EFD19D8A40DD0040132517F0B23
:10BE30000F01386F3851D8B402D0100E01D0040E63
:10BE40000001FD6F4C04D8A43BD020EE02F03E5020
:10BE5000D9263F50DA22380EDE6E040EDD6ECCECB1
:10BE600061F0020E4D18D8A40DD03EC0D9FF3FC0DE
:10BE7000DAFF040EDF6E3EC0D9FF3FC0DAFF000ECE
:10BE8000DB8E120000016151D8A40DD03EC0D9FF55
:10BE90003FC0DAFF480EDF6E3EC0D9FF3FC0DAFF79
:10BEA000000EDB8E12003EC0D9FF3FC0DAFF080E45
:10BEB000DF6E3EC0D9FF3FC0DAFF000EDB8E1200FE
:10BEC000010115BF159F000E4C6E120066C060F098
:10BED00067C061F0000E0001636F0B0E626F33EC00
:10BEE00051F0000E00016025D96E050E6121DA6E59
:10BEF000010EDF6E66C060F067C061F0000E636F18
:10BF00000B0E626F33EC51F0010E00016027000E42
:10BF10006123000E6025D96E050E6121DA6EDE6A9E
:10BF2000DE6ADE6ADD6A66C060F067C061F0000E3E
:10BF3000636F0B0E626F33EC51F0050E000160274A
:10BF4000000E6123000E6025D96E050E6121DA6EA8
:10BF500068C0DEFF69C0DEFF6AC0DEFF6BC0DEFFC7
:10BF600066C060F067C061F0000E636F0B0E626F19
:10BF700033EC51F0090E00016027000E6123000E22
:10BF80006025D96E050E6121DA6E6CC0DEFF6DC0D2
:10BF9000DDFF1200B6EC4FF060C074F061C075F0C8
:10BFA00062C076F063C077F000016451745D655142
:10BFB00075596651765967517759D8A01DD064C01C
:10BFC00068F065C069F066C06AF067C06BF0681F12
:10BFD000691F6A1F6B1F682B000E69236A236B237E
:10BFE00074516825706F75516921716F76516A219E
:10BFF000726F77516B2128D064C068F065C069F01A
:10C0000066C06AF067C06BF0681F691F6A1F6B1F0C
:10C01000682B000E69236A236B23745168256C6FAB
:10C02000755169216D6F76516A216E6F77516B2161
:10C030006F6FFF0E6C25706FFF0E6D21716FFF0E1D
:10C040006E21726FFF0E6F21736F70C064F071C04C
:10C0500065F072C066F073C067F012000001866F71
:10C0600083C0D9FF84C0DAFFDF500001606F20EE8B
:10C0700001F08351D9268451DA22DF50616F865155
:10C080006EEC5BF0000120EE02F08351D926845162
:10C09000DA22DE04D8A40ED020EE03F08351D92694
:10C0A0008451DA22DF50606F010E616F865191EC8E
:10C0B00054F00ED0000120EE03F08351D9268451B4
:10C0C000DA22DF50606F000E616F865191EC54F000
:10C0D000000120EE04F08351D9268451DA22DECF0C
:10C0E00079F0DDCF7AF083C0D9FF84C0DAFFDF506A
:10C0F0007B6F20EE01F08351D9268451DA22DF5084
:10C100007C6F86511DEC63F0000120EE06F0835138
:10C11000D9268451DA22DE04D8A41200865174ECA8
:10C1200050F012004950D8A41200010E496E485038
:10C13000D8A41200010E486E020E4C18D8A415D0D7
:10C1400020EE01F03E50D9263F50DA22000EDF6E7D
:10C150003EC0D9FF3FC0DAFF480EDF6E3EC0D9FFB8
:10C160003FC0DAFF000EDB8E12004C04D8A4120090
:10C17000000E0101606F000120EE01F0F851D92698
:10C18000F951DA22080EDF6E20EE02F0F851D926BE
:10C19000F951DA22300EDE6E040EDD6EF8C0D9FFE2
:10C1A000F9C0DAFF040EDF6EF8C0D9FFF9C0DAFF7C
:10C1B000000EDB8E010E0101606F000120EE01F028
:10C1C000F651D926F751DA22080EDF6E20EE02F082
:10C1D000F651D926F751DA22300EDE6E040EDD6EEE
:10C1E000F6C0D9FFF7C0DAFF800EDF6E12005FD015
:10C1F0005C0E0001606F000E616F87EC51F000096A
:10C20000D8B41200010E01016C6F12005C0E000127
:10C21000606F000E616F87EC51F00009D8B404D054
:10C22000000E01016B6F120001016B2B090E6B6593
:10C230001200000E6B6F000E0001606F0B0E616F3D
:10C24000000E626F070E636F4AC164F04BC165F068
:10C2500012EC53F04AC1FAF74BC1FBF7000E000194
:10C26000606F0B0E616F000E636FFA0E626F49EC28
:10C2700052F0000E01014B6F000E4A6FFC0E0001E0
:10C28000606F070E616FF5EC4FF05A0E0001606FA2
:10C29000000E616FF5EC4FF0590E0001606F000E5B
:10C2A000616FF5EC4FF0000E01016C6F120001019F
:10C2B0006C51000AD8B49CD7010AD8A41200A6D7A2
:10C2C00003D00001664B672B66C0D9FF67C0DAFF59
:10C2D000200EDE18D8B4F5D766C0D9FF67C0DAFFE4
:10C2E000090EDE18D8B4EDD7000E00016C6F000EF9
:10C2F0006B6F000E6A6F66C0D9FF67C0DAFF2D0E44
:10C30000DE18D8A402D06A2B26D066C0D9FF67C039
:10C31000DAFF2B0EDE18D8A420D01DD06BC060F041
:10C320006CC061F0000E0001636F0A0E626F33ECA7
:10C3300051F066C0D9FF67C0DAFFDF500001686FB7
:10C34000696B6051682761516923D00E68256B6F56
:10C35000FF0E69216C6F664B672B66C0D9FF67C003
:10C36000DAFFDF50B7EC50F0D8B0D8D700016A51EF
:10C37000D8B40DD06BC068F06CC069F0681F691F3D
:10C38000684B692B68C066F069C067F012006BC02B
:10C3900066F06CC067F01200080E0001606FF55186
:10C3A00010E1080EF45DD8B00CD0F4C060F04D5030
:10C3B000D8A402D0010E04D04D04D8A402D0020E9D
:10C3C0004D6E6051F45F000EF55B20EE01F03E50C3
:10C3D000D9263F50DA2260C0DFFF380E0101426FDC
:10C3E000040E436F0001F3A11ED03ED0F0C0F6FF53
:10C3F000F1C0F7FFF86A42C1D9FF43C1DAFF0E0E60
:10C40000F76403D00800F55005D0F6CFE9FFF7CF69
:10C41000EAFFEF50DF6E0001F04BF12B0101424BC0
:10C42000432B000160076051D8B41200DFD7F0C081
:10C43000F6FFF1C0F7FFF86A42C1D9FF43C1DAFF46
:10C440000E0EF76403D00800F55005D0F6CFE9FFD3
:10C45000F7CFEAFFEF50DF6E0001F04BF12B010147
:10C46000424B432B000160076051D8B41200DFD764
:10C4700004013039E832030B0009D8A4120048D077
:10C480000001F38F080EFD6F120055EC66F01200EC
:10C49000AAEC62F01200520E0001F06F000EF16F74
:10C4A000F381010EF46FF38F12004EEC5EF0120078
:10C4B0003CEC6EF0120004013451010DC10EF32466
:10C4C0000001F06F010EF420F16FF381010EF46FA3
:10C4D000F38F12000001F38F04013451010DC10EDE
:10C4E000F324D96E010EF420DA6E32C4DFFF12009D
:10C4F000000E00016D6F020E6C6F000E6E6F000E6D
:10C500006F6F000E716F000E706F61EC56F01200CD
:10C5100004013151000AD8B4C8D7010AD8B4C8D729
:10C52000020AD8B4C5D7060AD8B4AAD7030AD8B421
:10C53000ACD7010AD8B4DCD70F0AD8B4ACD7010AFB
:10C54000D8B4A6D7030AD8B4B6D7010AD8B4C2D78C
:10C55000070A12000001F38F270E606F0F0E616F44
:10C56000000E636F000E626F000E656F020E646F47
:10C57000CDEC51F0000E0001606F040E616F000EF3
:10C58000636F000E626F000E656F300E646FCDEC4E
:10C5900051F0658C000E0001746F020E746501D0BD
:10C5A00016D07451010D3B0EF324D96E010EF42008
:10C5B000DA6E000EDF6E7451010D380EF324D96E61
:10C5C000010EF420DA6E000EDF6E742BE6D7C10E7A
:10C5D000606F010E616F000E636F000E626F000EE0
:10C5E000656F020E646FCDEC51F0659C080E3E6ED7
:10C5F000040E3F6E000E0001F86F040EF96FF8C0D4
:10C60000F6F0F9C0F7F032C452F05250D8A403D07B
:10C61000100EFD6F1200000E6D6F010E6C6F520E4A
:10C620006E6F000E6F6F000E716F010E706F61EC18
:10C6300056F0200E0001FD6F120000017E6F000E0B
:10C6400000017F6F000E806F000E816F000E826F01
:10C650007B517C03F3CF60F0F4CF61F0626B636BCE
:10C6600079C064F07AC065F0666B676B06EC56F0D3
:10C6700060C07FF061C080F062C081F063C082F072
:10C68000000E00016C6F1B0E6D6FB70E6E6F000E0B
:10C690006F6F7FC070F080C071F081C072F082C097
:10C6A00073F0AFEC58F000016F516E113AE16D0577
:10C6B000D8A02DD036D0000E6C6F1B0E6D6FB70E4C
:10C6C0006E6F000E6F6F7FC070F080C071F081C020
:10C6D00072F082C073F0AFEC58F000016C51CB6E79
:10C6E0001DD0000E6C6F1B0E6D6FB70E6E6F000EBF
:10C6F0006F6F7FC070F080C071F081C072F082C037
:10C7000073F0AFEC58F000016C51776E07D07E519A
:10C71000020AD8B4D0D7060AD8B4E3D7000E7D6F8A
:10C720001200010E7D6F120065980001F3BF3AD030
:10C73000010115AF0BD0020E4C6E5E51D8B4A3ECC4
:10C740005CF0000E486E000E496E1200000120EEF3
:10C7500001F0F651D926F751DA22080EDF6E20EEED
:10C7600002F0F651D926F751DA22300EDE6E040EB1
:10C77000DD6EF6C0D9FFF7C0DAFF0C0EDF6EF6C033
:10C78000D9FFF7C0DAFF000EDB8E3EC0D9FF3FC0F5
:10C79000DAFF040EDF6E3EC0D9FF3FC0DAFF000EA5
:10C7A000DB8E1200040130AF12D0010E4C6E01017D
:10C7B0005F51D8B4A3EC5CF0000E486E000E496ED9
:10C7C0000001FC51D8A4120092EC60F01200020E9D
:10C7D0004C6E000120EE01F0F651D926F751DA2215
:10C7E000080EDF6E20EE02F0F651D926F751DA225C
:10C7F000300EDE6E040EDD6EF6C0D9FFF7C0DAFF34
:10C80000040EDF6EF6C0D9FFF7C0DAFF000EDB8E34
:10C81000000E486E000E496EFC51D8A4120092EC36
:10C8200060F012008E0EF66EA80EF76E000EF86E17
:10C8300002EE8BF010EE48F00900F5CFEEFFE55068
:10C84000E150FAE1AC0EF66EA50EF76E000EF86E32
:10C8500001EEC6F010EE3AF00900F5CFEEFFE5501C
:10C86000E150FAE10DEE00F0C80EEE6AE806FDE1D7
:10C870000CEE00F0FA0EEE6AE806FDE10BEE00F0B9
:10C88000FA0EEE6AE806FDE10AEE00F0C80EEE6A66
:10C89000E806FDE109EE00F0670EEE6AE806FDE14C
:10C8A00008EE00F0C80EEE6AE806FDE107EE00F0C3
:10C8B000FD0EEE6AE806FDE106EE00F0C80EEE6A37
:10C8C000E806FDE105EE00F0DC0EEE6AE806FDE1AB
:10C8D00003EE00F0FA0EEE6AE806FDE102EE00F06B
:10C8E0008B0EEE6AE806FDE101EE00F0C60EEE6A80
:10C8F000E806FDE104EE40F0A40EEE6AE806FDE174
:10C9000000EEF0F0100EEE6AE806FDE100EE3EF0FB
:10C910001F0EEE6AE806FDE15D905D9200016BEF8F
:10C920004FF0000120EE01F0F851D926F951DA223A
:10C93000DF50616F61510101165D000E1759D8A0DB
:10C9400016C161F0000161510101165F000E175B15
:10C95000000E0001606F13D06051010D380EF324FA
:10C96000D96E040EF420DA6E12C1E1FF13C1E2FFAA
:10C97000DFCFE7FF0101124B132B0001602B615148
:10C98000605DD8A0E9D7010116511711D8B433D092
:10C99000000120EE01F0F651D926F751DA22080EF7
:10C9A000DF6E20EE02F0F651D926F751DA22380E6A
:10C9B000DE6E040EDD6EF8C0D9FFF9C0DAFFDFBC11
:10C9C0000DD0F6C0D9FFF7C0DAFF480EDF6EF6C013
:10C9D000D9FFF7C0DAFF000EDB8E1200F6C0D9FFD8
:10C9E000F7C0DAFF080EDF6EF6C0D9FFF7C0DAFF36
:10C9F000000EDB8E1200000120EE01F0F651D92668
:10CA0000F751DA22080EDF6E20EE02F0F651D92639
:10CA1000F751DA22300EDE6E040EDD6EF6C0D9FF5D
:10CA2000F7C0DAFF040EDF6EF6C0D9FFF7C0DAFFF9
:10CA3000000EDB8E0101159F0001FC51D8A41200ED
:10CA400092EC60F01200000E0001EF6F000EEF6F2D
:10CA5000E50EF66EEC0EF76E000EF86EEF51EB6F12
:10CA6000EC6B0900F550EB5D0900F550EC59D8B0BE
:10CA70001200EF51080D030EF326000EF4228B0E68
:10CA8000F324D96E020EF420DA6EDE2A000EDD22C7
:10CA9000EF51080D050EF326000EF4228B0EF32441
:10CAA000D96E020EF420DA6EEF51080D030EF32654
:10CAB000000EF4228B0EF324E16E020EF420E26EDF
:10CAC000DE50E65CDE50E658D8A051D0EF51080D9C
:10CAD000030EF326000EF4228B0EF324D96E020E01
:10CAE000F420DA6E000EDE6E000EDD6EEF51080DE2
:10CAF000020EF326000EF4228B0EF324D96E020EE2
:10CB0000F420DA6E010EDF6EEF51080D8B0EF32468
:10CB1000D96E020EF420DA6EDECFEBF0DDCFECF052
:10CB200001D816D00500FA6EEB51FD6EEC51FE6E89
:10CB3000FF6AFA50EF51080D070EF326000EF4229B
:10CB40008B0EF324D96E020EF420DA6EDF50120041
:10CB50000001EF51080D020EF326000EF4228B0E99
:10CB6000F324D96E020EF420DA6E000EDF6EEF2B86
:10CB70006FD700017C6F000E00017E6F000E7D6F8D
:10CB8000000E7F6F20EE02F07951D9267A51DA2219
:10CB9000DF50D8A40BD020EE02F07951D9267A517B
:10CBA000DA22DF50D8A402D0400E39D020EE02F0B5
:10CBB0007951D9267A51DA22DE04D8A409D020EEA0
:10CBC00002F07951D9267A51DA22DF50D8B412D046
:10CBD00020EE02F07951D9267A51DA22DF50D8A41A
:10CBE0000BD020EE02F07951D9267A51DA22DE04F8
:10CBF000D8A402D0100E13D020EE02F07951D9261D
:10CC00007A51DA22DE04D8A40BD020EE02F079515A
:10CC1000D9267A51DA22DE04D8A402D0040E7F6F1E
:10CC200020EE0DF07951D9267A51DA22DECF6CF060
:10CC3000DECF6DF0DECF6EF0DECF6FF07F51606F34
:10CC4000616B626B636B20EE11F07951D9267A51DA
:10CC5000DA22DECF64F0DECF65F0DECF66F0DECF25
:10CC600067F006EC56F060C070F061C071F062C011
:10CC700072F063C073F0AFEC58F0FF0E00016C254A
:10CC80007D6FFF0E6D217E6F7C05D8A405D0000E50
:10CC90007F6E7DC0B0FF1200020E7C19D8A4120076
:10CCA000000E7D6E7DC0ABFF1200800E04013019B6
:10CCB000D8A41200C00E0001F36F88D0FA0E000154
:10CCC000F06FEE0EF16F000EF56F120EF46F1200A2
:10CCD00004013251D8A443D03251020DE30EF324A3
:10CCE000F66EEC0EF420F76EF86A000EF8220900DA
:10CCF000F5CFF0F00A00F5CFF1F0020E0001F025BB
:10CD0000606F000EF121616F60C0F6FF61C0F7FF38
:10CD1000F86A0E0EF76403D00800F55005D0F6CF80
:10CD2000E9FFF7CFEAFFEF500001F46F030EF025A3
:10CD3000606F000EF121616F60C0F6FF61C0F7FF08
:10CD4000F86A0E0EF76403D00800F55005D0F6CF50
:10CD5000E9FFF7CFEAFFEF500001F56F1200000E78
:10CD60000001F36F1200030E0401326127D032512B
:10CD7000020DDD0EF324F66EEC0EF420F76EF86A69
:10CD8000000EF8220900F5CFF0F00A00F5CFF1F01F
:10CD9000F0C0F6FFF1C0F7FFF86A0E0EF76403D09B
:10CDA0000800F55005D0F6CFE9FFF7CFEAFFEF50C6
:10CDB0000001606F6051F46FF56B1200000E00010E
:10CDC000F36F1200000E0001F36F120004013351E3
:10CDD000010AD8B473D7030AD8B47AD7010AD8B4F1
:10CDE000C2D7F0D7010140514111D8B406D040C19B
:10CDF000D9FF41C1DAFFDFBE1200030E0001FB19AB
:10CE0000D8A402D0000EFB6FFB51D8B41200020E62
:10CE1000FB19D8A413D0010E606F000E616F000ED5
:10CE2000626F000E636F020EA7EC5EF060C040F10F
:10CE300061C041F1030E0001FB6F1200FB05D8A495
:10CE40001200400E466403D0400E686F02D046C008
:10CE500068F0685100084624466EA40E0101326F46
:10CE6000040E336F68C067F05C51D8B41DD03DD05C
:10CE700035C1F6FF36C1F7FFF86A32C1D9FF33C1B9
:10CE8000DAFF0E0EF76403D00800F55005D0F6CF98
:10CE9000E9FFF7CFEAFFEF50DF6E0101324B332B92
:10CEA000354B362B0001670700016751D8B421D0FC
:10CEB000DFD735C1F6FF36C1F7FFF86A32C1D9FFB7
:10CEC00033C1DAFF0E0EF76403D00800F55005D029
:10CED000F6CFE9FFF7CFEAFFEF50DF6E0101324BEB
:10CEE000332B354B362B0001670700016751D8A45F
:10CEF000E0D74650D8A408D0400E6819D8A402D074
:10CF0000020E01D0030EFB6F010E606FA40E616F65
:10CF1000040E626F68C063F0020EA7EC5EF060C0A2
:10CF200040F161C041F11200A098000E636E000E46
:10CF3000626E000E0F01266F270E0001606F0F0E4C
:10CF4000616F000E636F000E626F000E656F020E60
:10CF5000646FCDEC51F0160E0F01396F9F0E376FD5
:10CF60007B0E366F000E0001686F0B0E686501D0F6
:10CF70000ED06851040D000EF324D96E040EF42077
:10CF8000DA6EDE6ADE6ADE6ADD6A682BEED7658CF1
:10CF9000000E0F01386F6598659C6296000E0001C7
:10CFA000F36F000E0101156F000E176F000E166F64
:10CFB00062B6F3D7010E496E010E486E000E5F6F28
:10CFC000000E5E6F000E616F000E0001686F020EB2
:10CFD000686501D02ED06851020D3E0EF324D96E43
:10CFE000000EF420DA6E000EDE6E000EDD6E68516B
:10CFF000020D200EF324D96E010EF420DA6E000E1D
:10D00000DE6E000EDD6E6851010D3B0EF324D96E0D
:10D01000010EF420DA6E000EDF6E6851010D380E3D
:10D02000F324D96E010EF420DA6E000EDF6E682B49
:10D03000CED7080E3E6E040E3F6E160E0F01266F01
:10D04000040E0401036F300E026F080E016F040E10
:10D05000006F008F000E526E000E01012A6F000E4D
:10D060002B6F000E2C6F000E2D6F000E5D6F000EEB
:10D070000001FD6F1200000E286E000E276E285072
:10D0800005E1140E275CD8B0120001D0120027C0B1
:10D0900017F028C018F0000E1A6E0B0E196E20EC57
:10D0A00051F0000E1724D96E050E1820DA6EDE043A
:10D0B000D8A489D027C017F028C018F0000E1A6E27
:10D0C0000B0E196E20EC51F0010E1726000E1822DF
:10D0D000000E1724D96E050E1820DA6EDE2A000E17
:10D0E000DE22DE22DE2227C017F028C018F0000E54
:10D0F0001A6E0B0E196E20EC51F0050E1726000E5D
:10D100001822000E1724D96E050E1820DA6E27C0DB
:10D1100017F028C018F0000E1A6E0B0E196E20ECD6
:10D1200051F0010E1726000E1822000E1724E16E92
:10D13000050E1820E26EDE50E65CDE50E658DE504A
:10D14000E658DE50E658D8A03ED02750AEEC55F059
:10D1500027C017F028C018F0000E1A6E0B0E196EBB
:10D1600020EC51F0090E1726000E1822000E17248D
:10D17000D96E050E1820DA6EDE50DE10D8B423D03A
:10D1800027C017F028C018F0000E1A6E0B0E196E8B
:10D1900020EC51F0090E1726000E1822000E17245D
:10D1A000D96E050E1820DA6EDECF1FF0DDCF20F02D
:10D1B00001D809D00500FA6E1F50FD6E2050FE6E9A
:10D1C000FF6AFA501200274A282A285001E159D74D
:10D1D00012009AD046EC4FF0000E0101706F010E64
:10D1E00020D0000120EE01F06351D9266451DA22EB
:10D1F000DF50656F63C0D9FF64C0DAFFDF50666F30
:10D20000D8906635651163C0D9FF64C0DAFFDF6E60
:10D2100063C0D9FF64C0DAFFDF505CEC4FF0020E50
:10D220006CD0736F8ED052EC4FF00009D8A489D027
:10D23000030E63D0712B4DEC4FF00009D8A405D03C
:10D24000000E0101716F040EECD7020E0101716531
:10D2500078D0080EE6D744EC4FF0050E4ED052ECD5
:10D260004FF00009D8A46DD0000120EE02F0635108
:10D27000D9266451DA22DECF65F0DDCF66F065C0D5
:10D28000D9FF66C0DAFF57EC4FF0DF6E000120EEE9
:10D2900002F06351D9266451DA22DE2A000EDD2223
:10D2A0000101722B060EBDD7000120EE04F0635180
:10D2B000D9266451DA22DE500101725DD8A009D06E
:10D2C000010EBFEC4FF0070E0101736F000E726F7D
:10D2D00038D0000EBFEC4FF0040E0FD048EC4FF0EA
:10D2E000020E0101706F050E00016325606F000ED4
:10D2F0006421616FF5EC4FF0000E010192D7000E32
:10D30000736F010E706F1DD001017351000AD8B404
:10D3100061D7010AD8B465D7030AD8B484D7010A03
:10D32000D8B488D7070AD8B496D7010AD8B497D703
:10D33000030AD8B4B9D7010AD8B4D0D70F0AD8B4E1
:10D34000DED70101705112009CD046EC4FF0000E68
:10D350000101746F010E6CD0000120EE01F06151EB
:10D36000D9266251DA22DF50636F61C0D9FF62C0F3
:10D37000DAFFDF50646FD8906435631161C0D9FF64
:10D3800062C0DAFFDF6E61C0D9FF62C0DAFFDF5032
:10D390005CEC4FF0020E0101776F52EC4FF0000988
:10D3A000D8A48FD0030E1BD0000120EE02F06151F3
:10D3B000D9266251DA22DECF63F0DDCF64F063C09C
:10D3C000D9FF64C0DAFFDF505CEC4FF0040E0101BE
:10D3D0002FD052EC4FF00009D8A473D0050E0101F4
:10D3E000766F080E25D0000120EE04F06151D92699
:10D3F0006251DA22DF50D8B410D020EE04F061512F
:10D40000D9266251DA22DF0620EE02F06151D926D8
:10D410006251DA22DE2A000EDD2220EE04F0615194
:10D42000D9266251DA22DF50D8A404D0060ECFD715
:10D43000776F47D0030ECBD748EC4FF0070EC7D716
:10D44000752B4DEC4FF00009D8A406D0000E010159
:10D45000756F76C177F135D0020E0101756531D057
:10D46000090EE6D7000E776F000E766F020E07D01A
:10D47000000E776F000E766F000E756F010E746FE1
:10D4800020D001017751000AD8B45FD7010AD8B47F
:10D4900063D7030AD8B481D7010AD8B485D7070A5D
:10D4A000D8B497D7010AD8B49ED7030AD8B4C4D742
:10D4B000010AD8B4D7D70F0AD8B4C2D7010AD8B452
:10D4C000D7D70101745112000001FD51D8A412D028
:10D4D000000E656E000E0F01366F160E396F9F0E2F
:10D4E000376F7B0E366F01D0658665A6FDD7010EBE
:10D4F0000001FD6FFD05D8B465BA0AD0000E626E5A
:10D50000000E0F01366F36813689020E0001FD6F65
:10D5100062A406D00F0136A503D062949CEC52F0B1
:10D5200065A202D0A198120062A009D00F0136A115
:10D5300006D094EC67F0040E0001FD6F629062A8C3
:10D5400004D00F0136B916EC52F062AC1CD00F01BA
:10D5500036AD0FD0000E00016D6F730E6C6F000EB4
:10D560006E6F000E6F6F000E716F010E706F61ECC9
:10D5700056F0629C64EC50F04A50D8A44A064A50D7
:10D58000D8B492EC60F062AA04D00F0136BBBBECB9
:10D5900053F062A213D00F0136A310D07F0E00010A
:10D5A0006D6F6C69000E6E6F000E6F6F000E716F05
:10D5B000010E706F61EC56F0000E636E040E0001F8
:10D5C000FD6102D0A19812000F0136A73CD0000ED9
:10D5D00000017B6F030E7B6501D035D062A633D08E
:10D5E00064CFFFF0FF31E832E8320F0B4B6E6296EA
:10D5F000FFB507D04B50010D380EF324D96E010E44
:10D6000006D04B50010D3B0EF324D96E010EF420D1
:10D61000DA6E0101DF704B50D8A403D024EC5BF02C
:10D620000FD0000E00016D6F720E6C6FFF0E6E6FEB
:10D63000000E6F6F000E716F000E706F61EC56F090
:10D6400000017B2BC7D7A19812006CC0D9FF6DC019
:10D65000DAFFDF5000017B6F6C4B6D2B7B5147EC89
:10D6600051F0D8B0F2D7000E0001776F000E786F3E
:10D67000000E796F000E7A6F000E766F2D0E7B19FB
:10D68000D8A403D0010E766F04D02B0E7B19D8A43A
:10D6900008D06CC0D9FF6DC0DAFFDF507B6F6C4BD8
:10D6A0006D2B300E7B19D8A42ED06CC0D9FF6DC065
:10D6B000DAFFDF507B6F6C4B6D2B70517111D8B45A
:10D6C00005D0100E70197111D8A415D0780E7B19E1
:10D6D000D8B404D0580E7B19D8A40DD0000E716FA9
:10D6E000100E706F6CC0D9FF6DC0DAFFDF507B6F1A
:10D6F0006C4B6D2B08D070517111D8A404D0000E62
:10D70000716F080E706F70517111D8A404D0000EA3
:10D71000716F0A0E706F7B51B5EC51F0D8A008D034
:10D7200000017B5101EC50F0C90F00017B6F09D063
:10D7300000017B51B7EC50F0D8A039D0300E000179
:10D740007B5F7B51726F736B7051725D7351800A96
:10D75000746F7151800A7459D8B029D070C060F0CC
:10D7600071C061F0000E61BFFF0E626F636F77C022
:10D7700064F078C065F079C066F07AC067F006ECB6
:10D7800056F000017B516025776F000E6121786FA4
:10D79000000E6221796F000E63217A6F6CC0D9FF91
:10D7A0006DC0DAFFDF507B6F6C4B6D2BB4D700017F
:10D7B0006E516F11D8B40ED0FF0E6C25726FFF0E34
:10D7C0006D21736F6EC0D9FF6FC0DAFF72C0DEFFCC
:10D7D00073C0DDFF7651D8B41AD077C072F078C02C
:10D7E00073F079C074F07AC075F0721F731F741FE4
:10D7F000751F722B000E73237423752372C06CF097
:10D8000073C06DF074C06EF075C06FF0120077C019
:10D810006CF078C06DF079C06EF07AC06FF01200D5
:10D8200005D1560E0001606F000E616F87EC51F05C
:10D830000009D8B41200010E0101666F12007E0EBD
:10D840000001606F000E616F610E626FEF0E636F1B
:10D8500000EC54F05104D8A42ED0EA0E0001676FFA
:10D86000000E686F50C069F06A6B000E6C6F0A0E94
:10D870006B6FF3EC5CF07E0E0001606F000E616F69
:10D88000EA0E626F000E636F62516311D8A4200E1E
:10D89000646FC1EC56F07E0E0001606F000E616F88
:10D8A000ED0E626FEF0E636F62516311D8A4000E2C
:10D8B000646FC1EC56F04F50020F4F6EE50E000141
:10D8C000676F000E686F4FC069F06A6B000E6C6F77
:10D8D0000A0E6B6FF3EC5CF07E0E0001606F000EC1
:10D8E000616FE50E626F000E636F62516311D8A421
:10D8F000200E646FC1EC56F07E0E0001606F000ECA
:10D90000616F8D0E626FEF0E636F62516311D8A469
:10D91000000E646FC1EC56F07E0E0001606F000EC9
:10D92000616F000E626F000E636F000E646FC1ECDA
:10D9300056F07E0E0001666F000E676F96EC4FF09A
:10D94000F60E0001646F010E656FD00E666F070E54
:10D95000676F000E686F000E696F32EC56F0020EB2
:10D960000101666F12007E0E0001686F000E696F84
:10D97000E90E6A6F000E6B6F6BEC54F0E806D8A4EA
:10D9800014D07E0E00016F6F000E706FFB0E716F72
:10D99000EF0E726F77EC59F000016F517011D8B42F
:10D9A0001200030E0101666F1200F60E0001786F7F
:10D9B000010E796F48EC5AF0E806D8A41200000E68
:10D9C0000101666F12007E0E0001606F000E616F34
:10D9D000640E626F060E636F00EC54F07E0E000161
:10D9E000606F000E616F8D0E626FEF0E636F62519C
:10D9F0006311D8A4000E646FC1EC56F07E0E0001D6
:10DA0000606F000E616F000E626F000E636F000E9C
:10DA1000646FC1EC56F07E0E0001666F000E676FFA
:10DA200096EC4FF0000E0101666F12000101665185
:10DA3000000AD8B4F6D6010AD8B401D7030AD8B47C
:10DA400092D7010AD8A41200BED700016B6FFCD098
:10DA50000F013F833F8168C060F00001616B000EE1
:10DA6000636F0A0E626F39EC58F060C069F061C0F4
:10DA70006AF00F0E0001691768C060F0616B000E5C
:10DA8000636F0A0E626F34EC59F000016039F00BDD
:10DA9000F00B6911986E12000F013F833F9168C02F
:10DAA00060F00001616B000E636F0A0E626F39EC6B
:10DAB00058F060C069F061C06AF00F0E000169178C
:10DAC00068C060F0616B000E636F0A0E626F34EC29
:10DAD00059F000016039F00BF00B6911996E1200DA
:10DAE0000F013F833F9168C060F00001616B000E41
:10DAF000636F0A0E626F39EC58F060C069F061C064
:10DB00006AF00F0E0001691768C060F0616B000ECB
:10DB1000636F0A0E626F34EC59F000016039F00B4C
:10DB2000F00B6911986E12000F013F933F8168C09E
:10DB300060F00001616B000E636F0A0E626F39ECDA
:10DB400058F060C069F061C06AF00F0E00016917FB
:10DB500068C060F0616B000E636F0A0E626F34EC98
:10DB600059F000016039F00BF00B6911996E120049
:10DB70000F013F933F8168C060F00001616B000EB0
:10DB8000636F0A0E626F39EC58F060C069F061C0D3
:10DB90006AF00F0E0001691768C060F0616B000E3B
:10DBA000636F0A0E626F34EC59F000016039F00BBC
:10DBB000F00B6911986E12000F013F933F9168C0FE
:10DBC00060F00001616B000E636F0A0E626F39EC4A
:10DBD00058F060C069F061C06AF00F0E000169176B
:10DBE00068C060F0616B000E636F0A0E626F34EC08
:10DBF00059F000016039F00BF00B6911996E1200B9
:10DC00000F013F933F9168C060F00001616B000E0F
:10DC1000636F0A0E626F39EC58F060C069F061C042
:10DC20006AF00F0E0001691768C060F0616B000EAA
:10DC3000636F0A0E626F34EC59F000016039F00B2B
:10DC4000F00B6911986E120000016B51000AD8B4F4
:10DC5000FFD6010AD8B420D7030AD8B441D7010AA5
:10DC6000D8B462D7070AD8B483D7010AD8B4A4D7E6
:10DC7000030AD8A41200C4D704013205D8A411D0D5
:10DC800030511F0B0009D8A40CD00001F38F030EF4
:10DC900004013119D8A402D0010E01D0000E0101F7
:10DCA000626F04013251D8A4120030511F0B020AD6
:10DCB000D8A4120034510F0B0009D8B4120034510B
:10DCC0000F0B0001746F030E74611200200EFD191A
:10DCD000D8A41200F38F040134BF1CD034510F0BB1
:10DCE0000001746F7451020D200EF324D96E010EE1
:10DCF000F420DA6EDECF78F0DDCF79F00401345114
:10DD00000F0B0001746F7451010D380EF324D96E9E
:10DD1000010E1CD0040134510F0B0001746F7451BB
:10DD2000020D3E0EF324D96E000EF420DA6EDECF23
:10DD300078F0DDCF79F0040134510F0B0001746FDE
:10DD40007451010D3B0EF324D96E010EF420DA6EEE
:10DD5000DF50776F77B102D0789501D078850401D4
:10DD600034BF0BD034510F0B0001746F7451020D8E
:10DD7000200EF324D96E010E0BD0040134510F0B89
:10DD80000001746F7451020D3E0EF324D96E000E23
:10DD9000F420DA6E78C0DEFF79C0DDFF030E0401E7
:10DDA0003119D8A431D078C0D9FF79C0DAFF000189
:10DDB000DFAE1DD0040134BF0BD034510F0B000176
:10DDC000746F7451010D380EF324D96E010E0BD00F
:10DDD000040134510F0B0001746F7451010D3B0E9F
:10DDE000F324D96E010EF420DA6E0101DF8278C0CF
:10DDF000D9FF79C0DAFF000EDB8478C0D9FF79C083
:10DE0000DAFF000EDB8E1200040E0001781B78C0D2
:10DE1000D9FF79C0DAFFDFAE1BD078C0D9FF79C057
:10DE2000DAFF7F0EDF1678C0D9FF79C0DAFF000E67
:10DE3000DB8C000E6D6F050E6C6F78C06EF079C0D4
:10DE40006FF0000E716F020E706F61EC56F006D02D
:10DE500078C0D9FF79C0DAFF000EDB8C040E000118
:10DE6000781B77B306D078C0D9FF79C0DAFFDFAE70
:10DE700033D0040134BF0BD034510F0B0001746F49
:10DE80007451010D380EF324D96E010E0BD004012C
:10DE900034510F0B0001746F7451010D3B0EF324CC
:10DEA000D96E010EF420DA6E0101DF9278C0D9FF3D
:10DEB00079C0DAFF3B0EDF16000E00016D6F050E14
:10DEC0006C6F78C06EF079C06FF0000E716F020E4B
:10DED000706F61EC56F006D078C0D9FF79C0DAFFD8
:10DEE0003B0EDF16040134510F0B0001746F7451A7
:10DEF000010D260EF324756F0F0EF420766F75C09A
:10DF0000D9FF76C0DAFFFE0EDF1612005ED1570E83
:10DF10000001606F000E616F87EC51F00009D8B40A
:10DF20001200010E0101676F1200730E0001606F95
:10DF3000000E616F540E626FEF0E636F00EC54F0D1
:10DF40005104D8A42ED0DC0E0001676F000E686F5C
:10DF500050C069F06A6B000E6C6F0A0E6B6FF3ECC9
:10DF60005CF0730E0001606F000E616FDC0E626F7B
:10DF7000000E636F62516311D8A4200E646FC1EC70
:10DF800056F0730E0001606F000E616FED0E626F50
:10DF9000EF0E636F62516311D8A4000E646FC1EC81
:10DFA00056F0730E0001606F000E616FE20E626F3B
:10DFB000EF0E636F62516311D8A4000E646FC1EC61
:10DFC00056F001016A51D8A411D0730E0001606FA0
:10DFD000000E616FE80E626FEF0E636F62516311A6
:10DFE000D8A4000E646FC1EC56F010D0730E00017F
:10DFF000606F000E616FE40E626FEF0E636F62512F
:10E000006311D8A4000E646FC1EC56F0730E0001CA
:10E01000606F000E616FE20E626FEF0E636F625110
:10E020006311D8A4000E646FC1EC56F0730E0001AA
:10E03000606F000E616FED0E626FEF0E636F6251E5
:10E040006311D8A4000E646FC1EC56F0730E00018A
:10E05000606F000E616FE20E626FEF0E636F6251D0
:10E060006311D8A4000E646FC1EC56F0730E00016A
:10E07000606F000E616F720E626F020E636F62510D
:10E080006311D8A4200E646FC1EC56F0730E00012A
:10E09000606F000E616FE20E626FEF0E636F625190
:10E0A0006311D8A4000E646FC1EC56F0D70E0001C6
:10E0B000676F000E686F69C169F06A6B000E6C6F64
:10E0C0000A0E6B6FF3EC5CF0730E0001606F000ED4
:10E0D000616FED0E626FEF0E636F62516311D8A432
:10E0E000000E646FC1EC56F0730E0001606F000EFD
:10E0F000616FD70E626F000E636F62516311D8A417
:10E10000200E646FC1EC56F0730E0001606F000EBC
:10E11000616F8D0E626FEF0E636F62516311D8A451
:10E12000000E646FC1EC56F0730E0001606F000EBC
:10E13000616F000E626F000E636F000E646FC1ECC2
:10E1400056F0730E0001666F000E676F96EC4FF08D
:10E15000720E0001606F020E616F000E636F190E88
:10E16000626F49EC52F0020E0101676F1200730EEC
:10E170000001686F000E696FDB0E6A6F000E6B6F37
:10E180006BEC54F0E806D8A41200410E000173199C
:10E19000D8B41200540E7419D8B41200730E6F6FF5
:10E1A000000E706FCD0E716FEF0E726F77EC59F03D
:10E1B00000016F517011D8B402D0010E01D0000ED1
:10E1C0000101686F000E676F120001016751000ABC
:10E1D000D8B49DD6010AD8B4A8D6030AD8A4120090
:10E1E000C6D70001846F00018405D8A4B8D0949CE0
:10E1F000948E80C079F081C07AF0010EB9EC65F0A0
:10E20000000120EE04F08051D9268151DA22DF503E
:10E21000826F060E836FD8908237832FFCD782518E
:10E22000AD1220EE06F08051D9268151DA22DF505E
:10E23000826F050E836FD8908237832FFCD782516F
:10E24000AD1220EE01F08051D9268151DA22DF5043
:10E25000826F8239F00BAD1220EE08F08051D92682
:10E260008151DA22DF50826FD8908237D89082377E
:10E27000D8908235AD1220EE03F08051D92681511D
:10E28000DA22DF50826FD8908237D8908235AD1273
:10E2900080C0D9FF81C0DAFFDF50826F000E82B1EB
:10E2A000800E826F8251AC1220EE05F08051D9268B
:10E2B0008151DA22DF50826F060E836FD890823749
:10E2C000832FFCD78251AC1220EE07F08051D92663
:10E2D0008151DA22DF50826F8239F00BAC1220EECE
:10E2E00002F08051D9268151DA22DF50826FD89016
:10E2F0008237D8908237D89082357E1220EE0AF08D
:10E300008051D9268151DA22DF50826FD890823530
:10E310007E1220EE09F08051D9268151DA22DF5099
:10E320007E1220EE0BF08051D9268151DA22DF5087
:10E33000826F823B9D508219EF0B82199D6E20EEF9
:10E340000CF08051D9268151DA22DF50826F823B56
:10E3500082479D508219DF0B82199D6E1200020EBA
:10E360008419D8A412009490948280C079F081C05E
:10E370007AF0020EB9EC65F0000120EE04F0805155
:10E38000D9268151DA22DF50826F060E836FD89032
:10E390008237832FFCD78251A81220EE06F08051DD
:10E3A000D9268151DA22DF50826F050E836FD89013
:10E3B0008237832FFCD78251A81220EE01F08051C2
:10E3C000D9268151DA22DF50826F8239F00BA812F0
:10E3D00020EE08F08051D9268151DA22DF50826F79
:10E3E000D8908237D8908237D8908235A81220EE04
:10E3F00003F08051D9268151DA22DF50826FD89004
:10E400008237D8908235A81280C0D9FF81C0DAFF48
:10E41000DF50826F000E82B1800E826F82519C129B
:10E4200020EE05F08051D9268151DA22DF50826F2B
:10E43000060E836FD8908237832FFCD782519C12AF
:10E4400020EE07F08051D9268151DA22DF50826F09
:10E450008239F00B9C1220EE02F08051D9268151B6
:10E46000DA22DF50826FD8908237D8908237D890E6
:10E4700082357C1220EE0AF08051D9268151DA22B1
:10E48000DF50826FD89082357C1220EE09F08051E7
:10E49000D9268151DA22DF507C1220EE0BF0805118
:10E4A000D9268151DA22DF50826F823BA350821934
:10E4B000EF0B8219A36E20EE0CF08051D92681510A
:10E4C000DA22DF50826F823B8247A3508219DF0B32
:10E4D0008219A36E1200DAD1E20E0001646F010E00
:10E4E000656FD00E666F070E676F000E686F000EC7
:10E4F000696F32EC56F0010E0101566F1200E20E08
:10E500000001786F010E796F48EC5AF0E806D8A444
:10E510001200020E0101566F12001F0E0001FD6570
:10E52000120065B21200030E0101566F12000001C5
:10E53000FB51D8A41200D30E666FED0E676F880EE4
:10E54000686FC8EC50F0040E0101566F1200000114
:10E55000FB51D8A41200E70E666FEC0E676FEB0E4E
:10E56000686FC8EC50F0050E0101566F12000001F3
:10E57000FB51D8A41200800E606F000E616F000E78
:10E58000636F000E626F000E656F320E646FCDEC2C
:10E5900051F0B20E0001676F000E686F000E6A6FD7
:10E5A000010E696F000E6C6F0A0E6B6FF3EC5CF07E
:10E5B000B60E0001676F000E686F000E6A6F000EE6
:10E5C000696F000E6C6F0A0E6B6FF3EC5CF0BA0EA5
:10E5D0000001676F000E686F000E6A6F000E696FB2
:10E5E000000E6C6F0A0E6B6FF3EC5CF0800E000196
:10E5F000606F000E616F250E626FEF0E636F00ECAF
:10E6000054F0800E0001606F000E616FB20E626FF9
:10E61000000E636F62516311D8A4200E646FC1ECC9
:10E6200056F0800E0001606F000E616FF10E626F98
:10E63000EF0E636F62516311D8A4000E646FC1ECDA
:10E6400056F0800E0001606F000E616FB60E626FB3
:10E65000000E636F62516311D8A4200E646FC1EC89
:10E6600056F0800E0001606F000E616FF10E626F58
:10E67000EF0E636F62516311D8A4000E646FC1EC9A
:10E6800056F0800E0001606F000E616FBA0E626F6F
:10E69000000E636F62516311D8A4200E646FC1EC49
:10E6A00056F0800E0001606F000E616F8D0E626F7C
:10E6B000EF0E636F62516311D8A4000E646FC1EC5A
:10E6C00056F0800E0001666F000E676F800E606F5F
:10E6D000000E616F83EC55F000016051686FC8EC6B
:10E6E00050F0060E0101566F12000001FB51D8A434
:10E6F0001200800E606F000E616F000E636F000EDF
:10E70000626F000E656F320E646FCDEC51F0BE0E7D
:10E710000001676F000E686F000E6A6F070E696F69
:10E72000000E6C6F0A0E6B6FF3EC5CF0C20E000112
:10E73000676F000E686F000E6A6F0A0E696F000E39
:10E740006C6F0A0E6B6FF3EC5CF0C60E0001676F26
:10E75000000E686F000E6A6F120E696F000E6C6F0C
:10E760000A0E6B6FF3EC5CF0800E0001606F000E20
:10E77000616F100E626FEF0E636F00EC54F0800E4D
:10E780000001606F000E616FBE0E626F000E636F5E
:10E7900062516311D8A4200E646FC1EC56F0800E54
:10E7A0000001606F000E616FEF0E626FEF0E636F1E
:10E7B00062516311D8A4000E646FC1EC56F0800E54
:10E7C0000001606F000E616FC20E626F000E636F1A
:10E7D00062516311D8A4200E646FC1EC56F0800E14
:10E7E0000001606F000E616FEF0E626FEF0E636FDE
:10E7F00062516311D8A4000E646FC1EC56F0800E14
:10E800000001606F000E616FC60E626F000E636FD5
:10E8100062516311D8A4200E646FC1EC56F0800ED3
:10E820000001606F000E616F8D0E626FEF0E636FFF
:10E8300062516311D8A4000E646FC1EC56F0800ED3
:10E840000001666F000E676F800E606F000E616FD3
:10E8500083EC55F000016051686FC8EC50F0070E72
:10E860000101566F12000001FB51D8A41200E30E03
:10E87000666FEE0E676F160E686FC8EC50F0080EEC
:10E880000101566F120064EC74F012000101565140
:10E89000000AD8B421D6010AD8B431D6030AD8B4B4
:10E8A0003CD6010AD8B443D6070AD8B450D6010AD8
:10E8B000D8B45DD6030AD8B418D7010AD8B4D3D7D0
:10E8C0000F0AD8A41200DFD7000E00017E6F1F0EC2
:10E8D000FD65120065B21200F4D1000E0001676FF1
:10E8E000030E686FC80E696FDAEC5AF000017E6F94
:10E8F0007E51D8B412000101E005D8A426D0000151
:10E90000FB51D8A422D07E51010D000EF324D96E04
:10E91000030EF420DA6E0D0EDF6E7E517C6F7D6B80
:10E92000010E7C27000E7D23000E7C25D96E030E80
:10E930007D21DA6E0A0EDF6E000E666F030E676FC2
:10E940007E51020F686FC8EC50F0530E030100199E
:10E95000D8A443D04F0E0119D8A43FD03A0E0219C3
:10E96000D8A43BD0470E0319D8A412003A0E0419BC
:10E97000D8A41200440E0519D8A415D0460E0619C5
:10E98000D8A411D0410E0819D8A404D0010E010159
:10E99000576F1200420E03010819D8A41200000E8E
:10E9A0000101576F1200450E03010519D8A412008A
:10E9B0004D0E0619D8A41200310E0819D8A404D09F
:10E9C000010E0101E06F1200300E03010819D8A4F6
:10E9D0001200000E0101E06F1200530E0301001936
:10E9E000D8A41200420E0119D8A412003A0E02193E
:10E9F000D8A41200570E0319D8A489D03A0E0419CE
:10EA0000D8A485D005C3B5F106C3B6F108C3B1F1EA
:10EA100009C3B2F1B50E0001666F010E676F60ECBD
:10EA200061F000016651FA6FB10E666F010E676FFB
:10EA300060EC61F0000166510101586F000E0001A9
:10EA40007F6F31D07F51020D0B0EF326000EF422A2
:10EA5000000EF324D96E030EF420DA6E7F51040DFC
:10EA6000400EF324E16E040EF420E26EDFCFE7FFE8
:10EA70007F51020D0C0EF326000EF422000EF3243B
:10EA8000D96E030EF420DA6E7F51040D010EF326C9
:10EA9000000EF422400EF324E16E040EF420E26E28
:10EAA000DFCFE7FF7F2B7F51FA5DD8B0CBD7000EC9
:10EAB0007F6F1ED07F51040D400EF3246C6F040E47
:10EAC000F4206D6F000E6E6F000E6F6F000E716F91
:10EAD000100E706F25EC6BF000017F51010DC80E18
:10EAE000F324D96E030EF420DA6E6CC0DFFF7F2BA7
:10EAF0007F51FA5DD8B0DED7C80E636F030E646F26
:10EB000058C165F0FAC066F0F3EC52F01200520EF4
:10EB100003010319D8A412003A0E0419D8A4120054
:10EB200005C3B5F106C3B6F108C3B1F109C3B2F12B
:10EB3000B50E0001666F010E676F60EC61F00001B9
:10EB40006651FA6FB10E666F010E676F60EC61F08F
:10EB5000000166510101586F400E0001636F020E03
:10EB6000646F58C165F0FAC066F055EC53F0010EC1
:10EB70000101596F12000001FB51D8A41200530E7D
:10EB80000301006F420E016F5B0E026FB1C103F310
:10EB9000B2C104F35D0E056F3A0E066F000E000160
:10EBA000666F030E676F070E686FC8EC50F0020EB9
:10EBB0000101596F1200A6EC50F0E806D8A412002B
:10EBC00001015705D8A425D0000E00017F6F1DD08C
:10EBD0007F51040D400EF324706F040EF420716F0A
:10EBE0007F51010D400EF324D96E020EF420DA6E2F
:10EBF000DF507C6F7C51726F736B000E756F0A0E65
:10EC0000746F77EC53F000017F2B7F51FA5DD8B021
:10EC1000DFD70001FB51D8A4120001015705D8A489
:10EC200029D00001FA51080D030EF326000EF4223C
:10EC3000400EF324D96E040EF420DA6E0D0EDF6E52
:10EC4000FA51080D020EF326000EF422400EF324B2
:10EC5000D96E040EF420DA6E0A0EDF6E400E666F77
:10EC6000040E676FFA51020DF350040F686FC8EC81
:10EC700050F023D00001FA51010D400EF324D96E5B
:10EC8000020EF420DA6E0D0EDF6EFA517C6F7D6B92
:10EC9000010E7C27000E7D23400E7C25D96E020ECE
:10ECA0007D21DA6E0A0EDF6E400E666F020E676F10
:10ECB000FA51020F686FC8EC50F0000E0101596F55
:10ECC000120001015951000AD8B407D6010AD8B47C
:10ECD00052D7030AD8B46FD7010A1200000CEFC54F
:10ECE000EE9FEE5CEE0900486F7374206D657373E0
:10ECF00061676520666F726D61743A200D0A5B6F03
:10ED0000705F747970655D3A5B6F705D3A5B6C65DE
:10ED10006E5D3A5B616464725D3A5B7061796C6FE1
:10ED200061645D0D0A0D0A5B6F705F747970655DDB
:10ED3000203D20534F2C53420D0A5B6F705D203DE8
:10ED400020523A20726561642C573A2077726974B8
:10ED5000650D0A5B6C656E5D203D20322062797422
:10ED6000652041534349490D0A5B616464725D202B
:10ED70003D203220627974652041534349490D0A90
:10ED80005B7061796C6F61645D203D206D617820FE
:10ED9000323020627974652041534349490D0A0D90
:10EDA0000A5465726D696E616C204D6F64653A201E
:10EDB000434F4D4D414E44204D4F44450D0A4D6F3C
:10EDC00064656D20547970653A20576946690D0A6B
:10EDD0000D0A002A2A2A2A2A2A2A2A2A2A2A2A2AFA
:10EDE0002A2A2A2A2A2A2A2A2A2A2A2A2A2A2A2A83
:10EDF0002A2A2A2A2A2A2A2A2A2A2A2A2A2A2A2A73
:10EE00002A2A2A2A0D0A2020202020202020202003
:10EE100020202020202020204D45524355525920AB
:10EE200053595354454D0D0A2A2A2A2A2A2A2A2A96
:10EE30002A2A2A2A2A2A2A2A2A2A2A2A2A2A2A2A32
:10EE40002A2A2A2A2A2A2A2A2A2A2A2A2A2A2A2A22
:10EE50002A2A2A2A2A2A2A2A2A0D0A0009024300D3
:10EE6000020100C032090400000102020100052471
:10EE700000100104240202052406000105240100FB
:10EE8000010705810308000209040100020A0000CD
:10EE9000000705020240000007058202400000262C
:10EEA000035400650072006D0069006E0061006C23
:10EEB00000200049006E0074006500720066006169
:10EEC00000630065001E034D00650072006300755D
:10EED000007200790020005300790073007400650F
:10EEE000006D000D0A53797374656D20526561647D
:10EEF000792E2E2E200D0A0D0A00120100020200AA
:10EF00000008D8040A0000010102000104030904FA
:10EF10004275696C6420446174652028642D6D2DF0
:10EF200079293A20004672616D65776F726B2056C1
:10EF3000657273696F6E3A200041542B43495053F8
:10EF400045525645523D0041542B434950434C4F86
:10EF500053453D0041542B43495053544152543D75
:10EF60000041542B43495053454E443D0041542BDE
:10EF70004349504D4F44453D0041542B4349504374
:10EF80004C4F53450041542B43575141500D0A00FB
:10EF900041542B43574D4F44453D0041542B434969
:10EFA000504D55583D0041542B43574A41503D0068
:10EFB00041542B43495041503D0041542B4357533A
:10EFC00041503D0041542B5253540D0A00434F4EC3
:10EFD0004E454354004552524F52002B4950440075
:10EFE000222C22005443500055445000222C002D66
:10EFF000002E0030003100320033003E0000FF00E0
:08FFF000FF00FF00FF00FF000D
:08FFF800ACF7DDFFF3F9FFF1A6
:00000001FF
