:1000000080312A28640008007E14803120007F0897
:10001000F300911C1B282100911C1B28200091102B
:100020000130D9070030DA3D59085A0403191B285A
:10003000D901DA01ED012100911D25282000911D33
:100040002528911168308B311F2373082000FF0091
:100050007E10090080312C288731FF278031F9007C
:10006000893119218031ED00CB3084008B3085003F
:1000700020308600013087000030FF0028308931B1
:10008000AF2180319D308400233085005330FE0045
:100090000030FF008931A3218031F601F701F8011A
:1000A00059308400003085001430FE000030FF001D
:1000B0008931A3218031A0308400003085004C308C
:1000C000FE000030FF008931A3218031A030840080
:1000D000013085005030FE000030FF008931A3213F
:1000E000803120308400023085005030FE00003026
:1000F000FF008931A3218031A030840002308500C7
:100100005030FE000030FF008931A32180312030C3
:100110008400033085005030FE000030FF0089313C
:10012000A3217E102000893132296129233020004B
:10013000A0009030A1002030B0003008A2000430B0
:10014000B1003108A3008B318323803104302000BB
:10015000B0003008E4006A308B31612308001D30A4
:100160002000A0009030A1002030B0003008A20094
:100170000530B1003108A3008B3183238031053075
:100180002000B0003008E4006A308B3161230800A1
:100190000C302000A0009030A1002030B0003008CA
:1001A000A2000830B1003108A3008B3183238031D5
:1001B00008302000B0003008E4006A308B31612341
:1001C00008000C302000A0009030A1002030B000CA
:1001D0003008A2000830B1003108A3008B3183231E
:1001E000803108302000B0003008E4006A308B31E4
:1001F0006123080089311A210800893197210800FC
:10020000230021088D31A02508008A311922080019
:100210008A318222803120002408B7002308B600EA
:100220003708B00030082400A00020003608B000D5
:1002300030082400A10002302000B0003008E400A3
:100240006A308B31612308008A318222803120009C
:100250002408B7002308B6003708B1003608B000FC
:10026000B136B00CB136B00CB136B00C3008D83E57
:10027000B600FF30313DB7003708A8003608A700A8
:100280000A30A9000030AA0032308E31C6268031F3
:1002900032302000A0000030A1002030B000300833
:1002A000A2000230B1003108A3008B3183238031DA
:1002B00002302000B0003008E4006A308B31612346
:1002C000080023002008103A03199628303A031931
:1002D000AF28013A0319C828033A0319E128123A52
:1002E0000319FA28013A0319FD28703A0319002965
:1002F000033A03190529073A03190829033A031990
:10030000242982290800592A68308B314023813101
:10031000003A0319080089316C218131003A031D2C
:1003200097292000DF01DF0AE001E00A0800893197
:100330006C218131013A031D080020005F03031D79
:1003400008006108031DA9290230BD003D08E00036
:1003500008000330BD003D08E0000800240011083B
:100360002000BD003D08DE005E36BD003D08DE0019
:100370002400110801392000BD003D08E10061039F
:10038000031DCF296308A03E8600023087000108C4
:100390002400910001302000BD003D08E307043037
:1003A000BD003D08E0000800893176218131013A25
:1003B000031D1F2A2000DF01EF3086002330870055
:1003C000620881009D308600233087004131810121
:1003D0009D308600233087005E08C03FC401503046
:1003E00044020318152A4408203E86000330870083
:1003F0000108BD004408BE00BF019F30C00023308B
:10040000C1003E084007C2003F08413DC30042080A
:100410008600430887003D0881000130BD003D088B
:10042000C40750304402031CF32966308B3161232A
:1004300081312000E2018931E92181312E2A240015
:1004400011082000BD006208203E860003308700AE
:100450003D0881000130BD003D08E2070430200066
:10046000BD003D08E0000800893162218131003A79
:10047000031D492A20006308A03E86000230870041
:1004800001082400910001302000BD003D08E30771
:100490004E2A2000E301DF018931F92104302000D8
:1004A000BD003D08E0000800240015162000E00112
:1004B00008002000600884000530040203180800CA
:1004C00088310435003E820008002000D801D801A0
:1004D0000A30840090308500003F2200C800013FB0
:1004E000C900200058082200CA00CB0149084B026D
:1004F000031D7C2A48084A020318080020005808F7
:100500002200C8000230C835FF3E031D832A48354B
:10051000053E203E860001308700403FC900413F34
:10052000CA00200058082200CB000230CB35FF3E25
:10053000031D962A4B35033E203E8600013087007E
:10054000403FCC00413FCD004A084D02031DAA2A7E
:1005500049084C02031CF62A200058082200C80053
:100560000230C835FF3E031DB12A4835033E203E08
:100570008600013087000030C03FC13F200058088E
:100580002200C8000230C835FF3E031DC32A48358B
:10059000023E203E8600013087008101810A200052
:1005A00058082200C8000230C835FF3E031DD42A77
:1005B0004835073E203E8600013087000108C9000B
:1005C00049082000BC0058082200CA000230CA3581
:1005D000FF3E031DE72A4A35203E86000130870092
:1005E000413F8A00403F0A0082311A2B2000580800
:1005F0002200C8000230C835FF3E031DFB2A4835E3
:10060000033E203E860001308700013081074131E2
:100610000318810A200058082200C8000230C8359B
:10062000FF3E031D0F2B4835023E203E8600013061
:100630008700810101302200C80048082000D80747
:100640000A30840090308500003F2200C800013F3E
:10065000702A2000BC000030C1000030C000003013
:10066000BF000030BE003308B400B5013408A2005A
:100670003508A3003208B600B7013608A0003708D5
:10068000A1008A31E622833120002008B800210829
:10069000B900BA01BB013B08A7003A08A600390817
:1006A000A5003808A4003008A8003108A900AA0154
:1006B000AB018C31A224833120002708C100260819
:1006C000C0002508BF002408BE004108A300400860
:1006D000A2003F08A1003E08A0000030A7003D3066
:1006E000A6000930A5000030A4008731A727833178
:1006F00020002308031DDB2B2208031DDB2B013008
:100700002102031CCC2BDB2B4108A3004008A200D4
:100710003F08A1003E08A0000030A7003D30A60021
:100720000930A5000030A4008731A72783312000BD
:1007300020089B00D82B4108A3004008A2003F08D6
:10074000A1003E08A0000030A7003D30A6000930FF
:10075000A5000030A4008731A7278331200020089E
:1007600028009600D82B20004108A3004008A200D2
:100770003F08A1003E08A0000030A7003D30A600C1
:100780000930A5000030A4008731A727833120005D
:10079000200828009D00D82B20003C08023A0319AD
:1007A000842B063A03199B2B023A0319B32BD82B3F
:1007B0002000BD01DD2BBD01BD0A3D080800200061
:1007C000A20021008E140E1420002208860087014A
:1007D0000108A0002008240095042000220A8600B9
:1007E00087010108A0000230A035FF3E031DF42B55
:1007F0002035A10021082400960420002208033E91
:10080000860087010108A00020082400960420002B
:1008100022080A3E860087010108A0000630A035A4
:10082000FF3E031D0F2C2035A10021082400960453
:1008300020002208043E860087010108A000053040
:10084000A035FF3E031D202C2035A10021082400E7
:10085000970420002208053E860087010108A000B9
:100860000430A035FF3E031D312C2035A1002108A6
:100870002400970420002208063E86008701010814
:10088000A0000330A035FF3E031D422C2035A100FF
:1008900021082400970420002208073E86008701D3
:1008A0000108A0000130A035FF3E031D532C203568
:1008B000A10021082400970420002208083E860099
:1008C00087010135A0002008240097042000220899
:1008D000093E860087010108A00020082400970433
:1008E00020002208023E860087010108A000043093
:1008F000A035FF3E031D782C2035A10021082400DF
:10090000950420009111210091158931E92183314D
:100910008931F9210800F5000B2D7508083E860085
:10092000870101082000A700750A860087012708B3
:1009300081007508D32C7508023E860087010130BE
:10094000810741310318810A750A86008701010871
:10095000031DD82C32302000A0000030A100750803
:10096000063E86008701403FA200413FA3008D3133
:10097000342584317508023E86008701403F2000FF
:10098000A700413FA80021082802031DC92C200808
:100990002702031C162D7508023E860087010030D1
:1009A000C03FC13F750A860087018101810A162D6B
:1009B000750A860087010103031D162D32302000C1
:1009C000A0000030A1007508043E86008701403F6A
:1009D000A200413FA3008D31342584317508023EC9
:1009E00086008701403F2000A700413FA800210862
:1009F0002802031DFD2C20082702031C162D750854
:100A0000023E860087010030C03FC13F750A860064
:100A100087018101162D7508860087010108003ABB
:100A200003198D2C013A03199B2C162D750A86008B
:100A30008701010808002000A9019E2DE8308B31B4
:100A400040238531003A03190800760889312621B0
:100A500085317F308731FA272000DD01DD0A08006B
:100A600066308B3140238531003A0319822D9D3049
:100A7000860023308700010876060319462D9D3035
:100A80008600233087000108031D08009D30860082
:100A90002330870041310108031D08002000A9010F
:100AA000503029020318722D2908A400A5019F3097
:100AB000A6002330A7002408260786002508273D26
:100AC00087000108A8002908A03E860001308700A1
:100AD000280881000130A4002408A9075030290209
:100AE000031C542DEA308B31612385317903031DBA
:100AF000080003302000A4002408F40001308931EC
:100B0000BB2108006A308B3140238531003A03193C
:100B1000080020006408A4002408F40020308B3171
:100B2000022385317903031D080003302000A4004F
:100B30002408F40001308931BB21080020005D0841
:100B4000003A03191E2D013A0319302DA72D080074
:100B5000A0308600003087004630840000308500D9
:100B60000C302000BD0016001A00BD0BB32DAC30B8
:100B70008600003087003E30840000308500083059
:100B8000BD0016001A00BD0BC12D242E21000E1130
:100B90008E1122000E118E1121008C160C168E164D
:100BA0000E162000CA01CA0ACB01CB0AD001D00A16
:100BB000D101D10A46308F319127853100308931FA
:100BC000512185313E308D31E22585310130893129
:100BD00049218531003089314121853103302000A0
:100BE000BD003D08D400D701D501D601D301D30AF9
:100BF000D201D20A52308D3169252100C501C601CA
:100C0000C701C801C901CA01CB01CC01CC0ACD0181
:100C1000CE01CF01D001D101D201D301D401D50140
:100C200002302000BD003D082100D600D701D801C8
:100C300008008B31F3238531C53087312D2785316D
:100C4000CF3087312D27080020006508003A0319AE
:100C5000C62D013A0319192E2D2E0800EA308B31CA
:100C600040238631003A03190800803195208631EF
:100C70009E2E8B31A6230800230021082000B800F7
:100C8000B9013808B900B80138082300220421004E
:100C9000CA00200039082100CB00CD308B31612300
:100CA0000800230021082000B800B9013808B90065
:100CB000B8013808230022042100D400200039089C
:100CC0002100D500D7308B31612308002300210893
:100CD0002000B800B9013808B900B801380823006D
:100CE00022042100CA00200039082100CB00230083
:100CF00021082000B800B9013808B900B801380847
:100D0000230022042100D400200039082100D5004E
:100D1000CD308B3161238631D7308B316123080090
:100D2000783577042000B80038082400A00020009F
:100D3000E401E40A6A308B316123080023002008B3
:100D4000503A0319392E013A03193C2E033A03197C
:100D5000512E013A0319662E333A0319902EB12E03
:100D6000080008002000A100202F1C10B82E1C1421
:100D70009C10C82E1C109C14C82E7408013A03192C
:100D8000B52E053A0319B72E143A0319BA2EC82EF8
:100D90007508FF3EA000A00DA00DA00D1C082006A8
:100DA000873920069C00080028001710D92E28003B
:100DB00017149710EA2E280017109714EA2E7408BB
:100DC000013A0319D42E053A0319D72E143A031900
:100DD000DB2EEA2E7508FF3E2000A000A00DA00D1E
:100DE000A00D2800170820002006873920062800BB
:100DF0009700080028001E10FF2E28001E149E10C9
:100E0000102F28001E109E14102F7408013A031989
:100E1000FA2E053A0319FD2E143A0319012F102F4B
:100E20007508FF3E2000A000A00DA00DA00D280019
:100E30001E08200020068739200628009E00080092
:100E400020002108023A0319BD2E063A0319DF2EAD
:100E5000023A0319052F2C2F08002000A4009B2F15
:100E60002408083E8B3140238731003A03190800DB
:100E7000F401F40A20002408073E860087010108D7
:100E80008A31B42220002408860087018101810A6A
:100E90000800240A860087010130810741310318C8
:100EA000810A240A86008701403FA000413FA1003B
:100EB00000302102143003192002031C6E2F240A73
:100EC000860087010030C03FC13F2408033E8600F2
:100ED00087010130810741310318810A2408053E4A
:100EE00086008701403FA000413FA1002408033E47
:100EF00086008701403FA200413FA3002108230252
:100F0000031D842F20082202031C08002408033E2E
:100F1000860087010030C03FC13FF4012408073E2E
:100F20008600870101088A31B42220002408860047
:100F30008701810108002408860087010108003A22
:100F40000319302F013A0319492FA62F080000304A
:100F50002000AB000030AA000030A9000030A8003B
:100F600023082204210420040319F12FAC01AC0A48
:100F7000A31BC62F0130A035A10DA20DA30D890B17
:100F8000BB2F0130F4007408AC07B82F0130A8352E
:100F9000A90DAA0DAB0D890BC72F23082702031D2E
:100FA000DB2F22082602031DDB2F21082502031D4B
:100FB000DB2F20082402031CE62F2008A4022108AE
:100FC000A53B2208A63B2308A73B28140130A336E3
:100FD000A20CA10CA00C890BE72F0130AC02031D61
:100FE000C62F2B08A3002A08A2002908A100280860
:100FF000A0000800F40074352400930008000134B8
:10100000813184298131AE298131D4298231342A38
:041010008231542AAB
:1012320001340100080021009D1408008B170B17D0
:10124200080021001D0C01390800F4007435240047
:101252009200080021009914783099041A180800A5
:101262002F298931592189318A31092280312A284D
:10127200F400740C2100031C171003181714080043
:10128200F400740C2200031C17120318171608002E
:10129200F400740C2200031C97120318971608001E
:1012A200F400740C2100031C951303189517080011
:1012B20089312B2189318A31CD22893189311F210E
:1012C200080024001608F4000630F436890B66295B
:1012D20074080139080024001408F4000530F436BB
:1012E200890B702974080139080024001408F400DD
:1012F2000430F436890B7A29740801390800F500A4
:101302007508F400F40D210017087406C13974063B
:1013120097000800F5007508F400F40DF40D2100A3
:101322001D087406833974069D00080022008C0192
:101332008E010030893139218931630001308931D0
:10134200392108006400800101310130FE020030C1
:10135200FF3B7F087E0403190034A429FE0012001B
:101362001E000130FE020030FF3B7F087E0403199D
:101372000034B0292000A000C3297408F5007508C4
:10138200EC0008002008013A0319BE29C829080008
:10139200033021001C052000A0002008A20021002B
:1013A2001B082000A1002208F5002108F400080013
:1013B2002000A000E22975082100E7007408E60079
:1013C200080020002008013A0319DC29E829080056
:1013D200F50150307502031808007508203E86009A
:1013E2000330870081010130F4007408F507EA290F
:1013F200F50150307502031808007508A03E8600FA
:101402000230870081010130F4007408F507FA29DF
:101412008E3178268A312000E501E50A6D08031D28
:101422000F2A823165228A312000ED01ED0A0F2A4E
:1014320003307906031D080023002103031D272A18
:10144200F401F40A01308931BB210800F4010130B2
:101452008931BB2108000630F40074082100BA006B
:10146200BB01BC01BC0ABD01BE01BE0ABF01BF0A6D
:10147200C001C101C201C301C401C40A08004B2A50
:101482008A312C228A31BA308331DF230800853138
:101492001B25080020006508003A0319412A013A79
:1014A2000319482A542A0800612A0B308931802105
:1014B2008A31013089313921080080310220080047
:1014C20020006508003A0319562A013A03195E2AD8
:1014D2006A2A0800F400762A20001C150800280059
:1014E2001715080028001E1508007408023A03198F
:1014F2006D2A063A0319702A023A0319732A812ABD
:1015020008001D3089318B218A3189311C218A31B1
:10151200893122218A31003A0319892A8931C92164
:1015220075082000A6007408A5002608A400250856
:10153200A3000800F400AE2A200021082100DE00EA
:10154200200020082100DD00200023082100E00007
:10155200200022082100DF0008007408013A031964
:101562009D2AB32A0800F500C42A740C2200031C29
:101572000E1103180E150800740C2200031C8E11A4
:1015820003188E1508007508013A0319B62A033AA2
:101592000319BD2ACC2A080010302000C5004508D6
:1015A200C6000430C5004508C700C801C80AE830B3
:1015B200C9000330CA00CB01CB0A4630C50045083A
:1015C200C20002308E312D260800F401F501200000
:1015D200201CEF2A2208F4072308F53D0130A2352A
:1015E200A30D890BF02A0130A136A00C890BF52A34
:1015F20020082104031DE82A7508A1007408A00030
:1016020008002000A200A301A3017408230203180A
:10161200080023082207A000200886000230870065
:101622000108A1002308A03E86000230870021089D
:1016320081000130A0002008A307062BF100F2016F
:101642007108860087010230010603193B2B7108DD
:10165200860087010330010603193B2B0230F0009C
:10166200710A86008701700881000230F00070085C
:10167200F20008000330F0007008F2000800F500E4
:10168200F401750886008701010303195F2B7508B1
:10169200860087010330010603195F2B750A860055
:1016A200870102300106031D5E2B750A8600870141
:1016B2008101810AF401F40A5F2BF4017408080025
:1016C2002000A100A0012108860087010230010646
:1016D20003197E2B210886008701033001060319B6
:1016E2007E2B0230F400210A8600870174088100F3
:1016F2000230F4007408A00008000330F4007408FB
:10170200A0000800F401F401200023087402031869
:10171200080020002108A5002008A400740824075E
:10172200840025080318250A85000008A60074080D
:101732002207A700270886000230870026088100BA
:101742000130A4002408F407852B2300211CAC2BB4
:10175200F701F70AAD2BF70121082000A0000130A4
:10176200A036890BB12B201CB92BF801F80ABA2B31
:10177200F8017708A0002008F40001308A31B42271
:101782008B3178082000A0002008F40002308A3152
:10179200B4220800833401340034003400340134AC
:1017A2000034003440340A3400340034003401344C
:1017B2000034003455340A340034003400346434C4
:1017C2000034003472340C340034003400343234C7
:1017D20000340034A8340534003400340034323488
:1017E200003400340F2C01302000BB003B08DC0722
:1017F20002305C02031C08008C31D2242000DB0181
:10180200DB0A0800E8308B31612302302000BB0084
:101812003B08DB00080086312E26080020005B080A
:10182200003A0319F42B013A0319032C033A031962
:101832000C2C1B2C0800F500392C20009110740C84
:101842002100031C9110031891140800200093102A
:10185200740C2100031C9310031893140800200039
:101862009311740C2100031C9311031893150800A3
:101872007508023A03191E2C063A0319272C023A5C
:101882000319302C442C08002000200821040319DD
:101892006D2CF501F50AA11B582C0130A035A10DC4
:1018A200890B4F2C0130F4007408F5074C2C2108E9
:1018B2002302031D5E2C20082202031C642C200834
:1018C200A2022108A33B0130A136A00C890B652C92
:1018D2000130F502031D582C2308A1002208A000A4
:1018E2000800982C21000C1122000C1101308D31BE
:1018F200A02508006C302000BD003D08AB00D930A7
:10190200BE003E08AC00E230BF003F08AD0001302F
:101912008D3103252000C000C00DC00D22000C082F
:1019220020004006FB39400622008C0008002000FF
:101932006508003A0319732C013A03197B2CA12C78
:10194200080000302000AF000030AE000030AD00D3
:101952000030AC00241CB52C2808AC072908AD3D8A
:101962002A08AE3D2B08AF3D0130A835A90DAA0DBE
:10197200AB0D890BB62C0130A736A60CA50CA40C16
:10198200890BBD2C2708260425042404031DAB2C37
:101992002F08A7002E08A6002D08A5002C08A400D9
:1019A2000800031020000E1E03140030093DF4004D
:1019B2000230F435FF3E031DDA2C7435F50075084C
:1019C200F60403108E1E03140030093DF4000130AA
:1019D200F435FF3E031DE92C7435F5007508F60455
:1019E20003100C1E03140030093D0907F4007408AB
:1019F200F60403108C1E03140030093DF400740831
:101A0200F60408002000B000B101212DB101322DF1
:101A1200B101B10A322D2C0884318B248D31200082
:101A2200AE002E081F2D3008AE002E08A7002D088C
:101A32008F3128278D312000AF002F08B100322DC1
:101A42002B08860087010108003A0319072D013A85
:101A52000319092D033A03190C2D013A0319142D08
:101A6200322D310808002000A501A601200821041A
:101A72000319642DA401A40AA11B492D0130A0352C
:101A8200A10D890B402D0130F4007408A4073D2DEF
:101A92000130A535A60D890B4A2D21082302031D0D
:101AA200542D20082202031C5B2D2008A2022108CB
:101AB200A33B25140130A136A00C890B5C2D01300B
:101AC200A402031D492D2608A1002508A000080034
:101AD200F400740886008701010C2100031C1D100C
:101AE20003181D14740A86008701010C031C9E133F
:101AF20003189E177408023E86008701010C031C1E
:101B02001E1203181E167408033E86008701010C7C
:101B1200031C1E1103181E157408043E860087015B
:101B22001E080106FC3901069E007408053E860067
:101B32008701010C031C1113031811170800200060
:101B4200A500D32DF40101308931BB21F901080030
:101B52006430F4000030F50001308931D921F901F7
:101B6200F90A080032302000A0000030A100B6308F
:101B7200A2000330A30001308A319B228D31023052
:101B82002000A4002408F40001308931BB21023076
:101B92002000A4002408F90008000330A40024084F
:101BA200F90008002508003A0319A32D013A031988
:101BB200A92D033A0319B32D013A0319CE2DE12DB4
:101BC2000800F40023008C01740886008701010CD0
:101BD200031C0C1003180C14740A86008701010CF4
:101BE200031C8C1003188C147408023E86008701B3
:101BF200010C031C0C1103180C157408033E86001B
:101C02008701010C031C0C1203180C168E017408B8
:101C1200043E86008701010C031C0E1003180E14EB
:101C22007408053E86008701010C031C8E10031800
:101C32008E147408063E86008701010C031C0E11E7
:101C420003180E157408073E86008701010C031C59
:101C52008E1103188E1508002000C4004208860069
:101C620087010108C3004308F40042088600870187
:101C7200413FF50044088631B2268E3120004208E9
:101C8200023E860087010103031D4A2EF401F40A75
:101C92004C2EF401200044088C311C248E3120008B
:101CA2004208033E86008701403FB000413FB10039
:101CB2004208860087010108C3004308B2004208B7
:101CC20086008701413FB3004408833129238E31C6
:101CD200013A03196B2E20004208053E8600870157
:101CE2000103031D080044088A316B22080020000A
:101CF200D801D8010A30840090308500003F2100CD
:101D0200EC00013FED00200058082100EE00EF0139
:101D12006D086F02031D8F2E6C086E0203180800F7
:101D2200200058082100EC000230EC35FF3E031D74
:101D3200962E6C35073E203E860001308700010852
:101D4200ED006D082000BC0058082100EE000230B2
:101D5200EE35FF3E031DA92E6E35203E8600013072
:101D62008700413F8A00403F0A008E310130210046
:101D7200EC006C082000D8070A30840090308500FF
:101D8200003F2100EC00013F832E2000AF00280815
:101D9200AD002708AC002A08A1002908A0002D08E0
:101DA200A3002C08A2008D3134258E312000210899
:101DB200AD002008AC000130AB002B08AF072C08A7
:101DC2002D04031DCC2E2F088600870181010130CE
:101DD200AF022A08A1002908A0002808A3002708AA
:101DE200A2008C3145248E3120002008AB002B0844
:101DF200AE002A08A1002908A0002808A30027088D
:101E0200A2008D3134258E3120002108A80020083F
:101E1200A7000A302E02031C122F0730AB002B083A
:101E2200AE073030AB002B08AE072E08AB002F08F0
:101E3200860087012B0881000130AF0227082804A1
:101E4200031DEA2E0130AB002B08AF07080020006B
:101E5200AA007C2F2A0A860087018101810A2A08AA
:101E6200860087018101810A8B2F2A08023E8600A3
:101E720087010130810741310318810A3230A00005
:101E82000030A1002A08043E86008701403FA200DC
:101E9200413FA3008D3134258F3120002A08023EB4
:101EA20086008701403FA800413FA900210829027E
:101EB200031D5D2F20082802031C8B2F2A08023ED7
:101EC200860087010030C03FC13F0230A8002A08C7
:101ED20086008701280881008B2F2A0A8600870145
:101EE20081012A08860087018101F40127088931CE
:101EF200BB218F318B2F20002A0886008701010821
:101F0200003A03192B2F013A0319362F033A03190A
:101F12006E2F8B2F20002A0A8600870101080800F5
:101F2200F40024008C01740886008701010C031C54
:101F32000C1003180C14740A86008701010C031C90
:101F42008C1003188C147408023E86008701010C61
:101F5200031C0C1103180C157408033E860087013C
:101F6200010C031C8C1103188C157408043E8600A6
:101F72008701010C031C0C1203180C167408053E91
:101F820086008701010C031C8C1203188C168E012B
:101F92007408063E86008701010C031C0E1003180C
:101FA2000E147408073E86008701010C031C8E1074
:101FB20003188E147408083E86008701010C031C66
:101FC2000E1103180E157408093E86008701010CD4
:101FD200031C8E1103188E1574080A3E86008701B1
:101FE200010C031C0E1203180E1674080B3E860019
:101FF2008701010C031C8E1203188E16080001348F
:1020020000340A34003464340034E83403341034C5
:10201200273405340034303431342E343034313402
:102022002E34303430340034253464342E342534A4
:102032003034313475340034533442343134313431
:0E204200303400344534433448344F340034D5
:020000040001F9
:04000E00ECFFFFDF25
:00000001FF
