:1000000080312B28640008007E14803120007F0896
:10001000F300911C1C282100911C1C282000911029
:1000200001302100B8070030B93D38083904031900
:100030001C28B801B901EB012100911D26282000E0
:10004000911D26289111E23097319C2773082000DA
:10005000FF007E10090080312D289531C0258031A8
:10006000F90021009531BF258031EB003330840049
:100070008830850020308600013087000030FF0086
:1000800028309631452680319D308400233085000C
:100090005330FE000030FF00963139268031F601E2
:1000A000F701F8012000ED01EE01EF01A03084001E
:1000B000003085004B30FE000030FF0096313926BD
:1000C000803148308400013085001230FE0000305D
:1000D000FF00963139268031A03084000130850040
:1000E0005030FE000030FF0096313926803120303C
:1000F0008400023085005030FE000030FF00963151
:1001000039268031A0308400023085005030FE0056
:100110000030FF00963139268031203084000330D2
:1001200085005030FE000030FF00963139267E10E9
:1001300020009531DD2DE8309731BD278031003A20
:1001400003190800823123228031142A230021035D
:10015000031DE22821002D082000BE003E08A0005B
:1001600021002E082000BF003F08A10021002F0819
:100170002000C0004008A20021002C088331FF238A
:10018000803168302000BF00E430BE00BE0BC628BE
:10019000BF0BC628000021002D082000BE003E082D
:1001A000A00021002E082000BF003F08A100210070
:1001B0002F082000C0004008A20021002C08833135
:1001C000FF23080023002108031D08002000A001D0
:1001D000A101A20121002C088331FF238031683066
:1001E0002000BF00E430BE00BE0BF428BF0BF42893
:1001F00000002000A001A101A20121002C088331F0
:10020000FF230800230021082000BE003E08210033
:10021000AD00230022082000BE003E082100AE00F1
:10022000230023082000BE003E082100AF00080084
:10023000230021082000BE003E082100AC00080079
:1002400023002103031D5C29210031082000BE008A
:100250003E08A000210032082000BF003F08A10096
:10026000210033082000C0004008A200210030080F
:100270008531AC25803168302000BF00E430BE00FD
:10028000BE0B4029BF0B402900002100310820008F
:10029000BE003E08A000210032082000BF003F0839
:1002A000A100210033082000C0004008A200210066
:1002B00030088531AC25080023002108031D080003
:1002C0002000A001A101A201210030088331FF23F9
:1002D000803168302000BF00E430BE00BE0B6E29C4
:1002E000BF0B6E2900002000A001A101A201210086
:1002F00030088331FF230800230021082000BE00BE
:100300003E082100B100230022082000BE003E0864
:100310002100B200230023082000BE003E08210077
:10032000B3000800230021082000BE003E08210081
:10033000B000080023002103031DD6292100350841
:100340002000BE003E08A000210036082000BF00AB
:100350003F08A100210037082000C0004008A2008B
:10036000210034088431DB24803168302000BF0054
:10037000E430BE00BE0BBA29BF0BBA290000210031
:1003800035082000BE003E08A000210036082000ED
:10039000BF003F08A100210037082000C00040082E
:1003A000A200210034088431DB2408002300210846
:1003B000031D08002000A001A101A20121003408B2
:1003C0008331FF23803168302000BF00E430BE005D
:1003D000BE0BE829BF0BE82900002000A001A10105
:1003E000A201210034088331FF23080023002108E3
:1003F0002000BE003E082100B50023002208200096
:10040000BE003E082100B600230023082000BE00E5
:100410003E082100B7000800230021082000BE008C
:100420003E082100B400080023002008B03E031C51
:1004300008008400093004020318080090310435D4
:10044000283E82000800F52A23302000A0009030CA
:10045000A1002030B0003008A2000430B100310803
:10046000A30088311020823104302000B000300811
:100470002100C500E4309731DE2708001D30200040
:10048000A0009030A1002030B0003008A20005305C
:10049000B1003108A30088311020823105302000DE
:1004A000B00030082100C500E4309731DE27080095
:1004B0000C302000A0009030A1002030B0003008A7
:1004C000A2000830B1003108A30088311020823129
:1004D00008302000B00030082100C500E43097311A
:1004E000DE2708000C302000A0009030A100203052
:1004F000B0003008A2000830B1003108A3008831F4
:100500001020823108302000B00030082100C500E2
:10051000E4309731DE2708009531C1250800963177
:1005200051260800230021088A310822080096314C
:10053000AF26080097311827823120002408B70021
:100540002308B6003708B00030082400A0002000BF
:100550003608B00030082400A10002302000B000AE
:1005600030082100C500E4309731DE2708009731BC
:100570001827823120002408B7002308B600370866
:10058000B1003608B000B136B00CB136B00CB1369F
:10059000B00C3008D83EB600FF30313DB700370808
:1005A000A8003608A7000A30A9000030AA0032309F
:1005B0008B313623823132302000A0000030A10080
:1005C0002030B0003008A2000230B1003108A30092
:1005D00088311020823102302000B0003008210024
:1005E000C500E4309731DE27080023002008103AC8
:1005F0000319242A303A03193E2A013A0319582ACA
:10060000033A0319722A123A03198C2A013A031980
:100610008F2A703A0319922A033A0319972A073A44
:1006200003199A2A033A0319B72A162B0800F32B49
:10063000E2309731BD278331003A03190800963123
:100640000E268331003A031D2B2B2100C301C30A60
:10065000C401C40A080096310E268331013A031DF5
:10066000080021004303031D080020006E08031D3D
:100670003F2B0230C30043082100C40008000330B0
:100680002000C30043082100C40008002400110812
:100690002000C3004308ED006D36C3004308ED00A1
:1006A0002400110801392000C3004308EE006E0346
:1006B000031D672B7708A03E8600023087000108E3
:1006C0002400910001302000C3004308F7070430E4
:1006D000C30043082100C400080096311826833166
:1006E000013A031DB82B2100C301EF3086002330EF
:1006F0008700760881009D308600233087004131D5
:1007000081019D3086002330870020006D08C03FA6
:10071000CA0150304A020318AF2B4A08203E860017
:10072000033087000108C3004A08C400C5019F3098
:10073000C6002330C70044084607C8004508473DA7
:10074000C900480886004908870043088100013035
:10075000C3004308CA0750304A02031C8D2BE03007
:100760009731DE278331F60196318E268331C72BF0
:10077000240011082000C3007608203E86000330C4
:100780008700430881000130C3004308F6070430A6
:100790002000C30043082100C4000800963104264D
:1007A0008331003A031DE22B7708A03E8600023019
:1007B000870001082400910001302000C300430895
:1007C000F707E72BF7012100C3018831002004302F
:1007D0002000C30043082100C400080024001516AF
:1007E0002100C401080021004408840005300402EF
:1007F00003180800903104353A3E820008002000BA
:10080000BB00BD0108303D020318472C2008F4004E
:100810003D03FF3A073E890A0E2CF436890B0D2C56
:1008200074080139F5003D08233E860087017508EC
:1008300081002108F4003D03FF3A073E890A212C7C
:10084000F436890B202C74080139F5003D082B3E45
:1008500086008701750881002208F4003D03FF3AF5
:10086000073E890A342CF436890B332C740801397D
:10087000F5003D08333E8600870175088100013090
:10088000F4007408BD0708303D02031C062C9531A6
:10089000C325833122000C110B30F5006230F400C7
:1008A000F40B502CF50B502C00002000BC013B0831
:1008B0003C020318D82CBD0108303D020318832CDC
:1008C0003D08233E860087010108031D712C22008C
:1008D0000C15003222000C110230F400F40B6E2CC7
:1008E0007A2C22000C1500320032003222000C114A
:1008F000003200000130F40074082000BD07083009
:100900003D02031C602CBD0108303D020318AB2CD6
:100910003D082B3E860087010108031D992C22000B
:100920000C15003222000C110230F400F40B962C4E
:10093000A22C22000C1500320032003222000C11D1
:10094000003200000130F40074082000BD070830B8
:100950003D02031C882CBD0108303D020318D32C36
:100960003D08333E860087010108031DC12C22008B
:100970000C15003222000C110230F400F40BBE2CD6
:10098000CA2C22000C1500320032003222000C1159
:10099000003200000130F40074082000BD07083068
:1009A0003D02031CB02C0130F4007408BC07572C26
:1009B0009531C62508002000BB00BD0108303D026E
:1009C0000318232D2008F4003D03FF3A073E890A4F
:1009D000EA2CF436890BE92C74080139F5003D083E
:1009E000233E86008701750881002108F4003D033D
:1009F000FF3A073E890AFD2CF436890BFC2C74085B
:100A00000139F5003D082B3E8600870175088100FD
:100A10002208F4003D03FF3A073E890A102DF43600
:100A2000890B0F2D74080139F5003D08333E86000F
:100A30008701750881000130F4007408BD07083093
:100A40003D02031CE22C9531C32584312000BC01FA
:100A50003B083C020318A92DBD0108303D020318D4
:100A6000542D3D08233E860087010108031D422DB9
:100A700022000E15003222000E110230F400F40B99
:100A80003F2D4B2D22000E15003200320032220085
:100A90000E11003200000130F40074082000BD0780
:100AA00008303D02031C312DBD0108303D02031802
:100AB0007C2D3D082B3E860087010108031D6A2D11
:100AC00022000E15003222000E110230F400F40B49
:100AD000672D732D22000E150032003200322200E5
:100AE0000E11003200000130F40074082000BD0730
:100AF00008303D02031C592DBD0108303D0203188A
:100B0000A42D3D08333E860087010108031D922D68
:100B100022000E15003222000E110230F400F40BF8
:100B20008F2D9B2D22000E15003200320032220044
:100B30000E11003200000130F40074082000BD07DF
:100B400008303D02031C812D0130F4007408BC07FD
:100B5000282D9531C62508002000BB00BD010830B6
:100B60003D020318F42D2008F4003D03FF3A073E30
:100B7000890ABB2DF436890BBA2D74080139F500AA
:100B80003D08233E86008701750881002108F40096
:100B90003D03FF3A073E890ACE2DF436890BCD2D51
:100BA00074080139F5003D082B3E86008701750861
:100BB00081002208F4003D03FF3A073E890AE12D37
:100BC000F436890BE02D74080139F5003D08333EF9
:100BD00086008701750881000130F4007408BD07A4
:100BE00008303D02031CB32D9531C325853120000B
:100BF000BC013B083C0203187A2EBD0108303D02BF
:100C00000318252E3D08233E860087010108031D99
:100C1000132E22008E14003222008E100230F400B7
:100C2000F40B102E1C2E22008E14003200320032E3
:100C300022008E10003200000130F4007408200001
:100C4000BD0708303D02031C022EBD0108303D02E5
:100C500003184D2E3D082B3E860087010108031D19
:100C60003B2E22008E14003222008E100230F4003F
:100C7000F40B382E442E22008E1400320032003243
:100C800022008E10003200000130F40074082000B1
:100C9000BD0708303D02031C2A2EBD0108303D026D
:100CA0000318752E3D08333E860087010108031D99
:100CB000632E22008E14003222008E100230F400C7
:100CC000F40B602E6C2E22008E14003200320032A3
:100CD00022008E10003200000130F4007408200061
:100CE000BD0708303D02031C522E0130F400740889
:100CF000BC07F92D9531C62508002000E901E9015E
:100D00000A30840090308500003F2200DA00013F65
:100D1000DB00200069082200DC00DD015B085D02C9
:100D2000031D942E5A085C0203180800200069086D
:100D30002200DA000230DA35FF3E031D9B2E5A35C1
:100D4000053E203E860001308700403FDB00413FEA
:100D5000DC00200069082200DD000230DD35FF3EA6
:100D6000031DAE2E5D35033E203E86000130870018
:100D7000403FDE00413FDF005C085F02031DC22EE2
:100D80005B085E02031C0E2F200069082200DA00B7
:100D90000230DA35FF3E031DC92E5A35033E203E90
:100DA0008600013087000030C03FC13F2000690845
:100DB0002200DA000230DA35FF3E031DDB2E5A3501
:100DC000023E203E8600013087008101810A20001A
:100DD00069082200DA000230DA35FF3E031DEC2EEE
:100DE0005A35073E203E8600013087000108DB00AF
:100DF0005B082000C20069082200DC000230DC35FC
:100E0000FF3E031DFF2E5C35203E8600013087002B
:100E1000413F8A00403F0A008731322F2000690895
:100E20002200DA000230DA35FF3E031D132F5A3557
:100E3000033E203E860001308700013081074131AA
:100E40000318810A200069082200DA000230DA352E
:100E5000FF3E031D272F5A35023E203E86000130FB
:100E60008700810101302200DA005A082000E907DA
:100E70000A30840090308500003F2200DA00013FF4
:100E8000882E2000BC000030C1000030C0000030BF
:100E9000BF000030BE003308B400B5013408A20022
:100EA0003508A3003208B600B7013608A00037089D
:100EB000A10097316327873120002008B80021085E
:100EC000B900BA01BB013B08A7003A08A6003908DF
:100ED000A5003808A4003008A8003108A900AA011C
:100EE000AB0189310A21873120002708C10026087B
:100EF000C0002508BF002408BE004108A300400828
:100F0000A2003F08A1003E08A0000030A7007A30F0
:100F1000A6001230A5000030A4008A31E3228731F8
:100F200020002308031DF32F2208031DF32F013097
:100F30002102031CE42FF32F4108A3004008A20064
:100F40003F08A1003E08A0000030A7007A30A600AC
:100F50001230A5000030A4008A31E322873120003E
:100F600020089B00F02F4108A3004008A2003F0882
:100F7000A1003E08A0000030A7007A30A600123081
:100F8000A5000030A4008A31E32287312000200828
:100F900028009600F02F20004108A3004008A2007E
:100FA0003F08A1003E08A0000030A7007A30A6004C
:100FB0001230A5000030A4008A31E32287312000DE
:100FC000200828009D00F02F20003C08023A031959
:100FD0009C2F063A0319B32F023A0319CB2FF02F97
:100FE0002000BD01F52FBD01BD0A3D080800953167
:100FF000CC25873197314A2787319531C62508009E
:10100000F50150307502031808007508A03E8600EF
:101010000230870081010130F4007408F5070128CF
:10102000F401F401200023087402031808002000D2
:101030002108A5002008A4007408240784002508BE
:101040000318250A85000008A60074082207A700D7
:101050002708860002308700260881000130A4009E
:101060002408F40712281734033400340034003401
:10107000013400340034D6341634003400340034E3
:10108000013400340034EB341634003400340034BE
:10109000643400340034DC34083400340034003468
:1010A0003234003400340A340E3400340034003456
:1010B0000A3400340034F500782820009110740CB4
:1010C0002100031C911003189114080020009310B4
:1010D000740C2100031C93100318931408002000C3
:1010E0009311740C2100031C93110318931508002D
:1010F0007508023A03195D28063A03196628023A70
:1011000003196F2883280800A22801302000C1009D
:1011100041082100C1070A304102031C080089313F
:101120003A212100C001C00A0800E6309731DE27CD
:1011300002302000C10041082100C00008008031B9
:101140009B20080021004008003A03198528013A35
:1011500003199528033A03199F28AE280800200098
:10116000200821040319D728F501F50AA11BC2287C
:101170000130A035A10D890BB9280130F4007408A5
:10118000F507B62821082302031DC82820082202DB
:10119000031CCE282008A2022108A33B0130A1365F
:1011A000A00C890BCF280130F502031DC2282308AB
:1011B000A1002208A0000800002921000E10220032
:1011C0000E1001308A3108220800EA302000C300E6
:1011D0004308AB00D130C4004408AC00DA30C5008D
:1011E0004508AD00013089316B212000C600220086
:1011F0000E0820004606FE39460622008E00080032
:1012000020006F08003A0319DD28013A0319E52888
:101210000929080000302000AF000030AE00003087
:10122000AD000030AC00241C1D292808AC0729089B
:10123000AD3D2A08AE3D2B08AF3D0130A835A90DC4
:10124000AA0DAB0D890B1E290130A736A60CA50CE3
:10125000A40C890B25292708260425042404031D32
:1012600013292F08A7002E08A6002D08A5002C087A
:10127000A4000800031020008E1E03140030093D56
:10128000F4000230F435FF3E031D42297435F500A9
:101290007508F80403100E1E03140030093DF40015
:1012A0000130F435FF3E031D51297435F5007508F2
:1012B000F80403108E1D03140030093D0907F400E3
:1012C0007408F80403100E1F03140030093DF400E5
:1012D0007408F80408002000B000B1018929B101A8
:1012E0009A29B101B10A9A292C088D317A258931C0
:1012F0002000AE002E0887293008AE002E08A70077
:101300002D088B31982389312000AF002F08B100C0
:101310009A292B08860087010108003A03196F29D2
:10132000013A03197129033A03197429013A03197F
:101330007C299A29310808002000A501A60120086F
:1013400021040319CC29A401A40AA11BB12901304D
:10135000A035A10D890BA8290130F4007408A40759
:10136000A5290130A535A60D890BB2292108230234
:10137000031DBC2920082202031CC3292008A20245
:101380002108A33B25140130A136A00C890BC429E8
:101390000130A402031DB1292608A1002508A000E0
:1013A0000800F400740886008701010C2100031C6A
:1013B0001D1003181D14740A86008701010C031CFC
:1013C0009E1303189E177408023E86008701010CC5
:1013D000031C1E1203181E167408033E86008701A4
:1013E000010C031C1E1103181E157408043E860010
:1013F00087011E080106FC3901069E007408053E9F
:1014000086008701010C031C111303181117080033
:101410002000A5003B2AF401013096315E26F90137
:1014200008006430F4000030F500013096317E266B
:10143000F901F90A080032302000A0000030A100B4
:10144000B630A2000330A3000130973131278A3132
:1014500002302000A4002408F400013096315E26FA
:1014600002302000A4002408F90008000330A40082
:101470002408F90008002508003A03190B2A013A4C
:101480000319112A033A03191B2A013A0319362AB0
:10149000492A08002000C40042088600870101088C
:1014A000C3004308F400420886008701413FF5006D
:1014B00044088C3171248A3120004208023E8600A3
:1014C00087010103031D672AF401F40A692AF40164
:1014D0002000440888315B208A3120004208033E06
:1014E00086008701403FB000413FB10042088600BE
:1014F00087010108C3004308B20042088600870143
:10150000413FB3004408873141278A31013A03192A
:10151000882A20004208053E860087010103031D3A
:10152000080044089731012708002100EC01EC0174
:101530000A30840090308500003F2000E900013F20
:10154000EA0021006C082000EB00EC016A086C0244
:10155000031DAC2A69086B020318080021006C08FF
:101560002000E9000230E935FF3E031DB32A69354A
:10157000073E203E8600013087000108EA006A0825
:10158000C20021006C082000EB000230EB35FF3E6A
:10159000031DC62A6B35203E860001308700413F7F
:1015A0008A00403F0A008A3101302000E9006908C2
:1015B0002100EC070A30840090308500003F2000B5
:1015C000E900013FA02A00302000AB000030AA0053
:1015D0000030A9000030A8002308220421042004C0
:1015E00003192D2BAC01AC0AA31B022B0130A03533
:1015F000A10DA20DA30D890BF72A0130F400740888
:10160000AC07F42A0130A835A90DAA0DAB0D890B42
:10161000032B23082702031D172B22082602031D74
:10162000172B21082502031D172B20082402031C59
:10163000222B2008A4022108A53B2208A63B230850
:10164000A73B28140130A336A20CA10CA00C890BD7
:10165000232B0130AC02031D022B2B08A3002A0808
:10166000A2002908A1002808A00008002000AF005F
:101670002808AD002708AC002A08A1002908A0000E
:101680002D08A3002C08A20089319C218B31200059
:101690002108AD002008AC000130AB002B08AF07DB
:1016A0002C082D04031D3C2B2F0886008701810187
:1016B0000130AF022A08A1002908A0002808A300D1
:1016C0002708A2008831AF208B3120002008AB0012
:1016D0002B08AE002A08A1002908A0002808A300B2
:1016E0002708A20089319C218B3120002108A80005
:1016F0002008A7000A302E02031C822B0730AB0003
:101700002B08AE073030AB002B08AE072E08AB001D
:101710002F08860087012B0881000130AF022708BF
:101720002804031D5A2B0130AB002B08AF0708001B
:101730002000AA00EC2B2A0A860087018101810A79
:101740002A08860087018101810AFB2B2A08023EB4
:10175000860087010130810741310318810A323048
:10176000A0000030A1002A08043E86008701403F07
:10177000A200413FA30089319C218B3120002A081F
:10178000023E86008701403FA800413FA900210892
:101790002902031DCD2B20082802031CFB2B2A083D
:1017A000023E860087010030C03FC13F0230A800E2
:1017B0002A088600870128088100FB2B2A0A860058
:1017C000870181012A08860087018101F401270829
:1017D00096315E268B31FB2B20002A08860087017C
:1017E0000108003A03199B2B013A0319A62B033A6F
:1017F0000319DE2BFB2B20002A0A86008701010833
:101800000800F40023008C01740886008701010C95
:10181000031C0C1003180C14740A86008701010CB9
:10182000031C8C1003188C147408023E8600870178
:10183000010C031C0C1103180C157408033E8600E0
:101840008701010C031C0C1203180C168D0174087F
:10185000043E86008701010C031C0D1203180D16AF
:101860007408053E86008701010C031C8D120318C5
:101870008D168E017408063E86008701010C031C3C
:101880000E1003180E147408073E86008701010C21
:10189000031C8E1003188E147408083E86008701FE
:1018A000010C031C0E1103180E157408093E860066
:1018B0008701010C031C8E1103188E1574080A3E53
:1018C00086008701010C031C0E1303180E17740801
:1018D0000B3E86008701010C031C8E1303188E1724
:1018E00008002000A100DF2C1C10772C1C149C1079
:1018F000872C1C109C14872C7408013A0319742C33
:10190000053A0319762C143A0319792C872C75089B
:10191000FF3EA000A00DA00DA00D1C0820068739D9
:1019200020069C00080028001710982C2800171487
:101930009710A92C280017109714A92C7408013AA5
:101940000319932C053A0319962C143A03199A2C6F
:10195000A92C7508FF3E2000A000A00DA00DA00D31
:101960002800170820002006873920062800970045
:10197000080028001E10BE2C28001E149E10CF2C1C
:1019800028001E109E14CF2C7408013A0319B92C9C
:10199000053A0319BC2C143A0319C02CCF2C750836
:1019A000FF3E2000A000A00DA00DA00D28001E08E5
:1019B000200020068739200628009E00080020000D
:1019C0002108023A03197C2C063A03199E2C023A8C
:1019D0000319C42CEB2C08002000A901702DE6305F
:1019E0009731BD278C31003A0319080078089531EA
:1019F000D3258C317F309531D8252100C201C20A10
:101A00000800E0309731BD278C31003A0319532D7F
:101A10009D30860023308700010878060319172DB2
:101A20009D308600233087000108031D08009D308B
:101A300086002330870041310108031D0800200083
:101A4000A901503029020318432D2908A400A5013B
:101A50009F30A6002330A70024082607860025080B
:101A6000273D87000108A8002908A03E8600013014
:101A70008700280881000130A4002408A9075030FD
:101A80002902031C252DE8309731DE278C3179039C
:101A9000031D080003302000A4002408F4000130D6
:101AA00096315E260800E4309731BD278C31003A2C
:101AB00003190800210045082000A4002408F400B0
:101AC000203097317F278C317903031D08000330C4
:101AD0002000A4002408F400013096315E2608009E
:101AE00021004208003A0319EF2C013A0319012D95
:101AF000792D0800F500FA2D7508083E860087014B
:101B000001082000A700750A8600870127088100C8
:101B10007508C22D7508023E8600870101308107D5
:101B200041310318810A750A860087010108031DE7
:101B3000C72D32302000A0000030A1007508063EFD
:101B400086008701403FA200413FA30089319C21CC
:101B50008D317508023E86008701403F2000A700B6
:101B6000413FA80021082802031DB82D20082702A4
:101B7000031C052E7508023E860087010030C03F19
:101B8000C13F750A860087018101810A052E750A09
:101B9000860087010103031D052E32302000A000BE
:101BA0000030A1007508043E86008701403FA20076
:101BB000413FA30089319C218D317508023E86008A
:101BC0008701403F2000A700413FA80021082802CC
:101BD000031DEC2D20082702031C052E7508023E6C
:101BE000860087010030C03FC13F750A860087012B
:101BF0008101052E7508860087010108003A031946
:101C00007C2D013A03198A2D052E750A860087015D
:101C100001080800483086000130870057308400F2
:101C20000030850012302000C30016001A00C30BDC
:101C3000152EA0308600003087004430840000302C
:101C400085000C30C30016001A00C30B232EA42EEF
:101C500021000C118E100E1122000C118E100E118D
:101C600021000E178E150E168E162000E701E70ACA
:101C7000E401E40AE501E50AE601E60A57308E319F
:101C8000AE268E3100309531FC258E3144308C31BA
:101C900001248E3101309531F4258E31003095319B
:101CA000EC258E3103302000C3004308D300D60159
:101CB000D401D501D201D20AD101D10A51308931E2
:101CC000D1218E312000D0010330500203180800CA
:101CD0005008C3000130C335FF3E031D6B2E433552
:101CE000AC3E860087018101810A5008C3000130A3
:101CF000C335FF3E031D782E4335013EAC3E8600C2
:101D0000870181015008C3000130C335FF3E031D28
:101D1000852E4335023EAC3E860087018101500886
:101D2000C3000130C335FF3E031D922E4335033EF1
:101D3000AC3E8600870181010130C3004308D00713
:101D4000642E88318420080020006F08003A0319AF
:101D5000282E013A0319A12EAD2E0800F40024000C
:101D60008C01740886008701010C031C0C100318F9
:101D70000C14740A86008701010C031C8C100318D4
:101D80008C147408023E86008701010C031C0C11A0
:101D900003180C157408033E86008701010C031C10
:101DA0008C1103188C157408043E86008701010C01
:101DB000031C0C1203180C167408053E86008701DC
:101DC000010C031C8C1203188C168D017408063E3E
:101DD00086008701010C031C0D1203180D167408F0
:101DE000073E86008701010C031C8D1203188D1617
:101DF0007408083E86008701010C031C0D130318AC
:101E00000D177408093E86008701010C031C8D1311
:101E100003188D178E0174080A3E86008701010C95
:101E2000031C0E1003180E1474080B3E8600870165
:101E3000010C031C8E1003188E1474080C3E8600CF
:101E40008701010C031C0E1103180E1574080D3EBA
:101E500086008701010C031C8E1103188E1574086F
:101E60000E3E86008701010C031C0E1203180E168D
:101E700074080F3E86008701010C031C8E120318A4
:101E80008E167408103E86008701010C031C0E1389
:101E900003180E177408113E86008701010C031CFD
:101EA0008E1303188E1708002000A20021008E1444
:101EB0000E1420002208860087010108A0002008D7
:101EC000240095042000220A860087010108A00052
:101ED0000230A035FF3E031D692F2035A1002108E7
:101EE0002400960420002208033E86008701010892
:101EF000A000200824009604200022080A3E860044
:101F000087010108A0000630A035FF3E031D842F85
:101F10002035A10021082400960420002208043E58
:101F2000860087010108A0000530A035FF3E031D93
:101F3000952F2035A10021082400970420002208B5
:101F4000053E860087010108A0000430A035FF3E51
:101F5000031DA62F2035A10021082400970420008E
:101F60002208063E860087010108A0000330A03544
:101F7000FF3E031DB72F2035A10021082400970440
:101F800020002208073E860087010108A0000130DA
:101F9000A035FF3E031DC82F2035A10021082400D5
:101FA000970420002208083E860087010135A00022
:101FB00020082400970420002208093E860087019B
:101FC0000108A00020082400970420002208023EF7
:101FD000860087010108A0000430A035FF3E031DE4
:101FE000ED2F2035A1002108240095042000911137
:101FF0002100911596318E268F31883100200800FE
:10200000013400340A34003464340034E8340334D6
:102010001034273405340034303431342E34303425
:1020200031342E34303430340034253464342E349A
:10203000253430343134753400345334423431343F
:102040003234303400344534433448344F3400346F
:102050008031A62881310229813118298131202936
:1020600081317C298131922981319A298131F62966
:1020700082310C2A8331182B8331462B83316D2B0F
:082080008331CE2B8331EE2BDE
:102B7E0001340134010008008B130B1308008B176E
:102B8E000B17080021009D1408002100991708005A
:102B9E0021001D0C01390800F40074352400920048
:102BAE000800F40074352400930008008731F727DD
:102BBE00953196319E2680312B28F400740C21001D
:102BCE00031C1710031817140800F400740C2200CD
:102BDE00031C1712031817160800F400740C2200B9
:102BEE00031C9712031897160800F400740C2100AA
:102BFE00031C951303189517080024001608F400FB
:102C0E000630F436890B082E7408013908002400AA
:102C1E001408F4000530F436890B122E74080139AD
:102C2E00080024001408F4000430F436890B1C2E1E
:102C3E00740801390800F5007508F400F40D210040
:102C4E0017087406C139740697000800F500750858
:102C5E00F400F40DF40D21001D087406833974067A
:102C6E009D0008006400800101310130FE02003039
:102C7E00FF3B7F087E04031900343A2EFE0012003B
:102C8E001E000130FE020030FF3B7F087E04031958
:102C9E000034462E22008C018D018E0100309531BC
:102CAE00E4259631630001309531E42508002000BB
:102CBE00A000672E7408F50075082100EA000800D0
:102CCE0020002008013A0319612E6D2E08000330F2
:102CDE0021001C052000A0002008A20021001B08D6
:102CEE002000A1002208F5002108F40008002000B1
:102CFE00A000872E75082100DF007408DE00080092
:102D0E0020002008013A0319812E8D2E0800F501AE
:102D1E0050307502031808007508203E86000330F7
:102D2E00870081010130F4007408F5078F2E8A3177
:102D3E00952296312000EF01EF0A21006B08031D4A
:102D4E00A42E86317D2696312100EB01EB0AA42EAE
:102D5E0003307906031D080023002103031DBD2E39
:102D6E00F401F40A013096315E260800F4010130B8
:102D7E0096315E2608000630F40074082100C60065
:102D8E00C701C801C80AC901CA01CA0ACB01CB0AC8
:102D9E00CC01CD01CE01CF01D001D00A0800E12E29
:102DAE009631C2269631C6308F31542708008C31A9
:102DBE00EC24080020006F08003A0319D72E013AC0
:102DCE000319DE2EEA2E0800F72E0B30963122263E
:102DDE00963101309531E42508008031022008003B
:102DEE0020006F08003A0319EC2E013A0319F42E55
:102DFE00002F0800F4000C2F20001C1508002800DE
:102E0E001715080028001E1508007408023A031949
:102E1E00032F063A0319062F023A0319092F172F0B
:102E2E0008001D3096312D2697319531C9259731E1
:102E3E009531CF259731003A03191F2F96316E2603
:102E4E0075082000A6007408A5002608A400250811
:102E5E00A3000800F400442F200021082100D60012
:102E6E00200020082100D500200023082100D800D2
:102E7E00200022082100D70008007408013A031927
:102E8E00332F492F080010302000C5004508C6001A
:102E9E000430C5004508C700C801C80AE830C9009B
:102EAE000330CA00CB01CB0A4630C5004508C2002C
:102EBE0002308A314A220800F401F5012000201C5C
:102ECE006C2F2208F4072308F53D0130A235A30D1F
:102EDE00890B6D2F0130A136A00C890B722F2008A3
:102EEE002104031D652F7508A1007408A0000800B9
:102EFE002000A200A301A3017408230203180800F6
:102F0E0023082207A000200886000230870001084F
:102F1E00A1002308A03E8600023087002108810010
:102F2E000130A0002008A307832FF100F2017108E1
:102F3E0086008701023001060319B82F710886003A
:102F4E008701033001060319B82F0230F000710A11
:102F5E0086008701700881000230F0007008F200D0
:102F6E0008000330F0007008F2000800F500F401CC
:102F7E0075088600870101030319DC2F750886008A
:102F8E008701033001060319DC2F750A86008701BD
:102F9E0002300106031DDB2F750A860087018101B1
:102FAE00810AF401F40ADC2FF401740808002000F1
:102FBE00A100A00121088600870102300106031935
:102FCE00FB2F210886008701033001060319FB2F12
:102FDE000230F400210A8600870174088100023055
:102FEE00F4007408A00008000330F4007408A00078
:022FFE000800C9
:020000040001F9
:04000E00EAFFFFDF27
:00000001FF
