:1000000080312B28640008007E14803120007F0896
:10001000F300911C1C282100911C1C282000911029
:1000200001302100A0070030A13D20082104031960
:100030001C28A001A101EE012100911D262820000D
:10004000911D26289111E7308931B12173082000D4
:10005000FF007E10090080312D289731B6278031AE
:10006000F90021009731B5278031EE003830840047
:100070008A30850020308600013087000030FF0084
:10008000283088314A2080319D308400233085001B
:100090005330FE000030FF0088313E208031F601F1
:1000A000F701F80163308400003085000B30FE005A
:1000B0000030FF0088313E208031A03084000030C5
:1000C00085004E30FE000030FF0088313E20803138
:1000D00048308400013085002730FE000030FF00EA
:1000E00088313E208031A0308400013085005030BE
:1000F000FE000030FF0088313E2080312030840037
:10010000023085005030FE000030FF0088313E2074
:100110008031A0308400023085005030FE00003075
:10012000FF0088313E20803120308400033085007C
:100130005030FE000030FF0088313E207E1020004D
:100140009731CF2F742923302000A0009030A100D8
:100150002030B0003008A2000430B1003108A30004
:100160008A311522803104302000B000300821008F
:10017000AB006C308931F32108001D302000A00055
:100180009030A1002030B0003008A2000530B1004E
:100190003108A3008A311522803105302000B000DB
:1001A00030082100AB006C308931F32108000C309D
:1001B0002000A0009030A1002030B0003008A20044
:1001C0000830B1003108A3008A311522803108308F
:1001D0002000B00030082100AB006C308931F321E1
:1001E00008000C302000A0009030A1002030B000AA
:1001F0003008A2000830B1003108A3008A3115226E
:10020000803108302000B00030082100AB006C3095
:100210008931F32108009731B7270800883156202B
:100220000800230021088C313C2408008831C420B8
:10023000080089312D21803120002408B7002308CF
:10024000B6003708B00030082400A00020003608AF
:10025000B00030082400A10002302000B0003008B7
:100260002100AB006C308931F321080089312D2148
:10027000803120002408B7002308B6003708B100F9
:100280003608B000B136B00CB136B00CB136B00C97
:100290003008D83EB600FF30313DB7003708A8001F
:1002A0003608A7000A30A9000030AA0032308D318C
:1002B000BD25803132302000A0000030A100203068
:1002C000B0003008A2000230B1003108A3008A312A
:1002D0001522803102302000B00030082100AB0030
:1002E0006C308931F321080023002008103A0319EB
:1002F000A328303A0319BD28013A0319D728033A35
:100300000319F128123A03190B29013A03190E298E
:10031000703A03191129033A03191629073A0319E8
:100320001929033A0319362995290800EB30893138
:10033000D2218131003A031908008031A220813195
:10034000682A8D3117250800230021082000B800F5
:10035000B9013808B900B801380823002204210087
:10036000BC00200039082100BD00BF308931F321D5
:100370000800230021082000B800B9013808B9009E
:10038000B8013808230022042100C60020003908E3
:100390002100C700C9308931F3210800230021085A
:1003A0002000B800B9013808B900B80138082300A6
:1003B00022042100D000200039082100D100D330D0
:1003C0008931F3210800230021082000B800B90179
:1003D0003808B900B8013808230022042100DA00E7
:1003E000200039082100DB00DD308931F3210800CD
:1003F000230021082000B800B9013808B900B8016D
:100400003808230022042100BC0020003908210004
:10041000BD00230021082000B800B9013808B90048
:10042000B8013808230022042100C6002000390842
:100430002100C700230021082000B800B9013808B6
:10044000B900B8013808230022042100D0002000A0
:1004500039082100D100230021082000B800B9018B
:100460003808B900B8013808230022042100DA0056
:10047000200039082100DB00BF308931F3218131B0
:10048000C9308931F3218131D3308931F321813170
:10049000DD308931F321080020006A08B8000330FC
:1004A000B835890B502A6908B9000230B935890B73
:1004B000562A7735390438047604BA003A082400FD
:1004C000A0002100AB01AB0A6C308931F321080098
:1004D00023002008503A0319A129013A0319A4293D
:1004E000033A0319B929013A0319CE29073A031926
:1004F000E329013A0319F829353A03194C2A812ACC
:1005000008000800582BE7308931D2218231003AA7
:1005100003190800883113208231003A031D962AFE
:100520002000E401E40AE501E50A0800883113200F
:100530008231013A031D080020006403031D0800F6
:100540006608031DA82A0230BD003D08E50008002A
:100550000330BD003D08E50008002400110820001C
:10056000BD003D08E3006336BD003D08E300240004
:10057000110801392000BD003D08E6006603031D97
:10058000CE2A6808A03E86000230870001082400B9
:10059000910001302000BD003D08E8070430BD0097
:1005A0003D08E500080088311D208231013A031D15
:1005B0001E2B2000E401EF308600233087006708FF
:1005C00081009D30860023308700413181019D30BC
:1005D0008600233087006308C03FC40150304402C6
:1005E0000318142B4408203E8600033087000108BE
:1005F000BD004408BE00BF019F30C0002330C100D1
:100600003E084007C2003F08413DC3004208860043
:10061000430887003D0881000130BD003D08C40744
:1006200050304402031CF22AE5308931F321823133
:100630002000E7018831932082312D2B24001108FE
:100640002000BD006708203E8600033087003D087B
:1006500081000130BD003D08E70704302000BD00E7
:100660003D08E50008009731F6278231003A031D66
:10067000482B20006808A03E860002308700010851
:100680002400910001302000BD003D08E8074D2BFB
:100690002000E801E4018831A32004302000BD00DF
:1006A0003D08E5000800240015162000E5010800BB
:1006B0002000650884000530040203180800883112
:1006C0000435003E820008002000E201E2010A3009
:1006D000840090308500003F2700A000013FA1006A
:1006E000200062082700A200A30121082302031DA5
:1006F0007B2B200822020318080020006208270034
:10070000A0000230A035FF3E031D822B2035053EA0
:10071000203E860001308700403FA100413FA200FB
:10072000200062082700A3000230A335FF3E031D0E
:10073000952B2335033E203E860001308700403F45
:10074000A400413FA50022082502031DA92B210872
:100750002402031CF52B200062082700A0000230B1
:10076000A035FF3E031DB02B2035033E203E860002
:10077000013087000030C03FC13F200062082700E1
:10078000A0000230A035FF3E031DC22B2035023EE3
:10079000203E8600013087008101810A2000620826
:1007A0002700A0000230A035FF3E031DD32B2035CB
:1007B000073E203E8600013087000108A100210885
:1007C0002000BC0062082700A2000230A235FF3ED4
:1007D000031DE62B2235203E860001308700413F75
:1007E0008A00403F0A008331192C2000620827004C
:1007F000A0000230A035FF3E031DFA2B2035033E3A
:10080000203E860001308700013081074131031806
:10081000810A200062082700A0000230A035FF3EB8
:10082000031D0E2C2035023E203E8600013087003D
:10083000810101302700A00020082000E2070A30D3
:10084000840090308500003F2700A000013F6F2BFF
:100850002000BC000030C1000030C0000030BF00EC
:100860000030BE003308B400B5013408A2003508DA
:10087000A3003208B600B7013608A0003708A1006F
:1008800089317821843120002008B8002108B9007E
:10089000BA01BB013B08A7003A08A6003908A50029
:1008A0003808A4003008A8003108A900AA01AB014B
:1008B0008B313E23843120002708C1002608C00068
:1008C0002508BF002408BE004108A3004008A2007C
:1008D0003F08A1003E08A0000030A7003D30A60060
:1008E0000930A5000030A4008D316A258431200034
:1008F0002308031DDA2C2208031DDA2C0130210203
:10090000031CCB2CDA2C4108A3004008A2003F08AE
:10091000A1003E08A0000030A7003D30A60009302D
:10092000A5000030A4008D316A2584312000200804
:100930009B00D72C4108A3004008A2003F08A1005B
:100940003E08A0000030A7003D30A6000930A500F9
:100950000030A4008D316A25843120002008280051
:100960009600D72C20004108A3004008A2003F08B1
:10097000A1003E08A0000030A7003D30A6000930CD
:10098000A5000030A4008D316A25843120002008A4
:1009900028009D00D72C20003C08023A0319832C24
:1009A000063A03199A2C023A0319B22CD72C2000CC
:1009B000BD01DC2CBD01BD0A3D08080048308600A1
:1009C0000130870050308400003085001230200054
:1009D000BD0016001A00BD0BE92C5A30860001300C
:1009E00087003E308400003085000C30BD001600CA
:1009F0001A00BD0BF72C852D21008E128C120C11C4
:100A00000E1322008E128C120C110E1321000C16E4
:100A10000E168E158E172000D401D40ADE01DE0AD0
:100A2000DD01DD0AE101E10A503086313B268431E7
:100A300000309731EE2784313E308E318826843164
:100A400001309731E627843100309731DE27843139
:100A500003302000BD003D08CC00CF01CD01CE0108
:100A6000CB01CB0ACA01CA0A4A308C310524843131
:100A70002100B701B801B901BA01BB01BC01BD0138
:100A8000BE01BE0ABF01C001C101C201C301C40150
:100A9000C501C601C70102302000BD003D0821008C
:100AA000C800C901CA01CB01CC01CD01CE01CF01E3
:100AB000D001D10103302000BD003D082100D2004B
:100AC000D301D401D501D601D701D801D901DA016A
:100AD000DB0104302000BD003D082100DC00DD0109
:100AE000DE0108008A3189228431B7308E31F82640
:100AF0008431C1308E31F8268431CB308E31F826E6
:100B00008431D5308E31F826080020006B08003A79
:100B10000319FC2C013A0319722D8E2D08002000B8
:100B2000A20021000D170D16200022088600870163
:100B30000108A0002008240095042000220A860055
:100B400087010108A0000230A035FF3E031DA42D3F
:100B50002035A10021082400960420002208033E2D
:100B6000860087010108A0002008240096042000C8
:100B700022080A3E860087010108A0000630A03541
:100B8000FF3E031DBF2D2035A1002108240096043F
:100B900020002208043E860087010108A0000530DD
:100BA000A035FF3E031DD02D2035A10021082400D3
:100BB000970420002208053E860087010108A00056
:100BC0000430A035FF3E031DE12D2035A100210892
:100BD0002400970420002208063E860087010108B1
:100BE000A0000330A035FF3E031DF22D2035A100EB
:100BF00021082400970420002208073E8600870170
:100C00000108A0000130A035FF3E031D032E203552
:100C1000A10021082400970420002208083E860035
:100C200087010135A0002008240097042000220835
:100C3000093E860087010108A000200824009704CF
:100C400020002208023E860087010108A00004302F
:100C5000A035FF3E031D282E2035A10021082400C9
:100C60009504200091112100911588319320853140
:100C70008831A3200800F40024008C017408860049
:100C80008701010C031C0C1003180C14740A860055
:100C90008701010C031C8C1003188C147408023E8D
:100CA00086008701010C031C0C1103180C15740835
:100CB000033E86008701010C031C8C1103188C1560
:100CC0007408043E86008701010C031C0C120318F3
:100CD0000C167408053E86008701010C031C8C125B
:100CE00003188C168D017408063E86008701010CDE
:100CF000031C0D1203180D167408073E86008701A9
:100D0000010C031C8D1203188D167408083E860012
:100D10008701010C031C0D1303180D177408093EFD
:100D200086008701010C031C8D1303188D178E019B
:100D300074080A3E86008701010C031C0E1003187C
:100D40000E1474080B3E86008701010C031C8E10E4
:100D500003188E1474080C3E86008701010C031CD6
:100D60000E1103180E1574080D3E86008701010C44
:100D7000031C8E1103188E1574080E3E8600870121
:100D8000010C031C0E1203180E1674080F3E860089
:100D90008701010C031C8E1203188E167408103E76
:100DA00086008701010C031C0E1303180E1774082C
:100DB000113E86008701010C031C8E1303188E1749
:100DC0000800F5006E2F7508083E86000130870088
:100DD00001082000A700750A860001308700270857
:100DE00081007508302F7508023E860001308700AB
:100DF0000130810741310318810A750A86000130EC
:100E000087000108031D362F32302000A00000307B
:100E1000A1007508063E860001308700403FA20011
:100E2000413FA3008B31D02386317508023E8600F6
:100E300001308700403F2000A700413FA800210863
:100E40002802031D252F20082702031C7A2F75086E
:100E5000023E8600013087000030C03FC13F750A66
:100E60008600013087008101810A7A2F750A860089
:100E7000013087000103031D7A2F32302000A000CB
:100E80000030A1007508043E860001308700403F15
:100E9000A200413FA3008B31D02386317508023E6A
:100EA000860001308700403F2000A700413FA80096
:100EB00021082802031D5E2F20082702031C7A2F19
:100EC0007508023E8600013087000030C03FC13FF8
:100ED000750A86000130870081017A2F7508860027
:100EE000013087000108003A0319E32E013A031983
:100EF000F32E7A2F750A860001308700010808005A
:100F00002000A100EE2F1C10862F1C149C10962F81
:100F10001C109C14962F7408013A0319832F053A6C
:100F20000319852F143A0319882F962F7508FF3E51
:100F3000A000A00DA00DA00D1C08200687392006DA
:100F40009C00080028001710A72F280017149710DE
:100F5000B82F280017109714B82F7408013A0319F6
:100F6000A22F053A0319A52F143A0319A92FB82F58
:100F70007508FF3E2000A000A00DA00DA00D2800C8
:100F8000170820002006873920062800970008004F
:100F900028001E10CD2F28001E149E10DE2F2800C2
:100FA0001E109E14DE2F7408013A0319C82F053A4B
:100FB0000319CB2F143A0319CF2FDE2F7508FF3EEC
:100FC0002000A000A00DA00DA00D28001E082000EC
:100FD00020068739200628009E00080020002108EE
:100FE000023A03198B2F063A0319AD2F023A03195F
:100FF000D32FFA2F0800F400743524009300080062
:101000008231832A8231AD2A8231D32A8331332B34
:101010008331532B9731C827883189315F2188313B
:101020009731BC27080024001408F4000530F4367A
:10103000890B172874080139080024001408F400EB
:101040000430F436890B2128740801390800F500B2
:101050007508F400F40D210017087406C1397406F0
:1010600097000800F5007508F400F40DF40D210058
:101070001D087406833974069D0008006400800111
:1010800001310130FE020030FF3B7F087E0403196E
:1010900000343F28FE0012001E000130FE02003026
:1010A000FF3B7F087E04031900344B2822008C018B
:1010B0008D018E0100309731D627883163000130D1
:1010C0009731D62708002000A0006C287408F5008E
:1010D00075082100ED00080020002008013A0319DE
:1010E000662872280800033021001C052000A0009B
:1010F0002008A20021001B082000A1002208F50002
:101100002108F40008002000A0008C2875082100A8
:10111000E4007408E300080020002008013A0319E5
:10112000862892280800F50150307502031808003F
:101130007508203E86000330870081010130F400ED
:101140007408F5079428F50150307502031808005B
:101150007508A03E86000230870081010130F4004E
:101160007408F507A4288C31C92488312000EB01CC
:10117000EB0A21006E08031DB928833164238831EE
:101180002100EE01EE0AB92803307906031D08009C
:1011900023002103031DD228F401F40A0130883111
:1011A00063200800F4010130883163200800063014
:1011B000F40074082100AC00AD01AE01AE0AAF012D
:1011C000B001B00AB101B10AB201B301B401B50175
:1011D000B601B60A0800F6288831D7208831AC302D
:1011E00085318F2508008F317227080020006B0899
:1011F000003A0319EC28013A0319F328FF280800E4
:101200000C290B3088312720893101309731D627BE
:10121000080080310220080020006B08003A031902
:101220000129013A0319092915290800F400212987
:1012300020001C15080028001715080028001E159E
:1012400008007408023A03191829063A03191B29E1
:10125000023A03191E292C2908001D30883132203A
:1012600089319731B92789319731BF278931003AC0
:10127000031934298831732075082000A6007408EA
:10128000A5002608A4002508A3000800F400592999
:10129000200021082200EB00200020082200EA00A4
:1012A000200023082200ED00200022082200EC008C
:1012B00008007408013A031948295E290800103013
:1012C0002000C5004508C6000430C5004508C70019
:1012D000C801C80AE830C9000330CA00CB01CB0AF4
:1012E0004630C5004508C20002308C317E2408001B
:1012F000F401F5012000201C81292208F4072308AD
:10130000F53D0130A235A30D890B82290130A136AC
:10131000A00C890B872920082104031D7A29750850
:10132000A1007408A00008002000A200A301A301EE
:10133000740823020318080023082207A0002008CD
:101340008600023087000108A1002308A03E860025
:1013500002308700210881000130A0002008A30787
:101360009829F100F2017108860087010230010618
:101370000319CD297108860087010330010603197E
:10138000CD290230F000710A8600870170088100C3
:101390000230F0007008F20008000330F00070081E
:1013A000F2000800F500F4017508860087010103CA
:1013B0000319F12975088600870103300106031916
:1013C000F129750A8600870102300106031DF02904
:1013D000750A860087018101810AF401F40AF12966
:1013E000F401740808002000A100A0012108860073
:1013F0008701023001060319102A2108860087019F
:10140000033001060319102A0230F400210A860075
:101410008701740881000230F4007408A0000800FD
:101420000330F4007408A0000800F401F401200067
:10143000230874020318080020002108A5002008D2
:10144000A40074082407840025080318250A8500D1
:101450000008A60074082207A700270886000230AB
:101460008700260881000130A4002408F407172A09
:101470008234023400340034003401340034003447
:10148000EB340834003400340034013400340034C8
:10149000003409340034003400346434003400343F
:1014A0000E340B3400340034003432340034003451
:1014B000DE3404340034003400340A3400340034A0
:1014C000F5007D2A20009110740C2100031C91105E
:1014D00003189114080020009310740C2100031CC1
:1014E000931003189314080020009311740C21002A
:1014F000031C93110318931508007508023A031989
:10150000622A063A03196B2A023A0319742A882AB6
:101510000800A72A01302000BB003B082100A907D2
:101520000A302902031C08008B316E232100A80118
:10153000A80A0800E9308931F32102302000BB00FD
:101540003B082100A80008008131962108002100F5
:101550002808003A03198A2A013A03199A2A033AF9
:101560000319A42AB32A0800200020082104031923
:10157000DC2AF501F50AA11BC72A0130A035A10D0F
:10158000890BBE2A0130F4007408F507BB2A210834
:101590002302031DCD2A20082202031CD32A20087F
:1015A000A2022108A33B0130A136A00C890BD42A4A
:1015B0000130F502031DC72A2308A1002208A0005C
:1015C0000800F500FF2A740C2200031C8E12031879
:1015D0008E160800740C2200031C8C1203188C1643
:1015E0000800740C2200031C0C1103180C150800D1
:1015F000740C2200031C0E1303180E170800750844
:10160000013A0319E32A033A0319EA2A013A0319B2
:10161000F12A073A0319F82A0D2B0800342B210070
:101620008D1322008D1301308C313C240800ED30E5
:101630002000BD003D08AB006630BE003E08AC0097
:10164000DF30BF003F08AD0001308B319F23200009
:10165000C000C00CC00C22000D08200040067F39DD
:10166000400622008D00080020006B08003A031994
:101670000F2B013A0319172B3D2B080000302000D7
:10168000AF000030AE000030AD000030AC00241CD4
:10169000512B2808AC072908AD3D2A08AE3D2B0880
:1016A000AF3D0130A835A90DAA0DAB0D890B522B0A
:1016B0000130A736A60CA50CA40C890B592B2708C2
:1016C000260425042404031D472B2F08A7002E08F9
:1016D000A6002D08A5002C08A40008000310200077
:1016E0008E1F03140030093DF4000230F435FF3E34
:1016F000031D762B7435F5007508F80403108E1D54
:1017000003140030093DF4000130F435FF3E031DA1
:10171000852B7435F5007508F80403100E1E0314AC
:101720000030093D0907F4007408F80403100C1E8A
:1017300003140030093DF4007408F8040800200088
:10174000B000B101BD2BB101CE2BB101B10ACE2B3E
:101750002C088631E1268B312000AE002E08BB2BF1
:101760003008AE002E08A7002D088E311F268B31C1
:101770002000AF002F08B100CE2B2B088600870178
:101780000108003A0319A32B013A0319A52B033AC8
:101790000319A82B013A0319B02BCE2B31080800EE
:1017A0002000A501A601200821040319002CA40192
:1017B000A40AA11BE52B0130A035A10D890BDC2B60
:1017C0000130F4007408A407D92B0130A535A60D0B
:1017D000890BE62B21082302031DF02B200822028F
:1017E000031CF72B2008A2022108A33B251401307B
:1017F000A136A00C890BF82B0130A402031DE52BA8
:101800002608A1002508A0000800F400740886003E
:101810008701010C2100031C1D1003181D14740AFC
:1018200086008701010C031C9E1303189E17740881
:10183000023E86008701010C031C1E1203181E16AF
:101840007408033E86008701010C031C1E11031857
:101850001E157408043E860087011E080106FC3927
:1018600001069E007408053E86008701010C031CDA
:1018700011130318111708002000A5006F2CF401A4
:10188000013088316320F90108006430F400003031
:10189000F500013088318320F901F90A080032305F
:1018A0002000A0000030A100B630A2000330A30049
:1018B0000130893146218C3102302000A4002408F7
:1018C000F40001308831632002302000A400240895
:1018D000F90008000330A4002408F90008002508D6
:1018E000003A03193F2C013A0319452C033A031916
:1018F0004F2C013A03196A2C7D2C08002000C400EB
:101900004208860087010108C3004308F40042082A
:1019100086008701413FF5004408873180278C31DC
:1019200020004208023E860087010103031D9B2C14
:10193000F401F40A9D2CF401200044088A3160224D
:101940008C3120004208033E86008701403FB000F2
:10195000413FB1004208860087010108C3004308E7
:10196000B200420886008701413FB3004408843139
:1019700028248C31013A0319BC2C20004208053E72
:10198000860087010103031D0800440889311621E0
:1019900008002000E201E2010A3084009030850056
:1019A000003F2700A000013FA1002000620827009F
:1019B000A200A30121082302031DE02C200822021B
:1019C00003180800200062082700A0000230A0359C
:1019D000FF3E031DE72C2035073E203E86000130E8
:1019E00087000108A10021082000BC006208270030
:1019F000A2000230A235FF3E031DFA2C2235203E04
:101A0000860001308700413F8A00403F0A008D3147
:101A100001302700A00020082000E2070A308400DF
:101A200090308500003F2700A000013FD42C230008
:101A3000211C1D2DF601F60A1E2DF601210820009D
:101A4000A0000130A036890B222D201C2A2DF70181
:101A5000F70A2B2DF701230021082000A0000230F7
:101A6000A036890B302D201C382DE901E90A392DCB
:101A7000E901230021082000A0000330A036890BD3
:101A80003E2D201C462DEA01EA0A472DEA01760880
:101A9000A0002008F40001308A31E1228D3177085E
:101AA0002000A0002008F40002308A31E1228D31AC
:101AB00020006908A0002008F40003308A31E122E8
:101AC0008D3120006A08A0002008F40004308A311B
:101AD000E122080000302000AB000030AA000030F6
:101AE000A9000030A80023082204210420040319BF
:101AF000B42DAC01AC0AA31B892D0130A035A10D7A
:101B0000A20DA30D890B7E2D0130F4007408AC07E3
:101B10007B2D0130A835A90DAA0DAB0D890B8A2D9F
:101B200023082702031D9E2D22082602031D9E2D39
:101B300021082502031D9E2D20082402031CA92D27
:101B40002008A4022108A53B2208A63B2308A73BA6
:101B500028140130A336A20CA10CA00C890BAA2DCD
:101B60000130AC02031D892D2B08A3002A08A20016
:101B70002908A1002808A00008002000AF002808BC
:101B8000AD002708AC002A08A1002908A0002D08F4
:101B9000A3002C08A2008B31D0238D312000210816
:101BA000AD002008AC000130AB002B08AF072C08BB
:101BB0002D04031DC32D2F088600870181010130EC
:101BC000AF022A08A1002908A0002808A3002708BE
:101BD000A2008A31B4228D3120002008AB002B08EE
:101BE000AE002A08A1002908A0002808A3002708A1
:101BF000A2008B31D0238D3120002108A8002008BD
:101C0000A7000A302E02031C092E0730AB002B0858
:101C1000AE073030AB002B08AE072E08AB002F0804
:101C2000860087012B0881000130AF0227082804B5
:101C3000031DE12D0130AB002B08AF070800200089
:101C4000AA00732E2A0A860087018101810A2A08C8
:101C5000860087018101810A822E2A08023E8600C1
:101C600087010130810741310318810A3230A00019
:101C70000030A1002A08043E86008701403FA200F0
:101C8000413FA3008B31D0238E3120002A08023E31
:101C900086008701403FA800413FA9002108290292
:101CA000031D542E20082802031C822E2A08023EFF
:101CB000860087010030C03FC13F0230A8002A08DB
:101CC0008600870128088100822E2A0A8600870163
:101CD00081012A08860087018101F40127088831E3
:101CE00063208E31822E20002A0886008701010899
:101CF000003A0319222E013A03192D2E033A031933
:101D0000652E822E20002A0A86008701010808001D
:101D1000F40023008C01740886008701010C031C69
:101D20000C1003180C14740A86008701010C031CA4
:101D30008C1003188C147408023E86008701010C75
:101D4000031C0C1103180C157408033E8600870150
:101D5000010C031C0C1203180C168D017408043EB0
:101D600086008701010C031C0D1203180D16740860
:101D7000053E86008701010C031C8D1203188D1689
:101D80008E017408063E86008701010C031C0E10AC
:101D900003180E147408073E86008701010C031C0B
:101DA0008E1003188E147408083E86008701010CFB
:101DB000031C0E1103180E157408093E86008701D6
:101DC000010C031C8E1103188E1574080A3E860040
:101DD0008701010C031C0E1303180E1774080B3E29
:101DE00086008701010C031C8E1303188E17080050
:101DF0002000A400662F2408083E8931D2218E31AC
:101E0000003A03190800F401F40A20002408073EF0
:101E10008600870101088A31E1222000240886001B
:101E200087018101810A0800240A860087010130A8
:101E3000810741310318810A240A86008701403F47
:101E4000A000413FA10000302102643003192002AC
:101E5000031C392F240A860087010030C03FC13F90
:101E60002408033E860087010130810741310318B1
:101E7000810A2408053E86008701403FA000413FBB
:101E8000A1002408033E86008701403FA200413F95
:101E9000A30021082302031D4F2F20082202031C48
:101EA00008002408033E860087010030C03FC13F80
:101EB000F4012408073E8600870101088A31E122E7
:101EC000200024088600870181010800240886007C
:101ED00087010108003A0319FB2E013A0319142F58
:101EE000712F08002000A901F62FE9308931D22195
:101EF0008F31003A0319080078089731C3278F31D2
:101F00007F308731FB272100AA01AA0A0800E530AB
:101F10008931D2218F31003A0319D92F9D308600A3
:101F2000233087000108780603199D2F9D30860015
:101F3000233087000108031D08009D3086002330F0
:101F4000870041310108031D08002000A90150301D
:101F500029020318C92F2908A400A5019F30A60053
:101F60002330A7002408260786002508273D870080
:101F70000108A8002908A03E860001308700280833
:101F800081000130A4002408A90750302902031C55
:101F9000AB2FEB308931F3218F317903031D08001A
:101FA00003302000A4002408F400013088316320AD
:101FB00008006C308931D2218F31003A03190800B2
:101FC00021002B082000A4002408F40020308931CF
:101FD00094218F317903031D080003302000A400F1
:101FE0002408F400013088316320080021002A0809
:101FF000003A0319752F013A0319872FFF2F0800A4
:10200000013400340A34003464340034E8340334D6
:102010001034273405340034303431342E34303425
:1020200031342E34303430340034253464342E349A
:10203000253430343134753400345334423431343F
:102040003434303400344534433448344F3400346D
:102F6A00013401340100080021009D1408008B1768
:102F7A000B17080021001D0C01390800F4007435F4
:102F8A0024009200080021009914783099041A1834
:102F9A000800CC2F88310A2097318831B32080313C
:102FAA002B28F400740C2100031C171003181714A3
:102FBA000800F400740C2200031C171203181716D9
:102FCA000800F400740C2200031C971203189716C9
:102FDA000800F400740C2100031C951303189517BC
:102FEA00080024001608F4000630F436890BFA2F7C
:062FFA0074080139080013
:020000040001F9
:04000E00ECFFFFDF25
:00000001FF
