:1000000080313628640008007E14803120007F088B
:10001000F300911C1C282100911C1C282000911029
:1000200001302100B2070030B33D32083304031918
:100030001C28B201B301EF012100911D27282000E7
:10004000911D27289111E0308A316C2280312000E7
:10005000931C31282100931C3128200093108B31F0
:10006000472373082000FF007E10090080313828E4
:100070008731FF278031F9002100883163208031EA
:10008000EF00FF3084008B30850020308600013087
:1000900087000030FF0030308831FB2080319D30F8
:1000A0008400233085005330FE000030FF0088318B
:1000B000EF208031F601F701F8012000E501E601AB
:1000C000E701E801E901EA01EB01EC01ED01A030F3
:1000D0008400003085004F30FE000030FF00883182
:1000E000EF20803150308400013085001230FE0056
:1000F0000030FF008831EF208031A03084000130D3
:1001000085005030FE000030FF008831EF20803144
:1001100020308400023085005030FE000030FF00A7
:100120008831EF208031A0308400023085005030CB
:10013000FE000030FF008831EF2080312030840045
:10014000033085005030FE000030FF008831EF2082
:100150007E102000883187287E2923302000A000CF
:100160009030A100A030B0003008A2000430B100EF
:100170003108A3008A31D022803104302000B00041
:1001800030082100C10077308A31AE2208001D30CE
:100190002000A0009030A100A030B0003008A200E4
:1001A0000530B1003108A3008A31D02280310530FA
:1001B0002000B00030082100C10077308A31AE2223
:1001C00008000C302000A0009030A100A030B0004A
:1001D0003008A2000830B1003108A3008A31D022D3
:1001E000803108302000B00030082100C100773095
:1001F0008A31AE2208000C302000A0009030A1000F
:10020000A030B0003008A2000830B1003108A300CF
:100210008A31D022803108302000B000300821001F
:10022000C10077308A31AE2208008831642008008E
:100230008731F2270800240021088C31FD240800B2
:100240008931682108008931E821803120002408A3
:10025000B7002308B6003708B00030082300A0001C
:1002600020003608B00030082300A1000230200032
:10027000B00030082100C10077308A31AE2208007A
:100280008931E821803120002408B7002308B60016
:100290003708B1003608B000B136B00CB136B00C3A
:1002A000B136B00C3008D83EB600FF30313DB70053
:1002B0003708A8003608A7000A30A9000030AA00B5
:1002C00032308E31D126803132302000A000003013
:1002D000A100A030B0003008A2000230B100310807
:1002E000A3008A31D022803102302000B0003008D3
:1002F0002100C10077308A31AE2208002400200896
:10030000103A0319AD28303A0319C728013A0319E6
:10031000E128033A0319FB28123A03191529013A77
:1003200003191829703A03191B29033A03192029C4
:10033000073A03192329033A031940299F29080082
:10034000762AE0308A318D228131003A0319080083
:100350008831B8208131003A031DB4292000E8011A
:10036000E80AE901E90A08008831B8208131013A38
:10037000031D080020006803031D08006A08031D10
:10038000C6290230BF003F08E90008000330BF0063
:100390003F08E9000800240011082000BF003F08C2
:1003A000E7006736BF003F08E70024001108013965
:1003B0002000BF003F08EA006A03031DEC296C0817
:1003C000A03E860002308700010824009100013021
:1003D0002000BF003F08EC070430BF003F08E900E1
:1003E00008008831C2208131013A031D3C2A2000D7
:1003F000E801EF308600233087006B0881009D30D4
:10040000860023308700413181019D3086002330F2
:1004100087006708C03FC601503046020318322AE1
:100420004608203E8600033087000108BF004608CA
:10043000C000C1019F30C2002330C3004008420702
:10044000C4004108433DC5004408860045088700B4
:100450003F0881000130BF003F08C6075030460208
:10046000031C102ADE308A31AE2281312000EB01DC
:100470008931372181314B2A240011082000BF0027
:100480006B08203E8600033087003F088100013062
:10049000BF003F08EB0704302000BF003F08E90021
:1004A00008008831AE208131003A031D662A200001
:1004B0006C08A03E860002308700010824009100ED
:1004C00001302000BF003F08EC076B2A2000EC0140
:1004D000E8018931472104302000BF003F08E900CE
:1004E0000800240015162000E90108002000690812
:1004F00084000530040203180800883104350A3EE0
:10050000820008002000E401E4010A3084009030F9
:100510008500003F2200E200013FE3002000640864
:100520002200E400E50163086502031D992A6208C0
:10053000640203180800200064082200E200023070
:10054000E235FF3E031DA02A6235053E203E8600AF
:1005500001308700403FE300413FE4002000640891
:100560002200E5000230E535FF3E031DB32A653564
:10057000033E203E860001308700403FE600413FB9
:10058000E70064086702031DC72A63086602031CAC
:10059000132B200064082200E2000230E235FF3E07
:1005A000031DCE2A6235033E203E860001308700BF
:1005B0000030C03FC13F200064082200E20002304A
:1005C000E235FF3E031DE02A6235023E203E8600F2
:1005D000013087008101810A200064082200E200C6
:1005E0000230E235FF3E031DF12A6235073E203E10
:1005F0008600013087000108E30063082000BE0088
:1006000064082200E4000230E435FF3E031D042BA1
:100610006435203E860001308700413F8A00403F1C
:100620000A008331372B200064082200E2000230E8
:10063000E235FF3E031D182B6235033E203E860047
:10064000013087000130810741310318810A200001
:1006500064082200E2000230E235FF3E031D2C2B2D
:100660006235023E203E8600013087008101013064
:100670002200E20062082000E4070A308400903083
:100680008500003F2200E200013F8D2A2000BC00CF
:100690000030C1000030C0000030BF000030BE009C
:1006A0003308B400B5013408A2003508A3003208AD
:1006B000B600B7013608A0003708A1008A313322FE
:1006C000833120002008B8002108B900BA01BB011D
:1006D0003B08A7003A08A6003908A5003808A4007E
:1006E0003008A8003108A900AA01AB018B31CF2343
:1006F000833120002708C1002608C0002508BF005C
:100700002408BE004108A3004008A2003F08A10041
:100710003E08A0000030A7007A30A6001230A500E5
:100720000030A4008E312326833120002308031DCE
:10073000F82B2208031DF82B01302102031CE92BA2
:10074000F82B4108A3004008A2003F08A1003E0882
:10075000A0000030A7007A30A6001230A5000030BB
:10076000A4008E3123268331200020089B00F52B26
:100770004108A3004008A2003F08A1003E08A000D5
:100780000030A7007A30A6001230A5000030A40087
:100790008E31232683312000200828009600F52B77
:1007A00020004108A3004008A2003F08A1003E0825
:1007B000A0000030A7007A30A6001230A50000305B
:1007C000A4008E31232683312000200828009D00BC
:1007D000F52B20003C08023A0319A12B063A031915
:1007E000B82B023A0319D02BF52B2000BD01FA2BB0
:1007F000BD01BD0A3D0808002000A20021000D1621
:100800000D1720002208860087010108A00020089B
:10081000240095042000220A860087010108A00018
:100820000230A035FF3E031D112C2035A100210808
:100830002400960420002208033E86008701010858
:10084000A000200824009604200022080A3E86000A
:1008500087010108A0000630A035FF3E031D2C2CA7
:100860002035A10021082400960420002208043E1F
:10087000860087010108A0000530A035FF3E031D5A
:100880003D2C2035A10021082400970420002208D7
:10089000053E860087010108A0000430A035FF3E18
:1008A000031D4E2C2035A1002108240097042000B0
:1008B0002208063E860087010108A0000330A0350B
:1008C000FF3E031D5F2C2035A10021082400970462
:1008D00020002208073E860087010108A0000130A1
:1008E000A035FF3E031D702C2035A10021082400F7
:1008F000970420002208083E860087010135A000E9
:1009000020082400970420002208093E8600870161
:100910000108A00020082400970420002208023EBD
:10092000860087010108A0000430A035FF3E031DAA
:10093000952C2035A1002108240095042000911158
:1009400021009115893137218331893147210800F0
:10095000F40024008C01740886008701010C031C3C
:100960000C1003180C14740A86008701010C031C78
:100970008C1003188C147408023E86008701010C49
:10098000031C0C1103180C157408033E8600870124
:10099000010C031C8C1103188C157408043E86008E
:1009A0008701010C031C0C1203180C167408053E79
:1009B00086008701010C031C8C1203188C168D0114
:1009C0007408063E86008701010C031C0D120318F3
:1009D0000D167408073E86008701010C031C8D125A
:1009E00003188D167408083E86008701010C031C4D
:1009F0000D1303180D177408093E86008701010CBA
:100A0000031C8D1303188D178E0174080A3E86008F
:100A10008701010C031C0E1003180E1474080B3E02
:100A200086008701010C031C8E1003188E147408B5
:100A30000C3E86008701010C031C0E1103180E15D5
:100A400074080D3E86008701010C031C8E110318EB
:100A50008E1574080E3E86008701010C031C0E12D1
:100A600003180E1674080F3E86008701010C031C44
:100A70008E1203188E167408103E86008701010C32
:100A8000031C0E1303180E177408113E860087010D
:100A9000010C031C8E1303188E170800E4308A31F2
:100AA0008D228531003A031908008031AC20853150
:100AB000D82DEC308A31AE22080020006608B8003C
:100AC00038082300A00020006508B800380823007B
:100AD000A10002302000B80038082100C1007730A2
:100AE0008A31AE22080020006608A8006508A70029
:100AF0000A30A9000030AA003A308E31D126853163
:100B00003A302000A0000030A100A030B800380822
:100B1000A2000330B9003908A3008A31D022853100
:100B20000030200066020A30031965020318A12D67
:100B3000230020082000B80038082300A20030302D
:100B4000B12D0030200066026430031965020318DD
:100B5000BC2D230021082000B80038082300A20083
:100B600020082000B80038082300A1003030200001
:100B7000B80038082300A00003302000B80038086F
:100B80002100C10077308A31AE2208002400210301
:100B9000031DD12D2100C001C00AEC308A31AE22E4
:100BA000080024002108031D08002100C0010800DE
:100BB00024002008503A0319592D013A0319C62D73
:100BC000313A03195D2D013A0319732DE82D080000
:100BD0000800F500692E7508083E860087010108A7
:100BE0002000A700750A8600870127088100750884
:100BF000312E7508023E86008701013081074131A0
:100C00000318810A750A860087010108031D362E24
:100C100032302000A0000030A1007508063E86009A
:100C20008701403FA200413FA3008C3191248531D0
:100C30007508023E86008701403F2000A700413F23
:100C4000A80021082802031D272E20082702031CC4
:100C5000742E7508023E860087010030C03FC13FF8
:100C6000750A860087018101810A742E750A860043
:100C700087010103031D742E32302000A0000030D4
:100C8000A1007508043E86008701403FA200413F55
:100C9000A3008C31912485317508023E86008701BE
:100CA000403F2000A700413FA80021082802031D63
:100CB0005B2E20082702031C742E7508023E860056
:100CC00087010030C03FC13F750A8600870181015E
:100CD000742E7508860087010108003A0319EB2D70
:100CE000013A0319F92D742E750A8600870101084F
:100CF00008002000A901FD2EE2308A318D228631C4
:100D0000003A0319080076088831772086317F3051
:100D100088317C202100BC01BC0A0800DE308A3109
:100D20008D228631003A0319E02E9D308600233053
:100D30008700010876060319A42E9D308600233013
:100D400087000108031D08009D30860023308700BE
:100D500041310108031D08002000A901503029027B
:100D60000318D02E2908A400A5019F30A600233027
:100D7000A7002408260786002508273D87000108CC
:100D8000A8002908203E860002308700280881003C
:100D90000130A4002408A90750302902031CB22EF8
:100DA000E4308A31AE2286317903031D0800033016
:100DB0002000A4002408F400013089310721080034
:100DC00077308A318D228631003A031908002100DC
:100DD00041082000A4002408F400A0308A314F22EA
:100DE00086317903031D080003302000A400240885
:100DF000F400013089310721080021003C08003A45
:100E000003197C2E013A03198E2E062F08002000AC
:100E1000A100752F1C100D2F1C149C101D2F1C10D1
:100E20009C141D2F7408013A03190A2F053A03195F
:100E30000C2F143A03190F2F1D2F7508FF3EA00029
:100E4000A00DA00DA00D1C082006873920069C00CF
:100E50000800280017102E2F2800171497103F2F76
:100E60002800171097143F2F7408013A0319292FEF
:100E7000053A03192C2F143A0319302F3F2F750808
:100E8000FF3E2000A000A00DA00DA00D2800170817
:100E90002000200687392006280097000800280037
:100EA0001E10542F28001E149E10652F28001E109F
:100EB0009E14652F7408013A03194F2F053A031940
:100EC000522F143A0319562F652F7508FF3E200044
:100ED000A000A00DA00DA00D28001E0820002006D7
:100EE0008739200628009E00080020002108023AC9
:100EF0000319122F063A0319342F023A03195A2FF5
:100F0000812F0800F40023008C01740886008701FB
:100F1000010C031C0C1003180C14740A86008701C2
:100F2000010C031C8C1003188C147408023E8600FC
:100F30008701010C031C0C1103180C157408033EE7
:100F400086008701010C031C0C1203180C168D017E
:100F50007408043E86008701010C031C0D1203185F
:100F60000D167408053E86008701010C031C8D12C6
:100F700003188D168E017408063E86008701010C49
:100F8000031C0E1003180E147408073E8600870118
:100F9000010C031C8E1003188E147408083E860082
:100FA0008701010C031C0E1103180E157408093E6D
:100FB00086008701010C031C8E1103188E1574081E
:100FC0000A3E86008701010C031C0E1303180E173E
:100FD00074080B3E86008701010C031C8E13031856
:100FE0008E17080022008C018D018E01003088319F
:100FF0008E2087316300013088318E200800013453
:101000008E31772E8E317D2E8E318E2E8E31972E13
:101010008E31A02E8131A1298131CB298131F12955
:081020008231512A8231712A4C
:1010C60001340100080021009D1408008B170B173E
:1010D600080021009917080021001D0C013908009D
:1010E600EA308A31AE220800F400743524009200FA
:1010F6000800F400743524009300080021008E13C4
:101106000C1522008E1308008831E32088318931BE
:10111600572180313628F400740C2100031C171067
:10112600031817140800F400740C2200031C17128D
:10113600031817160800F400740C2200031C9712FB
:10114600031897160800F400740C2100031C95136D
:1011560003189517080024001608F4000630F43624
:10116600890BB22874080139080024001408F40019
:101176000530F436890BBC287408013908002400B0
:101186001408F4000430F436890BC62874080139B3
:101196000800F5007508F400F40D21001708740620
:1011A600C139740697000800F5007508F400F40DBF
:1011B600F40D21001D087406833974069D0008008D
:1011C60088316C2088318A311A2288318931D121BF
:1011D60088318831692008006400800101310130BE
:1011E600FE020030FF3B7F087E0403190034F0281E
:1011F600FE0012001E000130FE020030FF3B7F0899
:101206007E0403190034FC282000A000102974086D
:10121600F50075082100EE00080020002008013ABC
:1012260003190A2916290800033021001C0520008D
:10123600A0002008A20021001B082000A10022080F
:10124600F5002108F40008002000A00030297508E8
:101256002100DB007408DA00080020002008013AAB
:1012660003192A2936290800F5015030750203189A
:1012760008007508203E8600033087008101013092
:10128600F4007408F5073829F50150307502031883
:1012960008007508A03E86000230870081010130F3
:1012A600F4007408F50748298D31D52589312000C9
:1012B600ED01ED0A21006F08031D5D2982318222AE
:1012C60089312100EF01EF0A5D2903307906031DFC
:1012D600080024002103031D7629F401F40A0130D5
:1012E600893107210800F4010130893107210800FE
:1012F6000630F40074082100C200C301C401C40A08
:10130600C501C601C60AC701C70AC801C901CA0183
:10131600CB01CC01CC0A08009A2989317B2189317D
:10132600C2308331FC23080086317926080020006C
:101336006D08003A03199029013A03199729A32940
:101346000800B0290B308831CC2089310130883132
:101356008E20080080310220080020006D08003A27
:101366000319A529013A0319AD29B9290800F40082
:10137600C52920001C15080028001715080028009C
:101386001E1508007408023A0319BC29063A031907
:10139600BF29023A0319C229D02908002000C60134
:1013A600C60A0830C5004508C700C801C80A5A3031
:1013B600C9004330CA00CB01CB0A4630C5004508F8
:1013C600C20004308D318A2508001D308831D720AF
:1013D600893188316620893188316F208931003A18
:1013E6000319EF298931172175082000A600740812
:1013F600A5002608A4002508A3000800F400142A66
:10140600200021082100D200200020082100D10060
:10141600200023082100D400200022082100D30048
:1014260008007408013A0319032A192A0800103023
:101436002000C5004508C6000430C5004508C700A1
:10144600C801C80AE830C9000330CA00CB01CB0A7C
:101456004630C5004508C20002308D318A25080095
:10146600F401F5012000201C3C2A2208F407230879
:10147600F53D0130A235A30D890B3D2A0130A13679
:10148600A00C890B422A20082104031D352A750861
:10149600A1007408A00008002000A200A301A30177
:1014A600740823020318080023082207A000200856
:1014B6008600013087000108A1002308A03E8600AF
:1014C60002308700210881000130A0002008A30710
:1014D600532AF100F20171088600870102300106E5
:1014E6000319882A7108860087010330010603194B
:1014F600882A0230F000710A860087017008810090
:101506000230F0007008F20008000330F0007008A6
:10151600F2000800F500F401750886008701010352
:101526000319AC2A750886008701033001060319E2
:10153600AC2A750A8600870102300106031DAB2A14
:10154600750A860087018101810AF401F40AAC2A32
:10155600F401740808002000A100A00121088600FB
:101566008701023001060319CB2A2108860087016C
:10157600033001060319CB2A0230F400210A860043
:101586008701740881000230F4007408A000080086
:101596000330F4007408A0000800F401F4012000F0
:1015A600230874020318080020002108A50020085B
:1015B600A40074082407840025080318250A85005A
:1015C6000008A60074082207A70027088600013035
:1015D6008700260881000130A4002408F407D22AD7
:1015E600F500102B20009110740C2100031C9110A3
:1015F60003189114080020009310740C2100031C9A
:10160600931003189314080020009311740C210002
:10161600031C93110318931508007508023A031961
:10162600F52A063A0319FE2A023A0319072B1B2B41
:1016360008003A2B01302000BD003D082100BB0701
:101646000A303B02031C08008C312F242100BA010A
:10165600BA0A0800E2308A31AE2202302000BD000C
:101666003D082100BA00080085314E2508002100FA
:101676003A08003A03191D2B013A03192D2B033A98
:101686000319372B462B0800692B20000C1D080078
:1016960001302100AC070030AD3DBD01BD0A080098
:1016A60020000C1D5C2B01302100AC070030AD3D45
:1016B600080021002D08DD002C08DC00AC01AD017E
:1016C600E6308A316C222100BD01080021003D0868
:1016D600003A0319482B013A0319532B722B0800C1
:1016E60020002008210403199B2BF501F50AA11BF4
:1016F600862B0130A035A10D890B7D2B0130F4001E
:101706007408F5077A2B21082302031D8C2B200869
:101716002202031C922B2008A2022108A33B0130BF
:10172600A136A00C890B932B0130F502031D862BE5
:101736002308A1002208A0000800C52B21008E1056
:1017460022008E1001308C31FD240800EE3020007E
:10175600BF003F08AB00CD30C0004008AC00D6301B
:10176600C1004108AD0001308C3160242000C20068
:10177600C20D22000E0820004206FD394206220054
:101786008E00080020006D08003A0319A12B013ACB
:101796000319A92BCE2B080000302000AF00003023
:1017A600AE000030AD000030AC00241CE22B28084F
:1017B600AC072908AD3D2A08AE3D2B08AF3D0130E8
:1017C600A835A90DAA0DAB0D890BE32B0130A73661
:1017D600A60CA50CA40C890BEA2B270826042504C5
:1017E6002404031DD82B2F08A7002E08A6002D08B9
:1017F600A5002C08A4000800A034013400340034ED
:10180600003401340034003476340E3400340034AD
:1018160000340134003400348F3409340034003489
:101826000034013400340034A43409340034003464
:101836000034643400340034A0340B3400340034F3
:10184600003432340034003433340F34003400347E
:1018560000340A3400340034031020008E1E0314B2
:101866000030093DF4000230F435FF3E031D372CED
:101876007435F5007508F60403100E1E03140030C7
:10188600093DF4000130F435FF3E031D462C743546
:10189600F5007508F60403108E1D03140030093D8B
:1018A6000907F4007408F60403100E1F0314003031
:1018B600093DF4007408F60408002000B000B101E8
:1018C6007E2CB1018F2CB101B10A8F2C2C088531E9
:1018D600E9258C312000AE002E087C2C3008AE00A5
:1018E6002E08A7002D088F3197278C312000AF00D6
:1018F6002F08B1008F2C2B08860087010108003ABB
:101906000319642C013A0319662C033A0319692C4E
:10191600013A0319712C8F2C310808002000A5010B
:10192600A601200821040319C12CA401A40AA11BA5
:10193600A62C0130A035A10D890B9D2C0130F40099
:101946007408A4079A2C0130A535A60D890BA72C7F
:1019560021082302031DB12C20082202031CB82CE7
:101966002008A2022108A33B25140130A136A00CB1
:10197600890BB92C0130A402031DA62C2608A10050
:101986002508A0000800F400740886008701010CF1
:101996002100031C1D1003181D14740A86008701FC
:1019A600010C031C9E1303189E177408023E860042
:1019B6008701010C031C1E1203181E167408033E31
:1019C60086008701010C031C1E1103181E157408DE
:1019D600043E860087011E080106FC3901069E00AA
:1019E6007408053E86008701010C031C11130318B9
:1019F600111708002000A500302DF40101308931AF
:101A06000721F90108006430F4000030F5000130C8
:101A160089312721F901F90A080032302000A00097
:101A26000030A100B630A2000330A30001308A3195
:101A360001228C3102302000A4002408F400013079
:101A46008931072102302000A4002408F90008008B
:101A56000330A4002408F90008002508003A0319F9
:101A6600002D013A0319062D033A0319102D013AE8
:101A760003192B2D3E2D08007D2DEC308A318D2249
:101A86008D31003A031908008831732022000E14A4
:101A960002302000A20022082100BF000800013009
:101AA600B0070030B13D0030310202300319300278
:101AB600031C080022000E102100B001B1014003F2
:101AC600031D6C2DEC308A31AE222100BF01BF0A06
:101AD6000800BF0108000130B0070030B13D0030FA
:101AE6003102643003193002031C0800B001B10151
:101AF600BF01080021003F08003A0319402D013AB2
:101B060003196E2D033A0319522D892D0800200062
:101B1600C4004208860087010108C3004308F40098
:101B2600420886008701413FF500440887310727B0
:101B36008D3120004208023E860087010103031D05
:101B4600A72DF401F40AA92DF401200044088A31D6
:101B5600F3228D3120004208033E86008701403F74
:101B6600B000413FB1004208860087010108C3006A
:101B76004308B200420886008701413FB30044088B
:101B8600833146238D31013A0319C82D20004208BE
:101B9600053E860087010103031D080044088931BC
:101BA600BA2108002000E401E4010A3084009030E4
:101BB6008500003F2200E200013FE30020006408A8
:101BC6002200E400E50163086502031DEC2D6208AE
:101BD600640203180800200064082200E2000230B4
:101BE600E235FF3E031DF32D6235073E203E86009B
:101BF600013087000108E30063082000BE00640886
:101C06002200E4000230E435FF3E031D062E643553
:101C1600203E860001308700413F8A00403F0A008F
:101C26008E3101302200E20062082000E4070A300B
:101C3600840090308500003F2200E200013FE02D45
:101C460000302000AB000030AA000030A9000030B0
:101C5600A800230822042104200403196D2EAC01D8
:101C6600AC0AA31B422E0130A035A10DA20DA30D77
:101C7600890B372E0130F4007408AC07342E01307E
:101C8600A835A90DAA0DAB0D890B432E23082702F3
:101C9600031D572E22082602031D572E2108250252
:101CA600031D572E20082402031C622E2008A402BE
:101CB6002108A53B2208A63B2308A73B2814013090
:101CC600A336A20CA10CA00C890B632E0130AC022A
:101CD600031D422E2B08A3002A08A2002908A100F2
:101CE6002808A0000800C52E883181202100BE01E9
:101CF600BE0A0800EA308A318D228E31003A031975
:101D060008002100AE01AF0102302000BF003F08ED
:101D16002100BE00080022008E1703302000BF00FD
:101D26003F082100BE00080022008E130430200068
:101D3600BF003F082100BE0008000130AE0700309A
:101D4600AF3DE6308A318D228E31003A0319BA2E24
:101D560021005D082000E60021005C082000E50067
:101D6600E8308A31AE222100BE01BE0A08000330E7
:101D760021002F02E83003192E02031C0800BE01C1
:101D8600BE0A080021003E0884000530040203183C
:101D9600080088310435003E820008002000AF00AC
:101DA6002808AD002708AC002A08A1002908A000D1
:101DB6002D08A3002C08A2008C3191248E3120001E
:101DC6002108AD002008AC000130AB002B08AF079E
:101DD6002C082D04031DD72E2F08860087018101AC
:101DE6000130AF022A08A1002908A0002808A30094
:101DF6002708A2008B3173238E3120002008AB0008
:101E06002B08AE002A08A1002908A0002808A30074
:101E16002708A2008C3191248E3120002108A800C9
:101E26002008A7000A302E02031C1D2F0730AB0026
:101E36002B08AE073030AB002B08AE072E08AB00E0
:101E46002F08860087012B0881000130AF02270882
:101E56002804031DF52E0130AB002B08AF07080040
:101E660050308600013087005230840000308500F3
:101E760012302000BF0016001A00BF0B3E2FA03004
:101E860086000030870040308400003085000C302A
:101E9600BF0016001A00BF0B4C2F8D2F21000E1706
:101EA6008E150E168E160E108D1322008D1720001D
:101EB600E201E20ADF01DF0AE001E00AE101E10AEC
:101EC60052308431A8248F3100308831A6208F31DA
:101ED6004030873182278F31013088319E208F3103
:101EE6000030883196208F3103302000BF003F0834
:101EF600CE00D101CF01D001CD01CD0ACC01CC0A53
:101F06004C308C31C62408008D313F258F318B3102
:101F16001C23080020006D08003A0319512F013ACE
:101F26000319872F962F08002000AA00EB2F2A0AF4
:101F3600860087018101810A2A08860087018101BE
:101F4600810AFA2F2A08023E86008701013081079E
:101F560041310318810A3230A0000030A1002A085E
:101F6600043E86008701403FA200413FA3008C311A
:101F760091248F3120002A08023E86008701403FC7
:101F8600A800413FA90021082902031DCC2F2008E3
:101F96002802031CFA2F2A08023E86008701003019
:101FA600C03FC13F0230A8002A08860087012808E2
:101FB6008100FA2F2A0A8600870181012A088600F5
:101FC60087018101F4012708893107218F31FA2F12
:101FD60020002A08860087010108003A03199A2F73
:101FE600013A0319A52F033A0319DD2FFA2F200012
:101FF6002A0A8600870101080800013400340A34E1
:10200600003464340034E83403341034273406349E
:102016000034303431342E34303431342E343034CC
:1020260030340034253464342E342534303431349D
:10203600753400345334423433343134303400345C
:0A2046004534433448344F3400346D
:020000040001F9
:04000E00EAFFFFDF27
:00000001FF
