:1000000080312B28640008007E14803120007F0896
:10001000F300911C1C282100911C1C282000911029
:1000200001302100AA070030AB3D2A082B04031938
:100030001C28AA01AB01E6012100911D2628200001
:10004000911D26289111E1308B313F237308200048
:10005000FF007E10090080312D288731FF27803175
:10006000F900893127218031E800210089312621DA
:100070008031E600C63084008B3085002030860059
:10008000013087000030FF0028308931C5218031E0
:100090009D308400233085005330FE000030FF0087
:1000A0008931B9218031F601F701F8012000DF0123
:1000B000E001E101E201E301E401E501E601E7011C
:1000C000A0308400003085004630FE000030FF0084
:1000D0008931B921803148308400013085000C30ED
:1000E000FE000030FF008931B9218031A03084004A
:1000F000013085005030FE000030FF008931B92109
:10010000803120308400023085005030FE00003005
:10011000FF008931B9218031A03084000230850090
:100120005030FE000030FF008931B921803120308D
:100130008400033085005030FE000030FF0089311C
:10014000B9217E102000893148299129E1308B3175
:1001500060238031003A03190800893182218031FF
:10016000003A031DCE287703031DC4280130200068
:10017000BD003D082100B8070B303802031CC6281B
:10018000893128218031C6282100B801F701F70AFA
:10019000F801F80A2000E501E50A0800893182210A
:1001A0008031013A031D08007803031D0800F701A0
:1001B00020006308031DE1280230BD003D08E50072
:1001C00008000330BD003D08E500080024001108C8
:1001D0002000BD003D08E4006436BD003D08E40099
:1001E0002400110801392000BD003D08E30063032D
:1001F000031D07296108A03E860002308700010820
:100200002400910001302000BD003D08E1070430CA
:10021000BD003D08E500080089318C218031013A9C
:10022000031D5729F801EF30860023308700200096
:10023000620881009D3086002330870041318101B2
:100240009D308600233087006408C03FC4015030D1
:10025000440203184D294408203E860003308700DD
:100260000108BD004408BE00BF019F30C00023301C
:10027000C1003E084007C2003F08413DC30042089C
:100280008600430887003D0881000130BD003D081D
:10029000C40750304402031C2B29E3308B318123E7
:1002A00080312000E2018A31202280316629240039
:1002B00011082000BD006208203E86000330870040
:1002C0003D0881000130BD003D08E20704302000F8
:1002D000BD003D08E5000800893178218031003AF1
:1002E000031D812920006108A03E8600023087009E
:1002F00001082400910001302000BD003D08E10705
:1003000086292000E101F8018A31302204302000E2
:10031000BD003D08E5000800240015162000E50199
:100320000800200065088400053004020318080056
:1003300088310435003E820008006F2A2C302000EE
:10034000A0009030A1002030B0003008A20004309E
:10035000B1003108A3008B31A32381310430200088
:10036000B00030082100B70066308B3181230800CF
:1003700026302000A0009030A1002030B0003008CE
:10038000A2000530B1003108A3008B31A3238131D5
:1003900005302000B00030082100B70066308B31F6
:1003A0008123080015302000A0009030A1002030EB
:1003B000B0003008A2000830B1003108A3008B3132
:1003C000A323813108302000B00030082100B7009D
:1003D00066308B318123080002302000A00090306D
:1003E000A1002030B0003008A2000830B100310870
:1003F000A3008B31A323813108302000B0003008E6
:100400002100B70066308B318123080089312A2111
:1004100008008931AD210800230021088D31DE2537
:1004200008008A31512208008A31D422813120000B
:100430002408B7002308B6003708B00030082400AD
:10044000A00020003608B00030082400A1000230CF
:100450002000B00030082100B70066308B318123C6
:1004600008008A31D422813120002408B7002308F3
:10047000B6003708B1003608B000B136B00CB1365E
:10048000B00CB136B00C3008D83EB600FF30313D6C
:10049000B7003708A8003608A7000A30A9000030C6
:1004A000AA0032308F319E27813132302000A000E7
:1004B0000030A1002030B0003008A2000230B100AE
:1004C0003108A3008B31A323813102302000B0001A
:1004D00030082100B70066308B31812308002300EB
:1004E0002008103A03199E29303A0319B829013A15
:1004F0000319D229033A0319EC29123A0319062ADF
:10050000013A0319092A703A03190C2A033A03190C
:10051000112A073A0319142A033A0319312A902A97
:1005200008002000BC000030C1000030C0000030D6
:10053000BF000030BE003308B400B5013408A2008B
:100540003508A3003208B600B7013608A000370806
:10055000A1008B310623823120002008B800210839
:10056000B900BA01BB013B08A7003A08A600390848
:10057000A5003808A4003008A8003108A900AA0185
:10058000AB018C316F24823120002708C10026087E
:10059000C0002508BF002408BE004108A300400891
:1005A000A2003F08A1003E08A0000030A7003D3097
:1005B000A6000930A5000030A4008F314B278231FE
:1005C00020002308031D432B2208031D432B013069
:1005D0002102031C342B432B4108A3004008A20036
:1005E0003F08A1003E08A0000030A7003D30A60053
:1005F0000930A5000030A4008F314B278231200044
:1006000020089B00402B4108A3004008A2003F089F
:10061000A1003E08A0000030A7003D30A600093030
:10062000A5000030A4008F314B2782312000200824
:1006300028009600402B20004108A3004008A2009B
:100640003F08A1003E08A0000030A7003D30A600F2
:100650000930A5000030A4008F314B2782312000E3
:10066000200828009D00402B20003C08023A031976
:10067000EC2A063A0319032B023A03191B2B402BD1
:100680002000BD01452BBD01BD0A3D08080020002A
:10069000DE01DE010030840090308500003FD8008C
:1006A000013FD9005E08DA00DB0159085B02031D37
:1006B0005B2B58085A02031808005E08D800023065
:1006C000D835FF3E031D602B5835053E203E860081
:1006D00001308700403FD900413FDA005E08DB006F
:1006E0000230DB35FF3E031D712B5B35033E203EA0
:1006F000860001308700403FDC00413FDD005A08A2
:100700005D02031D852B59085C02031CC92B5E0882
:10071000D8000230D835FF3E031D8A2B5835033EE2
:10072000203E8600013087000030C03FC13F5E0898
:10073000D8000230D835FF3E031D9A2B5835023EB3
:10074000203E8600013087008101810A5E08D800C2
:100750000230D835FF3E031DA92B5835073E203EF9
:100760008600013087000108D9005908BC005E08E6
:10077000DA000230DA35FF3E031DBA2B5A35203E2F
:10078000860001308700413F8A00403F0A008331E4
:10079000EA2B20005E08D8000230D835FF3E031D4A
:1007A000CD2B5835033E203E8600013087000130B6
:1007B000810741310318810A5E08D8000230D8351C
:1007C000FF3E031DDF2B5835023E203E86000130E0
:1007D0008700810101302000D8005808DE07003072
:1007E000840090308500003FD800013F512B20004D
:1007F000A20021008E140E1420002208860087011A
:100800000108A0002008240095042000220A860088
:1008100087010108A0000230A035FF3E031D0C2C0B
:100820002035A10021082400960420002208033E60
:10083000860087010108A0002008240096042000FB
:1008400022080A3E860087010108A0000630A03574
:10085000FF3E031D272C2035A1002108240096040B
:1008600020002208043E860087010108A000053010
:10087000A035FF3E031D382C2035A100210824009F
:10088000970420002208053E860087010108A00089
:100890000430A035FF3E031D492C2035A10021085E
:1008A0002400970420002208063E860087010108E4
:1008B000A0000330A035FF3E031D5A2C2035A100B7
:1008C00021082400970420002208073E86008701A3
:1008D0000108A0000130A035FF3E031D6B2C203520
:1008E000A10021082400970420002208083E860069
:1008F00087010135A0002008240097042000220869
:10090000093E860087010108A00020082400970402
:1009100020002208023E860087010108A000043062
:10092000A035FF3E031D902C2035A1002108240096
:10093000950420009111210091158A3120228331E4
:100940008A3130220800F500232D7508083E860004
:10095000870101082000A700750A86008701270883
:1009600081007508EB2C7508023E86008701013076
:10097000810741310318810A750A86008701010841
:10098000031DF02C0A302000A0000030A1007508E3
:10099000063E86008701403FA200413FA3008D3103
:1009A000342584317508023E86008701403F2000CF
:1009B000A700413FA80021082802031DE12C2008C0
:1009C0002702031C2E2D7508023E86008701003089
:1009D000C03FC13F750A860087018101810A2E2D23
:1009E000750A860087010103031D2E2D0A302000A1
:1009F000A0000030A1007508043E86008701403F3A
:100A0000A200413FA3008D31342584317508023E98
:100A100086008701403F2000A700413FA800210831
:100A20002802031D152D20082702031C2E2D7508F2
:100A3000023E860087010030C03FC13F750A860034
:100A4000870181012E2D7508860087010108003A73
:100A50000319A52C013A0319B32C2E2D750A860013
:100A60008701010808002000A901B82DDF308B3173
:100A700060238531003A0319080020005F0889319E
:100A8000372185317F3089313C212100B601B60AFA
:100A90000800E3308B3160238531003A03199B2D28
:100AA0009D30860023308700010820005F0603196F
:100AB000602D9D308600233087000108031D08004B
:100AC0009D3086002330870041310108031D080056
:100AD000A9015030290203188B2D2908A400A50173
:100AE0009F30A6002330A70024082607860025088B
:100AF000273D87000108A8002908A03E8600013094
:100B00008700280881000130A4002408A90750307C
:100B10002902031C6D2DDD308B31812385312000AE
:100B20006803031D08000330A4002408F40001300A
:100B30008931E021080066308B3160238531003A2D
:100B400003190800210037082000A4002408F4003D
:100B500020308B312223853120006803031D0800DB
:100B60000330A4002408F40001308931E02108009A
:100B700021003608003A0319362D013A0319492D90
:100B8000C12D08002000A100302E1C10C82D1C14FF
:100B90009C10D82D1C109C14D82D7408013A0319F0
:100BA000C52D053A0319C72D143A0319CA2DD82D9E
:100BB0007508FF3EA000A00DA00DA00D1C0820068A
:100BC000873920069C00080028001710E92D28000E
:100BD00017149710FA2D280017109714FA2D74087F
:100BE000013A0319E42D053A0319E72D143A0319C4
:100BF000EB2DFA2D7508FF3E2000A000A00DA00DE2
:100C0000A00D28001708200020068739200628009C
:100C10009700080028001E100F2E28001E149E109A
:100C2000202E28001E109E14202E7408013A03194D
:100C30000A2E053A03190D2E143A0319112E202EEF
:100C40007508FF3E2000A000A00DA00DA00D2800FB
:100C50001E08200020068739200628009E00080074
:100C600020002108023A0319CD2D063A0319EF2D71
:100C7000023A0319152E3C2E08002000A400AB2ECA
:100C80002408083E8B3160238631003A031908009E
:100C9000F401F40A20002408073E860087010108B9
:100CA0008931D12120002408860087018101810A31
:100CB0000800240A860087010130810741310318AA
:100CC000810A240A86008701403FA000413FA1001D
:100CD00000302102143003192002031C7E2E240A46
:100CE000860087010030C03FC13F2408033E8600D4
:100CF00087010130810741310318810A2408053E2C
:100D000086008701403FA000413FA1002408033E28
:100D100086008701403FA200413FA3002108230233
:100D2000031D942E20082202031C08002408033E01
:100D3000860087010030C03FC13FF4012408073E10
:100D40008600870101088931D1212000240886000E
:100D50008701810108002408860087010108003A04
:100D60000319402E013A0319592EB62E08004830B7
:100D700086000130870046308400003085000C304A
:100D80002000BD0016001A00BD0BC22EA030860048
:100D9000003087003E308400003085000830BD0000
:100DA00016001A00BD0BD02E1E2F21000E1122009E
:100DB0000E1121008C160C168E160E162000CA017C
:100DC000CA0ACB01CB0AD001D00AD101D10A4630E0
:100DD00087312827863100308931672186313E30BE
:100DE0008E3166268631013089315F2186310030AF
:100DF00089315721863103302000BD003D08D400E1
:100E0000D701D501D601D301D30AD201D20A52307B
:100E10008D3169252100C401C501C601C701C80182
:100E2000C901CA01CB01CB0ACC01CD0108008C312C
:100E300017248631C43086313D2608002000600822
:100E4000003A0319D52E013A0319172F272F08004E
:100E5000F40024008C01740886008701010C031C37
:100E60000C1003180C14740A86008701010C031C73
:100E70008C1003188C147408023E86008701010C44
:100E8000031C0C1103180C157408033E860087011F
:100E9000010C031C8C1103188C157408043E860089
:100EA0008701010C031C0C1203180C167408053E74
:100EB00086008701010C031C8C1203188C168E010E
:100EC0007408063E86008701010C031C0E100318EF
:100ED0000E147408073E86008701010C031C8E1057
:100EE00003188E147408083E86008701010C031C49
:100EF0000E1103180E157408093E86008701010CB7
:100F0000031C8E1103188E1574080A3E8600870193
:100F1000010C031C0E1203180E1674080B3E8600FB
:100F20008701010C031C8E1203188E160800200086
:100F3000AA00EA2F2A0A860087018101810A2A086D
:100F4000860087018101810A2A08023E8600870106
:100F50000130810741310318810A0A30A0000030B6
:100F6000A1002A08043E86008701403FA200413FBD
:100F7000A3008D313425873120002A08023E8600E7
:100F80008701403FA800413FA90021082902031D15
:100F9000CB2F20082802031CF92F2A08023E8600C6
:100FA00087010030C03FC13F2A0A860087018101C6
:100FB0000230A8002A088600870128088100F92F3E
:100FC0002A08860087018101F40127088931E02180
:100FD0008731F92F20002A08860087010108003A8E
:100FE00003199A2F013A0319A42F033A0319E02F8A
:100FF000F92F20002A0A8600870101080800013421
:101000008031A6288031E62881310C2981316C2974
:0410100081318C2975
:10124C0001340134010008008931282108002100F3
:10125C009D1408008B170B17080021001D0C013979
:10126C000800F4007435240092000800F400743572
:10127C0024009300080021009914783099041A185E
:10128C000800452989316F2189318A31402280310A
:10129C002B28F400740C2100031C171003181714CE
:1012AC000800F400740C2200031C17120318171604
:1012BC000800F400740C2200031C971203189716F4
:1012CC000800F400740C2100031C951303189517E7
:1012DC0008008931412189318A31BD228931893116
:1012EC003021080024001608F4000630F436890B6F
:1012FC007C2974080139080024001408F400053016
:10130C00F436890B86297408013908002400140866
:10131C00F4000430F436890B902974080139080064
:10132C00F5007508F400F40D210017087406C13996
:10133C00740697000800F5007508F400F40DF40D20
:10134C0021001D087406833974069D0008002200D4
:10135C008C018E01003089314F21893163000130BD
:10136C0089314F2108006400800101310130FE02F7
:10137C000030FF3B7F087E0403190034BA29FE00BD
:10138C0012001E000130FE020030FF3B7F087E047D
:10139C0003190034C629F500DA29740C2200031C49
:1013AC000E1103180E1508007508013A0319D329FC
:1013BC00DF2908002000A000E9297408F500750851
:1013CC002100E500080020002008013A0319E32958
:1013DC00EF290800033021001C052000A000200884
:1013EC00A20021001B082000A1002208F500210802
:1013FC00F40008002000A000092A75082100DC0078
:10140C007408DB00080020002008013A0319032AA5
:10141C000F2A08002300211C162AF601F60A172AA7
:10142C00F60176082000A0002008F4000130893174
:10143C00D1210800F5015030750203180800750819
:10144C00203E86000330870081010130F4007408CF
:10145C00F507212AF50150307502031808007508AC
:10146C00A03E86000230870081010130F400740830
:10147C00F507312A8E3121268A312000E001E00A5D
:10148C0021006608031D462A833147238A31210037
:10149C00E601E60A462A033020006806031D080010
:1014AC0023002103031D602AF401F40A0130893161
:1014BC00E0210800F40101308931E0210800702A94
:1014CC008A317A228A31B9308331F7230800853189
:1014DC003325080020006008003A0319662A013AF7
:1014EC0003196D2A792A08000630F40074082100CB
:1014FC00B900BA01BB01BB0ABC01BC0ABD01BD0AE3
:10150C00BE01BE0ABF01C001C00AC101C201C301B4
:10151C00C30A08009C2A0B30893196218A3101308C
:10152C0089314F210800803102200800200060081A
:10153C00003A0319912A013A0319992AA52A08009D
:10154C00F400B12A20001C1508002800171508000B
:10155C0028001E1508007408023A0319A82A063A36
:10156C000319AB2A023A0319AE2ABC2A0800200040
:10157C00C601C60A0830C5004508C700C801C80A1C
:10158C001030C9002730CA00CB01CB0A4630C50049
:10159C004508C20002308E31B12608001D30893159
:1015AC00A1218A3189312D218A31893133218A3126
:1015BC00003A0319DB2A8931F02175082000A600B6
:1015CC007408A5002608A4002508A3000800F40050
:1015DC00002B200021082100D3002000200821002E
:1015EC00D200200023082100D50020002208210071
:1015FC00D40008007408013A0319EF2A052B0800DF
:10160C00F401F5012000201C0F2B2208F4072308FD
:10161C00F53D0130A235A30D890B102B0130A136FD
:10162C00A00C890B152B20082104031D082B750811
:10163C00A1007408A00008002000A200A301A301CF
:10164C00740823020318080023082207A0002008AE
:10165C008600023087000108A1002308A03E860006
:10166C0002308700210881000130A0002008A30768
:10167C00262BF100F2017108860087010230010669
:10168C0003195B2B710886008701033001060319CF
:10169C005B2B0230F000710A860087017008810014
:1016AC000230F0007008F20008000330F0007008FF
:1016BC00F2000800F500F4017508860087010103AB
:1016CC0003197F2B75088600870103300106031967
:1016DC007F2B750A8600870102300106031D7E2BC5
:1016EC00750A860087018101810AF401F40A7F2BB7
:1016FC00F401740808002000A100A0012108860054
:10170C0087010230010603199E2B210886008701F0
:10171C000330010603199E2B0230F400210A8600C7
:10172C008701740881000230F4007408A0000800DE
:10173C000330F4007408A0000800F401F401200048
:10174C00230874020318080020002108A5002008B3
:10175C00A40074082407840025080318250A8500B2
:10176C000008A60074082207A7002708860002308C
:10177C008700260881000130A4002408F407A52B5B
:10178C00A534003400340034003401340034003407
:10179C0065340A340034003400340134003400342D
:1017AC0090340A34003400340034E8340334003408
:1017BC0001340D340034003400346434003400340B
:1017CC00B7340634003400340034F43401340034BB
:1017DC00F5000B2C20009110740C2100031C9110AF
:1017EC0003189114080020009310740C2100031CA2
:1017FC00931003189314080020009311740C21000B
:10180C00031C93110318931508007508023A031969
:10181C00F02B063A0319F92B023A0319022C162C59
:10182C000800352C01302000BB003B082100B2071A
:10183C0002303202031C08008C319F242100B301BA
:10184C00B30A0800DF308B31812302302000BB004B
:10185C003B082100B30008008D31A02508002100B1
:10186C003308003A0319182C013A0319282C033AAF
:10187C000319322C412C08002000200821040319E4
:10188C006A2CF501F50AA11B552C0130A035A10DD0
:10189C00890B4C2C0130F4007408F507492C2108F5
:1018AC002302031D5B2C20082202031C612C200840
:1018BC00A2022108A33B0130A136A00C890B622C9B
:1018CC000130F502031D552C2308A1002208A000AD
:1018DC00080000302000AF000030AE000030AD003A
:1018EC000030AC00241C822C2808AC072908AD3D24
:1018FC002A08AE3D2B08AF3D0130A835A90DAA0D25
:10190C00AB0D890B832C0130A736A60CA50CA40CAF
:10191C00890B8A2C2708260425042404031D782C03
:10192C002F08A7002E08A6002D08A5002C08A4003F
:10193C000800031020000E1E03140030093DF400B3
:10194C000230F435FF3E031DA72C7435F5007508E5
:10195C00DF0403108E1E03140030093DF400013027
:10196C00F435FF3E031DB62C7435F5007508DF0405
:10197C0003100C1E03140030093D0907F400740811
:10198C00DF0403108C1E03140030093DF4007408AE
:10199C00DF0408002000B000B101EE2CB101FF2CD7
:1019AC00B101B10AFF2C2C088431A3248C31200006
:1019BC00AE002E08EC2C3008AE002E08A7002D0827
:1019CC00873197278C312000AF002F08B100FF2CF6
:1019DC002B08860087010108003A0319D42C013A20
:1019EC000319D62C033A0319D92C013A0319E12C0B
:1019FC00FF2C310808002A2D21000C1122000C119B
:101A0C0001308D31DE2508008E31FC268D31E5301C
:101A1C002000BD003D08AB00CE30BE003E08AC003F
:101A2C00D730BF003F08AD0001308C31D0242000EE
:101A3C00C000C00DC00D22000C0820004006FB3970
:101A4C00400622008C00080020006008003A0319B0
:101A5C00022D013A03190A2D332D08002000A5018F
:101A6C00A601200821040319642DA401A40AA11BBA
:101A7C00492D0130A035A10D890B402D0130F4000A
:101A8C007408A4073D2D0130A535A60D890B4A2DF0
:101A9C0021082302031D542D20082202031C5B2D58
:101AAC002008A2022108A33B25140130A136A00C6A
:101ABC00890B5C2D0130A402031D492D2608A100C1
:101ACC002508A0000800F400740886008701010CAA
:101ADC002100031C1D1003181D14740A86008701B5
:101AEC00010C031C9E1303189E177408023E8600FB
:101AFC008701010C031C1E1203181E167408033EEA
:101B0C0086008701010C031C1E1103181E15740896
:101B1C00043E860087011E080106FC3901069E0062
:101B2C007408053E86008701010C031C1113031871
:101B3C0011170800DD308B3160238D31003A031909
:101B4C00080081319D218D31D02D8A311022080061
:101B5C00230021082000B800B9013808B900B801E9
:101B6C003808230022042100C90020003908210074
:101B7C00CA00CC308B318123080076082000B800D5
:101B8C0038082400A0002100B701B70A66308B3159
:101B9C008123080023002008503A0319AB2D013A89
:101BAC000319AE2D313A0319C32DDD2D08000800A1
:101BBC002000A500122EF40101308931E021200013
:101BCC00E80108003230F4000030F50001308A31B1
:101BDC0000222000E801E80A08003230A0000030A2
:101BEC00A100B630A2000330A30001308A31ED22EF
:101BFC008D3102302000A4002408F400013089311A
:101C0C00E02102302000A4002408E8000800033082
:101C1C00A4002408E80008002508003A0319E12D67
:101C2C00013A0319E82D033A0319F32D013A03196C
:101C3C000D2E202E08002000DC01DC010030840079
:101C4C0090308500003FD800013FD9005C08DA00D5
:101C5C00DB0159085B02031D352E58085A02031884
:101C6C0008005C08D8000230D835FF3E031D3A2E20
:101C7C005835073E203E8600013087000108D90008
:101C8C005908BC005C08DA000230DA35FF3E031D4F
:101C9C004B2E5A35203E860001308700413F8A008A
:101CAC00403F0A008E3101302000D8005808DC0774
:101CBC000030840090308500003FD800013F2B2E6F
:101CCC00F40023008C01740886008701010C031CAE
:101CDC000C1003180C14740A86008701010C031CE9
:101CEC008C1003188C147408023E86008701010CBA
:101CFC00031C0C1103180C157408033E8600870195
:101D0C00010C031C0C1203180C168E017408043EF3
:101D1C0086008701010C031C0E1003180E147408A6
:101D2C00053E86008701010C031C8E1003188E14CF
:101D3C007408063E86008701010C031C0E11031863
:101D4C000E157408073E86008701010C031C8E11CA
:101D5C0003188E1508002000C40042088600870175
:101D6C000108C3004308F400420886008701413F84
:101D7C00F50044088531C2258E3120004208023E10
:101D8C00860087010103031DCE2EF401F40AD02E28
:101D9C00F401200044088B31EE238E3120004208E0
:101DAC00033E86008701403FB000413FB10042082E
:101DBC00860087010108C3004308B2004208860070
:101DCC008701413FB3004408823191228E31013AA0
:101DDC000319EF2E20004208053E860087010103FF
:101DEC00031D080044088A31A62208003E2F7908FA
:101DFC002000A1002108F40001308931E0212100EC
:101E0C00B401B40A08000130A8070030A93D003025
:101E1C002902063003192802031C08007908031D47
:101E2C00192F01301A2F00302000A1002108F900D1
:101E3C007908A1002108F40001308931E0218E31AC
:101E4C002100A801A90101302000A10021082100D6
:101E5C00B50706303502031C0800F4010130893146
:101E6C00E02102302000A10021082100B40008006C
:101E7C0021003408003A0319FD2E013A0319092FE9
:101E8C00033A03194A2F4A2F080000302000AB00F8
:101E9C000030AA000030A9000030A800230822045A
:101EAC00210420040319952FAC01AC0AA31B6A2F43
:101EBC000130A035A10DA20DA30D890B5F2F0130B0
:101ECC00F4007408AC075C2F0130A835A90DAA0DDD
:101EDC00AB0D890B6B2F23082702031D7F2F2208C4
:101EEC002602031D7F2F21082502031D7F2F2008AA
:101EFC002402031C8A2F2008A4022108A53B2208D7
:101F0C00A63B2308A73B28140130A336A20CA10C36
:101F1C00A00C890B8B2F0130AC02031D6A2F2B08F0
:101F2C00A3002A08A2002908A1002808A000080084
:101F3C002000AF002808AD002708AC002A08A1003B
:101F4C002908A0002D08A3002C08A2008D313425EF
:101F5C008F3120002108AD002008AC000130AB000F
:101F6C002B08AF072C082D04031DA42F2F08860067
:101F7C00870181010130AF022A08A1002908A000C5
:101F8C002808A3002708A2008C3142248F3120009E
:101F9C002008AB002B08AE002A08A1002908A000DD
:101FAC002808A3002708A2008D3134258F3120008A
:101FBC002108A8002008A7000A302E02031CEA2FD3
:101FCC000730AB002B08AE073030AB002B08AE0748
:101FDC002E08AB002F08860087012B0881000130EA
:101FEC00AF0227082804031DC22F0130AB002B08B9
:101FFC00AF07080005340034303431342E3430341B
:10200C0030342E34303430340034013400340A345B
:10201C00003464340034E83403341034273430345E
:10202C0031342E34303431342E34303430340034B6
:10203C00253464342E342534303431347534003442
:10204C005334423431343134313400344534433434
:06205C0048344F3400344B
:020000040001F9
:04000E00ECFFFFDF25
:00000001FF
