:1000000080312F28013401347E14803120007F0894
:10001000F500911C1D282100911C1D282000911025
:1000200001302200D2070030D33D52085304031997
:100030001D28D201D3012100EF012100911D2A28A2
:100040002000911D2A2891116530F0000130F10047
:100050009531442575082000FF007E10090080318D
:1000600031282100803102208031EE0080310320D0
:100070008031EF006C30840096308500203086009F
:10008000013087000030FF0030309331A2238031EF
:100090009D308400233085005330FE000030FF0087
:1000A000933196238031F601F701F801F901DD3033
:1000B0008400003085001130FE000030FF009331D5
:1000C0009623803150308400013085001B30FE00C3
:1000D0000030FF00933196238031A030840001303E
:1000E00085004630FE000030FF00933196238031BA
:1000F00020308400023085005030FE000030FF00C8
:10010000933196238031A030840002308500323054
:10011000FE000030FF0093319623803120308400B0
:10012000033085005030FE000030FF0093319623ED
:100130008031A0308400033085005030FE00003054
:10014000FF009331962380312030840004308500F5
:100150005030FE000030FF00933196237E102000C7
:100160009331232B2100A900A101A2015E302000C0
:10017000E20062082100A30020005D08E3005C08A3
:10018000E200DC0A0319DD0A6208840063088500C6
:100190000008E40064082100AA002A080319B12A13
:1001A00025302A060319E9282A082000E200210048
:1001B0002908860002308700200062088100013093
:1001C000E20062082100A9070130A1070030A23D2A
:1001D000BC28A701A801A601F4282100261501309A
:1001E0002000DC070030DD3D20005C0884005D0855
:1001F00085000008303A0319ED28FE285C088400C9
:100200005D08850000089331D8238031031C4829FC
:100210002100A701A8010A302000A0000030A100A1
:10022000210028082000A300210027082000A200A8
:100230009431C7248031200021082100A80020002B
:1002400020082100A70020005C0884005D088500CC
:100250000008D03EE200FF3003180030E3006208DF
:100260002100A707200063082100A83D01302000DD
:10027000DC070030DD3D5C0884005D088500000877
:100280009331D8238031031C48290B292617642970
:1002900020005D08E3005C08E200DC0A0319DD0AC7
:1002A000620884006308850000082100AA00003A63
:1002B0000319B12A643A031964290D3A0319642910
:1002C0001C3A03194629BC282100261B8229230831
:1002D00086008701403FA400413FA5000230200076
:1002E000E20062082100A307A51F8F290330200028
:1002F000E20062082100A604A409A509A40A0319C2
:10030000A50A8F29230886008701403FA400413FAA
:10031000A50002302000E20062082100A307AA0124
:10032000AA0A05302A060319BA292A082000E20081
:10033000E301E235E30D0030620784009830633D4D
:100340008500003FE400013FE5006508210025022B
:10035000031DAE292000640821002402031CBA29D1
:1003600001302000E20062082100AA0705302A06B9
:10037000031D9529270828040319C62926080339CF
:100380000319C629FF30A707FF30A83D2A0820001F
:10039000E200E301E21BE3036308803AE40021008A
:1003A0002808803A20006402031DDA29210027086A
:1003B000200062020318EB2921002A082000E20035
:1003C000E301E21BE30362082100A70220006308A7
:1003D0002100A83BEE292100A701A801261D252AFE
:1003E000260803390319082A2D302000E2002100D5
:1003F0002908860002308700200062088100013051
:10040000E20062082100A9070130A1070030A23DE7
:100410002708280403195D2A30302000E20021005B
:100420002908860002308700200062088100013020
:10043000E20062082100A9070130A1070030A23DB7
:10044000FF30A707FF30A83D082A27082804031912
:10045000452A20302000E2002100290886000230D1
:1004600087002000620881000130E200620821005C
:10047000A9070130A1070030A23DFF30A707FF30D8
:10048000A83D27082804031D292A26080339031933
:100490005D2A2D302000E20021002908860002306C
:1004A00087002000620881000130E200620821001C
:1004B000A9070130A1070030A23D2A082000E20070
:1004C00062082100A000FF302000E2006208210045
:1004D000A007200A0319BC280A302000A800003019
:1004E000A900210020082000E200E301E235E30D2D
:1004F0000030620784009830633D8500003FA00013
:10050000013FA100210025082000A30021002408AC
:100510002000A20096319C26803120002108AB00EB
:100520002008AA0096310F26803120002808303E8E
:10053000E40064082100AA002A082000E20021004B
:1005400029088600023087002000620881000130FF
:10055000E20062082100A9070130A1070030A23D96
:10056000632A2100290886000230870081012208C1
:100570002000DD00210021082000DC00080021000F
:10058000B701133037020318DE2A3735023EA03E8A
:100590008600013087003735A03E84000130850099
:1005A000403F803F413F813F01302000EB006B081E
:1005B0002100B70713303702031CC52A93310A23E1
:1005C00082318731FB278231003A0319E12A9331C6
:1005D000E7238231200021082300C70020002008E3
:1005E0002300C6002100B701143037020318132B73
:1005F0003735A03E860001308700403F2000EB00E9
:10060000413FEC006B082100E00720006C0821004E
:10061000E13D01302000EB006B082100B7071430EA
:100620003702031CF82A14302000A0000030A1007B
:10063000210061082000A300210060082000A20022
:1006400096319C268231200021082100E100200003
:1006500020082100E0003330B1005330B2003B30BD
:10066000B30031082000CC00210032082000CD006A
:10067000210033082000CE00210061082000A900DD
:10068000210060082000A80094313D248231200020
:100690002808CF002908D0002A08D1008D311A255A
:1006A000823120004C082100B40020004D082100B8
:1006B000B50020004E082100B600D7302000CC0045
:1006C0002330CD003C30CE000030BF000030C000F1
:1006D000BF30C100210034082000C20021003508CD
:1006E0002000C300210036082000C4008431C22449
:1006F000823120003F08CF004008D0004108D100DF
:100700008C317124823120004C082100DD00200052
:100710004D082100DE0020004E082100DF000030DF
:100720002000BF002030C000C030C10021005D08A3
:100730002000C20021005E082000C30021005F08E5
:100740002000C4008431C224823120003F082100EF
:10075000DD00200040082100DE00200041082100CB
:10076000DF005D08AB005E08AC005F08AD00A030A4
:100770002000EB006B082100AE006430AF000030B9
:10078000B000873171270800A02C23302000A00082
:100790009830A1002030B7003708A2000430B8001C
:1007A0003808A30095310025833104302000B700BC
:1007B0003708F7007830A0000030A10095316B2594
:1007C00008001D302000A0009830A1002030B700A4
:1007D0003708A2000530B8003808A300953100257D
:1007E000833105302000B7003708F7007830A000CB
:1007F0000030A10095316B2508000C302000A000CE
:100800009830A1002030B7003708A2000830B800A7
:100810003808A30095310025833108302000B70047
:100820003708F7007830A0000030A10095316B2523
:1008300008000C302000A0009830A1002030B70044
:100840003708A2000830B8003808A3009531002509
:10085000833108302000B7003708F7007830A00057
:100860000030A10095316B25080093310623080064
:100870009331AE23080093316A230800933160233B
:10088000080094319524833120002608BE002508F5
:10089000BD003E08B70037082400A00020003D0836
:1008A000B70037082400A10002302000B700370845
:1008B000F7007830A0000030A10095316B250800CA
:1008C00094319524833120002608BE002508BD0000
:1008D0003E08B8003D08B700B836B70CB836B70CBC
:1008E000B836B70C3708D83EBD00FF30383DBE00E3
:1008F0003E08AF003D08AE000A30B0000030B10045
:1009000039308831A020833139302000A0000030F8
:10091000A1002030B7003708A2000230B800380824
:10092000A30095310025833102302000B70037083D
:10093000F7007830A0000030A10095316B25080049
:1009400026002008103A0319C52B303A0319E12B71
:10095000013A0319FD2B033A0319192C123A031912
:10096000352C013A0319382C703A03193B2C033A01
:1009700003193E2C073A0319412C033A0319602C42
:10098000C12C080020003F08C5004008C6004108EF
:10099000C7000310460D470DC8004808CB004208A9
:1009A000C5004308C6004408C7000310460D470DA4
:1009B000C8004808CA004B080319EA2C4A084B0231
:1009C0000318F12C4B03FF3A4A07C50019304502C2
:1009D000031CF12C4208BF004308C0004408C100BA
:1009E00008004A08031908004B084A020318002DA2
:1009F0004A03FF3A4B07C5001930450203180800A7
:100A00000630C5004508C900C11BC917C41B4917DA
:100A1000C017FF30BF05FF30C0050030C105C31748
:100A2000FF30C205FF30C3050030C4054A084B0241
:100A300003183C2D0130C235C30DC40D890B1B2D8D
:100A40000130CA024A084B060319372D0130C9028A
:100A5000490807390319372D1A2D0130C136C00C4A
:100A6000BF0C890B2E2D0130C5004508CB074B0864
:100A70004A060319612D2D2D4B084A020318612DDA
:100A80000130BF35C00DC10D890B412D0130CB02A6
:100A90004A084B0603195D2D0130C9024908073980
:100AA00003195D2D402D0130C436C30CC20C890BD7
:100AB000542D0130C5004508CA074B084A06031DDE
:100AC000532DC91F732DFF30BF06FF30C006FF3006
:100AD000C1060130BF07003003180130C0070030E5
:100AE00003180130C107491F852DFF30C206FF30B2
:100AF000C306FF30C4060130C207003003180130BE
:100B0000C307003003180130C407C9013F08C207FA
:100B10004008C33D4108C43DC41FA02DFF30C2069C
:100B2000FF30C306FF30C4060130C207003003188F
:100B30000130C307003003180130C407C901C90AD6
:100B40004208A0004308A1004408A2004B08C500C9
:100B50004508A3004908C6004608A40089310221BF
:100B600020002008BF002108C0002208C1000800A2
:100B70009A2E65302000A0000130A1009531E325B8
:100B80008531003A03190800933180238531003AFA
:100B9000031DD02D2100E601E60AE701E70A08005F
:100BA000933180238531013A031D0800210066033B
:100BB000031D08006808031DE22D0230B900390842
:100BC000E70008000330B9003908E70008002400F6
:100BD00011082100B9003908E5006536B900390867
:100BE000E5002400110801392100B9003908E800A6
:100BF0006803031D082E6A08A03E860003308700A4
:100C000001082400910001302100B9003908EA07E9
:100C10000430B9003908E700080093318B2385318F
:100C2000013A031D602E2100E601EF3086002330DB
:100C30008700690881009D3086002330870041319C
:100C400081019D308600233087006508C03F200069
:100C5000ED0150306D020318532E6D08203E8600C2
:100C60000430870001082100B90020006D08210030
:100C7000BA00BB019F30BC002330BD003A083C07DE
:100C8000BE003B083D3DBF003E0886003F08870090
:100C9000390881000130B90039082000ED075030D3
:100CA0006D02031C2D2EEC30A0000030A100953108
:100CB0006B2585312100E9019431072485316F2EA0
:100CC000240011082100B9006908203E8600043084
:100CD0008700390881000130B9003908E90704307C
:100CE0002100B9003908E7000800933175238531E8
:100CF000003A031D8A2E21006A08A03E86000330B8
:100D0000870001082400910001302100B900390852
:100D1000EA078F2E2100EA01E601943118240430FD
:100D20002100B9003908E700080024001516210049
:100D3000E701080021006708840005300402031859
:100D4000080090310435003E820008002000A00019
:100D500024008C012000200886008701010C24005B
:100D6000031C0C1003180C142000200A86008701B5
:100D7000010C2400031C8C1003188C142000200884
:100D8000023E86008701010C2400031C0C1103188D
:100D90000C1520002008033E86008701010C24006A
:100DA000031C8C1103188C1520002008043E8600BB
:100DB0008701010C2400031C0C1203180C162000E0
:100DC0002008053E86008701010C2400031C8C12BC
:100DD00003188C168D0120002008063E860087012E
:100DE000010C2400031C0D1203180D16200020080E
:100DF000073E86008701010C2400031C8D12031896
:100E00008D1620002008083E86008701010C240072
:100E1000031C0D1303180D1720002008093E86003F
:100E20008701010C2400031C8D1303188D178E01FC
:100E3000200020080A3E86008701010C2400031CC4
:100E40000E1003180E14200020080B3E86008701A8
:100E5000010C2400031C8E1003188E14200020089F
:100E60000C3E86008701010C2400031C0E110318A0
:100E70000E15200020080D3E86008701010C24007D
:100E8000031C8E1103188E15200020080E3E8600CC
:100E90008701010C2400031C0E1203180E162000FB
:100EA00020080F3E86008701010C2400031C8E12CF
:100EB00003188E1620002008103E86008701010CC2
:100EC0002400031C0E1303180E1720002008113EE7
:100ED00086008701010C2400031C8E1303188E1753
:100EE000080021002B082000A80021002C08200069
:100EF000A90021002D082000AA008A31D9228731BB
:100F000020002908B7002808B6009531222587312E
:100F100020003608BC003708BD003808BE009331F9
:100F20003323873120003C08C2003D08C3003E083F
:100F3000C40021002B082000BF0021002C08200045
:100F4000C00021002D082000C1008431C224873157
:100F500020003F08CF004008D0004108D100210008
:100F600030082000B70021002F082000B60095317E
:100F70002225873120003608CC003708CD003808FC
:100F8000CE008D311A25873120004C08E8004D082D
:100F9000E9004E08EA001530DC009830DD00210041
:100FA0002B082000A80021002C082000A900210007
:100FB0002D082000AA008A31D92287312000290873
:100FC000DF002808DE006808A8006908A9006A0890
:100FD000AA008A31D922873120002908E100280897
:100FE000E00021002E088031B22020005D08E700DB
:0E0FF0005C08E600080021001D0C0139080015
:1010020069302000A0000130A1009531E32588312C
:10101200003A031908008331C4238831372820009D
:10102200C0010430400203182C284008A03E86006C
:10103200023087000108BF004008203E86000230CF
:1010420087003F0881000130BF003F08C00704301D
:101052004002031C16280430BF003F08F700783016
:10106200A0000030A10095316B2508002600200861
:10107200603A031910283E28080008009028200032
:101082000E0E890C890C0139C1000230C135FF3EB8
:10109200031D47284135C2004208F6040E0CC10068
:1010A200C10C410C0139C2000130C235FF3E031DA3
:1010B20056284235C3004308F6040E0E01390907CB
:1010C200C1004108F6040E0E890C0139C100410825
:1010D200F6042100E201E20A080001302000C1000A
:1010E20041082100E3070A306302031C08000230B2
:1010F2002000C10041082100E20008006730200002
:10110200A0000130A10095316B2503302000C10001
:1011120041082100E2000800883101200800210076
:101122006208003A03194028013A03196E28033A6B
:1011320003197F28013A03198D289F2808002000EF
:10114200B6002F08B4002E08B3003108A100300801
:10115200A0003408A3003308A20096319C268831EF
:1011620020002108B4002008B3000130B200320888
:10117200B60733083404031DA62836088600870103
:1011820081010130B6023108A9003008A8002F08F9
:10119200AB002E08AA0096310F26883120002808BD
:1011A200B2003208B5003108A1003008A0002F08B3
:1011B200A3002E08A20096319C2688312000210827
:1011C200AF002008AE000A303502031CEC280730BD
:1011D200B2003208B5073030B2003208B507350820
:1011E200B200360886008701320881000130B6025B
:1011F2002E082F04031DC4280130B2003208B6079E
:1012020008002000230803190B29220821042004C6
:10121200031D1C290030A0000030A1000030A200F4
:1012220008000130A5002508A3070130A236A10C51
:10123200A00C890B1729FE30220503193529122922
:101242000130A5002508A3070130A00700300318CC
:101252000130A107003003180130A2070130A23685
:10126200A10CA00C890B3029FF3022050319422959
:1012720021290130A3020130A035A10DA20D890B55
:101282003D29A11B48290230230203183A292318B9
:101292005029FF30A0057F30A105FF30A2050310C1
:1012A200A30C2308A500A601A7011030A535A60DA1
:1012B200A70D890B57292508A0042608A104270891
:1012C200A204240803190800A2170800C8308600E7
:1012D20001308700BF3084000030850012302000CA
:1012E200ED0016001A00ED0B7229DA30860001308B
:1012F2008700D1308400003085000C30ED001600EC
:101302001A00ED0B8029CE298E160E168E150E1799
:10131200CF01CF0ACC01CC0ACD01CD0ACE01CE0A33
:10132200BF308631A6268931003093314E23893170
:101332002100D101D201D301D30AD401D701D801AE
:10134200D901DA01DB01DC01D501D601D1308B31C3
:10135200E8238931013093314523893100309331BB
:101362003C23893103302000ED006D082100BB00D1
:10137200BE01BC01BD01BA01BA0AB901B90AB9304C
:101382009631D126893102309331C9230800823146
:10139200BF22893188313F20080021006B08003AC2
:1013A20003198529013A0319C829D7290800200001
:1013B200A300482A1C10DE291C149C10EE291C10C4
:1013C2009C14EE292008013A0319DB29053A031976
:1013D200DD29143A0319E029EE292108FF3EA20073
:1013E200A20DA20DA20D1C082206873922069C001E
:1013F200080028001710FF29280017149710112A37
:10140200280017109714112A20002008013A031906
:10141200FA29053A0319FD29143A0319012A112A56
:1014220020002108FF3EA200A20DA20DA20D28005D
:101432001708200022068739220628009700080094
:1014420028001E10262A28001E149E10382A280062
:101452001E109E14382A20002008013A0319212A5E
:10146200053A0319242A143A0319282A382A200093
:101472002108FF3EA200A20DA20DA20D28001E0807
:10148200200022068739220628009E00080020003C
:101492002308023A0319E329063A0319052A023AF4
:1014A20003192C2A542A08002000AA01CF2A6730E7
:1014B2002000A0000130A1009531E3258A31003AD5
:1014C200031908007608933110238A317F30933153
:1014D20016232100E401E40A0800EC302000A000F9
:1014E2000030A1009531E3258A31003A0319BB2A65
:1014F2009D30860023308700010876060319882A6A
:101502009D308600233087000108031D08009D30AE
:1015120086002330870041310108031D08002000A6
:10152200AA0150302A020318B42A2A08A500A601EB
:101532009F30A7002330A800250827078600260829
:10154200283D87000108A9002A08203E86000330B2
:101552008700290881000130A5002508AA0750301C
:101562002A02031C962A6930A0000130A10095319D
:101572006B25080078302000A0000030A1009531D2
:10158200E3258A31003A0319080077082000A500F4
:101592002508A00020309431E324080021006408CB
:1015A200003A0319582A013A03196E2AD82A080068
:1015B20020002808AC002908AD002A08AE0003105C
:1015C2002D0D2E0DAF002F08B5003508031DF22A90
:1015D2000030AB000030AA000030A9000030A800A3
:1015E20008002808AC002908AD002A08AE00173010
:1015F200AE36AD0CAC0C890BF92A2C08AF002F08C3
:10160200B000A917FF30A805FF30A9050030AA05D0
:101612002808B1002908B2002A08B300B4018E30AC
:10162200B502B51F302B3508803A8F3E0318222BA6
:101632000030AB000030AA000030A9000030A80042
:1016420008000130B436B30CB20CB10C890B232B59
:101652000130AC002C08B5070319492B222B183096
:101662003502031C462B0030AB000030AA000030CC
:10167200A9000030A80008000130B135B20DB30D49
:10168200B40D890B3E2B0130B5023508031D3D2BED
:1016920030080319572BB109B209B309B409B10AC9
:1016A2000319B20A0319B30A0319B40A3408AB00C6
:1016B2003308AA003208A9003108A8000800200057
:1016C200A500D62B2008A100250A8600013087003C
:1016D200210881002508A12B2508023E8600013041
:1016E20087000130810741310318810A250A8600EB
:1016F200013087000108031DA72B2508063E86003E
:1017020001308700403FA100413FA2002508023E70
:10171200860001308700403FA300413FA400220819
:101722002402031D962B21082302031CE22B250809
:10173200023E8600013087000030C03FC13F250ACB
:101742008600013087008101810AE22B250A86008A
:10175200013087000103031DE22B2508043E8600A9
:1017620001308700403FA100413FA2002508023E10
:10177200860001308700403FA300413FA4002208B9
:101782002402031DC62B21082302031CE22B250879
:10179200023E8600013087000030C03FC13F250A6B
:1017A2008600013087008101E22B25088600013086
:1017B20087000108003A0319632B013A03196D2BC4
:1017C200E22B250A8600013087000108080020006C
:1017D200A00023008C012000200886008701010C54
:1017E2002300031C0C1003180C142000200A86008E
:1017F2008701010C2300031C8C1003188C14200099
:101802002008023E86008701010C2300031C0C11F4
:1018120003180C1520002008033E86008701010CE6
:101822002300031C0C1203180C168D012000200843
:10183200043E86008701010C2300031C0D120318CD
:101842000D1620002008053E86008701010C2300AA
:10185200031C8D1203188D168E0120002008063EEF
:1018620086008701010C2300031C0E1003180E14BE
:1018720020002008073E86008701010C2300031C7C
:101882008E1003188E1420002008083E860087015F
:10189200010C2300031C0E1103180E152000200852
:1018A200093E86008701010C2300031C8E110318D8
:1018B2008E15200020080A3E86008701010C2300B5
:1018C200031C0E1303180E17200020080B3E86007F
:1018D2008701010C2300031C8E1303188E170800C6
:1018E20020004F08D2005008D3005108D400031042
:1018F200530D540DD5005508DA005A08031D882CE3
:101902000030CC000030CD000030CE0008004C0882
:10191200D2004D08D3004E08D4000310530D540DCD
:10192200D5005508DB005B08031D9E2C0030CC005F
:101932000030CD000030CE0008000030D70000306B
:10194200D8000030D90089305B07D2005208DA0291
:101952004F08D2005008D3005108D4001030D436BA
:10196200D30CD20C890BB02C5208D5005508DB00E1
:101972004C08D2004D08D3004E08D4001030D436A3
:10198200D30CD20C890BC02C5208D5005508DB06AB
:101992008030D2005208DB05D017FF30CF05FF3070
:1019A200D0050030D105CD17FF30CC05FF30CD0575
:1019B2000030CE051830D2005208D6000130D7359B
:1019C200D80DD90D890BE02C4E085102031DEF2CC6
:1019D2004D085002031DEF2C4C084F02031CF82C3B
:1019E2004C08CF024D08D03B4E08D13B5714013072
:1019F200CF35D00DD10D890BF92C0130D602031D44
:101A0200DF2C5708A0005808A1005908A2005A0864
:101A1200D2005208A3005B08D3005308A400893106
:101A2200022120002008CC002108CD002208CE008F
:101A3200080020004C08D2004D08D3004E08D40004
:101A42000310530D540DD5005508D6005608031D3A
:101A5200312D0030CC000030CD000030CE00080027
:101A62004F08D2005008D3005108D4000310530D80
:101A7200540DD5005508DB005B08031D472D0030CF
:101A8200CC000030CD000030CE0008005B087B3E69
:101A9200D2005208D6074C08D2004D08D3004E0897
:101AA200D4001030D436D30CD20C890B532D5208EB
:101AB200D5005508DB004F08D2005008D30051086A
:101AC200D4001030D436D30CD20C890B632D5208BB
:101AD200D5005508DB068030D2005208DB05CD1751
:101AE200D017FF30CF05FF30D0050030D1050030D0
:101AF200D7000030D8000030D9000730D200520899
:101B0200DA004C1C8A2D4F08D7075008D83D5108DF
:101B1200D93D0130CE36CD0CCC0C890B8B2D01304A
:101B2200CF35D00DD10D890B912D0130DA02031D75
:101B3200822D0930D2005208DA004C1CA62D4F0823
:101B4200D7075008D83D5108D93D0130CE36CD0CCB
:101B5200CC0C890BA72D0130D936D80CD70C890BA8
:101B6200AD2D0130DA02031D9E2D5708A000580842
:101B7200A1005908A2005608D2005208A3005B082F
:101B8200D3005308A4008931022120002008CC0090
:101B92002108CD002208CE0008002000BE0000303F
:101BA200C3000030C2000030C1000030C000350860
:101BB200B600B7013608A2003708A3003408B800FF
:101BC200B9013808A0003908A1009431C7248D3129
:101BD20020002008BA002108BB00BC01BD013D085D
:101BE200A9003C08A8003B08A7003A08A600320852
:101BF200AA003308AB00AC01AD0196313C268D3111
:101C020020002908C3002808C2002708C1002608AE
:101C1200C0004308A3004208A2004108A1004008F6
:101C2200A0000030A7003D30A6000930A50000301A
:101C3200A4009731AD278D3120002308031D802E8B
:101C42002208031D802E01302102031C712E802EDA
:101C52004308A3004208A2004108A1004008A000D6
:101C62000030A7003D30A6000930A5000030A400D6
:101C72009731AD278D31200020089B007D2E43082F
:101C8200A3004208A2004108A1004008A0000030C1
:101C9200A7003D30A6000930A5000030A40097310E
:101CA200AD278D3120002008280096007D2E2000CF
:101CB2004308A3004208A2004108A1004008A00076
:101CC2000030A7003D30A6000930A5000030A40076
:101CD2009731AD278D312000200828009D007D2EF0
:101CE20020003E08023A0319292E063A0319402E13
:101CF200023A0319582E7D2E2000BF01822EBF0109
:101D0200BF0A3F0808002000A40021000D170D168D
:101D1200200024088600013087000108A200220862
:101D2200240095042000240A86000130870001085F
:101D3200A2000230A235FF3E031D9B2E2235A300D6
:101D420023082400960420002408033E8600013064
:101D520087000108A200220824009604200024081B
:101D62000A3E8600013087000108A2000630A23533
:101D7200FF3E031DB82E2235A3002308240096043B
:101D820020002408043E8600013087000108A200DA
:101D92000530A235FF3E031DCA2E2235A3002308BB
:101DA2002400970420002408053E860001308700A5
:101DB2000108A2000430A235FF3E031DDC2E2235AD
:101DC200A30023082400970420002408063E86006E
:101DD200013087000108A2000330A235FF3E031D37
:101DE200EE2E2235A30023082400970420002408A5
:101DF200073E8600013087000108A2000130A235AB
:101E0200FF3E031D002F2235A30023082400970460
:101E120020002408083E8600013087000135A20018
:101E220022082400970420002408093E860001307D
:101E320087000108A2002208240097042000240839
:101E4200023E8600013087000108A2000430A2355C
:101E5200FF3E031D282F2235A300230824009504EA
:101E62002000911121009115943107248E31943173
:101E7200182408002000EE01EE010A308400983098
:101E82008500003F2300E600013FE70020006E08C6
:101E92002300E800E90167086902031D522F660862
:101EA20068020318080020006E082300E6000230D2
:101EB200E635FF3E031D592F6635053E203E86005E
:101EC20001308700403FE700413FE80020006E08F4
:101ED2002300E9000230E935FF3E031D6C2F69350E
:101EE200033E203E860001308700403FEA00413F2A
:101EF200EB0068086B02031D802F67086A02031C4F
:101F0200CD2F20006E082300E6000230E635FF3EAA
:101F1200031D872F6635033E203E86000130870071
:101F22000030C03FC13F20006E082300E6000230AF
:101F3200E635FF3E031D992F6635023E203E8600A0
:101F4200013087008101810A20006E082300E6002B
:101F52000230E635FF3E031DAA2F6635073E203EBE
:101F62008600013087000108E70067082100B800F9
:101F720020006E082300E8000230E835FF3E031D12
:101F8200BE2F6835203E860001308700413F8A001F
:101F9200403F0A008F31F12F20006E082300E60037
:101FA2000230E635FF3E031DD22F6635033E203E4A
:101FB2008600013087000130810741310318810A10
:101FC20020006E082300E6000230E635FF3E031DC6
:101FD200E62F6635023E203E8600013087008101F1
:101FE20001302300E60066082000EE070A30840074
:101FF20098308500003F2300E600013F462F8531DF
:10200200B92D8531E72D86310D2E8631752E86311B
:02201200952E09
:10260C00010008006400080021009D1408008B17CD
:10261C000B1708002000A0002035240092000800B1
:10262C002000A000203524009300080021009914FC
:10263C00783099041A180800202B933157239331C2
:10264C009331F72380312F282000A000200C21008B
:10265C00031C171003181714080020003E083D0433
:10266C003C04031908008030BE0608002000A000BE
:10267C00200C2200031C1712031817160800200048
:10268C00A000200C2200031C9712031897160800B8
:10269C002000A000200C2100031C95130318951793
:1026AC00080093311C2393319431AE249331933130
:1026BC000D23080026002103031D672B22000E1595
:1026CC00080022000E11080026002103031D722BA6
:1026DC002100EE01EE0A08002100EE0108002400A2
:1026EC0016082000A0000630A036890B7A2B200893
:1026FC0001390800240014082000A0000530A03681
:10270C00890B852B200801390800240014082000AF
:10271C00A0000430A036890B902B2008013908004A
:10272C006400800101310130FE020030FF3B7F0864
:10273C007E0403190034972BFE0012001E0001309A
:10274C00FE020030FF3B7F087E0403190034A32BEC
:10275C0022008C018D018E01003093312A2393319C
:10276C006300013093312A2308002000A1002108C6
:10277C00A000A00D2100170820002006C13920065A
:10278C002100970008002000A1002108A000A00D46
:10279C00A00D21001D0820002006833920062100F1
:1027AC009D0008002000A100A0013A30210203186E
:1027BC00E52B30302102031CE52BA001A00A200CD4
:1027CC000800033021001C052000A2002208A400F0
:1027DC0021001B082000A3002408A1002308A0004E
:1027EC00080097315E2793312100EB01EB0A6F084B
:1027FC00031DFD2B8F313B2793312100EF01EF0A95
:10280C00FD2B2000A10150302102031808002108E3
:10281C00203E86000430870081010130A000200892
:10282C00A107092C2000A101503021020318080037
:10283C002108A03E86000330870081010130A000F2
:10284C002008A1071A2C06302000A0002008220026
:10285C00DA00DB01DC01DC0ADD01DE01DE0ADF016E
:10286C00DF0AE001E101E201E301E40108002000DC
:10287C002808A0002908A100A2018E30AB002B086B
:10288C00A300A4018931022120002008A8002108FE
:10289C00A9002208AA0008005D2C94312924943147
:1028AC005A308E31842608008A31552208002100C6
:1028BC006B08003A0319532C013A03195A2C662C55
:1028CC000800732C0B309331BB23943101309331BE
:1028DC002A23080093310823080021006B08003AD2
:1028EC000319682C013A0319702C7C2C0800200069
:1028FC00A000882C1C1508002800171508002800BB
:10290C001E15080020002008023A0319802C063AF4
:10291C000319822C023A0319852C942C08001D30C3
:10292C009331C923943193310A2394318731FB2796
:10293C009431003A03199C2C9331E7232000210891
:10294C00A8002008A7002808A6002708A500080052
:10295C0010302000C7004708C8000430C7004708E3
:10296C00C900CA01CA0AE830CB000330CC00CD0143
:10297C00CD0A4830C7004708C400023097311327EE
:10298C0008002000A401A501201CD02C2208A407BB
:10299C002308A53D0130A235A30D890BD12C0130A4
:1029AC00A136A00C890BD62C20082104031DCA2C9F
:1029BC002508A1002408A00008002000A300A40101
:1029CC00A401200824020318080024082307A100EE
:1029DC0021088600023087000108A2002408A03ECE
:1029EC00860003308700220881000130A1002108F5
:1029FC00A407E72C2000A801A8012308280203182B
:102A0C0008002108A5002008A40028082407840039
:102A1C0025080318250A85000008A60028082207A7
:102A2C00A7002708860002308700260881000130A5
:102A3C00A4002408A807032D2000BB01B71F2D2DCF
:102A4C00B609B709B60A0319B70ABB01BB0A36089F
:102A5C00A0003708A100A2018E30B9003908A300EC
:102A6C003B08BA003A08A400893102212000200852
:102A7C00B6002108B7002208B8000800F40170085D
:102A8C00860071088700023001060319662D700854
:102A9C00860071088700033001060319662D700843
:102AAC00013EF2000030713DF3007208860073089D
:102ABC008700023081000230F2007208F400080036
:102ACC000330F2007208F40008002000A401200872
:102ADC008600210887000230010603198E2D20087C
:102AEC008600210887000330010603198E2D20086B
:102AFC00013EA2000030213DA300220886002308DD
:102B0C008700023081000230A2002208A4000800D5
:102B1C000330A2002208A4000800B12D0E112200DF
:102B2C000E11080021006E03031DAE2D2000A00124
:102B3C0048308B3160232000ED00ED0DED0D2200AF
:102B4C000E0820006D06FB396D0622008E00080071
:102B5C0022000E11080021006B08003A0319942D75
:102B6C00013A0319982DBA2D08002000A100D62D8A
:102B7C009110200C2100031C9110031891140800D3
:102B8C009310200C2100031C9310031893140800BD
:102B9C009311200C2100031C9311031893150800AA
:102BAC0020002108023A0319BE2D063A0319C62D3E
:102BBC00023A0319CE2DE22D08002000A4012008B2
:102BCC00860021088700010303190D2E20088600BA
:102BDC00210887000330010603190D2E20088600FA
:102BEC0021088700413102300106031D0C2E2008FC
:102BFC00013EA2000030213DA300220886002308DC
:102C0C00870001308100A401A40A0D2EA401240820
:102C1C0008002000280829040319372EAD01AD0A3D
:102C2C00A91B222E0130A835A90D890B192E0130B4
:102C3C00AC002C08AD07162E29082B02031D282EDC
:102C4C0028082A02031C2E2E2808AA022908AB3BAE
:102C5C000130A936A80C890B2F2E0130AD02031DB3
:102C6C00222E2B08A9002A08A800080000302000FA
:102C7C00B1000030B0000030AF000030AE00261CB8
:102C8C004F2E2A08AE072B08AF3D2C08B03D2D085F
:102C9C00B13D0130AA35AB0DAC0DAD0D890B502EED
:102CAC000130A936A80CA70CA60C890B572E2908A5
:102CBC00280427042604031D452E3108A9003008DA
:102CCC00A8002F08A7002E08A6000800B834053469
:102CDC0000340034003401340034003452341434E1
:102CEC0000340034003401340034003467341434BC
:102CFC00003400340034643400340034933415341C
:102D0C000034003400343234003400346734093475
:102D1C0000340034003414340034003400340034F3
:102D2C000034003401340034093400342000A6018E
:102D3C00A701200821040319CC2EA501A50AA11B6B
:102D4C00B12E0130A035A10D890BA82E0130A400A5
:102D5C002408A507A52E0130A635A70D890BB22E88
:102D6C0021082302031DBC2E20082202031CC32EA3
:102D7C002008A2022108A33B26140130A136A00C86
:102D8C00890BC42E0130A502031DB12E2708A1000A
:102D9C002608A00008002000A0002008860087015B
:102DAC00010C2100031C1D1003181D142000200A07
:102DBC0086008701010C2100031C9E1303189E172B
:102DCC0020002008023E86008701010C2100031C14
:102DDC001E1203181E1620002008033E86008701D1
:102DEC00010C2100031C1E1103181E1520002008C5
:102DFC00043E8600870121001E080106FC390106ED
:102E0C009E0020002008053E86008701010C210051
:102E1C00031C11130318111708002000C6004408E6
:102E2C00860087010108C5004508A00044088600FB
:102E3C008701413FA10046088931D82197312000F4
:102E4C004408023E860087010103031D302FA001B8
:102E5C00A00A322F2000A00146089531BB259731DE
:102E6C0020004408033E86008701403FB200413FEA
:102E7C00B3004408860087010108C5004508B4006A
:102E8C00440886008701413FB50046088D31CE25A8
:102E9C009731013A0319512F20004408053E860052
:102EAC0087010103031D0800460894317D240800A6
:102EBC002000EE01EE010A30840098308500003FBE
:102ECC002200EB00013FEC0020006E082200ED0018
:102EDC00EE016C086E02031D752F6B086D02031852
:102EEC00080020006E082200EB000230EB35FF3E9C
:102EFC00031D7C2F6B35073E203E8600013087007A
:102F0C000108EC006C082100B80020006E082200BB
:102F1C00ED000230ED35FF3E031D902F6D35203E48
:102F2C00860001308700413F8A00403F0A009731FC
:102F3C0001302200EB006B082000EE070A30840001
:102F4C0098308500003F2200EB00013F692F0030D4
:102F5C002000AC000030AB000030AA000030A9000B
:102F6C0023082204210420040319F72FAD01AD0A14
:102F7C00A31BCC2F0130A035A10DA20DA30D890BE5
:102F8C00C12F0130A8002808AD07BE2F0130A9358C
:102F9C00AA0DAB0DAC0D890BCD2F23082702031DF9
:102FAC00E12F22082602031DE12F21082502031D13
:102FBC00E12F20082402031CEC2F2008A402210876
:102FCC00A53B2208A63B2308A73B29140130A336B6
:102FDC00A20CA10CA00C890BED2F0130AD02031D2E
:102FEC00CC2F2C08A3002B08A2002A08A10029082A
:102FFC00A0000800013400340A3400346434003476
:10300C00E83403341034273405340034303431348C
:10301C002E34303430342E343034303400342534C3
:10302C0064342E3425343034313475340034533414
:10303C004234383431343034003445344334483439
:04304C004F340034C9
:020000040001F9
:04000E00ECFFFFDF25
:00000001FF
