:1000000080312E28640008007E14803120007F0893
:10001000F500911C1C282100911C1C282000911027
:1000200001302100CA070030CB3D4A084B040319B8
:100030001C28CA01CB01E4012100911D29282000C0
:10004000911D29289111DF30F0000030F100973127
:10005000612775082000FF007E10090080313028DC
:100060009431B0248031F9009431AF248031EF0015
:1000700021009431AE248031E400D83084009730E0
:100080008500A0308600013087000030FF00283056
:100090009531422580319D308400233085005330D6
:1000A000FE000030FF00953136258031F601F70162
:1000B000F8012000EE01CA308400003085001A30BB
:1000C000FE000030FF00953136258031203084005D
:1000D000013085004C30FE000030FF0095313625A0
:1000E000803120308400023085005030FE00003026
:1000F000FF00953136258031A03084000230850024
:100100005030FE000030FF00953136258031203020
:100110008400033085005030FE000030FF00953130
:1001200036258031A0308400033085005030FE0039
:100130000030FF00953136257E1020009431D62CFA
:100140008A2945302000A0009830A100A030B100DD
:100150003108A2000430B2003208A30097313F27D3
:10016000803104302000B10031082100D200DB30A2
:100170002000A0000030A1009731882708003F3000
:100180002000A0009830A100A030B1003108A200EA
:100190000530B2003208A30097313F278031053087
:1001A0002000B10031082100D200DB302000A00087
:1001B0000030A1009731882708002E302000A000D1
:1001C0009830A100A030B1003108A2000830B20080
:1001D0003208A30097313F27803108302000B1005A
:1001E00031082100D200DB302000A0000030A10047
:1001F0009731882708002F302000A0009830A100F8
:10020000A030B1003108A2000830B2003208A300CB
:1002100097313F27803108302000B100310821009C
:10022000D200DB302000A0000030A10097318827E9
:1002300008009431B924080095314E2508002400A7
:1002400021088931DD21080096312F2608009631DA
:10025000B826803120002608B8002508B7003808E5
:10026000B10031082500A00020003708B100310896
:100270002500A10002302000B10031082100D20089
:10028000DB302000A0000030A10097318827080053
:100290009631B826803120002608B8002508B7001E
:1002A0003808B2003708B100B236B10CB236B10C22
:1002B000B236B10C3108D83EB700FF30323DB8003D
:1002C0003808A9003708A8000A30AA000030AB009F
:1002D00033308B31B523803133302000A000003023
:1002E000A100A030B1003108A2000230B2003208F3
:1002F000A30097313F27803102302000B100310840
:100300002100D200DB302000A0000030A100973196
:100310008827080024002008103A0319A128303A41
:100320000319BF28013A0319DD28033A0319FB28F2
:10033000123A03191929013A03191C29703A0319B1
:100340001F29033A03192429073A03192729033AD5
:1003500003194829AB290800AB2ADF302000A00090
:100360000030A100883112208131003A03190800C1
:10037000953120258131003A031DDA2921005703E8
:10038000031DD02901302000E50065082100D607B3
:100390000B305602031CD2299431B1248131D22969
:1003A0002100D6012100D701D70AD901D90ADA01E3
:1003B000DA0A0800953120258131013A031D080031
:1003C00021005903031D0800D7017708031DEF29F9
:1003D00002302000E50065082100DA000800033043
:1003E0002000E50065082100DA000800240011085B
:1003F0002000E5006508F8007836E5006508F8009B
:100400002400110801392000E5006508F700770392
:10041000031D192A21005808203E8600033087005A
:1004200001082400910001302000E500650821004A
:10043000D80704302000E50065082100DA00080034
:1004400095312B258131013A031D6E2A2100D901F6
:10045000EF30860023308700760881009D308600CB
:1004600023308700413181019D3086002330870091
:100470007808C03F2000EC0150306C020318622A5B
:100480006C08A03E8600033087000108E5006C0878
:10049000E600E7019F30E8002330E90066086807BE
:1004A000EA006708693DEB006A0886006B08870070
:1004B000650881000130E5006508EC0750306C02EA
:1004C000031C402AE130A0000030A10097318827AA
:1004D0008131F6019531BA2581317D2A2400110838
:1004E0002000E5007608A03E8600033087006508FE
:1004F00081000130E5006508F60704302000E500C2
:1005000065082100DA000800953115258131003A8F
:10051000031D9A2A21005808203E860003308700D8
:1005200001082400910001302000E5006508210049
:10053000D8079F2A2100D801D9019531CB25043055
:100540002000E50065082100DA00080024001516E7
:100550002100DA01080021005A0884000530040255
:1005600003180800903104351A3E820008006A30F2
:100570002000A0000130A100883112208231003A11
:10058000031908008031A0208231752B2400210836
:100590008F315C27080014302000A0000030A1003B
:1005A0003A309631EB2682312000E2012400210806
:1005B000200062020318EF2A6208023E203E8600F5
:1005C000023087000108B90062083A3E86008701C0
:1005D000390881000130B9003908E207D62A6208DB
:1005E000033E3A3E8600870181013A309631052666
:1005F000080024002103031D012B013095310A2539
:100600000800003095310A25080001308F315C2741
:10061000080002308F315C270800C0308F315C2722
:10062000080002308F315C27823114302000A00096
:100630000030A1003A309631EB2682312000E201F1
:1006400024002108200062020318392B6208023EB0
:10065000203E8600023087000108B90062083A3E59
:1006600086008701390881000130B9003908E207A6
:10067000202B6208033E3A3E8600870181013A3012
:10068000963105260800C0308F315C278231143046
:100690002000A0000030A1003A309631EB268231D4
:1006A0002000E201240021082000620203186B2BC5
:1006B0006208023E203E8600023087000108B90031
:1006C00062083A3E86008701390881000130B9008E
:1006D0003908E207522B6208033E3A3E8600870142
:1006E00081013A3096310526080024002008503A4E
:1006F0000319C62A013A0319CB2A033A0319F92A26
:10070000013A0319052B073A0319092B013A03197A
:100710000D2B0F3A0319112B013A0319432B912B7F
:10072000080008002000A00024008C012000200800
:1007300086008701010C2400031C0C1003180C1404
:100740002000200A86008701010C2400031C8C1065
:1007500003188C1420002008023E86008701010C3B
:100760002400031C0C1103180C1520002008033E64
:1007700086008701010C2400031C8C1103188C15C2
:1007800020002008043E86008701010C2400031C81
:100790000C1203180C1620002008053E8600870165
:1007A000010C2400031C8C1203188C168D012000F0
:1007B0002008063E86008701010C2400031C0D1250
:1007C00003180D1620002008073E86008701010C43
:1007D0002400031C8D1203188D1620002008083EEB
:1007E00086008701010C2400031C0D1303180D174C
:1007F00020002008093E86008701010C2400031C0C
:100800008D1303188D178E01200020080A3E8600E4
:100810008701010C2400031C0E1003180E14200085
:1008200020080B3E86008701010C2400031C8E105B
:1008300003188E14200020080C3E86008701010C4E
:100840002400031C0E1103180E15200020080D3E75
:1008500086008701010C2400031C8E1103188E15DD
:10086000200020080E3E86008701010C2400031C96
:100870000E1203180E16200020080F3E8600870176
:10088000010C2400031C8E1203188E162000200871
:10089000103E86008701010C2400031C0E13031870
:1008A0000E1720002008113E86008701010C24004D
:1008B000031C8E1303188E1708002000ED01ED01B4
:1008C0000030840098308500003F2100C400013FC3
:1008D000C50020006D082100C600C7014508470279
:1008E000031D742C440846020318080020006D08FC
:1008F0002100C4000230C435FF3E031D7B2C44356B
:10090000053EA03E860001308700403FC500413FC4
:10091000C60020006D082100C7000230C735FF3E29
:10092000031D8E2C4735033EA03E86000130870014
:10093000403FC800413FC90046084902031DA22CA0
:1009400045084802031CEE2C20006D082100C4005D
:100950000230C435FF3E031DA92C4435033EA03EA2
:100960008600013087000030C03FC13F20006D0885
:100970002100C4000230C435FF3E031DBB2C4435AA
:10098000023EA03E8600013087008101810A2000DE
:100990006D082100C4000230C435FF3E031DCC2C7D
:1009A0004435073EA03E8600013087000108C5009F
:1009B00045082000E4006D082100C6000230C6355D
:1009C000FF3E031DDF2C4635A03E86000130870028
:1009D000413F8A00403F0A008431122D20006D08FB
:1009E0002100C4000230C435FF3E031DF32C443502
:1009F000033EA03E8600013087000130810741316F
:100A00000318810A20006D082100C4000230C4359B
:100A1000FF3E031D072D4435023EA03E86000130F7
:100A20008700810101302100C40044082000ED0747
:100A30000030840098308500003F2100C400013F51
:100A4000682CCB2DD0302000A0000730A1009531BC
:100A5000F02585312100D501D50ACB2D953198257A
:100A600085310230C62D30308B315D238531033026
:100A7000B52D30308B315D2385310430B52D3030CC
:100A80008B315D2385310530B52D22004503031DD3
:100A90004B2D30304C2D20308B315D23853106308D
:100AA000B52D220047082000A7000230A735890B8A
:100AB000562D220046082000A8000330A835890BD7
:100AC0005E2D220045082000A9000330A935FF3E15
:100AD000031D662D29352804270420388F315C2713
:100AE00085310730B52D220041082000A7000130D4
:100AF000A735890B782D220040082000A80001307E
:100B0000A835FF3E031D802D28352704220042040E
:100B100008388F315C2785310830B52D2200440814
:100B20002000A7000230A735890B932D220043082F
:100B30002000A8000230A835FF3E031D9B2D28355C
:100B4000270410388F315C2785310930B52D2200FC
:100B50003E353F0404388F315C2785310A30C62D7D
:100B600001308F315C2785310B302000A70027082A
:100B70002100D4000C30C62DD0302000A00007305A
:100B8000A1009531F0258531210054082000A700EF
:100B900027082100D5000B30210055060319080055
:100BA0002100550884000D3004020318CB2D90312C
:100BB0000435003E8200CB2D2000A40021000D173B
:100BC0000D16200024088600013087000108A200CD
:100BD0002208240095042000240A860001308700A2
:100BE0000108A2000230A235FF3E031DF32D22357D
:100BF000A30023082400960420002408033E860056
:100C0000013087000108A200220824009604200079
:100C100024080A3E8600013087000108A200063041
:100C2000A235FF3E031D102E2235A3002308240009
:100C3000960420002408043E860001308700010845
:100C4000A2000530A235FF3E031D222E2235A3004F
:100C500023082400970420002408053E8600013064
:100C600087000108A2000430A235FF3E031D342E88
:100C70002235A30023082400970420002408063E00
:100C80008600013087000108A2000330A235FF3E34
:100C9000031D462E2235A3002308240097042000BC
:100CA0002408073E8600013087000108A2000130B9
:100CB000A235FF3E031D582E2235A3002308240031
:100CC000970420002408083E860001308700013583
:100CD000A20022082400970420002408093E860070
:100CE000013087000108A200220824009704200098
:100CF0002408023E8600013087000108A20004306B
:100D0000A235FF3E031D802E2235A30023082400B8
:100D1000950420009111210091159531BA25853156
:100D20009531CB2508002000BE000030C300003004
:100D3000C2000030C1000030C0003508B600B70165
:100D40003608A2003708A3003408B800B9013808F3
:100D5000A0003908A100973106278631200020081D
:100D6000BA002108BB00BC01BD013D08A9003C0838
:100D7000A8003B08A7003A08A6003208AA003308DA
:100D8000AB00AC01AD0188319A20863120002908E2
:100D9000C3002808C2002708C1002608C000430875
:100DA000A3004208A2004108A1004008A0000030B2
:100DB000A7003D30A6000930A5000030A4008B310B
:100DC0000A23863120002308031D452F2208031D16
:100DD000452F01302102031C362F452F4308A30065
:100DE0004208A2004108A1004008A0000030A7006E
:100DF0003D30A6000930A5000030A4008B310A2345
:100E00008631200020089B00422F4308A30042089F
:100E1000A2004108A1004008A0000030A7003D301A
:100E2000A6000930A5000030A4008B310A238631CA
:100E30002000200828009600422F20004308A3002D
:100E40004208A2004108A1004008A0000030A7000D
:100E50003D30A6000930A5000030A4008B310A23E4
:100E600086312000200828009D00422F20003E08E7
:100E7000023A0319EE2E063A0319052F023A031916
:100E80001D2F422F2000BF01472FBF01BF0A3F087F
:100E900008002000A6009431B324873122008C166C
:100EA00020002608A4000730A436890B542F2408FC
:100EB0000139A500A50DA50D22000E08200025066C
:100EC000FB39250622008E0020002608A4000630EB
:100ED000A436890B682F24080139A500A50D22002E
:100EE0000E0820002506FD39250622008E00200070
:100EF0002608A4000530A436890B7B2F0130240579
:100F0000A50022000E0820002506FE392506220035
:100F10008E0020002608A4000430A436890B8D2FF3
:100F200024080139A500A50DA50D22000C082000FC
:100F30002506FB39250622008C009531DC258731FA
:100F400020002608A4000330A436890BA42F24080F
:100F50000139A500A50DA50D22000E0820002506CB
:100F6000FB39250622008E0020002608A40002304E
:100F7000A436890BB82F24080139A500A50D22003D
:100F80000E0820002506FD39250622008E002000CF
:100F90002608A4000130A436890BCB2F013024058C
:100FA000A50022000E0820002506FE392506220095
:100FB0008E00200026080139A400A40DA40D2200F3
:100FC0000C0820002406FB39240622008C009531F1
:100FD000DC25873122008C129431B62408008A3136
:100FE0006B2287312000EE01EE0A21006408031D08
:100FF000F52F84315D2487312100E401E40AF52FC7
:101000002000A2000B2821082200E900200020086F
:101010002200E800080020002208013A03190328F2
:10102000112808002000A40120088600210887005C
:10103000010303193C28200886002108870003309B
:10104000010603193C282008860021088700413149
:1010500002300106031D3B282008013EA20000309B
:10106000213DA3002208860023088700013081006B
:10107000A401A40A3C28A401240808002000200898
:10108000210403196628A501A50AA11B51280130D6
:10109000A035A10D890B48280130A4002408A5071C
:1010A000452821082302031D572820082202031C7B
:1010B0005D282008A2022108A33B0130A136A00C24
:1010C000890B5E280130A502031D51282308A100C9
:1010D0002208A00008008D2801302000E3006308EA
:1010E0002100CC070A304C02031C0800893163211F
:1010F0002100CD01CD0A0800DD302000A000003025
:10110000A1009731882702302000E3006308210006
:10111000CD0008008231B722080021004D08003AB6
:1011200003196C28013A03197C28033A03198A2809
:101130009928080000302000B1000030B0000030D5
:10114000AF000030AE00261CAD282A08AE072B08E1
:10115000AF3D2C08B03D2D08B13D0130AA35AB0D97
:10116000AC0DAD0D890BAE280130A936A80CA70C2B
:10117000A60C890BB5282908280427042604031D7A
:10118000A3283108A9003008A8002F08A7002E08BE
:10119000A60008002000B100B201E828B201F92839
:1011A000B201B20AF9282D088E312026883120009C
:1011B000AF002F08E6283108AF002F08A8002E083E
:1011C0008C31172488312000B0003008B200F92893
:1011D0002C08860087010108003A0319CE28013A3D
:1011E0000319D028033A0319D328013A0319DB283D
:1011F000F92832080800242921008D1322008D13BC
:1012000001308931DD2108008A31B9228831E3308B
:101210002000E5006508AC005B30E6006608AD0024
:101220006430E7006708AE0001308831CA20200032
:10123000E800E80CE80C22000D08200068067F3961
:10124000680622008D00080020006E08003A03198D
:10125000FC28013A031904292D2908002000A601C1
:10126000A7012008210403195E29A501A50AA11BD5
:1012700043290130A035A10D890B3A290130A40082
:101280002408A50737290130A635A70D890B442965
:1012900021082302031D4E2920082202031C552980
:1012A0002008A2022108A33B26140130A136A00C7D
:1012B000890B56290130A502031D43292708A100E7
:1012C0002608A0000800031020000E1F03140030A1
:1012D000093DA0000230A035FF3E031D6B292035DB
:1012E000A10021082100D104031020008E1D031449
:1012F0000030093DA0000130A035FF3E031D7C29D0
:101300002035A10021082100D104031020000E1E69
:1013100003140030093D0907A00020082100D10472
:10132000031020008E1E03140030093DA000200889
:101330002100D10408002000A000200886008701B9
:10134000010C2100031C1D1003181D142000200A8D
:1013500086008701010C2100031C9E1303189E17B1
:1013600020002008023E86008701010C2100031C9A
:101370001E1203181E1620002008033E8600870157
:10138000010C2100031C1E1103181E15200020084B
:10139000043E8600870121001E080106FC39010673
:1013A0009E0020002008053E86008701010C2100D8
:1013B000031C11130318111708002000A600112A9E
:1013C000A0010130953178252000EF01080032306E
:1013D000A0000030A1000130883100202000EF0182
:1013E000EF0A08003230A0000030A100B630A200A1
:1013F0000330A30001309631D1268931023020001C
:10140000A5002508A0000130953178250230200084
:10141000A5002508EF0008000330A5002508EF000F
:1014200008002608003A0319E029013A0319E729C0
:10143000033A0319F229013A03190C2A1F2A08005A
:101440002000C6004408860087010108C500450841
:10145000A000440886008701413FA10046088C3166
:101460008A248A3120004408023E86008701010355
:10147000031D3D2AA001A00A3F2A2000A001460822
:101480009731B0278A3120004408033E8600870147
:10149000403FB200413FB300440886008701010885
:1014A000C5004508B400440886008701413FB500E7
:1014B0004608863193268A31013A03195E2A2000B4
:1014C0004408053E860087010103031D0800460805
:1014D0009631A02608002000ED01ED0100308400C7
:1014E00098308500003F2100C400013FC500200066
:1014F0006D082100C600C70145084702031D822A66
:10150000440846020318080020006D082100C400AA
:101510000230C435FF3E031D892A4435073EA03EF4
:101520008600013087000108C50045082000E4005E
:101530006D082100C6000230C635FF3E031D9C2AFF
:101540004635A03E860001308700413F8A00403F7B
:101550000A008A3101302100C40044082000ED0750
:101560000030840098308500003F2100C400013F16
:10157000762AFD2A79082000A3002308A000013064
:10158000953178252100CE01CE0A080001302200D5
:10159000C8070030C93D003049020630031948022F
:1015A000031C08007908031DD72A0130D82A00300F
:1015B0002000A3002308F9007908A3002308A00055
:1015C0000130953178258A312200C801C9010130E6
:1015D0002000A30023082100CF0706304F02031C80
:1015E00008002000A001013095317825023020004C
:1015F000A30023082100CE00080021004E08003A75
:101600000319BA2A013A0319C62A033A0319092B06
:10161000092B080000302000AC000030AB00003087
:10162000AA000030A9002308220421042004031981
:10163000542BAD01AD0AA31B292B0130A035A10D00
:10164000A20DA30D890B1E2B0130A8002808AD07A1
:101650001B2B0130A935AA0DAB0DAC0D890B2A2B24
:1016600023082702031D3E2B22082602031D3E2BC2
:1016700021082502031D3E2B20082402031C492BB0
:101680002008A4022108A53B2208A63B2308A73B6B
:1016900029140130A336A20CA10CA00C890B4A2BF3
:1016A0000130AD02031D292B2C08A3002B08A2003A
:1016B0002A08A1002908A00008002000A6009431F3
:1016C000B3248B3120002608A4000730A436890BF0
:1016D000662B24080139A500A50DA50D22000E08D2
:1016E00020002506FB39250622008E002000260852
:1016F000A4000630A436890B7A2B24080139A500F2
:10170000A50D22000E0820002506FD392506220021
:101710008E0020002608A4000530A436890B8D2BEE
:1017200001302405A50022000E0820002506FE3900
:10173000250622008E0020002608A4000430A436CE
:10174000890B9F2B24080139A500A50DA50D2200AA
:101750000C0820002506FB39250622008C00953157
:10176000DC258B319431B62408002000B000290814
:10177000AE002808AD002B08A1002A08A0002E0802
:10178000A3002D08A20089312E218B3120002108D1
:10179000AE002008AD000130AC002C08B0072D08C9
:1017A0002E04031DBB2B3008860087018101013008
:1017B000B0022B08A1002A08A0002908A3002808CD
:1017C000A20088313E208B3120002008AC002C087C
:1017D000AF002B08A1002A08A0002908A3002808B0
:1017E000A20089312E218B3120002108A900200878
:1017F000A8000A302F02031C012C0730AC002C0873
:10180000AF073030AC002C08AF072F08AC00300811
:10181000860087012C0881000130B00228082904C5
:10182000031DD92B0130AC002C08B00708002000A4
:10183000AB00732C2B0A8600013087008101810ADE
:101840002B088600013087008101810A2B08023EA7
:101850008600013087000130810741310318810A79
:101860000A30A0000030A1002B08043E86000130A1
:101870008700403FA200413FA30089312E218C31D7
:1018800020002B08023E860001308700403FA9005F
:10189000413FAA0021082A02031D502C20082902DA
:1018A000031C832C2B08023E860001308700003089
:1018B000C03FC13F2B0A8600013087008101023002
:1018C000A9002B0886000130870029088100832C9D
:1018D0002B088600013087008101A001280895317E
:1018E00078258C31832C20002B088600013087005E
:1018F0000108003A03191A2C013A0319262C033A5D
:101900000319682C832C20002B0A860001308700E5
:10191000010808002000A300FA2C1C10902C1C14B5
:101920009C10A02C1C109C14A02C2008013A031918
:101930008D2C053A03198F2C143A0319922CA02CE4
:101940002108FF3EA200A20DA20DA20D1C08220636
:10195000873922069C00080028001710B12C2800A7
:1019600017149710C32C280017109714C32C2000AD
:101970002008013A0319AC2C053A0319AF2C143A8C
:101980000319B32CC32C20002108FF3EA200A20D96
:10199000A20DA20D28001708200022068739220672
:1019A00028009700080028001E10D82C28001E14BC
:1019B0009E10EA2C28001E109E14EA2C20002008FD
:1019C000013A0319D32C053A0319D62C143A0319FA
:1019D000DA2CEA2C20002108FF3EA200A20DA20D65
:1019E000A20D28001E0820002206873922062800A2
:1019F0009E00080020002308023A0319952C063A9D
:101A00000319B72C023A0319DE2C062D080020001A
:101A1000A00023008C012000200886008701010C13
:101A20002300031C0C1003180C142000200A86004D
:101A30008701010C2300031C8C1003188C14200058
:101A40002008023E86008701010C2300031C0C11B4
:101A500003180C1520002008033E86008701010CA6
:101A60002300031C0C1203180C168D012000200803
:101A7000043E86008701010C2300031C0D1203188D
:101A80000D1620002008053E86008701010C23006A
:101A9000031C8D1203188D168E0120002008063EAF
:101AA00086008701010C2300031C0E1003180E147E
:101AB00020002008073E86008701010C2300031C3C
:101AC0008E1003188E1420002008083E860087011F
:101AD000010C2300031C0E1103180E152000200812
:101AE000093E86008701010C2300031C8E11031898
:101AF0008E15200020080A3E86008701010C230075
:101B0000031C0E1303180E17200020080B3E86003E
:101B10008701010C2300031C8E1303188E17080085
:101B20002030860001308700A63084000030850018
:101B300012302000E50016001A00E50B9B2D323014
:101B4000860001308700B8308400003085000C30FA
:101B5000E50016001A00E50BA92D162E21008E16A1
:101B60000E168E150E170C1222000C162100B30152
:101B7000B30AB401B40AB501B50AB601B60AA63073
:101B8000833192238D3100309431F8248D3121003E
:101B9000B801B901BA01BB01BE01BF01C001C10159
:101BA000C201C301BC01BD01B8308D3107258D31A3
:101BB0009531A9258D31853121258D310130943123
:101BC000EF248D3100309431E6248D310330200034
:101BD000E50065082100A200A501A301A401A1015F
:101BE000A10AA001A00AA03089319B218D310230C9
:101BF0008F315C278D3102302000A7009830A8007B
:101C000096315B268D31C0308F315C278D3113309A
:101C10002000A7009830A80096315B268D31013056
:101C200095310A25080088316B20080020006E08D5
:101C3000003A0319AE2D013A0319132E1F2E080086
:101C40002000AA00AB2E2A08083E8600013087003B
:101C50000108A8002A0A86000130870028088100B0
:101C60002A086E2E2A08023E8600013087000130C5
:101C7000810741310318810A2A0A86000130870052
:101C80000108031D742E0A30A0000030A1002A08AC
:101C9000063E860001308700403FA200413FA3007E
:101CA00089312E218E3120002A08023E8600013023
:101CB0008700403FA800413FA90021082902031DD9
:101CC000632E20082802031CB72E2A08023E860035
:101CD000013087000030C03FC13F2A0A8600013032
:101CE00087008101810AB72E2A0A86000130870009
:101CF0000103031DB72E0A30A0000030A1002A08FE
:101D0000043E860001308700403FA200413FA3000F
:101D100089312E218E3120002A08023E86000130B2
:101D20008700403FA800413FA90021082902031D68
:101D30009B2E20082802031CB72E2A08023E86008C
:101D4000013087000030C03FC13F2A0A86000130C1
:101D500087008101B72E2A0886000130870001081C
:101D6000003A0319232E013A0319322EB72E2A0AFC
:101D7000860001308700010808002000AA01522FC8
:101D8000DD302000A0000030A100883112208E310B
:101D9000003A03190800210051089431C3248E3100
:101DA0007F309431C9242100D001D00A0800E130ED
:101DB0002000A0000030A100883112208E31003AAE
:101DC0000319312F9D308600233087000108210040
:101DD00051060319F22E9D3086002330870001083A
:101DE000031D08009D308600233087004131010823
:101DF000031D08002000AA0150302A0203181E2FDC
:101E00002A08A500A6019F30A7002330A8002508B6
:101E1000270786002608283D87000108A9002A0810
:101E2000203E860002308700290881000130A5008D
:101E30002508AA0750302A02031C002F6A30A00090
:101E40000130A100973188278E3120006F03031DD8
:101E500008000330A5002508A00001309531782541
:101E60000800DB302000A0000030A10088311220E3
:101E70008E31003A03190800210052082000A50005
:101E80002508A000A030973122278E3120006F0353
:101E9000031D08000330A5002508A000013095317E
:101EA0007825080021005008003A0319C02E013A95
:101EB0000319D72E5B2F08002000A6009431B3240D
:101EC0008F3122008C1220002608A4000730A4368F
:101ED000890B672F24080139A500A50DA50D220047
:101EE0000E0820002506FB39250622008E00200062
:101EF0002608A4000630A436890B7B2F240801395C
:101F0000A500A50D22000E0820002506FD39250696
:101F100022008E0020002608A4000530A436890B7C
:101F20008E2F01302405A50022000E082000250672
:101F3000FE39250622008E0020002608A400043069
:101F4000A436890BA02F24080139A500A50DA50DE5
:101F500022000C0820002506FB39250622008C00F3
:101F60009531DC258F3120002608A4000330A436EB
:101F7000890BB72F24080139A500A50DA50D220056
:101F80000E0820002506FB39250622008E002000C1
:101F90002608A4000230A436890BCB2F240801396F
:101FA000A500A50D22000E0820002506FD392506F6
:101FB00022008E0020002608A4000130A436890BE0
:101FC000DE2F01302405A50022000E082000250682
:101FD000FE39250622008E00200026080139A400C3
:101FE000A40DA40D22000C0820002406FB392406B1
:101FF00022008C009531DC258F319431B624080005
:102000008531222D85312E2D8531332D8531392D88
:1020100085313F2D8531452D8531512D8531732DEC
:1020200085318E2D8531A72D8531B02D8531CB2D74
:102030008531BC2D8131AD298131F6298231202AAB
:082040008231842A8231A62AB4
:10295C00013401340134010008008B130B130800FF
:10296C008B170B1708009431B124080021009D141B
:10297C00080021001D0C013908002000A0002035A2
:10298C002400920008002000A000203524009300B1
:10299C00080021009914783099041A180800D32CD7
:1029AC009531012594318731EF2780312E28200075
:1029BC00A000200C2100031C17100318171408008A
:1029CC002000A000200C2200031C1712031817165D
:1029DC0008002000A000200C2200031C97120318F2
:1029EC00971608002000A000200C2100031C951352
:1029FC000318951708009431CF2495319631892608
:102A0C0095319431B62408002000A0002003031D4A
:102A1C00122D22008E17080022008E1308002400AD
:102A2C0016082000A0000630A036890B1A2D2008AD
:102A3C0001390800240014082000A0000530A0363D
:102A4C00890B252D200801390800240014082000CA
:102A5C00A0000430A036890B302D20080139080065
:102A6C006400800101310130FE020030FF3B7F0821
:102A7C007E0403190034372DFE0012001E000130B5
:102A8C00FE020030FF3B7F087E0403190034432D07
:102A9C0022008C018D018E0100309431DD249531A2
:102AAC00630001309431DD2408002000A1002108CE
:102ABC00A000A00D2100170820002006C139200617
:102ACC002100970008002000A1002108A000A00D03
:102ADC00A00D21001D0820002006833920062100AE
:102AEC009D0008002000A200812D2008A1002108D3
:102AFC002100E300080020002208013A03197B2D75
:102B0C00872D0800033021001C052000A20022089C
:102B1C00A40021001B082000A3002408A100230806
:102B2C00A000080021000C110E108E100E118D1239
:102B3C008C128E1322000C110E108E100E118D1291
:102B4C008C128E1308002200BF01BE01BE0AC30105
:102B5C00C30AC401C40AC201C101C001C00AC60132
:102B6C00C60AC701C50108002000A101503021028E
:102B7C00031808002108A03E86000330870081015D
:102B8C000130A0002008A107BC2D2000A10150306D
:102B9C002102031808002108203E8600033087001C
:102BAC0081010130A0002008A107CD2D22008D1637
:102BBC00C8302000A0000030A1009531F0259531DF
:102BCC0022008D12C8302000A0000030A1009531E9
:102BDC00F02508002000A201A30121082302031DF7
:102BEC00F92D200822020318080000000000000044
:102BFC00000001302000A2070030A33DF32D20007F
:102C0C00A800280886008701010803190800280875
:102C1C008600870101088731492796310130200051
:102C2C00A7002708A807072E252E96317226963165
:102C3C0050308531DC2508008E31BD26080020007F
:102C4C006E08003A03191B2E013A0319222E2E2E60
:102C5C000800033020006F06031D08002400210328
:102C6C00031D3F2E2000A001A00A013095317825CC
:102C7C0008002000A0010130953178250800512E64
:102C8C000B3095315B25963101309431DD240800F1
:102C9C0080310220080020006E08003A0319462EED
:102CAC00013A03194E2E5A2E0800200027088400E2
:102CBC00280885001200031908002000270884004A
:102CCC0028088500000887314927963101302000FB
:102CDC00A7070030A83D5B2E06302000A00020087E
:102CEC002200D000D101D201D20AD301D30AD401DF
:102CFC00D40AD501D50AD601D701D70AD801D901F2
:102D0C00DA01DA0A08002000C801C80A0830C70036
:102D1C004708C900CA01CA0A1030CB002730CC00C2
:102D2C00CD01CD0A4830C7004708C40002308A31B3
:102D3C00202208002000A000AB2E1C150800280043
:102D4C001715080028001E15080020002008023A5C
:102D5C000319A32E063A0319A52E023A0319A82E1D
:102D6C00B72E08001D309531692596319431BC245D
:102D7C0096319431BF249631003A0319BF2E953108
:102D8C00882520002108A8002008A7002808A600F4
:102D9C002708A50008002000A400E42E210822002A
:102DAC00E000200020082200DF0020002308220081
:102DBC00E200200022082200E10008002000240884
:102DCC00013A0319D42EEA2E08002000A400A50114
:102DDC00A5012508A200A30123082102031DF82E3A
:102DEC0022082002031C080025082407A200220840
:102DFC008600870181010130A2002208A507EF2E71
:102E0C002000A401A501201C0F2F2208A4072308D1
:102E1C00A53D0130A235A30D890B102F0130A13631
:102E2C00A00C890B152F20082104031D092F250840
:102E3C00A1002408A00008002000A300A401A40104
:102E4C00200824020318080024082307A1002108E5
:102E5C008600023087000108A2002408203E86006C
:102E6C0003308700220881000130A1002108A4074B
:102E7C00262F2000A801A801230828020318080007
:102E8C002108A5002008A400280824078400250890
:102E9C000318250A85000008A60028082207A700A9
:102EAC002708860002308700260881000130A40024
:102EBC002408A807422FF4017008860071088700C7
:102ECC00023001060319832F7008860071088700F1
:102EDC00033001060319832F7008013EF200003005
:102EEC00713DF30072088600730887000230810080
:102EFC000230F2007208F40008000330F20072088D
:102F0C00F40008002000A401200886002108870096
:102F1C00023001060319AB2F200886002108870018
:102F2C00033001060319AB2F2008013EA20000302C
:102F3C00213DA3002208860023088700023081006F
:102F4C000230A2002208A40008000330A2002208CC
:102F5C00A40008002000A100CB2F9110200C210010
:102F6C00031C91100318911408009310200C2100DD
:102F7C00031C93100318931408009311200C2100C8
:102F8C00031C931103189315080020002108023A22
:102F9C000319B32F063A0319BB2F023A0319C32F97
:102FAC00D72F0800AC340134003400340034013421
:102FBC00003400341A341634003400340034013434
:102FCC000034003445341634003400340034E83412
:102FDC0003340034FB3408340034003400346434DB
:102FEC000034003490340D34003400340034643434
:102FFC00003400340534003420344D3465347234DC
:10300C0063347534723479342034533479347334F2
:10301C00743465346D3420340034453442343234E5
:10302C00313430343A3420344C3463346434203406
:10303C0042346F34613472346434003401340034FB
:10304C000A34003464340034E83403341034273444
:10305C00303431342E34303431342E343034303446
:10306C000034253464342E34253430343134753402
:10307C000034453442343234313430340034453445
:08308C00433448344F34003492
:020000040001F9
:04000E00ECFFFFDF25
:00000001FF
