:0400000066EF00F0B7
:060008004A82DCEF15F056
:100018004A80D8CF60F0E8CF61F0E0CF62F0FACF45
:1000280063F0FBCF64F0E9CF65F0EACF66F0E1CF8B
:1000380067F0E2CF68F0D9CF69F0DACF6AF0F3CF92
:100048006BF0F4CF6CF0F6CF6DF0F7CF6EF0F8CF21
:100058006FF0F5CF70F04AC071F04BC072F04CC031
:1000680073F04DC074F09EB204EC21F074C04DF0F2
:1000780073C04CF072C04BF071C04AF070C0F5FF0D
:100088006FC0F8FF6EC0F7FF6DC0F6FF6CC0F4FFDD
:100098006BC0F3FF6AC0DAFF69C0D9FF68C0E2FF2E
:1000A80067C0E1FF66C0EAFF65C0E9FF64C0FBFF07
:1000B80063C0FAFF62C0E0FF61C0E8FF60C0D8FF1C
:1000C8004A9010004EEF13F0000E00019C6F1F0EB7
:1000D800D165120065B2120032D2000E00017C6FA9
:1000E800070E7D6FC80E7E6F11EC18F000019C6F33
:1000F8009C51D8B412000201FE05D8A426D00001F4
:10010800C251D8A422D09C51010D000EF324D96EFF
:10011800070EF420DA6E0D0EDF6E9C519A6F9B6B02
:10012800010E9A27000E9B23000E9A25D96E070E02
:100138009B21DA6E0A0EDF6E000E7B6F070E7C6F56
:100148009C51020F7D6F34EC21F0530E070100190A
:10015800D8A443D04F0E0119D8A43FD03A0E0219A3
:10016800D8A43BD0470E0319D8A412003A0E04199C
:10017800D8A41200440E0519D8A415D0460E0619A5
:10018800D8A411D0410E0819D8A404D0010E020138
:10019800D16F1200420E07010819D8A41200000EF0
:1001A8000201D16F1200450E07010519D8A41200EB
:1001B8004D0E0619D8A41200310E0819D8A404D07F
:1001C800010E0201FE6F1200300E07010819D8A4B3
:1001D8001200000E0201FE6F1200530E07010019F3
:1001E800D8A41200420E0119D8A412003A0E02191E
:1001F800D8A41200570E0319D8A491D03A0E0419A6
:10020800D8A48DD005C7FAF206C7FBF208C7F6F2E4
:1002180009C7F7F2FA0E00017B6F020E7C6F83ECC0
:1002280010F000017B510201D36FF60E00017B6FC5
:10023800020E7C6F9EEC0FF000017B510201D26F21
:10024800000E00019D6F32D000019D51020D0B0E72
:10025800F326000EF422000EF324D96E070EF420C4
:10026800DA6E9D51040D000EF324E16E060EF420A3
:10027800E26EDFCFE7FF9D51020D0C0EF326000E54
:10028800F422000EF324D96E070EF420DA6E9D5185
:10029800040D010EF326000EF422000EF324E16E85
:1002A800060EF420E26EDFCFE7FF9D2B9D51020181
:1002B800D35DD8B0C9D7000E00019D6F1FD00001D3
:1002C8009D51040D000EF324816F060EF420826FF9
:1002D800000E836F000E846F000E866F100E856F00
:1002E80060EC06F000019D51010D380EF324D96E23
:1002F800010EF420DA6E81C0DFFF9D2B9D510201B3
:10030800D35DD8B0DCD7380E0001786F010E796F55
:10031800D2C27AF0D3C27BF0E6EC1EF01200520E85
:1003280007010319D8A412003A0E0419D8A4120020
:1003380005C7FAF206C7FBF208C7F6F209C7F7F2D3
:10034800FA0E00017B6F020E7C6F83EC10F0000147
:100358007B510201D36FF60E00017B6F020E7C6F9A
:100368009EEC0FF000017B510201D26FC00E00011C
:10037800786F040E796FD2C27AF0D3C27BF0A7EC03
:100388001EF0010E0201D46F12000001C251D8A460
:100398001200530E0201006F420E016F5B0E026FD6
:1003A800F6C203F2F7C204F25D0E056F3A0E066F4D
:1003B800000E00017B6F020E7C6F070E7D6F34EC20
:1003C80021F0020E0201D46F1200F3EC20F0E806CF
:1003D800D8A488D00201D105D8A427D0000E0001E6
:1003E8009D6F1ED000019D51040D000EF324856FF2
:1003F800060EF420866F9D51010DC00EF324D96EB0
:10040800040EF420DA6EDF509A6F9A51876F886B6A
:10041800000E8A6F0A0E896F41EC1EF000019D2BB9
:100428009D510201D35DD8B0DDD70001C251D8A4D7
:1004380012000201D105D8A42BD0D351080D030E08
:10044800F326000EF422000EF324D96E060EF420D3
:10045800DA6E0D0EDF6ED351080D020EF326000E74
:10046800F422000EF324D96E060EF420DA6E0A0E7A
:10047800DF6E000E00017B6F060E7C6F0201D35108
:10048800020DF350040F00017D6F34EC21F026D0EB
:100498000201D351010DC00EF324D96E040EF420CD
:1004A800DA6E0D0EDF6ED35100019A6F9B6B010E51
:1004B8009A27000E9B23C00E9A25D96E040E9B2105
:1004C800DA6E0A0EDF6EC00E7B6F040E7C6F0201BF
:1004D800D351020F00017D6F34EC21F0000E0201B0
:1004E800D46F1200540E0001936F030E946FB80E70
:1004F800956F0B0E966F000E976F000E986F47EC76
:100508001AF0E806D8A412000001C251D8A41200BB
:10051800000E756F020E766F920E776FFF0E786F72
:1005280077EC1FF0000E00017B6F020E7C6F290E26
:100538007D6F34EC21F0000E0201D46F120002012D
:10054800D451000AD8B4C9D5010AD8B41ED7030AB1
:10055800D8B43BD7010A120033D1C70E0001796F16
:10056800030E7A6FD00E7B6F070E7C6F000E7D6FC7
:10057800000E7E6F2FEC1CF0010E0201D06F1200EE
:10058800C70E00018D6F030E8E6FF0EC18F0E806B1
:10059800D8A41200020E0201D06F12001F0E000133
:1005A800D165120065B21200030E0201D06F12006D
:1005B8000001C251D8A41200550E7B6FFE0E7C6F4D
:1005C800880E7D6F34EC21F0040E0201D06F12000A
:1005D8000001C251D8A41200690E7B6FFD0E7C6F1A
:1005E800EB0E7D6F34EC21F0050E0201D06F120086
:1005F8000001C251D8A41200220E756F030E766F47
:10060800000E786F000E776F000E7A6F320E796FDA
:10061800C0EC1FF09E0E00017C6F000E7D6F000E77
:100628007F6F010E7E6F000E816F0A0E806F32ECB5
:1006380016F0A20E00017C6F000E7D6F000E7F6F1A
:10064800020E7E6F000E816F0A0E806F32EC16F07C
:10065800A60E00017C6F000E7D6F000E7F6F000EEE
:100668007E6F000E816F0A0E806F32EC16F0220E3C
:100678000001756F030E766FBC0E776FFF0E786FF3
:1006880077EC1FF0220E0001756F030E766F9E0E39
:10069800776F000E786F5EEC1CF0220E0001756F0C
:1006A800030E766FF40E776FFF0E786F5EEC1CF01A
:1006B800220E0001756F030E766FA20E776F000E83
:1006C800786F5EEC1CF0220E0001756F030E766FDA
:1006D800F40E776FFF0E786F5EEC1CF0220E0001AF
:1006E800756F030E766FA60E776F000E786F5EEC4F
:1006F8001CF0220E0001756F030E766FB90E776F2E
:10070800FF0E786F5EEC1CF0220E00017B6F030E6B
:100718007C6F220E756F030E766FC7EC1EF000011A
:1007280075517D6F34EC21F0060E0201D06F120076
:100738000001C251D8A41200220E756F030E766F05
:10074800000E786F000E776F000E7A6F320E796F99
:10075800C0EC1FF0220E0001756F030E766FD00EED
:10076800776FFF0E786FE10E796FFF0E7A6FEFECFF
:1007780010F0220E00017B6F030E7C6F220E756F46
:10078800030E766FC7EC1EF0000175517D6F34ECD7
:1007980021F0070E0201D06F12000001C251D8A447
:1007A8001200650E7B6FFF0E7C6F160E7D6F34ECAA
:1007B80021F0080E0201D06F120068EC00F0120060
:1007C8000201D051000AD8B4C8D6010AD8B4D8D684
:1007D800030AD8B4E3D6010AD8B4EAD6070AD8B4CB
:1007E800F7D6010AD8B404D7030AD8B4A1D7010AA6
:1007F800D8B4D3D70F0AD8A41200DFD70401320522
:10080800D8A411D030511F0B0009D8A40CD0000176
:10081800B28F030E04013119D8A402D0010E01D001
:10082800000E0001CE6F04013251D8A412003051DD
:100838001F0B020AD8A4120034510F0B0009D8B4B8
:10084800120034510F0B0001896F030E89611200E9
:10085800200ED119D8A41200B28F040134BF1CD0C5
:1008680034510F0B0001896F8951020D000EF324DA
:10087800D96E010EF420DA6EDECF8DF0DDCF8EF06A
:10088800040134510F0B0001896F8951010D090EC4
:10089800F324D96E000E1CD0040134510F0B000153
:1008A800896F8951020DB50EF324D96E000EF4201C
:1008B800DA6EDECF8DF0DDCF8EF0040134510F0BF0
:1008C8000001896F8951010D0C0EF324D96E000EB9
:1008D800F420DA6EDF508C6F8CB102D08D9501D088
:1008E8008D85040134BF0BD034510F0B0001896F83
:1008F8008951020D000EF324D96E010E0BD00401AC
:1009080034510F0B0001896F8951020DB50EF32484
:10091800D96E000EF420DA6E8DC0DEFF8EC0DDFFCA
:10092800030E04013119D8A430D08DC0D9FF8EC070
:10093800DAFF0001DFAE1CD0040134BF0BD0345104
:100948000F0B0001896F8951010D090EF324D96E2F
:10095800000E0BD0040134510F0B0001896F89512F
:10096800010D0C0EF324D96E000EF420DA6EDF822E
:100978008DC0D9FF8EC0DAFF000EDB848DC0D9FF91
:100988008EC0DAFF000EDB8E1200040E00018D1BF4
:100998008DC0D9FF8EC0DAFFDFAE1BD08DC0D9FF66
:1009A8008EC0DAFF7F0EDF168DC0D9FF8EC0DAFF4A
:1009B800000EDB8C000E826F050E816F8DC083F0F8
:1009C8008EC084F0000E866F020E856F00EC1CF05E
:1009D80006D08DC0D9FF8EC0DAFF000EDB8C040E66
:1009E80000018D1B8CB306D08DC0D9FF8EC0DAFFF5
:1009F800DFAE31D0040134BF0BD034510F0B0001EE
:100A0800896F8951010D090EF324D96E000E0BD0A0
:100A1800040134510F0B0001896F8951010D0C0E2F
:100A2800F324D96E000EF420DA6EDF928DC0D9FF60
:100A38008EC0DAFF3B0EDF16000E826F050E816F47
:100A48008DC083F08EC084F0000E866F020E856F15
:100A580000EC1CF006D08DC0D9FF8EC0DAFF3B0E2B
:100A6800DF16040134510F0B0001896F8951010D04
:100A7800260EF3248A6F0F0EF4208B6F8AC0D9FFDD
:100A88008BC0DAFFFE0EDF1612000001806FFCD06B
:100A98000F013F833F817DC075F00001766B000E2A
:100AA800786F0A0E776F88EC1AF075C07EF076C002
:100AB8007FF00F0E00017E177DC075F0766B000E7B
:100AC800786F0A0E776FC2EC19F000017539F00BD8
:100AD800F00B7E11986E12000F013F833F917DC08D
:100AE80075F00001766B000E786F0A0E776F88EC50
:100AF8001AF075C07EF076C07FF00F0E00017E17E9
:100B08007DC075F0766B000E786F0A0E776FC2ECB9
:100B180019F000017539F00BF00B7E11996E120077
:100B28000F013F833F917DC075F00001766B000E89
:100B3800786F0A0E776F88EC1AF075C07EF076C071
:100B48007FF00F0E00017E177DC075F0766B000EEA
:100B5800786F0A0E776FC2EC19F000017539F00B47
:100B6800F00B7E11986E12000F013F933F817DC0FC
:100B780075F00001766B000E786F0A0E776F88ECBF
:100B88001AF075C07EF076C07FF00F0E00017E1758
:100B98007DC075F0766B000E786F0A0E776FC2EC29
:100BA80019F000017539F00BF00B7E11996E1200E7
:100BB8000F013F933F817DC075F00001766B000EF9
:100BC800786F0A0E776F88EC1AF075C07EF076C0E1
:100BD8007FF00F0E00017E177DC075F0766B000E5A
:100BE800786F0A0E776FC2EC19F000017539F00BB7
:100BF800F00B7E11986E12000F013F933F917DC05C
:100C080075F00001766B000E786F0A0E776F88EC2E
:100C18001AF075C07EF076C07FF00F0E00017E17C7
:100C28007DC075F0766B000E786F0A0E776FC2EC98
:100C380019F000017539F00BF00B7E11996E120056
:100C48000F013F933F917DC075F00001766B000E58
:100C5800786F0A0E776F88EC1AF075C07EF076C050
:100C68007FF00F0E00017E177DC075F0766B000EC9
:100C7800786F0A0E776FC2EC19F000017539F00B26
:100C8800F00B7E11986E120000018051000AD8B452
:100C9800FFD6010AD8B420D7030AD8B441D7010A2D
:100CA800D8B462D7070AD8B483D7010AD8B4A4D76E
:100CB800030AD8A41200C4D781C0D9FF82C0DAFFC2
:100CC800DF500001906F814B822B905161EC20F036
:100CD800D8B0F2D7000E00018C6F000E8D6F000E99
:100CE8008E6F000E8F6F000E8B6F2D0E9019D8A48B
:100CF80003D0010E8B6F04D02B0E9019D8A408D006
:100D080081C0D9FF82C0DAFFDF50906F814B822B00
:100D1800300E9019D8A42ED081C0D9FF82C0DAFF36
:100D2800DF50906F814B822B85518611D8B405D046
:100D3800100E85198611D8A415D0780E9019D8B43C
:100D480004D0580E9019D8A40DD0000E866F100E3E
:100D5800856F81C0D9FF82C0DAFFDF50906F814B69
:100D6800822B08D085518611D8A404D0000E866F36
:100D7800080E856F85518611D8A404D0000E866FA1
:100D88000A0E856F9051D8EC1FF0D8A008D000014A
:100D9800905193EC21F0C90F0001906F09D0000128
:100DA8009051E2EC20F0D8A039D0300E0001905FCD
:100DB8009051876F886B8551875D8851800A896F4C
:100DC8008651800A8959D8B029D085C075F086C067
:100DD80076F0000E76BFFF0E776F786F8CC079F0D3
:100DE8008DC07AF08EC07BF08FC07CF08CEC1CF04C
:100DF8000001905175258C6F000E76218D6F000EC5
:100E080077218E6F000E78218F6F81C0D9FF82C045
:100E1800DAFFDF50906F814B822BB4D700018351EA
:100E28008411D8B40ED0FF0E8125876FFF0E822162
:100E3800886F83C0D9FF84C0DAFF87C0DEFF88C00F
:100E4800DDFF8B51D8B41AD08CC087F08DC088F0E4
:100E58008EC089F08FC08AF0871F881F891F8A1F5C
:100E6800872B000E882389238A2387C081F088C0B6
:100E780082F089C083F08AC084F012008CC081F0AF
:100E88008DC082F08EC083F08FC084F01200000104
:100E9800D151D8A412D0000E656E000E0F01366F26
:100EA800160E396F9F0E376F7B0E366F01D0658631
:100EB80065A6FDD7010E0001D16FD105D8B465BA7A
:100EC8000AD0000E626E000E0F01366F3681368929
:100ED800020E0001D16F62A406D00F0136A503D01F
:100EE800629440EC1FF065A202D0A198120062A0A3
:100EF80009D00F0136A106D029EC0AF0040E000132
:100F0800D16F629062A804D00F0136B9A8EC1FF027
:100F180062AC1DD00F0136AD0FD0000E0001826FFC
:100F2800730E816F000E836F000E846F000E866F44
:100F3800010E856F00EC1CF0629CC0EC20F00001F3
:100F4800CA51D8A4CA07CA51D8B4B1EC13F062AADE
:100F580004D00F0136BBFDEC1DF062A213D00F01C7
:100F680036A310D07F0E0001826F8169000E836F57
:100F7800000E846F000E866F010E856F00EC1CF06A
:100F8800000E636E040E0001D16102D0A198120018
:100F98000F0136A73BD0000E0001906F030E90653D
:100FA80001D034D062A632D064CFDEF0DE31E83230
:100FB800E8320F0BCC6F6296DEB507D0CC51010D2D
:100FC800090EF324D96E000E06D0CC51010D0C0E7B
:100FD800F324D96E000EF420DA6EDF70CC51D8A459
:100FE80003D05CEC18F00FD0000E0001826F720E77
:100FF800816FDE0E836F000E846F000E866F000E09
:10100800856F00EC1CF00001902BC8D7A198120046
:1010180098D030EC22F0000E0001DA6F010E86D075
:1010280020EE01F07651D9267751DA22DF50786F19
:1010380076C0D9FF77C0DAFFDF50796FD89079355D
:10104800781176C0D9FF77C0DAFFDF6E76C0D9FF96
:1010580077C0DAFFDF5012EC22F0020E0001DD6FDC
:101068001CEC22F00009D8A48CD0030E1AD020EE74
:1010780002F07651D9267751DA22DECF78F0DDCF2B
:1010880079F078C0D9FF79C0DAFFDF5012EC22F08E
:10109800040E00014BD01CEC22F00009D8A471D03A
:1010A800050E0001DC6F080E41D020EE04F07651E9
:1010B800D9267751DA22DF50D8B410D020EE04F0C8
:1010C8007651D9267751DA22DF0620EE02F07651E2
:1010D800D9267751DA22DE2A000EDD2220EE04F02E
:1010E8007651D9267751DA22DF50D8A402D0060EDD
:1010F8001DD0030E1BD02EEC22F0070ECAD7000E0F
:10110800DD6F000EDC6F020E1AD0DB2B21EC22F013
:101118000009D8A406D0000E0001DB6FDCC0DDF0AA
:1011280030D0020E0001DB652CD0090EDD6F29D00E
:10113800000EDD6F000EDC6F000EDB6F010EDA6F44
:1011480020D00001DD51000AD8B463D7010AD8B411
:1011580067D7030AD8B484D7010AD8B488D7070A4E
:10116800D8B499D7010AD8B4A0D7030AD8B4C3D73A
:10117800010AD8B4C4D70F0AD8B4C7D7010AD8B45B
:10118800D7D70001DA51120095D030EC22F0000ECA
:101198000001D66F010E1FD020EE01F07851D9263C
:1011A8007951DA22DF507A6F78C0D9FF79C0DAFF37
:1011B800DF507B6FD8907B357A1178C0D9FF79C022
:1011C800DAFFDF6E78C0D9FF79C0DAFFDF5012ECA2
:1011D80022F0020E68D0D96F8AD01CEC22F00009E8
:1011E800D8A485D0030E5FD0D72B21EC22F00009BC
:1011F800D8A405D0000E0001D76F040EECD7020E5C
:101208000001D76574D0080EE6D732EC22F0050E3F
:101218004AD01CEC22F00009D8A469D0000120EEC5
:1012280002F07851D9267951DA22DECF7AF0DDCF73
:101238007BF07AC0D9FF7BC0DAFF17EC22F0DF6EB3
:10124800000120EE02F07851D9267951DA22DE2AFF
:10125800000EDD22D82B060EBED720EE04F0785102
:10126800D9267951DA22DE50D85DD8A009D0010EEE
:10127800CCEC21F0070E0001D96F000ED86F37D0E3
:10128800000ECCEC21F0040E0ED02EEC22F0020E53
:101298000001D66F050E7825756F000E7921766FDF
:1012A8009FEC21F0000E000196D7000ED96F010EB9
:1012B800D66F1DD00001D951000AD8B466D7010AEB
:1012C800D8B46AD7030AD8B488D7010AD8B48CD757
:1012D800070AD8B49AD7010AD8B49BD7030AD8B456
:1012E800BCD7010AD8B4D1D70F0AD8B4DED70001C9
:1012F800D6511200000E496E000E486E495005E1A5
:10130800140E485CD8B0120001D0120048C038F062
:1013180049C039F0000E3B6E0B0E3A6E8AEC20F095
:10132800000E3824D96E050E3920DA6EDE04D8A4F2
:1013380086D048C038F049C039F0000E3B6E0B0E1D
:101348003A6E8AEC20F0010E3826000E3922000E83
:101358003824D96E050E3920DA6EDE2A000EDE2218
:10136800DE22DE2248C038F049C039F0000E3B6E5C
:101378000B0E3A6E8AEC20F0050E3826000E392244
:10138800000E3824D96E050E3920DA6E48C038F0C0
:1013980049C039F0000E3B6E0B0E3A6E8AEC20F015
:1013A800010E3826000E3922000E3824E16E050E93
:1013B8003920E26EDE50E65CDE50E658DE50E65834
:1013C800DE50E658D8A03BD04850B8EC1CF048C0D6
:1013D80038F049C039F0000E3B6E0B0E3A6E8AECBD
:1013E80020F0090E3826000E3922000E3824D96E56
:1013F800050E3920DA6EDE50DE10D8B420D048C091
:1014080038F049C039F0000E3B6E0B0E3A6E8AEC8C
:1014180020F0090E3826000E3922000E3824D96E25
:10142800050E3920DA6E01D80AD00500FA6EDE50B2
:10143800FD6EDE50FE6EF850FF6EFA501200484AFC
:10144800492A495001E15CD71200A098000E636E4A
:10145800000E626E000E0F01266F270E0001756FD9
:101468000F0E766F000E786F000E776F000E7A6F92
:10147800020E796FC0EC1FF0160E0F01396F9F0E28
:10148800376F7B0E366F000E00017D6F0B0E7D658A
:1014980001D00ED07D51040D000EF324D96E040E38
:1014A800F420DA6EDE6ADE6ADE6ADD6A7D2BEED74C
:1014B800658C000E0F01386F6598659C6296000E6A
:1014C8000001B26F000E046E000E066E000E056E6F
:1014D80062B6F4D7010EC86F010EC76F000EC66F53
:1014E800000EC56F000ECD6F000E7D6F020E7D657C
:1014F80001D02ED07D51020DB50EF324D96E000E09
:10150800F420DA6E000EDE6E000EDD6E7D51020DE7
:10151800000EF324D96E010EF420DA6E000EDE6E92
:10152800000EDD6E7D51010D0C0EF324D96E000EF8
:10153800F420DA6E000EDF6E7D51010D090EF324E2
:10154800D96E000EF420DA6E000EDF6E7D2BCED73A
:10155800080EB56F040EB66F160E0F01266F040E37
:101568000401036F300E026F080E016F040E006F46
:10157800008F000E0001DF6F000E0201CC6F000E1D
:10158800CD6F000ECE6F000ECF6F000E0001C46F3E
:10159800000ED16F12008FD0000120EE08F07C51B0
:1015A800D9267D51DA2210EE01F07C51E1267D51D9
:1015B800E222DFCFE7FF7CC0D9FF7DC0DAFF40D051
:1015C800000120EE02F07C51D9267D51DA22DE2A74
:1015D800000EDD2220EE01F07C51D9267D51DA2261
:1015E800DF50D8A42FD020EE06F07C51D9267D51AB
:1015F800DA22DECF75F0DDCF76F0000E786F320E8E
:10160800776F62EC1DF0000120EE02F07C51D926C4
:101618007D51DA227551DE5C7651DE58D8A056D05D
:1016280020EE02F07C51D9267D51DA22000EDE6EC2
:10163800000EDD6E20EE01F07C51D9267D51DA22B4
:10164800010E37D020EE01F07C51D9267D51DA22E7
:10165800DE04D8A43BD020EE04F07C51D9267D517D
:10166800DA22DECF75F0DDCF76F0000E786F320E1D
:10167800776F62EC1DF0000120EE02F07C51D92654
:101688007D51DA227551DE5C7651DE58D8A01ED025
:1016980020EE02F07C51D9267D51DA22000EDE6E52
:1016A800000EDD6E20EE01F07C51D9267D51DA2244
:1016B800000EDF6E0BD07CC0D9FF7DC0DAFFDF5093
:1016C800000AD8B469D7010AD8B47AD7000120EE45
:1016D80001F07C51D9267D51DA22DF5012000F50DB
:1016E8001010D8B406D00FC0D9FF10C0DAFFDFBE83
:1016F8001200030E0001C219D8A402D0000EC26F56
:10170800C251D8B41200020EC219D8A413D0010EC7
:10171800756F000E766F000E776F000E786F020EF1
:1017280072EC14F075C00FF076C010F0030E0001D3
:10173800C26F1200C205D8A41200400EC16503D0C2
:10174800400E7D6F02D0C1C07DF07D510008C125DB
:10175800C16F800E01010A6F040E0B6F7DC07CF013
:101768001850D8B41DD03DD00DC1F6FF0EC1F7FFFB
:10177800F86A0AC1D9FF0BC1DAFF0E0EF76403D06D
:101788000800F55005D0F6CFE9FFF7CFEAFFEF5094
:10179800DF6E01010A4B0B2B0D4B0E2B00017C0752
:1017A80000017C51D8B421D0DFD70DC1F6FF0EC19E
:1017B800F7FFF86A0AC1D9FF0BC1DAFF0E0EF7640A
:1017C80003D00800F55005D0F6CFE9FFF7CFEAFFC0
:1017D800EF50DF6E01010A4B0B2B0D4B0E2B000156
:1017E8007C0700017C51D8A4E0D7C151D8A408D007
:1017F800400E7D19D8A402D0020E01D0030EC26F8C
:10180800010E756F800E766F040E776F7DC078F0CD
:10181800020E72EC14F075C00FF076C010F01200D2
:10182800800E04013019D8A41200C00E0001B26F56
:1018380082D07C0E0001AF6FFF0EB06F000EB46F48
:10184800120EB36F120004013251D8A440D03251A5
:10185800020D650EF324F66EFD0EF420F76E0900F6
:10186800F5CFAFF00A00F5CFB0F0020E0001AF25BA
:10187800756F000EB021766F75C0F6FF76C0F7FF62
:10188800F86A0E0EF76403D00800F55005D0F6CFBD
:10189800E9FFF7CFEAFFEF500001B36F030EAF2562
:1018A800756F000EB021766F75C0F6FF76C0F7FF32
:1018B800F86A0E0EF76403D00800F55005D0F6CF8D
:1018C800E9FFF7CFEAFFEF500001B46F1200000EF6
:1018D8000001B26F1200030E0401326124D03251AC
:1018E800020D5F0EF324F66EFD0EF420F76E09006C
:1018F800F5CFAFF00A00F5CFB0F0AFC0F6FFB0C03B
:10190800F7FFF86A0E0EF76403D00800F55005D00B
:10191800F6CFE9FFF7CFEAFFEF500001756F755179
:10192800B36FB46B1200000E0001B26F1200000E0C
:101938000001B26F120004013351010AD8B479D7FB
:10194800030AD8B480D7010AD8B4C5D7F0D7000E97
:101958000001AE6F000EAE6F670EF66EFD0EF76EED
:10196800AE51AA6FAB6B0900F550AA5D0900F5509E
:10197800AB59D8B01200AE51080D030EF326000E75
:10198800F4228F0EF324D96E030EF420DA6EDE2AC9
:10199800000EDD22AE51080D050EF326000EF422CE
:1019A8008F0EF324D96E030EF420DA6EAE51080DB3
:1019B800030EF326000EF4228F0EF324E16E030EBD
:1019C800F420E26EDE50E65CDE50E658D8A04ED039
:1019D800AE51080D030EF326000EF4228F0EF324E9
:1019E800D96E030EF420DA6E000EDE6E000EDD6E88
:1019F800AE51080D020EF326000EF4228F0EF324CA
:101A0800D96E030EF420DA6E010EDF6EAE51080DAA
:101A18008F0EF324D96E030EF420DA6E01D817D096
:101A28000500FA6EDE50FD6EDE50FE6EF850FF6E59
:101A3800FA50AE51080D070EF326000EF4228F0E51
:101A4800F324D96E030EF420DA6EDF501200000181
:101A5800AE51080D020EF326000EF4228F0EF32469
:101A6800D96E030EF420DA6E000EDF6EAE2B74D73B
:101A7800000120EE01F0BF51D926C051DA22DF5013
:101A8800766F7651055C000E0658D8A005C076F032
:101A98007651055E000E065A000E756F11D075510D
:101AA800010D380EF324D96E040EF420DA6E01C04D
:101AB800E1FF02C0E2FFDFCFE7FF014A022A752BF0
:101AC8007651755DD8A0EBD705500610D8B432D042
:101AD80020EE01F0BD51D926BE51DA22080EDF6E84
:101AE80020EE02F0BD51D926BE51DA22380EDE6E44
:101AF800040EDD6EBFC0D9FFC0C0DAFFDFBC0DD059
:101B0800BDC0D9FFBEC0DAFF480EDF6EBDC0D9FF29
:101B1800BEC0DAFF000EDB8E1200BDC0D9FFBEC00A
:101B2800DAFF080EDF6EBDC0D9FFBEC0DAFF000EB7
:101B3800DB8E120020EE01F0BD51D926BE51DA220B
:101B4800080EDF6E20EE02F0BD51D926BE51DA2212
:101B5800300EDE6E040EDD6EBDC0D9FFBEC0DAFFEA
:101B6800040EDF6EBDC0D9FFBEC0DAFF000EDB8EEB
:101B7800049EC951D8A41200B1EC13F01200659864
:101B88000001B2BF39D004AE0CD0020ECF6FC551E0
:101B9800D8B42BEC17F0000E0001C76F000EC86F09
:101BA800120020EE01F0BD51D926BE51DA22080EEE
:101BB800DF6E20EE02F0BD51D926BE51DA22300E7A
:101BC800DE6E040EDD6EBDC0D9FFBEC0DAFF0C0E9E
:101BD800DF6EBDC0D9FFBEC0DAFF000EDB8EB5C018
:101BE800D9FFB6C0DAFF040EDF6EB5C0D9FFB6C0A4
:101BF800DAFF000EDB8E1200040130AF12D0010EA6
:101C08000001CF6FC651D8B42BEC17F0000E0001BD
:101C1800C76F000EC86FC951D8A41200B1EC13F0F9
:101C28001200020E0001CF6F20EE01F0BD51D9263F
:101C3800BE51DA22080EDF6E20EE02F0BD51D92621
:101C4800BE51DA22300EDE6E040EDD6EBDC0D9FF45
:101C5800BEC0DAFF040EDF6EBDC0D9FFBEC0DAFF1A
:101C6800000EDB8E000EC76F000EC86FC951D8A4D6
:101C78001200B1EC13F012000001876F000E000192
:101C8800886F000E896F000E8A6F000E8B6F84516B
:101C98008503F3CF75F0F4CF76F0776B786B82C05D
:101CA80079F083C07AF07B6B7C6B8CEC1CF075C090
:101CB80088F076C089F077C08AF078C08BF0000E83
:101CC8000001756F1B0E766FB70E776F000E786F79
:101CD80088C079F089C07AF08AC07BF08BC07CF02C
:101CE80005EC1AF00001785177113AE17605D8A091
:101CF8002DD036D0000E756F1B0E766FB70E776F2E
:101D0800000E786F88C079F089C07AF08AC07BF0BD
:101D18008BC07CF005EC1AF000017551CB6E1DD01C
:101D2800000E756F1B0E766FB70E776F000E786F0B
:101D380088C079F089C07AF08AC07BF08BC07CF0CB
:101D480005EC1AF000017551776E07D08751020A29
:101D5800D8B4D0D7060AD8B4E3D7000E866F1200DD
:101D6800010E866F12005CD0000120EE01F07C515C
:101D7800D9267D51DA22010EDF6E7CC0D9FF7DC0E5
:101D8800DAFF010E36D0000120EE02F07C51D92690
:101D98007D51DA22DE2A000EDD2220EE04F07C518D
:101DA800D9267D51DA22DECF75F0DDCF76F0000E30
:101DB800786F320E776F62EC1DF0000120EE02F0B2
:101DC8007C51D9267D51DA227551DE5C7651DE5878
:101DD800D8A034D020EE02F07C51D9267D51DA22E9
:101DE800000EDE6E000EDD6E7CC0D9FF7DC0DAFF0E
:101DF800020EDF6E23D0000120EE01F07C51D926BF
:101E08007D51DA22000EDF6E7CC0D9FF7DC0DAFF7B
:101E1800000EDF6E000E756F7E51F0EC1FF00ED0D5
:101E28007CC0D9FF7DC0DAFFDF50000AD8B49CD748
:101E3800010AD8B4A8D7030AD8B4DDD7000120EE28
:101E480001F07C51D9267D51DA22DF5012000001C1
:101E5800B28F270E756F0F0E766F000E786F000E1B
:101E6800776F000E7A6F020E796FC0EC1FF0000ECC
:101E78000001756F040E766F000E786F000E776F95
:101E8800000E7A6F300E796FC0EC1FF0658C000E73
:101E98000001896F020E896501D016D08951010DA4
:101EA8000C0EF324D96E000EF420DA6E000EDF6EED
:101EB8008951010D090EF324D96E000EF420DA6E53
:101EC800000EDF6E892BE6D71C0E756F000E766F3D
:101ED800000E786F000E776F000E7A6F020E796F22
:101EE800C0EC1FF0659C080E0001B56F040EB66FBC
:101EF800000EBF6F040EC06FBFC0BDF0C0C0BEF003
:101F080032C4DFF0DF51D8A403D0100ED16F120015
:101F1800000E826F010E816FDF0E836F000E846FDB
:101F2800000E866F010E856F00EC1CF0200E00017C
:101F3800D16F1200000E00017F6F000E816F000E3E
:101F4800806F03D000017B4B7C2B7BC0D9FF7CC00A
:101F5800DAFFDF5061EC20F0D8B0F4D77BC0D9FFAE
:101F68007CC0DAFF2D0EDE18D8A403D000017F2B29
:101F780009D07BC0D9FF7CC0DAFF2B0EDE18D8A4AD
:101F880028D000017B4B7C2B24D000018251D1EC5E
:101F980020F0D8A006D00001825187EC21F0000182
:101FA800826F00018251E2EC20F0D8A002D0300EFE
:101FB80001D0570E0001825F803B813BF00E8117F4
:101FC80080510F0B8113F00E801782518027000E6D
:101FD80081237BC0D9FF7CC0DAFF00017B4B7C2BBF
:101FE800DF50826F825105EC1FF0D8B0CED70001C8
:101FF8007F51D8B40DD080C07DF081C07EF07D1FA8
:102008007E1F7D4B7E2B7DC07BF07EC07CF0120056
:1020180080C07BF081C07CF0120004013039E832C6
:10202800030B0009D8A4120048D00001B28F080E93
:10203800D16F120014EC0CF012002BEC0FF0120010
:10204800DF0E0001AF6F000EB06FB281010EB36FEB
:10205800B28F12002CEC15F0120002EC04F0120002
:1020680004013451010D1C0EF3240001AF6F000E62
:10207800F420B06FB281010EB36FB28F120000016D
:10208800B28F04013451010D1C0EF324D96E000ED9
:10209800F420DA6E32C4DFFF1200000E0001826FF6
:1020A800020E816F000E836F000E846F000E866F24
:1020B800000E856F00EC1CF0120004013151000A7B
:1020C800D8B4C8D7010AD8B4C8D7020AD8B4C5D773
:1020D800060AD8B4AAD7030AD8B4ACD7010AD8B428
:1020E800DCD70F0AD8B4ACD7010AD8B4A6D7030AEC
:1020F800D8B4B6D7010AD8B4C2D7070A120003D099
:1021080000017B4B7C2B7BC0D9FF7CC0DAFF200E03
:10211800DE18D8B4F5D77BC0D9FF7CC0DAFF090E2A
:10212800DE18D8B4EDD7000E0001816F000E806F65
:10213800000E7F6F7BC0D9FF7CC0DAFF2D0EDE1842
:10214800D8A402D07F2B26D07BC0D9FF7CC0DAFF71
:102158002B0EDE18D8A420D01DD080C075F081C009
:1021680076F0000E0001786F0A0E776F76EC20F09B
:102178007BC0D9FF7CC0DAFFDF5000017D6F7E6B2A
:1021880075517D2776517E23D00E7D25806FFF0EF9
:102198007E21816F7B4B7C2B7BC0D9FF7CC0DAFF13
:1021A800DF50E2EC20F0D8B0D8D700017F51D8B486
:1021B8000DD080C07DF081C07EF07D1F7E1F7D4BDD
:1021C8007E2B7DC07BF07EC07CF0120080C07BF04F
:1021D80081C07CF01200790E00017C6F000E7D6FCB
:1021E8004ED0250E7E19D8B409D075C0D9FF76C057
:1021F800DAFF7EC0DFFF754B762B41D0000E7B6F78
:102208002ED07CC0D9FF7DC0DAFFDECF7FF0DDCFD6
:1022180080F0020E7C27000E7D237F518011D8A408
:1022280014D0ED0E7F6FFF0E806F0FD07FC0F6FFCA
:1022380080C0F7FF75C0D9FF76C0DAFF0800F5CF78
:10224800DFFF7F4B802B754B762B7FC0F6FF80C05E
:10225800F7FF0800F5500009D8B411D0E7D777C0C8
:10226800F6FF78C0F7FF774B782B0800F5CF7EF0A4
:102278007E51000AD8B40FD0730AD8B4C2D777C039
:10228800F6FF78C0F7FF774B782B0800F5CF7EF084
:102298007E51D8A4A6D775C0D9FF76C0DAFF000E44
:1022A800DF6E12005CD09598959A959C8398839AD6
:1022B800839C1200240E816F000E826F230E836FA1
:1022C800000E846F7E0E856F030E866FEA0E876F91
:1022D800020E886F010E87EC16F000018C6F8C3BA4
:1022E80083508C19EF0B8C19836E220E816F000EB0
:1022F800826F210E836F000E846FD50E856F020EDC
:10230800866FE40E876F020E886F020E87EC16F058
:1023180000018C6F8C3B8C4783508C19DF0B8C1918
:10232800836E200E816F000E826F1F0E836F000E6A
:10233800846F750E856F030E866FDE0E876F020E33
:10234800886F030E87EC16F000018C6F8C3B8C476E
:102358008C4783508C19BF0B8C19836E12000001B7
:10236800D551000AD8B49FD7010AD8A41200A2D721
:10237800080E0001756FB45110E1080EB35DD8B0B6
:102388000CD0B3C075F0D051D8A402D0010E04D03F
:10239800D005D8A402D0020ED06F7551B35F000EDD
:1023A800B45B20EE01F0B551D926B651DA2275C0DA
:1023B800DFFF380E116E040E126EB2A11CD03AD097
:1023C800AFC0F6FFB0C0F7FFF86A11C0D9FF12C05E
:1023D800DAFF0E0EF76403D00800F55005D0F6CFEB
:1023E800E9FFF7CFEAFFEF50DF6E0001AF4BB02BEC
:1023F800114A122A75077551D8B41200E1D7AFC037
:10240800F6FFB0C0F7FFF86A11C0D9FF12C0DAFFB3
:102418000E0EF76403D00800F55005D0F6CFE9FF9B
:10242800F7CFEAFFEF50DF6E0001AF4BB02B114A38
:10243800122A75077551D8B41200E1D700018F6FC1
:102448008CC0D9FF8DC0DAFFDF500001756F20EE18
:1024580001F08C51D9268D51DA22DF50766F8F51D9
:10246800C6EC17F0000120EE02F08C51D9268D51F0
:10247800DA22DE04D8A40ED020EE03F08C51D9263F
:102488008D51DA22DF50756F010E766F8F51B3ECE4
:102498001DF00ED0000120EE03F08C51D9268D518D
:1024A800DA22DF50756F000E766F8F51B3EC1DF096
:1024B800000120EE04F08C51D9268D51DA22DECFAE
:1024C80082F0DDCF83F08CC0D9FF8DC0DAFFDF50FA
:1024D800846F20EE01F08C51D9268D51DA22DF501D
:1024E800856F8F5140EC0EF0000120EE06F08C5104
:1024F800D9268D51DA22DE04D8A412008F5115ECAA
:1025080021F01200DFEC21F075C089F076C08AF066
:1025180077C08BF078C08CF000017951895D7A51D1
:102528008A597B518B597C518C59D8A01DD079C0C0
:102538007DF07AC07EF07BC07FF07CC080F07D1F8C
:102548007E1F7F1F801F7D2B000E7E237F2380230D
:1025580089517D25856F8A517E21866F8B517F2118
:10256800876F8C51802128D079C07DF07AC07EF0A9
:102578007BC07FF07CC080F07D1F7E1F7F1F801F87
:102588007D2B000E7E237F23802389517D25816F3B
:102598008A517E21826F8B517F21836F8C518021DC
:1025A800846FFF0E8125856FFF0E8221866FFF0ED7
:1025B8008321876FFF0E8421886F85C079F086C0DC
:1025C8007AF087C07BF088C07CF012007BC075F081
:1025D8007CC076F0000E0001786F0B0E776F76ECFA
:1025E80020F0000E00017525D96E050E7621DA6EF1
:1025F800010EDF6E7BC075F07CC076F0000E786F40
:102608000B0E776F76EC20F0010E00017527000E97
:102618007623000E7525D96E050E7621DA6EDE6AF0
:10262800DE6ADE6ADD6A7BC075F07CC076F0000E7B
:10263800786F0B0E776F76EC20F0050E000175278A
:10264800000E7623000E7525D96E050E7621DA6EFA
:102658007DC0DEFF7EC0DEFF7FC0DEFF80C0DEFF04
:102668007BC075F07CC076F0000E786F0B0E776F2C
:1026780076EC20F0090E00017527000E7623000E77
:102688007525D96E050E7621DA6E81C0DEFF82C00F
:10269800DDFF12000A0EF66E3D0EF76E000EF86EA4
:1026A80003EE8FF010EE43F00900F5CFEEFFE55092
:1026B800E150FAE1750EF66E440EF76E000EF86EF4
:1026C8000900F5CFFEF2740EF66E440EF76E000E9A
:1026D800F86E0900F5CFE2F007EEC8F011EE90F0C1
:1026E800EE6AE550E150FCE1E250FAE106EE00F056
:1026F800500EEE6AE806FDE105EE00F0DC0EEE6A2B
:10270800E806FDE103EE00F08F0EEE6AE806FDE153
:1027180002EEC8F0360EEE6AE806FDE101EE00F0C2
:10272800380EEE6AE806FDE104EE40F0B20EEE6AFD
:10273800E806FDE100EEAFF0330EEE6AE806FDE1D3
:1027480000EE01F0250EEE6AE806FDE14A904A9295
:10275800000EF86E000107EF22F00001C851D8A45E
:102768001200010EC86FC751D8A41200010EC76F1E
:10277800020ECF19D8A415D020EE01F0B551D926F4
:10278800B651DA22000EDF6EB5C0D9FFB6C0DAFF47
:10279800480EDF6EB5C0D9FFB6C0DAFF000EDB8E7B
:1027A8001200CF05D8A41200000ECB6F20EE01F066
:1027B800BF51D926C051DA22080EDF6E20EE02F092
:1027C800BF51D926C051DA22300EDE6E040EDD6EFE
:1027D800BFC0D9FFC0C0DAFF040EDF6EBFC0D9FF8B
:1027E800C0C0DAFF000EDB8E010ECB6F20EE01F0C9
:1027F800BD51D926BE51DA22080EDF6E20EE02F056
:10280800BD51D926BE51DA22300EDE6E040EDD6EC1
:10281800BDC0D9FFBEC0DAFF800EDF6E1200B5C0A2
:10282800D9FFB6C0DAFF0001000EDFBC010E766FDB
:10283800040EB51B080ED119D8A40DD004013251CD
:102848007F0B0F01386F3851D8B402D0100E01D069
:10285800040E0001D16FCF05D8A43BD020EE02F0C2
:10286800B551D926B651DA22380EDE6E040EDD6E69
:10287800BCEC11F0020E0001D019D8A40DD0B5C0DF
:10288800D9FFB6C0DAFF040EDF6EB5C0D9FFB6C0F7
:10289800DAFF000EDB8E12007651D8A40DD0B5C039
:1028A800D9FFB6C0DAFF480EDF6EB5C0D9FFB6C093
:1028B800DAFF000EDB8E1200B5C0D9FFB6C0DAFF12
:1028C800080EDF6EB5C0D9FFB6C0DAFF000EDB8E8A
:1028D800120004BE049E000ECF6F12000001796F33
:1028E80000017551D8B407D07951020DB50EF32403
:1028F800D96E000E06D07951020D000EF324D96E60
:10290800010EF420DA6EDECF7AF0DDCF7BF07A515B
:102918007B11D8A405D0000E756F000E766F1200DB
:1029280020EE02F07A51D9267B51DA2276C0DEFFFA
:1029380077C0DDFF20EE01F07A51D9267B51DA22EB
:1029480078C0DFFF7AC0D9FF7BC0DAFF400EDF1600
:102958007AC0D9FF7BC0DAFF000EDB867AC0D9FFC8
:102968007BC0DAFF000EDB8E7551D8B407D07951E1
:10297800020DB50EF324D96E000E06D07951020D62
:10298800000EF324D96E010EF420DA6E040EDF1A5D
:102998007AC075F07BC076F0120048D0E10E0001D5
:1029A800756F000E766F1FEC20F00009D8B406D0C2
:1029B800010E0001D36F010ED46F1200E00E00016A
:1029C800756F000E766F1FEC20F00009D8B406D0A2
:1029D800020E0001D36F020ED46F1200000E000128
:1029E800D46F12002B0E766F010E776F0CEC08F087
:1029F8000009D8B41200030E0001D36F1200F00EC4
:102A0800786F020E796FC8EC08F00009D8B412008C
:102A1800040E0001D36F1200000ED36F000ED46FA6
:102A28001200000ED36F000ED46F12000001D351B4
:102A3800000AD8B4B3D7010AD8B4D4D7030AD8B493
:102A4800DED7010AD8B4E8D7070AD8A41200E9D714
:102A5800000E0401386F000E396F3DD00001B28FAF
:102A68000001CE05D8A442D0040138833FD000012C
:102A7800B28F3CD00001B28F040134BF0BD0345167
:102A88000F0B0001756F7551020D000EF324D96EFE
:102A9800010E0BD0040134510F0B0001756F7551F5
:102AA800020DB50EF324D96E000EF420DA6EDECFD7
:102AB80076F0DDCF77F076C0D9FF77C0DAFFDFAEEA
:102AC80015D076C0D9FF77C0DAFFDFA40FD0010E8A
:102AD8000401386F0BD030511F0B000AD8B4BED791
:102AE800010AD8B4C4D7030AD8B4C4D70001B2AF16
:102AF8001200380EAF6F040EB06FB281020EB36FC2
:102B08001200040130511F0BE806D8A41200303916
:102B1800E832030BE806D8A412003451D8B436D0F2
:102B28003405D8A4120032D0870E0001AF6F030E0F
:102B3800B06F000EB46F080EB36FB281B28F12007F
:102B4800870E0001AF6F030EB06FB28F120036C44C
:102B580005F037C406F0240E016E010E026E000E59
:102B6800076E000E086E048E1200240E0001AF6F6F
:102B7800010EB06F000EB46F070EB36FC10EB26FC7
:102B8800120032C417F00001B28F12000401315153
:102B9800000AD8B4C9D7010AD8B4D2D7210AD8B400
:102BA800D6D7010AD8B4E1D7030AD8A41200E9D7C6
:102BB800FACF26F0FBCF27F0E9CF28F0EACF29F0AB
:102BC800E1CF2AF0E2CF2BF0D9CF2CF0DACF2DF0DD
:102BD800F3CF2EF0F4CF2FF0F6CF30F0F7CF31F05F
:102BE800F8CF32F0F5CF33F04AC034F04BC035F0AF
:102BF8004CC036F04DC037F0F2B238EC22F0F0B0ED
:102C080036EC22F0A4B034EC22F09EBA29EC22F083
:102C180037C04DF036C04CF035C04BF034C04AF0E8
:102C280033C0F5FF32C0F8FF31C0F7FF30C0F6FF00
:102C38002FC0F4FF2EC0F3FF2DC0DAFF2CC0D9FF40
:102C48002BC0E2FF2AC0E1FF29C0EAFF28C0E9FF44
:102C580027C0FBFF26C0FAFF4A9211007EC082F00F
:102C68007FC083F082C075F083C076F080C077F0B3
:102C780081C078F062EC1DF075C082F076C083F0F8
:102C880000017C4B7D2B82518311D8A4EBD77CC0EB
:102C9800D9FF7DC0DAFF000EDF6E7C07D8A07D0764
:102CA8007EC075F07FC076F080C077F081C078F084
:102CB80063EC1EF000017551846F7EC075F07FC013
:102CC80076F080C077F081C078F062EC1DF075C0B6
:102CD8007EF076C07FF0090E0001846502D0070EF1
:102CE8008427300E84277CC0D9FF7DC0DAFF84C0DA
:102CF800DFFF7C07D8A07D077E517F11D8A4D0D7ED
:102D08007C4B7D2B120000018B6F000E00018A6F37
:102D180037D0000E8A6F83C0D9FF84C0DAFF000E57
:102D280007D0010E8A6F83C0D9FF84C0DAFF010E75
:102D3800DF6E3AD083C0D9FF84C0DAFFDE04D8A49E
:102D480006D0000E756F8B51F0EC1FF02DD0010EE0
:102D58000001756F8B51F0EC1FF026D085C07CF018
:102D680086C07DF0CFEC0AF008D087C07CF088C020
:102D78007DF08BC07EF0B7EC0EF000018A6F14D0A6
:102D880081C0D9FF82C0DAFFDF50000AD8B4C1D7AA
:102D9800010AD8B4C6D7030AD8B4CCD7010AD8B424
:102DA800DDD7070AD8B4E1D700018A51120076C0EE
:102DB800D9FF77C0DAFFDF500001786F784778478E
:102DC8000F013F5100017819FB0B78190F013F6F74
:102DD800000120EE01F07651D9267751DA22DF5032
:102DE800786F010E781778470F013C510001781968
:102DF800FD0B78190F013C6F000120EE01F07651B0
:102E0800D9267751DA22DF50786FD8907833010EBF
:102E18007817784778470F013C5100017819FB0B68
:102E280078190F013C6F000120EE02F07651D92687
:102E38007751DA22DE04D8A4120020EE03F076518E
:102E4800D9267751DA22DF50B6EC21F01200000EB5
:102E58000001C66F000EC56F020ECF19D8A41FD08F
:102E680020EE01F0BD51D926BE51DA22080EDF6EE0
:102E780020EE02F0BD51D926BE51DA22380EDE6EA0
:102E8800040EDD6EBDC0D9FFBEC0DAFF480EDF6E8E
:102E9800BDC0D9FFBEC0DAFF000EDB8E1200B351F1
:102EA8000401365D0001B45104013759D8B004D08B
:102EB80036C4B3F037C4B4F0BCEC11F0000120EE16
:102EC80002F0B551D926B651DA22380EDE6E040E5C
:102ED800DD6EB5C0D9FFB6C0DAFF480EDF6EB5C0EB
:102EE800D9FFB6C0DAFF000EDB8E120000017A6F40
:102EF800000E00017B6F040E7C6F7551766F776B47
:102F0800D890763777377A51786F796BD890783749
:102F18007937D89078377937765178277751792368
:102F2800D89078377937D8907837793778517B27A0
:102F380079517C237BC0D9FF7CC0DAFFDF9E7551B5
:102F4800D8A407D07A51020D000EF324D96E010ED1
:102F580006D07A51020DB50EF324D96E000EF42076
:102F6800DA6E7BC0DEFF7CC0DDFF7BC0D9FF7CC092
:102F7800DAFFDF9C20EE04F07B51D9267C51DA225F
:102F8800DF8C12000001786F3FD0CA9001D0CA8050
:102F9800CA920ED0CA80CA820BD000017551010AAC
:102FA800D8B4F3D7050AD8B4F2D7140AD8B4F2D7EC
:102FB80076C077F0FF0E7727774777477747CA506D
:102FC8007719870B7719CA6E1200769001D0768030
:102FD80076920DD0768076820AD07551010AD8B4DF
:102FE800F4D7050AD8B4F3D7140AD8B4F3D776C0FF
:102FF80077F0FF0E77277747774777477650771927
:10300800870B7719766E120000017851020AD8B43E
:10301800C4D7060AD8A41200E0D7000E0001C36F77
:10302800BB51BC11D8B406D0BBC0D9FFBCC0DAFFB5
:10303800DFBE3BD020EE01F0BB51D926BC51DA22CD
:103048007E51DE5CD8B008D020EE01F0BB51D92605
:10305800BC51DA22DF507E6F000EC36F13D0C3510C
:10306800010D400EF324D96E040EF420DA6EC3511C
:10307800010DF3507C25E16EF4507D21E26EDFCF27
:10308800E7FFC32B7E51C35DD8A0E9D7000E756F4B
:10309800400E766F040E776F400E786F020E72EC5A
:1030A80014F075C0BBF076C0BCF00001C35112002B
:1030B8002D0E0001CA6FDEC08FF0FD0E8F17D8A449
:1030C80038D0DEC08FF0D8908F333F0E8F178F51D6
:1030D800040D000EF324BF6F040EF420C06FBFC0B0
:1030E800BDF0C0C0BEF0040EBD1BBFC0D9FFC0C03C
:1030F800DAFFDF30E8320F0B0D0AD8A417D0300EF4
:10310800756F040E766F20EE02F0BF51D926C051BC
:10311800DA22DECF77F0DDCF78F0000E7A6F080E76
:10312800796FD9EC1DF07FEC19F01200D0EC1BF090
:1031380012000001DE51FD0B040AD8A4120013ECA2
:1031480014F012000001766F2DD00F013F833F81EC
:103158001CD00F013F831ED00F013F8321D078C0C0
:1031680075F00F0E0001751778390F0B0F0B0A0D4C
:10317800F3507525776F2DD00F013F933F8199CF7D
:1031880077F027D00F013F93E2D798CF78F0E7D7B1
:103198000F013F933F9199CF78F0E1D70F013F930B
:1031A8003F91F3D700017651000AD8B4CED7010A6F
:1031B800D8B4CFD7030AD8B4CFD7010AD8B4DCD74C
:1031C800070AD8B4DFD7010AD8B4E2D7030AD8B4BB
:1031D800E5D70001775112008DC0D9FF8EC0DAFF04
:1031E800DE04D8A430D0000120EE06F08D51D92697
:1031F8008E51DA2210EE02F08D51E1268E51E22234
:10320800E6CF79F0E6CF7AF0E6CF7BF0E6CF7CF038
:1032180086EC12F0DE500001795DDE507A59DE50FE
:103228007B59DE507C59D8A017D08DC0D9FF8EC0ED
:10323800DAFF000EDF6E20EE01F08D51D9268E5197
:10324800DA22010E08D0000120EE01F08D51D926B6
:103258008E51DA22020EDF6E20EE01F08D51D92652
:103268008E51DA22DF5012003DD0CD86000E0101CA
:10327800346F000E356F010E366F010E376F010E79
:10328800306F010E316F010E326F000E336FE8ECB4
:1032980021F0340E0001766F010E776FDBEC16F02B
:1032A800300E0001756F010E766F32EC1BF0010EC7
:1032B800ABEC21F0F0EC21F023EE14F000EE81F0FD
:1032C800070EDBCFEBFFE806FCE20EEC1DF0120068
:1032D8009DEC1BF023EE14F0070EEBCFDBFFE806A6
:1032E800FCE212000001D551000AD8B4BED7010A89
:1032F800D8A41200EDD7000E0001D06F000EC96FE0
:10330800000EC66F000EC56F000ECB6F000ECF6F9C
:10331800B5C0D9FFB6C0DAFF7F0EDF16040EB51BA5
:10332800B5C0D9FFB6C0DAFF7F0EDF16040EB51B95
:10333800BDC0D9FFBEC0DAFF7F0EDF16000EB26F28
:10334800000EB46F000EB36F000E046E000E066E12
:10335800000E056E11EC10F0000E0001826F030ED6
:10336800816F000E836F000E846F000E866F000E53
:10337800856F00EC1CF0C3EC0DF01200000E00018C
:103388007A6F78AF06D0776D781FD8B0782B010E9A
:103398007A6F76AF06D0756D761FD8B0762B010E92
:1033A8007A1B000E7C6F000E7B6F77517811D8B4B2
:1033B8001CD0010E796F04D0D89077377837792BE5
:1033C80078AFFAD7D8907B377C377751755D7851CD
:1033D8007659D8A005D07751755F7851765B7B8197
:1033E800D89078337733792FEDD77A51D8B404D081
:1033F8007B6D7C1FD8B07C2B7BC075F07CC076F0D1
:103408001200000E00017D6F000E7E6F000E7F6FB0
:10341800000E806F79517A117B117C11D8B42AD0B3
:10342800010E816F06D0D89079377A377B377C3791
:10343800812B7CAFF8D7D8907D377E377F378037A0
:103448007951755D7A5176597B5177597C51785904
:10345800D8A009D07951755F7A51765B7B51775B3B
:103468007C51785B7D81D8907C337B337A33793398
:10347800812FE1D77DC075F07EC076F07FC077F0F0
:1034880080C078F01200000E0001996F2DD093C013
:1034980079F094C07AF095C07BF096C07CF097C024
:1034A8007DF098C07EF02FEC1CF0000120EE0AF0B1
:1034B8009351D9269451DA22010EDF6E22D093C09F
:1034C8008DF094C08EF0F0EC18F0E806D8A419D06E
:1034D800000120EE0AF09351D9269451DA22000E09
:1034E800DF6E010E996F0DD020EE0AF09351D926A8
:1034F8009451DA22DF50000AD8B4C9D7010AD8B4E7
:10350800DED7000199511200000E00017A6F76AFE4
:1035180006D0756D761FD8B0762B010E7A6F78AF0E
:1035280004D0776D781FD8B0782B77517811D8B43C
:1035380018D0010E796F04D0D89077377837792B67
:1035480078AFFAD77751755D78517659D8A004D0FD
:103558007751755F7851765BD89078337733792FC8
:10356800F1D77A51D8B404D0756D761FD8B0762BC0
:1035780075C075F076C076F01200958295808EC081
:10358800D9FF8FC0DAFFDECF82F0DECF83F0DECF47
:1035980084F0DECF85F0000120EE04F08E51D926AC
:1035A8008F51DA22DECF86F0DECF87F0DECF88F0CB
:1035B800DECF89F08CEC1DF0000120EE08F08E5172
:1035C800D9268F51DA22DF50721220EE09F08E517F
:1035D800D9268F51DA22DF50906F050E916FD8905F
:1035E8009037912FFCD7905172121200000E0001F3
:1035F800AC6F000EAC6F670EF66EFD0EF76EAC5139
:10360800AA6FAB6B0900F550AA5D0900F550AB59DC
:10361800D8B01200AC51080D8F0EF324D96E030EEA
:10362800F420DA6E01D817D00500FA6EDE50FD6E70
:10363800DE50FE6EF850FF6EFA50AC51080D070EC2
:10364800F326000EF4228F0EF324D96E030EF42015
:10365800DA6EDF5012000001AC2BCDD775C0D9FF50
:1036680076C0DAFFDF500001776F773377339150F8
:1036780077197F0B7719916E20EE01F07551D926D5
:103688007651DA22DF50776F773B7747774791504B
:103698007719BF0B7719916E20EE02F07551D92674
:1036A8007651DA22DF50776F77477747915077194D
:1036B800C30B7719916E20EE03F07551D926765118
:1036C800DA22DF50906E1200800E0101246F250E61
:1036D800256F000E266F000E276F000E286F000E54
:1036E800296F080E2A6F000E0001C36F1A0E7D6F36
:1036F800010E1FEC1EF01E0E00017D6F020E1FEC66
:103708001EF0000E0001756F400E766F040E776F85
:10371800400E786F020E72EC14F075C0BBF076C0E4
:10372800BCF0000E0F6E000E106E000E0001C26F8E
:103738001200000EA6EC18F00001816FD00E812552
:10374800826F836B070E8323010EA6EC18F000012D
:10375800846F020EA6EC18F00001856F030EA6EC2C
:1037680018F00001866F040EA6EC18F00001876FB0
:10377800050EA6EC18F00001886F060EA6EC18F0EE
:103788000001896F20EE82F000EE79F0070EDBCFA2
:10379800EBFFE806FCE21200020E0001CF19D8A4E4
:1037A80003D03CEC0DF01200000E0001CF6FCB519E
:1037B800D8A41FD020EE01F0BD51D926BE51DA227F
:1037C800080EDF6E20EE02F0BD51D926BE51DA2276
:1037D800300EDE6E040EDD6EBDC0D9FFBEC0DAFF4E
:1037E8000C0EDF6EBDC0D9FFBEC0DAFF000EDB8E47
:1037F8001200000ECB6F120006D068EC1BF012000E
:1038080085EC15F0120081C087F082C088F00001B5
:103818008851000AD8B404D07F0AD8A4120018D05E
:103828008751010AD8B4E9D7030AD8B41200010AAB
:10383800D8B4E6D7060AD8B41200770AD8B412006A
:10384800010AD8B41200070AD8B41200010A1200FB
:103858008751FF0A1200000120EE01F07951D926A4
:103868007A51DA22000EDF6EDFEC21F0000120EE43
:1038780002F07951D9267A51DA2275C0DEFF76C076
:10388800DEFF77C0DEFF78C0DEFF20EE06F079515C
:10389800D9267A51DA227BC0DEFF7CC0DEFF7DC0EC
:1038A800DEFF7EC0DEFF79C0D9FF7AC0DAFF010EE5
:1038B800DF6E120075C079F076C07AF003D000018F
:1038C800794B7A2B79C0D9FF7AC0DAFFDF50D8B4A8
:1038D80006D0F5D70001794B7A2B774B782B77C038
:1038E800F6FF78C0F7FFF86A79C0D9FF7AC0DAFF27
:1038F8000E0EF76403D00800F55005D0F6CFE9FFA7
:10390800F7CFEAFFEF50DF6EDF50D8B41200E2D7EE
:10391800000E00017D6F000E7E6F000E7F6F000E9F
:10392800806F75A108D079517D277A517E237B510C
:103938007F237C518023D89079377A377B377C373F
:10394800D89078337733763375337551761177118C
:103958007811D8A4E6D77DC075F07EC076F07FC018
:1039680077F080C078F01200386E38500B0D000EDA
:10397800F324D96E050EF420DA6E000EDF6E38508F
:103988000B0D010EF326000EF422000EF324D96E5F
:10399800050EF420DA6EDE6ADE6ADE6ADD6A385009
:1039A8000B0D050EF326000EF422000EF324D96E3B
:1039B800050EF420DA6EDE6ADE6ADE6ADD6A12005F
:1039C80020D036EC20F01A0E00018E6F010E8F6F9A
:1039D800C1EC1AF0000E00017C6F000E7B6F320EF6
:1039E8007D6F000E7E6F000E7F6F000E806FF40EED
:1039F800816F420E826FEAEC12F01200D1EC14F0E3
:103A080012000001D551000AD8B4DBD7010AD8A4A6
:103A18001200F4D7E8EC21F000018151300F7D6FDE
:103A2800000E49EC05F083C07DF0010E49EC05F06D
:103A380084C07DF0020E49EC05F085C07DF0030ED0
:103A480049EC05F086C07DF0040E49EC05F087C00E
:103A58007DF0050E49EC05F088C07DF0060E49ECB6
:103A680005F0F0EC21F012000001796F1BD075C051
:103A780082F376C083F377C084F378C085F31200AD
:103A880075C0D9F276C0DAF277C0DBF278C0DCF222
:103A9800120075C0D9F276C0DAF277C0DBF278C0CE
:103AA800DCF2120000017951010AD8B4E0D7030A08
:103AB800D8B4E6D7010AD8A41200EBD7000E00014B
:103AC8007B6F000E7A6F77517811D8B41CD0010E35
:103AD800796F04D0D89077377837792B78AFFAD7C1
:103AE800D8907A377B377751755D78517659D8A059
:103AF80005D07751755F7851765B7A81D8907833A5
:103B08007733792FEDD77AC075F07BC076F0120045
:103B180086C075F087C076F088C077F089C078F0E5
:103B280082C08AF083C08BF084C08CF085C08DF091
:103B3800020ED89000018A378B378C378D37E82EE4
:103B4800F8D78AC079F08BC07AF08CC07BF08DC032
:103B58007CF005EC1AF000017505746E1200000186
:103B6800776F1AD09E9275B102D09F9201D09F8232
:103B7800000176B102D09D9201D09D821200A496D8
:103B880075B102D0A59601D0A586000176B102D004
:103B9800A39601D0A386120000017751020AD8B477
:103BA800E1D7060AD8A41200EAD777C07DF078C01A
:103BB8007EF075C07BF076C07CF011D07DC0D9FF57
:103BC8007EC0DAFFDF5000017F6F7D4B7E2B7BC00C
:103BD800D9FF7CC0DAFF7FC0DFFF7B4B7C2B000165
:103BE8007907D8A07A077929E9E17A29D8B41200A7
:103BF800E5D70F0126A11DD0BFC0D9FFC0C0DAFF8D
:103C0800800EDE18D8A414D0B5C0D9FFB6C0DAFF2C
:103C1800840EDE18D8A40CD0BFC0D9FFC0C0DAFF0C
:103C28000C0EDF6EBFC0D9FFC0C0DAFF000EDB8EFE
:103C38002691629A12000001806F00017DA505D0CF
:103C4800000E756F80517AEC17F000017DA305D046
:103C5800010E756F80517AEC17F000018051010D4B
:103C6800260EF3247E6F0F0EF4207F6F7EC0D9FFDF
:103C78007FC0DAFF7DC0DFFF120085C08BF086C0F1
:103C88008CF0000188AF0CD085C0D9FF86C0DAFF60
:103C98002D0EDF6E854B862B876D881FD8B0882B3D
:103CA80085C07CF086C07DF087C07EF088C07FF03C
:103CB80089C080F08AC081F032EC16F01200000151
:103CC80077517811D8B418D0010E796F04D0D890F4
:103CD80077377837792B78AFFAD77751755D785180
:103CE8007659D8A004D07751755F7851765BD89013
:103CF80078337733792FF1D775C075F076C076F0C1
:103D08001200C8390000000100003A41000000011B
:103D180000005E41000000640000AC220000003298
:103D280000007032000000640000DA420000000168
:103D38000000B83E00000032000001010000000051
:053D4800000000000076
:103D4E00000E00017C6F020ED419D8B416D07AC0C2
:103D5E00F0F2010E0201F16F7BC0F4F278C0F2F2C4
:103D6E0079C0F3F2E00E0001756F000E766F9FECD6
:103D7E0021F0010E00017C6F1200000E7C6F12000C
:103D8E0075C079F076C07AF003D00001794B7A2BAA
:103D9E0079C0D9FF7AC0DAFFDF50D8A4F6D775C044
:103DAE0077F076C078F00001771F781F774B782B6D
:103DBE0079517725756F7A517821766F1200000E42
:103DCE0000017C6FD405D8B416D07AC02BF1000E4A
:103DDE0001012C6F7BC02FF178C02DF179C02EF12F
:103DEE00E10E0001756F000E766F9FEC21F0010E53
:103DFE0000017C6F1200000E7C6F120000017A6FC2
:103E0E00010E0001796F670E7A6103D0610E7A613F
:103E1E000ED0470E7A6103D0410E7A6108D07A51E6
:103E2E00E2EC20F0D8B003D0000E0001796F79C01B
:103E3E0078F0000178311200000E3F6E0001D405BB
:103E4E00D8B414D03DC02BF1000E01012C6F3EC032
:103E5E002FF13BC02DF13CC02EF1E10E386E000E5D
:103E6E00396EC1EC21F0010E3F6E1200000E3F6E56
:103E7E001200000E0001CD6F000E826F740E816F66
:103E8E00000E836F000E846F000E866F000E856F1E
:103E9E0000EC1CF065920F01369501D0629462B46D
:103EAE00FDD7000E0001C46F120013D0000E0001EA
:103EBE00766F640E756F030E786F840E776F010E3A
:103ECE0038EC1DF0030E0001756F010EF0EC1FF0C3
:103EDE0012000001D551000AD8B4E8D7010A120029
:103EEE0075C079F076C07AF005D00001794B7A2B47
:103EFE00774B782B77C0F6FF78C0F7FF79C0D9FFE4
:103F0E007AC0DAFF0800F5CFDFFFDF50D8B4120019
:103F1E00ECD726EC22F025EC21F0010E0001756F96
:103F2E00010E766F010E4CEC20F0000E0001756F45
:103F3E00440E766F0DEC22F008EC20F060EC21F0D0
:103F4E0012000F01368562986582010E0001CD6F59
:103F5E00000EC46F000E826F750E816F000E836FA0
:103F6E00000E846F000E866F000E856F00EC1CF045
:103F7E00120075C07BF076C07CF009D07BC0D9FFF3
:103F8E007CC0DAFF77C0DFFF00017B4B7C2B00018A
:103F9E007907D8A07A077929F1E17A29D8B41200E5
:103FAE00EDD700017A6F010E0001796F7B0E7A61F9
:103FBE0003D0610E7A6108D07A51D1EC20F0D8B0DE
:103FCE0003D0000E0001796F79C078F000017831CE
:103FDE0012000001766F09D075C024F0120075C072
:103FEE0022F0120075C020F0120000017651010A75
:103FFE00D8B4F2D7030AD8B4F2D7010AD8A4120063
:10400E00F1D7040E0001906F0C0E916F000E936F9E
:10401E00010E926F030E956FE80E946F010E966F60
:10402E00900E8C6F000E8D6F020E22EC12F01200AD
:10403E00000E0001786F75C0D9FF76C0DAFF020E50
:10404E00DE18D8A408D075C0D9FF76C0DAFF010EED
:10405E00DF6E010E01D0000E786F78511200800EC7
:10406E0001011A6F1A0E1B6F060E1C6F000E1D6FCC
:10407E00000E1E6F6C0E1F6FDC0E206F020E216F76
:10408E00080E226F010E236F12000001776F0001E0
:10409E0077B102D0D09E01D0D08E000175B102D082
:1040AE00F29E01D0F28E000176B102D0F29C01D0C8
:1040BE00F28C12000001776F010E0001766F200E58
:1040CE007719D8B408D00E0E776103D0090E776138
:1040DE0002D0000E766F76C075F0753112000001B9
:1040EE0075517703F3CF79F0F4CF7AF075517803E9
:1040FE00F3507A2776517703F3507A2779C075F00B
:10410E007AC076F0120038503A02F3CF3CF0F4CF7A
:10411E003DF038503B02F3503D2639503A02F350F1
:10412E003D263CC038F03DC039F0120008D029ECD5
:10413E000AF012004BEC07F073EC0BF012000001CA
:10414E00D551000AD8B4F3D7010AD8A41200F2D779
:10415E0007D0010ED6EC21F012002CEC22F012004A
:10416E000001D551000AD8B4F4D7010AD8A4120020
:10417E00F4D7010E0201CC27000ECD23CE23CF2380
:10418E000001CD51D8A41200C42BC451D8A41200E2
:10419E00C46912000001776F000E0001766F5B0E8E
:1041AE00776105D0400E776502D0010E766F76C02E
:1041BE0075F0753112000001776F000E0001766FF9
:1041CE003A0E776105D02F0E776502D0010E766F0D
:1041DE0076C075F075311200F50E0001756F020E86
:1041EE00766F1FEC20F00009D8B402D0010E01D07A
:1041FE00000E0001796F795112009E921550161023
:10420E00D8B4120001D812000500FA6E1550FD6EDA
:10421E001650FE6EF850FF6EFA5012000001756FC8
:10422E0004D0CA8412007684120000017551020A6D
:10423E00D8B4F7D7060AD8A41200F5D7030E00019A
:10424E00766FE80E756F9B8C7507D8A0760775296B
:10425E00FBE17629D8B41200F7D70001C251D8A4D9
:10426E0012007BC00DF17CC00EF17DC0C1F0010EBD
:10427E00186E010EC26F12000101104B112B10515E
:10428E001111D8B41200000E116F000E106F000E37
:10429E000001E26F1200FAEC1AF0010E0001D56F68
:1042AE00E251D8A4FDD7ABEC0CF0010E0001E26F89
:1042BE00F7D7938095860F014989140E0E01E76F8B
:1042CE00F288F086F08CF19CF19A120003D0B0ECDB
:1042DE0002F012000001D551000AD8B41200010AF2
:1042EE00D8A41200F4D7250E3B6E000E3C6E000EC5
:1042FE003D6E010E3E6E23EC1FF0010E1A6E120083
:10430E000001756F5B0E0001756104D0400E75657E
:10431E0001D0758B755112000001756F7B0E000177
:10432E00756104D0600E756501D0759B75511200D4
:10433E00000E0001776F75C0D9FF76C0DAFF020E4E
:10434E00DF6E020E776F12000001756F000175B1FE
:10435E0003D00F013F9F02D00F013F8F12000001CB
:10436E00756FA490000175B102D0A59001D0A58003
:10437E00A3801200000E3A6E38C0D9FF39C0DAFFA2
:10438E00020EDF6E020E3A6E12000001756F000112
:10439E0075B102D0719A01D0718A71881200000134
:1043AE00756F000175B102D0C09001D0C0801200AF
:1043BE0006C175F007C176F008C177F009C178F033
:1043CE0012000F01550EA76EAA0EA76E0F013F8B9E
:1043DE0012000F01550EA76EAA0EA76E0F013F9B7E
:1043EE001200010E01010627000E072308230923E0
:1043FE00120043EC21F0F8EC21F07EEC09F01200F3
:10440E0090EC1FF052EC21F066EF00F075C015F045
:10441E0076C016F012000001756F75C075FF1200A0
:10442E0075CF75F00001755112007340E8423F0BD5
:10443E00010B12007144E846030B010B12000F0131
:10444E004C911200AFCF1BF01200040012007184C9
:10445E0012007180120071861200A4901200F0906A
:08446E001200F292120001019C
:10FD5E00008EFF47FF21FFDEFE0700486F73742001
:10FD6E006D65737361676520666F726D61743A209D
:10FD7E000D0A5B6F705F747970655D3A5B6F705DD5
:10FD8E003A5B6C656E5D3A5B616464725D3A5B70A2
:10FD9E0061796C6F61645D0D0A0D0A5B6F705F7443
:10FDAE007970655D203D20534F2C53420D0A5B6FD9
:10FDBE00705D203D20523A20726561642C573A20C6
:10FDCE0077726974650D0A5B6C656E5D203D20323D
:10FDDE0020627974652041534349490D0A5B616481
:10FDEE0064725D203D203220627974652041534358
:10FDFE0049490D0A5B7061796C6F61645D203D202D
:10FE0E006D61782032302062797465204153434908
:10FE1E00490D0A0D0A5465726D696E616C204D6F45
:10FE2E0064653A20434F4D4D414E44204D4F44455D
:10FE3E000D0A4D6F64656D20547970653A204E6FD2
:10FE4E006E650D0A0D0A002A2A2A2A2A2A2A2A2A29
:10FE5E002A2A2A2A2A2A2A2A2A2A2A2A2A2A2A2AF4
:10FE6E002A2A2A2A2A2A2A2A2A2A2A2A2A2A2A2AE4
:10FE7E002A2A2A2A2A2A2A2A0D0A2020202020204D
:10FE8E002020202020202020202020204D455243BD
:10FE9E005552592053595354454D0D0A2A2A2A2A90
:10FEAE002A2A2A2A2A2A2A2A2A2A2A2A2A2A2A2AA4
:10FEBE002A2A2A2A2A2A2A2A2A2A2A2A2A2A2A2A94
:10FECE002A2A2A2A2A2A2A2A2A2A2A2A2A0D0A00EB
:10FEDE0009024300020100C03209040000010202BF
:10FEEE00010005240010010424020205240600016D
:10FEFE000524010001070581030800020904010021
:10FF0E00020A0000000705020240000007058202F7
:10FF1E0040000026035400650072006D0069006EFB
:10FF2E000061006C00200049006E007400650072D4
:10FF3E000066006100630065001E034D00650072DF
:10FF4E000063007500720079002000530079007381
:10FF5E0000740065006D000D0A53797374656D2091
:10FF6E0052656164792E2E2E200D0A0D0A001201A3
:10FF7E00000202000008D8040A000001010200017C
:10FF8E0004030904204C617A7920646576696365FF
:10FF9E002E2E2E796F75277665206265656E20741C
:10FFAE00696D65642D6F75742121210D0A004672ED
:10FFBE00616D65776F726B2056657273696F6E3AFD
:10FFCE0020004275696C6420446174653A20257383
:10FFDE000D0A004D61722032372032303230002847
:09FFEE006E756C6C29002E0000F8
:08FFF800ACF7DDFBF3F9FFF1AA
:00000001FF
